:020000040800F2
:1000000040050020050100084B17000843170008B1
:1000100047170008DD0A0008AD3A0008000000009C
:10002000000000000000000000000000E51A0008C9
:10003000BF13000800000000D1170008D11B000802
:100040001F0100081F0100081F0100081F01000810
:100050001F0100081F010008C113000889140008CF
:10006000B91400081F0100081F01000895100008BE
:100070001F0100081F0100081F0100081F010008E0
:100080001F0100081F0100081F0100081F010008D0
:10009000FD3600081F0100081F0100081F010008AD
:1000A0001F0100081F0100081F0100081F010008B0
:1000B0001F010008E51C00086D1F00081F01000853
:1000C0001F0100081F0100081F0100081F01000890
:1000D0001F0100081F0100081F0100081F01000880
:1000E0001F0100081F0100081F010008DFF810D0E1
:1000F00000F00CFC00480047D13A0008AFF3008044
:10010000400500200648804706480047FEE7FEE716
:10011000FEE7FEE7FEE7FEE7FEE7FEE7FEE7FEE7B7
:10012000851C0008ED00000840EA01039B0703D08E
:1001300009E008C9121F08C0042AFAD203E011F826
:10014000013B00F8013B521EF9D27047F0B480EA3F
:100150000102D40F4200B2EB410F02D20246084620
:1001600011464A0042D0C30DDDB2C1F3C752AD1AE9
:10017000202D35DAC1F3160141F4000204B15242D8
:10018000C5F1200602FA06F12A411044B3EBD05F14
:1001900023D0C4B1012DA0EBC35009DCF0BC4FF05B
:1001A000004202EAC352DBB200F5000000F022BBBD
:1001B000400000F1807000EBC350A0F1807040EA75
:1001C000D170490009E0490841EAC071A0EBC35071
:1001D00000F50000400800EBC350F0BC00F001BB8C
:1001E0006142012202EB4101001BF6E7F0BC7047BF
:1001F00081F00041AAE780F00040A7E780EA010211
:1002000010B502F00043400022D04A001FD0010E7A
:1002100001EB1261C0F35600C2F3560240F4000035
:1002200042F40002A0FB022000047F39140400D035
:10023000401C50EA124001D44000491EC2B20C06D4
:1002400004EBD010401C4008802A02D003E00020BC
:1002500010BD20F00100002900DA0020184310BD75
:1002600030B480EA010202F0004530F0004221F093
:10027000004013D090B1C30DD40DC2F31601C0F3EA
:100280001600E41A41F4000140F400027D3491426A
:1002900001D3641C00E04900002C02DA30BC0020CD
:1002A00070474FF400000023914201D3891A0343A1
:1002B00040084FEA4101F7D151B1914202D14FF0CC
:1002C000004105E002D24FF0010101E06FF00101B1
:1002D00003EBC450284430BC00F083BA2DE9FE4F34
:1002E000804681EA0300C00F0C46009021F00041D7
:1002F00023F00045B8EB0200A94105D24046214653
:1003000090461C460B46024623F00040104347D05F
:10031000270DC7F30A00C3F30A510290401A019057
:1003200040286BDAC3F3130040F4801B0098924618
:1003300020B10023D2EB030A63EB0B0B0198594663
:10034000C0F14002504600F01BFA06460D465046EA
:100350005946019A00F033FA10EB0800614100247D
:1003600087EA115284EAE7731A4340D0009A62B3D5
:10037000019A012A4FEA075215DC001B61EB0201CA
:100380004FF0004202EA0752CDE90042001C41F55D
:10039000801132462B4600F06AFA03B0BDE8F08FB8
:1003A00040462146F9E7001B61EB0201001C41F5C4
:1003B000801300185B412018A2F5001747EB0301DA
:1003C00040EAD570B6196D4111E06D084FEA360666
:1003D00045EAC0754FEA0752001B61EB0201001CA1
:1003E00041F5801149084FEA300000195141324669
:1003F0002B4603B0BDE8F04F00F02ABA0098012266
:1004000040000023D0EB020263EBE073009821462A
:100410004FEAE074B8EB000061EB0401E9E783F018
:1004200000435BE781F0004158E72DE9FE4F81EA88
:10043000030404F0004421F0004100944FF0000B4D
:1004400023F0004350EA01045ED052EA03045BD07B
:10045000C3F30A54C1F30A552C44A4F2F3340194B3
:10046000A0FB0254C1F3130141F48011C3F3130341
:1004700043F4801301FB024400FB034E840A970AF5
:1004800044EA815447EA8357A4FB076802958D0A22
:1004900005FB07854FEA932C04FB0C542705029DAE
:1004A0004FEA065847EA1637B5EB08056EEB070C1E
:1004B000870E920E47EA811742EA8312A7FB0201D8
:1004C000B6EB0B0164EB00042B0D43EA0C335E1812
:1004D00044EB1C50DA465146E7FB0201C5F3130416
:1004E0004FEA0B3343EA14534FEA0432019C43EAC8
:1004F0000603A4F10C040294009CCDE900B400F0C2
:10050000B6F903B0BDE8F08F00200146F9E72DE908
:10051000F04D81EA030404F0004B21F0004514463D
:100520004FF0000A23F0004150EA050220D054EABF
:1005300001021DD0C5F30A570246C5F31303C1F3E8
:100540001300C1F30A5640F4801543F48013A7EB5F
:100550000608101BD64608F2FD3873EB050002D3DF
:1005600008F1010801E092185B41B8F1000F03DACD
:1005700000200146BDE8F08D00204FF480110646B2
:1005800084460EE0171B73EB050705D3121B63EBC4
:10059000050306434CEA010C49084FEA3000921863
:1005A0005B4150EA0107EDD152EA030012D082EA22
:1005B000040083EA0501084305D0101BAB4106D2B5
:1005C0000122002306E000224FF0004302E06FF01A
:1005D000010253101AEB06004CEB085110EB0A0015
:1005E00041EB0B01BDE8F04D00F032B9C10F80EADC
:1005F000E0700844CA079623002100F0FBB8962358
:100600000022114600F0F6B80EB540F233410291D7
:100610000021CDE900110A460B4600F028F903B08D
:1006200000BD00F0004220F00040C10DC0F31600F4
:1006300040F400007F2901DA00207047962903DC8E
:10064000C1F19601C84001E096398840002AF4D0F3
:100650004042704720F00040C10DC0F3160040F446
:1006600000007F2901DA00207047962903DCC1F1E0
:100670009601C8407047963988407047C1F30A52C6
:1006800010B5C1F3130140F2FF3341F480119A42D7
:1006900001DA002010BD40F233439A42A2F2334205
:1006A00003DC524200F07BF810BD904010BD00F01A
:1006B000004230F000400AD0C10D01F56071C0F376
:1006C000160042EA0151C20840071143704700205A
:1006D0000146704730B5041E71F1000404DB4FF091
:1006E0000044404264EB0101141E73F1000405DB79
:1006F0001C464FF00043524263EB04038B4208BF99
:10070000824230BD30B5041E71F1000404DB4FF0AD
:100710000044404264EB0101141E73F1000405DB48
:100720001C464FF00043524263EB0403994208BF5A
:10073000904230BD01F0004330B421F0004150EA56
:10074000010206D00A0DA2F56072C1F31301002A5E
:1007500002DC30BC00207047440F44EAC104C100F1
:10076000E01830BC00EBC25000F03BB8002801DBC1
:10077000C0F10040002901DBC1F100418142704716
:10078000202A04DB203A00FA02F100207047914051
:10079000C2F1200320FA03F3194390407047202A46
:1007A00004DB203A21FA02F00021704721FA02F31B
:1007B000D040C2F120029140084319467047202AD8
:1007C00006DBCB17203A41FA02F043EAE07306E079
:1007D00041FA02F3D040C2F1200291400843194689
:1007E00070470029A8BF7047401C490008BF20F08F
:1007F0000100704710B4B0FA80FC00FA0CF050EA27
:10080000010404BF10BC704749B1CCF1200421FAA7
:1008100004F411FA0CF118BF012121430843A3EBA2
:100820000C01CB1D4FEA00614FEA102042BF0020AF
:1008300010BC704700EBC35010440029A4BF10BC8B
:100840007047401C490008BF20F0010010BC7047F1
:1008500010B5141E73F1000408DA401C41F10001C8
:1008600092185B411A4301D120F0010010BD2DE91F
:10087000F04D92469B4611B1B1FA81F202E0B0FA16
:1008800080F220329046FFF77BFF04460F4640EA95
:100890000A0041EA0B0153465A46084313D0114659
:1008A00053EA010019D0C8F140025046FFF777FF24
:1008B00005460E46504659464246FFF761FF08433B
:1008C00005D0012004E020463946BDE8F08D002027
:1008D000054346EAE0762C4337430A986305E40A69
:1008E000A0EB08000022FD0A44EA47540A3002D572
:1008F00000200146E9E7010510196941DDE90845D5
:1009000000196941BDE8F04DA2E70000064C074D13
:1009100006E0E06840F0010394E8070098471034CF
:10092000AC42F6D3FFF7E6FB8C3C0008AC3C000879
:1009300021B1826842F00102826003E0826822F005
:1009400001028260704721B1826842F48072826045
:1009500003E0826822F480728260704701460020C2
:100960008A6802F004020AB1012000E0002070470A
:10097000014600208A6802F008020AB1012000E066
:100980000020704730B502460020002350680F4C0D
:1009900020400D790C6844EA05242043506090689B
:1009A0000B4C2040D1E902542C434D7944EA4504D4
:1009B00020439060D06A20F470000C7C641EE4B286
:1009C000234340EA0350D06230BD0000FFFEF0FF39
:1009D000FDF7F1FFF0B504460D4600200021092D7A
:1009E00011DDE068A5F10A0606EB4607072606FAC0
:1009F00007F18843A5F10A0606EB460603FA06F15D
:100A00000843E0600CE0206905EB4507072606FA7D
:100A100007F1884305EB450603FA06F10843206118
:100A2000072A0FDA606B561E06EB86071F2606FAAA
:100A300007F18843561E06EB860605FA06F10843C1
:100A4000606322E00D2A0FDA206BD61F06EB8607C3
:100A50001F2606FA07F18843D61F06EB860605FA1D
:100A600006F10843206310E0E06AA2F10D0606EBF0
:100A700086071F2606FA07F18843A2F10D0606EB4A
:100A8000860605FA06F10843E062F0BD816841F090
:100A900008018160704721B1826842F4A00282603F
:100AA00003E0826822F4A00282607047816841F00E
:100AB000040181607047000030B10749096841F4C2
:100AC0000001054A116005E00349096821F40001AD
:100AD000014A1160704700000824014000BFFEE792
:100AE00010B504460B48844209D10121480600F0A4
:100AF0009DFE00214FF0007000F098FE08E00121FB
:100B0000880600F093FE00214FF0806000F08EFE1A
:100B100010BD00000064004010B50021837A01225E
:100B200002FA03F13D4A126842F001023B4B1A609F
:100B30003A4A1C3212688A43384B1C331A60027BD3
:100B4000CAB9364A0C3212688A43344B0C331A60E5
:100B50004288C38842EA0343304A4032847A42F8EA
:100B600034300288838842EA03432C4A4032847A34
:100B700002EBC4025360027B012A19D1274A0C32CE
:100B800012680A43254B0C331A604288038842EAF4
:100B90000343224A4032847A42F83430C288838840
:100BA00042EA03431D4A4032847A02EBC402536096
:100BB000C27A3AB9194A121D12688A43174B1B1D93
:100BC0001A6006E0154A121D12680A43134B1B1DDA
:100BD0001A60028932B9114A143212688A430F4BE3
:100BE00014331A600289012A06D10C4A14321268A1
:100BF0000A430A4B14331A60427B012A06D1074A82
:100C00001C3212680A43054B1C331A60034A1268EF
:100C100022F00102014B1A6010BD00000066004086
:100C20001AB143690B43436102E043698B4343615B
:100C3000704730B5024600200023146824F00204F7
:100C40001460146844F00104146000E05B1C5468F4
:100C500004F001041CB94FF6FF74A342F6D15468A6
:100C600004F001040CB900206CE08C79012C04D153
:100C7000146844F08004146003E0146824F08004D5
:100C80001460CC79012C04D1146844F04004146041
:100C900003E0146824F0400414600C7A012C04D1A1
:100CA000146844F02004146003E0146824F0200465
:100CB00014604C7A012C04D1146844F010041460C0
:100CC00003E0146824F0100414608C7A012C04D121
:100CD000146844F00804146003E0146824F0080465
:100CE0001460CC7A012C04D1146844F0040414601C
:100CF00003E0146824F0040414608C78A407CD7811
:100D000044EA05640D7944EA05444D7944EA055402
:100D10000D886D1E2C43D461146824F00104146006
:100D2000002300E05B1C546804F001041CB14FF682
:100D3000FF74A342F6D1546804F001040CB1002002
:100D400000E0012030BD10B500F5D87303EB0113AE
:100D50001B6803F004031372137A53B900F5D873B8
:100D600003EB01131B6840F2FF7404EA5353136052
:100D700009E000F5D87303EB01131B686FF06044C2
:100D800004EAD303536000F5D87303EB01131B6827
:100D900003F00203537200F5D87303EB01135B6891
:100DA00003F00F03937200F5D87303EB01135B6834
:100DB0001B0AD37400F5D87303EB01139B68D3723D
:100DC00000F5D87303EB01139B681C0A147300F53C
:100DD000D87303EB01139B681C0C547300F5D87394
:100DE00003EB01139B681B0E937300F5D87303EBA1
:100DF0000113DB68D37300F5D87303EB0113DB68D1
:100E00001C0A147400F5D87303EB0113DB681C0C87
:100E1000547400F5D87303EB0113DB681B0E937455
:100E200021B9C36843F02003C36003E0036943F0C2
:100E30002003036110BD00218171C17101724172F3
:100E40008172C1728170C1700321017102214171EF
:100E500001210180704710B502460020936803F01D
:100E60008063B3F1806F00D110E0936803F00063FA
:100E7000B3F1006F01D1012008E0936803F08053C3
:100E8000B3F1805F01D1022000E00420042874D077
:100E900002F5C07303EB00131B6803F0010402F5B5
:100EA000C07303EB00131C600B7A7BB94B7A0C8880
:100EB00043EA445302F5C07404EB0014246823434E
:100EC00002F5C07404EB0014236010E00B7A4C6848
:100ED00043EAC4034C7A234302F5C07404EB0014C4
:100EE0002468234302F5C07404EB001423608B7A5A
:100EF00003F00F038B7202F5C07303EB00135B6802
:100F000023F00F0402F5C07303EB00135C6002F5DD
:100F1000C07303EB00135B688C7A234302F5C07443
:100F200004EB001463608B7B1C064B7B44EA034498
:100F30000B7B44EA0323CC7A234302F5C07404EB11
:100F40000014A3608B7C1C064B7C44EA03440B7C9E
:100F500044EA0323CC7B234302F5C07404EB001462
:100F6000E36002F5C07303EB00131B6843F0010458
:100F700002F5C07303EB00131C6010BD10B50246F0
:100F8000002321B1012907D002290FD109E090687F
:100F90001D4C00EA04030BE090681C4C00EA0403BB
:100FA00006E090681A4C00EA040301E0002300BF49
:100FB00000BF184C181BA34216D007DC83B16FF09A
:100FC0008060184470B1022818D111E0B0F5007F9C
:100FD00010D0114C204448B1B0F5003F0ED10BE0C9
:100FE00002230DE000230BE0002309E0002307E0CB
:100FF000012305E0012303E0012301E0002300BFFA
:1010000000BFD8B210BD00000300000400030008B8
:1010100000000310000100080001FFF710B50446AE
:1010200000F024FC4FF4803000F0E2FC00F03EFDC4
:101030001749087008460078012826D1102000F0D2
:10104000B7FA022000F0C2FA002000F0C5FC002030
:1010500000F000FD4FF4806000F0F0FC21464FF4FA
:10106000803000F009FD012000F000FD00BF3920B4
:1010700000F08CFC0028FAD0022000F00BFD00BF2D
:1010800000F0A2FC0828FBD101E000BFFEE710BD84
:10109000000000202DE9F04F8BB0022000F052F943
:1010A00000286FD0002001F053FA8046FFF7ACFA19
:1010B000CDE90401032001F04BFA0190FFF7A4FAF7
:1010C000804642460B4600203049FFF720FA0022B6
:1010D0002F4BCDE90201FFF71AFA0646DDE904239A
:1010E000FFF7A3F92B4A2C4BCDE90601FFF79AF93C
:1010F00004462A4A2A4BFFF70AFA0022294BCDE977
:101100000801FFF7EBF88246FFF714FB2649086059
:10111000012001F01DFA8346FFF771FA8246FFF7BE
:10112000C6FA80460022214BFFF77FF906460022CF
:10113000174BFFF7ECF90446FFF7FCFA1C4908606F
:10114000022001F005FA0890FFF759FA0990FFF71D
:10115000AEFA06460022174BFFF767F904464FF038
:101160006632154BFFF761F980464FF03332134B6F
:10117000FFF7CDF98246FFF7DDFA1149086001203B
:1011800000F020F80BB0BDE8F08F00000032B34053
:1011900000FEAF40E17A14AE47E1F63F22FDF6755E
:1011A000E09C713F000039409800002000A074408E
:1011B0009C00002000408F4066660A4033277C4038
:1011C000A000002000F0805111B10349086001E047
:1011D00002494860704700000404024000000240D9
:1011E00021B1026842F00102026004E002684FF699
:1011F000FE731A400260704701684FF6FE7211409C
:1012000001600021016041608160C1604B498842FA
:1012100008D14A490839496841F00F01474A083A5C
:1012200051608AE045491431884208D14349083960
:10123000496841F0F001414A083A51607DE03F4978
:101240002831884208D13D490839496841F4706124
:101250003A4A083A516070E038493C31884208D136
:1012600036490839496841F47041344A083A5160B6
:1012700063E032495031884208D130490839496821
:1012800041F470212D4A083A516056E02B496431EF
:10129000884208D129490839496841F47001274A30
:1012A000083A516049E025497831884208D12349FC
:1012B0000839496841F07061204A083A51603CE0C1
:1012C0001F49884206D1011F096841F00F01021F22
:1012D000116032E01A491431884208D11849091FB7
:1012E000096841F0F001164A121F116025E0144907
:1012F0002831884208D11249091F096841F47061F8
:101300000F4A121F116018E00D493C31884208D184
:101310000B49091F096841F47041094A121F116005
:101320000BE007495031884207D10549091F096878
:1013300041F47021024A121F1160704708000240F8
:101340000804024001460020002201F0805313B13E
:10135000054B1A6801E0054B1A6802EA01030BB15C
:10136000012000E00020704700040240000002401D
:101370001AB103680B43036002E003688B43036008
:10138000704710B50022026847F6F0739A430C6A62
:101390008B6823430C6923434C6923438C692343A3
:1013A000CC6923434C6A23438C6A23431A4302606B
:1013B000CB6843600B6883604B68C36010BD7047A7
:1013C00010B5012000F096F800284ED0032001F05F
:1013D000D7FC18B1002001F071FE06E0042001F0F6
:1013E000CFFC10B1012001F069FE20480078401CBC
:1013F0001E490870084600780C2833D10020087078
:101400001B4800F048FE401C1A49098801EB4102C4
:10141000C2EBC11100EBC100174908601748006812
:1014200020B9084600681549086009E013490968B1
:10143000114A1268881800EBD07149100F4A1160E8
:101440000E480068FFF7D2F8044621460C48FEF724
:1014500007FF0C4908600020064908800021044865
:1014600000F074FF012000F03FF810BD5400002090
:101470000008004046000020480000204C000020EA
:10148000C0E1644C5000002010B5022000F032F89A
:1014900088B1032001F074FC18B1002001F00EFEA9
:1014A00006E0042001F06CFC10B1012001F006FE02
:1014B000022000F019F810BD10B5042000F01AF851
:1014C00088B1032001F05CFC18B1002001F0F6FDAA
:1014D00006E0042001F054FC10B1012001F0EEFD03
:1014E000042000F001F810BD0149086070470000B9
:1014F00014040140014600200022074B1B6803EA48
:101500000102054B14331B680B4013B10AB10120D3
:1015100000E0002070470000000401400021234942
:101520008279002A3AD00A46126803689A430B4629
:101530001A600A1D126803689A430B1D1A6002792B
:1015400011440A6803681A430A60184A083212688C
:1015500003689A43154B08331A601A1D1268036812
:101560009A43124B0C331A604279102A0ED11A1F7B
:10157000126803681A430D4B08331A601A1D12686B
:1015800003681A43094B0C331A600DE0074942798E
:1015900011440A6803681A430A6005E0027911449D
:1015A0000A6803689A430A6070470000000401401B
:1015B0000549096821F01001034A116011460968C4
:1015C00001431160704700000020024001460020E6
:1015D000034A106800F038000843106070470000AC
:1015E0000020024030B500228B071C0F0F2303FAA6
:1015F00004F20B4B8C1053F824309343084C8D109D
:1016000044F8253023468C1053F824308C07240FDF
:1016100000FA04F42343024C8D1044F8253030BD09
:10162000080001402DE9F041024600250026002077
:1016300000230024002791F803C00CF00F0591F857
:1016400003C00CF0100CBCF1000F03D091F802C0E5
:101650004CEA050591F800C0BCF1000F31D01468C8
:1016600000202BE04FF0010C0CFA00F3B1F800C0A1
:101670000CEA03069E4220D183004FF00F0C0CFAB7
:1016800003F7BC4305FA03FC4CEA040491F803C0D9
:10169000BCF1280F06D14FF0010C0CFA00FCC2F887
:1016A00014C00AE091F803C0BCF1480F05D14FF017
:1016B000010C0CFA00FCC2F810C0401C0828D1D361
:1016C0001460B1F800C0BCF1FF0F34DD5468002095
:1016D0002EE000F1080C4FF0010808FA0CF3B1F805
:1016E00000C00CEA03069E4221D183004FF00F0C8C
:1016F0000CFA03F7BC4305FA03FC4CEA040491F826
:1017000003C0BCF1280F05D100F1080C08FA0CF851
:10171000C2F8148091F803C0BCF1480F07D100F162
:10172000080C4FF0010808FA0CF8C2F81080401CB1
:101730000828CED35460BDE8F0810146886880B2A5
:10174000704700BFFEE700BFFEE7704770B500219D
:1017500000230F22C47804B3154C246804F4E06419
:10176000C4F5E064210AC1F10403CA40447804FAD4
:1017700003F184781440214309010E4C0678A155E9
:10178000047804F01F050124AC4005786D11AD000C
:1017900005F1E025C5F8004109E0047804F01F05D3
:1017A0000124AC40044D0678761145F8264070BD02
:1017B0000CED00E000E400E080E100E002490143BC
:1017C000024A1160704700000000FA050CED00E0CD
:1017D0007047000001460020034A506820F4404052
:1017E00008435060704700000010024029B1064ACB
:1017F00052690243044B5A6104E0034A526982432E
:10180000014B5A61704700000010024029B1064A9E
:10181000D2690243044BDA6104E0034AD26982438D
:10182000014BDA61704700000010024029B1064AFE
:1018300012690243044B1A6104E0034A12698243AD
:10184000014B1A61704700000010024029B1064A9E
:1018500092690243044B9A6104E0034A926982430D
:10186000014B9A6170470000001002400F48006869
:1018700040F001000D490860084640680C490840E6
:101880000A494860084600680A4908400749086054
:101890000846006820F4802008600846406820F46C
:1018A000FE0048604FF41F0088607047001002403F
:1018B0000000FFF8FFFFF6FE30B5002100220024F3
:1018C00000232D4D6D6805F00C0121B1042905D0D0
:1018D000082923D105E0294D056022E0274D056048
:1018E0001FE0254D6D6805F47012234D6D6805F4F9
:1018F0008034022505EB92421CB9214D5543056009
:101900000BE01D4D6D6805F400351DB11C4D5543B0
:10191000056002E0194D5543056002E0174D056072
:1019200000BF00BF144D6D6805F0F0010909154DA9
:101930006B5C0568DD4045600F4D6D6805F4E06146
:10194000090A104D6B5C4568DD4085600A4D6D6885
:1019500005F46051C90A0B4D6B5C4568DD40C560FC
:10196000054D6D6805F44041890B074D6B5CC568FA
:10197000B5FBF3F5056130BD0010024000127A009E
:1019800000093D00B8000020C800002010B5014645
:101990000022002300204A11012A02D1094C2368A9
:1019A00006E0022A02D1074C236A01E0054C636A73
:1019B00001F01F02012494401C400CB1012000E002
:1019C000002010BD001002400248406800F00C00EA
:1019D000704700000010024001460020034A506892
:1019E00020F0F000084350607047000000100240F3
:1019F0001149096821F480310F4A116011460968C4
:101A000021F480211160B0F5803F03D0B0F5802F24
:101A10000ED106E00849096841F48031064A116098
:101A200007E00549096841F4A021034A116000E07C
:101A300000BF00BF704700000010024001460020B8
:101A4000034A506820F4E06008435060704700008B
:101A50000010024001460020034A506820F4605004
:101A600040EAC1005060704700100240014908661A
:101A7000704700000000424202460020044B5868B4
:101A800020F47C1042EA01031843014B5860704770
:101A90000010024001460020034A506820F0030075
:101AA00008435060704700000010024038B5002025
:101AB00000900024002500BF3120FFF767FF054696
:101AC0000098401C00900098B0F5A06F01D0002D48
:101AD000F2D03120FFF75AFF08B1012400E00024C2
:101AE000204638BD704710B500F002F810BD000068
:101AF0000CB50020019000903348006840F480301D
:101B00003149086000BF3048006800F400300090A0
:101B10000198401C0190009818B90198B0F5A06F89
:101B2000F1D12948006800F4003010B10120009084
:101B300001E0002000900098012843D1234800686C
:101B400040F01000214908600846006820F00300BA
:101B500008600846006840F0020008601A484068C3
:101B6000194948600846406848600846406840F4A3
:101B7000806048600846406820F47C104860084651
:101B8000406840F4E81048600846006840F0807003
:101B9000086000BF0C48006800F000700028F9D011
:101BA0000948406820F0030007494860084640683B
:101BB00040F00200486000BF0348406800F00C009D
:101BC0000828F9D10CBD000000100240002002409E
:101BD00002480068401E0149086070470800002064
:101BE00010B5002100200022214B5B6803F00C019E
:101BF00021B1042906D0082928D107E01D4B1E4C2D
:101C0000236027E01B4B1C4C236023E0184B5B68D0
:101C100003F47010164B5B6803F48032022303EB6D
:101C2000904022B9154B4343134C23600DE0104BF9
:101C30005B6803F4003323B1104B43430E4C236025
:101C400003E00C4B43430C4C236003E0094B0A4C6C
:101C5000236000BF00BF064B5B68C3F30313084C4F
:101C6000E15C054B1B68CB40034C236010BD0000BA
:101C70000010024000127A00A400002000093D007C
:101C8000A800002010B51348006840F00100114979
:101C9000086008464068104908400E4948600846F8
:101CA00000680E4908400B4908600846006820F4A7
:101CB000802008600846406820F4FE0048604FF429
:101CC0001F008860FFF70FFF4FF0006004490860B5
:101CD00010BD0000001002400000FFF8FFFFF6FEFC
:101CE00008ED00E010B501219A4800F0D7F900286E
:101CF0007ED09948007800287BD098480088401C06
:101D000096490880084600880A2873D194480078CC
:101D100006282DD2DFE800F0032D5989B5DD01F04A
:101D20007BF952208F4908705020487056208870E7
:101D3000012001F081F98B49C870022001F07CF983
:101D400088490871032001F077F986494871042019
:101D500001F072F983498871084600F0DDFF81497E
:101D6000C8710B46082240F223117F4801F07CF82D
:101D7000D7E041207B4908704F204870432088708D
:101D80000121002000F004FC7649C87002210020E7
:101D900000F0FEFB734908710321002000F0F8FBFE
:101DA000704948710421002000F0F2FB6D498871F0
:101DB000084600F0B1FF6B49C8710B46082240F29B
:101DC0002311694801F050F8ABE0412065490870E3
:101DD000542048704B2088700121084600F0D8FB41
:101DE0006049C8700221012000F0D2FB5D4902E089
:101DF000AEE0A6E0A4E008710321012000F0C8FBDA
:101E0000584948710421012000F0C2FB55498871EE
:101E1000084600F081FF5349C8710B46082240F282
:101E20002311514801F020F87BE041204D49087012
:101E3000492048704D2088700121022000F0A8FB45
:101E40004849C8700221084600F0A2FB45490871C4
:101E50000321022000F09CFB42494871042102202A
:101E600000F096FB3F498871084600F055FF3D4958
:101E7000C8710B46082240F223113B4800F0F4FFE2
:101E80004FE0542037490870442048704320887040
:101E9000012001F0B5FA3349C870022001F0B0FA10
:101EA00030490871032001F0ABFA2E494871042033
:101EB00001F0A6FA2B498871084600F02DFF294948
:101EC000C8710B46082240F22311274800F0CCFFCE
:101ED00027E0522023490870532048705020887012
:101EE000012000F045FD1F49C870022000F040FDB0
:101EF0001C490871032000F03BFD1A494871042079
:101F000000F036FD17498871084600F005FF1549B5
:101F1000C8710B46082240F22311134800F0A4FFB9
:101F200000BF00BF00200D4908800D480078401C0C
:101F30000B49087008460078062805DB0020087069
:101F400002E00020054908800121024800F082F8E3
:101F500010BD000000040040780000207600002042
:101F6000750000206C0000200064004010B50121C5
:101F70001E4800F093F8002837D0002000F000FF42
:101F800038B9012000F0FCFE18B9022000F0F8FE7C
:101F900020B117480088401C15490880012000F036
:101FA000EFFE18B9022000F0EBFED0B11148007826
:101FB000401C10490870084600780A2811D10320F7
:101FC00000F0DEFE18B1002000F03EFB06E0042029
:101FD00000F0D6FE10B1012000F036FB00200549CC
:101FE00008700121014800F035F810BD00080040DC
:101FF00046000020550000200A884B881A438B8831
:102000001A43CB881A430B891A434B891A438B898D
:102010001A43A0F84420704730B5002301248C40B7
:10202000A3B2048C9C430484048C02FA01F5ADB283
:102030002C43048430BD30B5002304248C40A3B26B
:10204000048C9C430484048C02FA01F5ADB22C4349
:10205000048430BDCA430282704721B1028842F035
:102060000102028004E002884FF6FE731A400280EB
:10207000704731B1B0F8442042F40042A0F8442047
:1020800005E0B0F84420C2F30E02A0F844207047E7
:102090000146888E70470146888C704730B50246ED
:1020A000002000230024158A05EA0103958905EA2A
:1020B000010413B10CB1012000E0002030BD1AB1C1
:1020C00083890B43838102E083898B43838170473B
:1020D00070B5002400220023058C4FF6FE763540B3
:1020E0000584028C8388048B4FF68F752C40B51EB7
:1020F0002C400D882C43751E2A400D892A434D889B
:102100002A43144DA8420BD0134DA84208D0134DBA
:10211000A84205D0124DA84202D0124DA84213D1B8
:102120004FF6F7752A404D892A434FF6FB752A4032
:102130008D882A434FF6FF652B404FF6FF552B4005
:102140008D892B43CD892B4383800483CD8885865D
:10215000028470BD002C0140003401400040014069
:1021600000440140004801400A460021018B4FF61F
:10217000F7731940114301837047000070B50024C4
:1021800000220023058C4FF6EF7635400584028C43
:102190008388048B48F6FF752C404FF6FF452C4092
:1021A0000D884FF6FF7606EA05252C434FF6DF75BE
:1021B0002A400D8906EA05152A434D8806EA0515C9
:1021C0002A43154DA84202D0144DA8421DD14FF606
:1021D0007F752A404D894FF6FF7606EA05152A439A
:1021E0004FF6BF752A408D8806EA05152A434FF63B
:1021F000FF352B404FF2FF752B408D8906EA850590
:102200002B43CD8906EA85052B4383800483CD8843
:102210000587028470BD0000002C0140003401409D
:102220000A460021018B4FF2FF7319404FF6FF73EE
:1022300003EA0223194301837047000070B50024AC
:1022400000220023058C4FF6FF6635400584028C82
:102250008388848B4FF68F752C404FF6FC752C408D
:102260000D882C434FF6FF552A400D894FF6FF7617
:1022700006EA05252A434D8806EA05252A43154D19
:10228000A84202D0144DA8421DD14FF2FF752A403A
:102290004D894FF6FF7606EA05252A434FF6FF35AE
:1022A0002A408D8806EA05252A434EF6FF752B4005
:1022B0004DF6FF752B408D8906EA05152B43CD8918
:1022C00006EA05152B4383808483CD8885870284A5
:1022D00070BD0000002C0140003401400A4600217E
:1022E000818B4FF6F773194011438183704770B5A6
:1022F0000346002000241846183001258D40ACB25A
:102300001D8CA5431D8409B1082909D100EB61008A
:10231000056825F0700505600568154305600EE049
:102320000D1FC5F34E052844056825F4E0450560FA
:1023300005684FF6FF7606EA02263543056070BD54
:102340008186704701877047818770478184704715
:10235000002202881D4B98420ED01D4B98420BD094
:10236000B0F1804F08D01B4B984205D01A4B9842D1
:1023700002D01A4B984204D14FF68F731A404B8803
:102380001A43174B984207D0164B984204D04FF689
:10239000FF431A40CB881A4302808B8883850B88C1
:1023A00003850A4B98420BD0094B984208D00E4B3C
:1023B000984205D00D4B984202D00D4B984201D166
:1023C0000B7A03860123838270470000002C0140B2
:1023D000003401400004004000080040000C0040B0
:1023E0000010004000140040004001400044014043
:1023F0000048014000B591B04FF48040FFF7EAF982
:1024000001210846FFF7F2F901214802FFF71EFA01
:1024100000200C9001208DF834008DF835004FF429
:1024200060200E9000200F9004208DF840000CA931
:102430003948FEF7A7FA0423012210213648FEF797
:10244000C9FA04231A4611213348FEF7C3FA0423BC
:10245000022205213048FEF7BDFA04230322194663
:102460002D48FEF7B7FA2D48FEF7C6FE2A484C3035
:1024700001902B480290002003901420049000202B
:102480000590802006904000079080000890202052
:10249000099000020A9000200B9001A91F48FEF746
:1024A00070FF012202211D48FEF762FF0B208DF80C
:1024B000000001208DF8030000208DF801000220AB
:1024C0008DF802006846FFF741F90120FEF7F4FAA3
:1024D00001211148FEF72CFA01211048FEF780FE79
:1024E00001210D48FEF72FFA0B48FEF7CFFA00BF87
:1024F0000948FEF73DFA0028FAD10748FEF7D6FA58
:1025000000BF0548FEF72AFA0028FAD10121024847
:10251000FEF7C1FA11B000BD0024014008000240DE
:102520001801002008B501210420FFF78FF90020D1
:102530008DF803003020ADF8000003208DF8020074
:1025400069460248FFF76EF808BD00000008014028
:1025500001460E4830F811200346081D33F81000DC
:10256000024401F1080033F81000024401F10C00AC
:1025700033F81000024401F1100033F81000104449
:10258000052290FBF2F080B2704700001801002095
:102590000246002022B1012A1BD0022A4BD131E091
:1025A000012902D1254B187812E0022904D1234BCE
:1025B0001B88C3F307200BE0032904D11F4B1B68C2
:1025C000C3F3074004E0042902D11C4B1B68180E1A
:1025D00031E0012902D11A4B187812E0022904D106
:1025E000174B1B88C3F307200BE0032904D1144BBE
:1025F0001B68C3F3074004E0042902D1104B1B6899
:10260000180E18E0012902D10E4B187812E00229A9
:1026100004D10C4B1B88C3F307200BE0032904D122
:10262000084B1B68C3F3074004E0042902D1054BA3
:102630001B68180E00BF00BF704700009800002004
:102640009C000020A00000202DE9F041044600205D
:1026500000F096FB20BB012000F092FB18B1204651
:1026600000F0AAF906E0022000F08AFB10B1204633
:1026700000F01CF800210B480068FEF777F80FD136
:1026800000F006FF0746FEF712F805460022064B4B
:10269000FEF720F804D200F07FFF002000F06AFF70
:1026A000BDE8F08184000020000014402DE9F14FC6
:1026B000A6B03C22A74904A8FDF736FD00200390F0
:1026C00000F0AAFC0290A44801680298FDF793FD6F
:1026D000A2490860A2480168A0480068FDF788FD8B
:1026E0000290FDF79EFF25909C4800689C49086079
:1026F0009C499A480068FDF781FD01909A4801685D
:102700000198FDF7ADFD0290FDF78BFF2490642149
:10271000259848430A2190FBF1F00090FDF766FFF1
:102720000190914841680198FDF79AFD0290FDF7EC
:1027300078FF23902498642802DD6420249006E02A
:10274000249810F1640F02DA6FF06300249023984C
:10275000642802DD6420239006E0239810F1640FC2
:1027600002DA6FF0630023906FF013006FF0310313
:102770005A0051000090249800F0A8FB80460020E9
:102780006FF013031A466FF031010090249800F0A7
:102790009DFB8146142000231A4641420090249854
:1027A00000F094FB8246322014231A460021009048
:1027B000249800F08BFB8346C82064233222142126
:1027C0000090249800F082FB229000206FF01D03FF
:1027D0006FF0630251000090239800F077FB0546EC
:1027E0001E2000231A4641420090239800F06EFB01
:1027F0000646C82064231E2200210090239800F082
:1028000065FB0446A84501DA404600E028461390DF
:10281000B04501DA404600E030461490A04501DAA8
:10282000404600E020461590A94501DA484600E000
:1028300028461690B14501DA484600E03046179028
:10284000A14501DA484600E020461890AA4501DA81
:10285000504600E028461990B24501DA504600E0A3
:1028600030461A90A24501DA504600E020461B90FF
:10287000AB4501DA584600E028461C90B34501DA22
:10288000584600E030461D90A34501DA584600E066
:1028900020461E902298A84201DA229800E028469D
:1028A0001F902298B04201DA229800E03046209032
:1028B0002298A04201DA229800E0204621900027C9
:1028C0000AE004A850F8271013A850F8272003980E
:1028D00001FB020003907F1C0F2FF2DB039901EB39
:1028E00081014800FDF782FE01901F488168019830
:1028F000FDF784FC0290FDF794FE1C49096808442A
:102900001A49086008460068002808DC00200860B2
:1029100000F042FE1548006800F02CFE17E0134856
:102920000068512803DA51201049086008E00F4878
:102930000068B0F5486F03DD4FF448600B4908604C
:10294000269800F0BBFB0948006800F013FE27B092
:10295000BDE8F08F503C0008840000208800002073
:102960008C0000200000C8420001002094000020DC
:1029700001460F4A12680F4B1A600020012902D14C
:102980001A46107812E0022904D10A4A1288C2F3CA
:1029900007200BE0032904D1064A1268C2F307405E
:1029A00004E0042902D1034A1268100E70470000A7
:1029B00084000020800000202DE9F14F82B000F05B
:1029C0002BFB04464B4801682046FDF714FC4A499E
:1029D00008604A49086848490968FDF70FFC4849FA
:1029E00008604649486844490968FDF707FC0190BA
:1029F000FDF75DFE8046434A434BFDF716FD044656
:102A00000D463F494868FDF752FE064622462B46D2
:102A1000FDF764FC8246FDF78DFE394948603B486E
:102A2000016835480068FDF7E3FB8146334881685B
:102A30004846FDF7E3FB0446FDF739FE0746314AF9
:102A4000314BFDF764FD0546FDF774FE2C498860A7
:102A50004868FDF72CFE044600222D4BFDF73AFE98
:102A600003D22C48264948600CE025494868FDF708
:102A70001EFE04460022284BFDF744FE02D22748E2
:102A80001F4948601E4A51681068FDF75FFB054604
:102A90001B4881682846FDF759FB0446FDF7C1FD38
:102AA0001F49096808441E4908601348006817490F
:102AB00008601B480068512806DA51201849086050
:102AC00000200F4948600BE015480068B0F5486FDA
:102AD00006DD4FF44860124908600020084948604C
:102AE000029800F0EBFA0E48006800F043FDBDE8E4
:102AF000FE8F00008400002088000020F4000020E9
:102B00000C0100207B14AE47E17A843F8C0000204A
:102B1000000074C00000A0C3000074400000A04387
:102B2000940000202DE9F04704460D4616461F4646
:102B3000DDF820802348006865F30700214908601C
:102B40000846006866F30F2008600846006867F3CF
:102B5000174008600846006868F31F600860072C8B
:102B60002CD2DFE804F004090E13181D22001548CA
:102B700000681549086021E0124800681249486061
:102B80001CE0104800681049886017E00D48006894
:102B90000E49086012E00B4800680C4948600DE0DF
:102BA000084800680949886008E006490868FDF798
:102BB00038FD8146FDF71AFD0549086000BFBDE8F4
:102BC000F087000080000020F400002000010020B9
:102BD00084000020F0B589B000204B49087048708F
:102BE0008870C87001214806FEF710FE4748FDF7BF
:102BF00077FF06A8FEF71FF900208DF81E008DF85C
:102C00001F008DF820008DF821008DF82200012092
:102C10008DF8230000208DF81A008DF81B0002208B
:102C20008DF81C0001208DF81D000620ADF818005D
:102C300006A93648FDF7FDFF01208DF8120000209F
:102C40008DF813008DF81400ADF80800ADF80A00F7
:102C5000ADF80C00ADF80E00ADF8100001208DF8B5
:102C6000150002A8FDF758FF002002460346014662
:102C7000C1F10707042F01D9042701E0C1F10707BB
:102C80003E460F1D072F01D2002700E0CF1E3D4614
:102C90000127B7407F1E1740AF404FF0010C0CFAE0
:102CA00005FCACF1010C0CEA030C47EA0C07BCB2C2
:102CB00014202146002807DA0A07150E144A00F0EE
:102CC0000F031B1FD55403E00A07130E114A1354B8
:102CD00000BF4FF4C060FEF771FD14208DF80400B2
:102CE00000208DF8050005208DF8060001208DF8E4
:102CF000070001A8FEF72AFD012202210348FDF783
:102D00008FFF09B0F0BD0000780000200064004093
:102D100018ED00E000E400E002460020002103E09E
:102D2000535C0344D8B2491C0729F9DBC143C8B23C
:102D3000411CC8B27047000008B501210520FEF70C
:102D400085FD48208DF803004FF40060ADF80000C9
:102D500003208DF8020069460848FEF763FC18203E
:102D60008DF803004FF48050ADF8000003208DF87B
:102D7000020069460148FEF755FC08BD0008014005
:102D80000146002011B90B4A507812E0012902D106
:102D9000084A90780DE0022902D1064AD07808E06E
:102DA000032902D1034A107903E0042901D1014A21
:102DB0005079704778000020002003494870C8709F
:102DC0008870087148717047780000201FB5012194
:102DD0000220FEF71BFD40F2CF20ADF8040040F2C8
:102DE000E730ADF808000020ADF80A00ADF80600A5
:102DF00001A90E48FFF7ACFA012211460B48FFF774
:102E00005EF901210948FFF728F91D208DF800001F
:102E100000208DF8010006208DF8020001208DF8B9
:102E200003006846FEF792FC1FBD0000000400404E
:102E300010B501200B49487100200871012048702D
:102E400000208870C870012000F038F9002404E0E8
:102E5000204600F08FFB601C84B2B4F5FA6FF7DBFC
:102E600010BD0000780000202DE9F04786B08246B2
:102E7000884614469946CDF80480002002908DF8CB
:102E80000D008DF80C00E0B28DF80E00002005E07A
:102E900019F800200DF10F010A54401CA042F7DB85
:102EA00001A95046FDF7D7FF0546002705E0294652
:102EB0005046FEF763F806467F1C012E03D04FF6FE
:102EC000FF708742F3D106B0BDE8F087F0B5044645
:102ED000059D8C4201DA002016E0944206DA661A5B
:102EE00064277E43571A96FBF7F00DE09C4201DA07
:102EF000642009E0AC4206DA2E1B64277E43EF1AF9
:102F000096FBF7F000E00020F0BD00001FB50121A6
:102F10000820FEF79BFC48208DF80F000720ADF835
:102F20000C0003208DF80E0003A93948FEF77AFB48
:102F300001210846FEF78AFC00210120FEF752FB22
:102F40000120019000208DF8080010208DF8090064
:102F500001208DF80A0001A8FEF7E0FA06208DF89E
:102F6000000000208DF8010002208DF802000120F1
:102F70008DF803006846FEF7E9FB01210846FEF7DD
:102F800031FB0220019000208DF8080010208DF800
:102F9000090001208DF80A0001A8FEF7BFFA0720FA
:102FA0008DF8000000208DF8010003208DF802004C
:102FB00001208DF803006846FEF7C8FB02210120BE
:102FC000FEF710FB0420019000208DF8080010206F
:102FD0008DF8090001208DF80A0001A8FEF79EFA7D
:102FE00008208DF8000000208DF8010004208DF8E5
:102FF000020001208DF803006846FEF7A7FB044895
:10300000FEF79BFB00F00700024908801FBD00008F
:10301000000C01404200002010B54FF07E510448E2
:103020000068FDF71DF9034908600846006810BDF7
:10303000500000205800002001460020012902D144
:103040000B4A107812E0022904D1094A1288C2F30F
:1030500007200BE0032904D1054A1268C2F3074098
:1030600004E0042902D1024A1268100E70470000E1
:103070005800002001480078704700003C00002004
:1030800001488078704700003C000020014800792A
:10309000704700003C000020014840787047000065
:1030A0003C0000200148C078704700003C00002030
:1030B00001484079704700003C00002010B50446EC
:1030C0004848FEF73AFB00F00700474908800846E9
:1030D00000884649098888427ED043480088434991
:1030E0000880DCBB4048008800EB4000404911F8F4
:1030F0001000404908703C48008800EB40003C4903
:1031000001EB400040783B4948703748008800EBAD
:103110004000374901EB40008078364988703248DA
:10312000008800EB4000324901EB4000C078314993
:10313000C8702D48008800EB40002D4901EB40008D
:1031400000792C4908712848008800EB4000284984
:1031500001EB40004079274948713FE0FFE7012C2F
:103160003CD12148008800EB4000234911F81000B1
:10317000204908701C48008800EB40001E4901EB04
:10318000400040781B4948701748008800EB400019
:10319000194901EB40008078164988701248008870
:1031A00000EB4000144901EB4000C0781149C870A1
:1031B0000D48008800EB40000F4901EB400000790A
:1031C0000C4908710848008800EB40000A4901EBEF
:1031D00040004079074900E002E0487100F052F8F1
:1031E00010BD0000000C01404200002044000020FF
:1031F000F03B00083C000020203C0008002005496E
:103200000870054908604FF6FF70044908800449BA
:103210000880704755000020500000204200002028
:10322000440000201FB501210420FEF7EFFA4720DB
:10323000ADF8040040F2E730ADF808000020ADF82A
:103240000A00ADF8060001A90D48FFF781F8012238
:1032500011460B48FEF733FF00210948FEF7FDFE3B
:103260001E208DF8000000208DF8010001208DF84F
:1032700002008DF803006846FEF768FA1FBD0000E3
:103280000008004010B5FFF7F5FE78B1602200217C
:103290003E48FFF72CF8012200213C48FEF7BCFE17
:1032A000042200213948FEF7C6FE17E0002211462D
:1032B0003648FEF7B1FEFFF7EFFE50B15022002175
:1032C0003248FFF714F8042200213048FEF7B3FE1D
:1032D00004E0002211462D48FEF7ADFEFFF7D0FEB8
:1032E00078B1602204212948FFF701F80122042166
:1032F0002648FEF791FE042211462448FEF79BFE65
:1033000017E0002204212148FEF786FEFFF7CAFEDF
:1033100050B1502204211D48FEF7E9FF0422114656
:103320001A48FEF788FE04E0002204211748FEF741
:1033300082FEFFF7ABFE78B1602208211348FEF74A
:10334000D6FF012208211148FEF766FE042208215B
:103350000E48FEF770FE17E0002208210B48FEF72A
:103360005BFEFFF7A5FE50B1502208210748FEF78B
:10337000BEFF042208210548FEF75DFE04E000229E
:1033800008210248FEF757FE10BD0000002C014046
:1033900008B501210420FEF759FA18208DF8030022
:1033A0004FF4E060ADF8000003208DF8020069469C
:1033B0001148FEF737F901210820FEF747FA1820D7
:1033C0008DF803004FF46040ADF8000003208DF845
:1033D000020069460948FEF725F904208DF803002C
:1033E0008002ADF8000003208DF802006946034812
:1033F000FEF718F908BD000000080140000C01406C
:103400002DE9FC5F82461E48FEF742FE0090FDF764
:10341000F6F88346FDF74BF906460022194BFDF7F7
:1034200004F804460022184BFDF771F88046FDF7BA
:1034300081F91649086000200190BAF1010F03D10B
:1034400008460078019018E0BAF1020F05D10F4844
:103450000088C0F3072001900FE0BAF1030F05D1F7
:103460000A480068C0F30740019006E0BAF1040F73
:1034700003D106480068000E01900198BDE8FC9F4A
:10348000002C0140000059400000A94038000020F5
:103490002DE9F05F0D48FEF7FBFD8346FDF7AFF821
:1034A0008246FDF704F906460022094BFCF7BDFFF2
:1034B00004460022074BFDF72AF88046FDF73AF94B
:1034C0000549086008460068BDE8F09F002C0140EF
:1034D000000059400000A940380000202DE9FC5FA1
:1034E00005460E4691469A461F48006865F3070058
:1034F0001D4908600846006866F30F20086008460A
:10350000006869F317400860084600686AF31F60A6
:10351000086008681549FCF771FE8346FDF7C7F897
:103520000022134BCDE90001FCF7F1FF0746FDF740
:10353000A5F884B2512C06DBB4F5486F03DC2046B5
:1035400000F018F80EE0B4F5486F04DD4FF4486061
:1035500000F010F806E0512C04DA002000F00AF820
:1035600000F01AF8BDE8FC9F340000200000484538
:103570000000594010B50446A1B20648FEF7E0FE2F
:10358000A1B20448FEF7DEFEA1B20248FEF7DCFE5F
:1035900010BD0000002C014010B500211448FEF7BA
:1035A0005CFD00211248FEF7D1FEFFF705FC00226A
:1035B00011461048FEF730FD002211460D48FEF777
:1035C0003AFD002204210B48FEF726FD00220421CB
:1035D0000848FEF730FD002208210648FEF71CFDD2
:1035E000002208210348FEF726FDFFF707FE10BD65
:1035F00000080040002C014000B58BB0012140F6CE
:103600000100FEF723F93948006844F62061B0FB59
:10361000F1F0401E36490880002036490860ADF8B8
:103620002000ADF8220032480088ADF824000020C8
:10363000ADF826008DF8280008A92F48FEF788FE6F
:103640000020ADF810000120ADF812000420ADF804
:10365000140028490868FCF7FDFF80B2ADF8160099
:103660000020ADF81800ADF81A00ADF81C00ADF858
:103670001E0004A92048FEF72BFD04A91E48FEF7F2
:103680007DFD04A91C48FEF7D9FD08211A48FEF764
:103690006BFD08211848FEF7C3FD08211648FEF708
:1036A0001DFE4FF40060ADF800004010ADF80200C0
:1036B0000020ADF804009620ADF806000020ADF81B
:1036C00008004FF40050ADF80A004000ADF80C00BF
:1036D00069460948FEF790FC01210748FEF7BDFC4A
:1036E00001210548FEF7C5FC0BB000BDA400002079
:1036F0003000002034000020002C014038B50024A8
:10370000E44A0021E448FDF71EFBE2480B30FFF7D6
:1037100003FBE2490870DF48006840F22311884249
:103720007ED1DC48007A0028FAD1DA48807A08286D
:10373000F6D1D8480B30FFF7EFFAD649897C88429A
:10374000EED100BF06E0D3480B30005DD4490855E8
:10375000601CC4B2082CF6DBCE48C07A4F2825D1B5
:10376000CC48007B4C2821D1CA48407B52281DD12F
:103770000120CC4908710020487108468078A8B91A
:103780000846C07890B9012048700020C870887041
:103790000121C548FEF761FC0020FFF78FFCBD4DFD
:1037A000AB7BEA7B297C687CFFF798FEB948C07A3E
:1037B0004F2825D1B748007B4C2821D1B548407B04
:1037C0004C281DD10020B7490871012048710846D6
:1037D0008078A8B90846C07890B9012048700020C8
:1037E000C87088700121B048FEF737FC0120FFF750
:1037F00065FCA84DAB7BEA7B297C687CFFF76EFEFD
:10380000A448C07A432811D1A248007B41280DD199
:10381000A048407B4E2809D19E48807B4F2800E07D
:1038200037E103D101209F49087012E09948C07A1E
:1038300043280ED19748007B41280AD19548407B08
:103840004E2806D19348807B432802D10020954919
:1038500008709048C07A472811D18E48007B4B28C9
:103860000DD18C48407B502809D18A48807B00903C
:103870008848C37B027C417C0020FFF753F98548D0
:10388000C07A472811D18348007B4B280DD181484D
:10389000407B492809D17F48807B00907D48C37BCD
:1038A000027C417C0120FFF73DF97A48C07A472825
:1038B00011D17848007B4B280DD17648407B4428B5
:1038C00009D17448807B00907248C37B027C417CA4
:1038D0000220FFF727F96F48C07A472811D16D48B9
:1038E000007B47280DD16B48407B452809D16948AA
:1038F000807B00906748C37B027C417C0320FFF7FC
:1039000011F96448C07A472811D16248007B4428E5
:103910000DD16048407B452809D15E48807B0090EE
:103920005C48C37B027C417C0420FFF7FBF85948CC
:10393000C07A472811D15748007B44280DD15548FB
:10394000407B552809D15348807B00905148C37B68
:10395000027C417C0520FFF7E5F84E48C07A4328F9
:1039600022D14C48007B50281ED14A48407B522827
:103970001AD101204B49087100204871084640784F
:1039800090B90846C07878B901208870012146486E
:10399000FEF763FB3F48807B00903E48C37B027C80
:1039A000417C0620FFF7BEF83A48C07A432822D16E
:1039B0003848007B46281ED13648407B52281AD111
:1039C000012038490871002048710846407890B9B4
:1039D0000846807878B90120C87001213248FEF786
:1039E0003CFB2C48807B00902A48C37B027C417CB6
:1039F0000620FFF797F82748C07A432822D12548A8
:103A0000007B50281ED12348407B4C281AD100202F
:103A100024490871012048710846407890B9084649
:103A2000C07878B90120887001211F48FEF715FB86
:103A30001848807B00901748C37B027C417C06209D
:103A4000FFF770F81348C07A432822D11148007B51
:103A500046281ED10F48407B4C281AD1002011491E
:103A60000871012048710846407890B9084680786E
:103A700078B90120C87001210B48FEF7EEFA05481D
:103A8000807B00900348C37B027C417C0620FFF7CB
:103A900049F838BDE00000200064004074000020B8
:103AA00064000020780000200008004000BFFEE70E
:103AB00002E008C8121F08C1002AFAD170477047F7
:103AC000002001E001C1121F002AFBD17047000055
:103AD00008B54FF4E010FDF7A1FA3F48FDF7ECFE02
:103AE0003D4800683D490860FEF77AF83C480068A8
:103AF0003C4AB0FBF2F1B1F1807F00D31DE021F030
:103B00007F40401E4FF0E022506150170F220028E6
:103B100007DA13071D0E344B00F00F04241F1D5548
:103B200003E013071C0E314B1C5400BF00204FF064
:103B3000E02290610720106100BFFFF729FCFFF72A
:103B40005BFDFFF7E3F9FFF7F7F8FFF743F8FFF73F
:103B50003DF9FFF767FBFFF71FFDFEF7E3FCFEF7FC
:103B600049FC00200346024601460090FEF7DAFFBA
:103B7000002003460246014600900120FEF7D2FFD6
:103B8000002003460246014600900220FEF7CAFFCD
:103B9000002003460246014600900320FEF7C2FFC4
:103BA000002003460246014600900420FEF7BAFFBB
:103BB000002003460246014600900520FEF7B2FFB2
:103BC000002003460246014600900620FEF7AAFFA9
:103BD000FFF72EF900BFFEE7CC00002028000020F0
:103BE000A400002040420F0018ED00E000E400E0D7
:103BF00000000000000001000001000000000100C2
:103C000000010100000000010001000001000000AF
:103C100000010100000101000000000000000000A0
:103C20000000000000000001010000000000000191
:103C3000010000010000010001000000000100007F
:103C40000100000101000001000000000000000070
:103C5000FDFFFFFFFEFFFFFFFFFFFFFFFEFFFFFF78
:103C6000FFFFFFFF00000000FFFFFFFF000000005C
:103C70000100000000000000010000000200000040
:103C8000010000000200000003000000AC3C00083E
:103C900000000020CC000000B03A0008783D000889
:103CA000CC00002074040000C03A000800000000AE
:103CB0000000000000000000000000000000000004
:103CC000000000000000000000004302030405069D
:103CD00007080000000000000000000000000000D5
:103CE0000000000000000000000000000000FFFFD6
:103CF000FFFF0000000000000000000000000000C6
:103D000000000000000000000000000000000000B3
:103D100000000000000000000000000000000000A3
:103D20000000000000000000000000000000000093
:103D30000000000000000000000000000000000083
:103D40000000000000000000000000000000000073
:103D500000A24A0400000000000000000102030469
:103D60000607080900000000010203040102030421
:083D7000060708090204060819
:04000005080000ED02
:00000001FF
