:020000040800F2
:100000006F130020A1010008CF150008C7150008D4
:10001000CB150008F10600080538000800000000B4
:100020000000000000000000000000004D1D00085E
:10003000991300080000000049160008B9010008E3
:1000400015380008BB010008BB010008BB0100080F
:10005000BB010008BB010008BB010008BB01000890
:10006000BB010008BB010008BB010008590E0008D5
:10007000350F0008BB010008BB010008BB010008E8
:10008000CD0F0008BB010008BB010008BB01000840
:10009000F5060008BB010008BB010008BB01000811
:1000A0001D1F0008BB010008BB010008BB010008C0
:1000B000391F0008611F000859200008BB01000813
:1000C000BB010008BB010008BB010008BB01000820
:1000D000BB010008BB010008BB010008BB01000810
:1000E0009D130008BB010008BB010008BB0100080C
:1000F000BB010008BB010008BB010008BB010008F0
:10010000BB010008BB010008BB010008BB010008DF
:10011000BB010008BB010008BB0100081121000859
:10012000BB010008B911000801120008BB0100085A
:10013000BB010008BB010008BB010008BB010008AF
:10014000BB010008BB010008BB010008BB0100089F
:1001500021120008BB010008BB010008BB01000818
:10016000BB010008BB010008BB010008BB0100087F
:10017000BB010008BB010008BB0100080000000033
:10018000BB010008BB010008DFF810D000F09EFAA8
:1001900000480047353D0008AFF300806F13002092
:1001A0000648804706480047FEE7FEE7FEE7FEE711
:1001B000FEE7FEE7FEE7FEE7FEE7FEE7B91E000802
:1001C000890100082DE9FE4F804681EA0300C00F37
:1001D0000C46009021F0004123F00045B8EB0200EE
:1001E000A94105D24046214690461C460B46024690
:1001F00023F00040104347D0270DC7F30A00C3F394
:100200000A510290401A019040286BDAC3F31300A0
:1002100040F4801B0098924620B10023D2EB030AE1
:1002200063EB0B0B01985946C0F14002504600F0B9
:10023000BFF906460D4650465946019A00F0D7F9D7
:1002400010EB08006141002487EA115284EAE77349
:100250001A4340D0009A62B3019A012A4FEA07522A
:1002600015DC001B61EB02014FF0004202EA07526D
:10027000CDE90042001C41F5801132462B4600F0CA
:10028000D7F903B0BDE8F08F40462146F9E7001BDF
:1002900061EB0201001C41F5801300185B4120183E
:1002A000A2F5001747EB030140EAD570B6196D417E
:1002B00011E06D084FEA360645EAC0754FEA07526D
:1002C000001B61EB0201001C41F5801149084FEA57
:1002D00030000019514132462B4603B0BDE8F04FC3
:1002E00000F097B90098012240000023D0EB0202F1
:1002F00063EBE073009821464FEAE074B8EB00002E
:1003000061EB0401E9E783F000435BE781F0004122
:1003100058E72DE9FE4F81EA030404F0004421F080
:10032000004100944FF0000B23F0004350EA010419
:100330005ED052EA03045BD0C3F30A54C1F30A55FA
:100340002C44A4F2F3340194A0FB0254C1F3130132
:1003500041F48011C3F3130343F4801301FB0244FF
:1003600000FB034E840A970A44EA815447EA835704
:10037000A4FB076802958D0A05FB07854FEA932CBD
:1003800004FB0C542705029D4FEA065847EA16372E
:10039000B5EB08056EEB070C870E920E47EA811746
:1003A00042EA8312A7FB0201B6EB0B0164EB0004E7
:1003B0002B0D43EA0C335E1844EB1C50DA465146D1
:1003C000E7FB0201C5F313044FEA0B3343EA14536E
:1003D0004FEA0432019C43EA0603A4F10C040294A0
:1003E000009CCDE900B400F023F903B0BDE8F08F24
:1003F00000200146F9E72DE9F04D81EA030404F0FD
:10040000004B21F0004514464FF0000A23F0004154
:1004100050EA050220D054EA01021DD0C5F30A5764
:100420000246C5F31303C1F31300C1F30A5640F4A7
:10043000801543F48013A7EB0608101BD64608F27C
:10044000FD3873EB050002D308F1010801E09218B2
:100450005B41B8F1000F03DA00200146BDE8F08DE2
:1004600000204FF48011064684460EE0171B73EB04
:10047000050705D3121B63EB050306434CEA010C89
:1004800049084FEA300092185B4150EA0107EDD16C
:1004900052EA030012D082EA040083EA050108430D
:1004A00005D0101BAB4106D20122002306E000223A
:1004B0004FF0004302E06FF0010253101AEB060008
:1004C0004CEB085110EB0A0041EB0B01BDE8F04D7D
:1004D00000F09FB80EB5C10F80EAE0700844CA076B
:1004E000002140F233438DE80E000A460B4600F02F
:1004F0009FF803B000BD0EB540F2334102910021D8
:10050000CDE900110A460B4600F092F803B000BD99
:1005100070B5C1F30A5201F000450024C1F3130184
:1005200040F2FF3341F480119A4201DA002070BD9D
:1005300040F233439A42A2F2334203DC524200F0CB
:1005400046F800E090402C43F1D0404270BD0000DE
:1005500030B5041E71F1000404DB4FF0004440424A
:1005600064EB0101141E73F1000405DB1C464FF01F
:100570000043524263EB04038B4208BF824230BD0A
:1005800030B5041E71F1000404DB4FF0004440421A
:1005900064EB0101141E73F1000405DB1C464FF0EF
:1005A0000043524263EB0403994208BF904230BDBE
:1005B000202A04DB203A00FA02F100207047914023
:1005C000C2F1200320FA03F3194390407047202A18
:1005D00004DB203A21FA02F00021704721FA02F3ED
:1005E000D040C2F120029140084319467047202AAA
:1005F00006DBCB17203A41FA02F043EAE07306E04B
:1006000041FA02F3D040C2F120029140084319465A
:10061000704710B5141E73F1000408DA401C41F154
:10062000000192185B411A4301D120F0010010BD76
:100630002DE9F04D92469B4611B1B1FA81F202E0EC
:10064000B0FA80F220329046FFF7B2FF04460F4620
:1006500040EA0A0041EA0B0153465A46084313D0C8
:10066000114653EA010019D0C8F140025046FFF785
:10067000AEFF05460E46504659464246FFF798FFE4
:10068000084305D0012004E020463946BDE8F08D3E
:100690000020054346EAE0762C4337430A98630579
:1006A000E40AA0EB08000022FD0A44EA47540A309D
:1006B00002D500200146E9E7010510196941DDE98D
:1006C000084500196941BDE8F04DA2E7064C074D09
:1006D00006E0E06840F0010394E807009847103412
:1006E000AC42F6D3FFF754FDB03F0008D03F0008FE
:1006F00000BFFEE710B5634A0021634800F020FA0E
:100700000021614800F00DFA022803DB00215E4859
:1007100000F0E4F85B4800685C490968884205D04D
:10072000584800685A49096888427DD15548007A7E
:100730000028FAD15348807A0828F6D151480B3066
:1007400001F025FF4F49897C8842EED14D48C07A9F
:1007500052280ED14B48007B55280AD14948407B8E
:10076000442806D147480E3001F0EEFF494880ED9D
:10077000000A4448C07A43280FD14248007B4F28E2
:100780000BD14048407B4E2807D101204249487098
:10079000002088700120414948813A48C07A4328A6
:1007A0000CD13848007B4F2808D13648407B46287A
:1007B00004D1002038494870012088703148C07A3F
:1007C00043280ED12F48007B41280AD12D48407B79
:1007D0004E2806D12B48807B4F2802D101202E497C
:1007E00008722848C07A43280ED12648007B412849
:1007F0000AD12448407B4E2806D12248807B4328DA
:1008000002D10020244908721E48C07A45280AD126
:100810001C48007B4A2806D11A48407B532802D145
:1008200001201D49487200E02BE01648C07A52288A
:1008300027D11448007B502823D11248407B5628EA
:100840001FD11048817B1648006861F307001449E6
:1008500008600C48C17B1248006861F30F20104902
:1008600008600848017C0E48006861F317400C4995
:1008700008600448417C0A48006861F31F60084929
:10088000086010BD34010020006400400800002012
:100890000C0000204C000020480100202E03002006
:1008A0004800002010B504460B48844209D10121BC
:1008B000480600F0EBFE00214FF0007000F0E6FE6D
:1008C00008E00121880600F0E1FE00214FF0806081
:1008D00000F0DCFE10BD00000064004021B9C268D9
:1008E00042F02002C26003E0026942F0200202618D
:1008F0007047000010B50021837A012202FA03F14B
:100900003D4A126842F001023B4B1A603A4A1C32DF
:1009100012688A43384B1C331A60027BCAB9364AC4
:100920000C3212688A43344B0C331A604288C388F5
:1009300042EA0343304A4032847A42F83430028833
:10094000838842EA03432C4A4032847A02EBC40291
:100950005360027B012A19D1274A0C3212680A43DC
:10096000254B0C331A604288038842EA0343224A2B
:100970004032847A42F83430C288838842EA0343A2
:100980001D4A4032847A02EBC4025360C27A3AB9FB
:10099000194A121D12688A43174B1B1D1A6006E084
:1009A000154A121D12680A43134B1B1D1A60028957
:1009B00032B9114A143212688A430F4B14331A6049
:1009C0000289012A06D10C4A143212680A430A4BE2
:1009D00014331A60427B012A06D1074A1C3212687E
:1009E0000A43054B1C331A60034A126822F00102C5
:1009F000014B1A6010BD0000006600401AB1436947
:100A00000B43436102E043698B434361704730B558
:100A1000024600200023146824F0020414601468C5
:100A200044F00104146000E05B1C546804F001040D
:100A30001CB94FF6FF74A342F6D1546804F00104C8
:100A40000CB900206CE08C79012C04D1146844F0BE
:100A50008004146003E0146824F080041460CC79EE
:100A6000012C04D1146844F04004146003E01468BD
:100A700024F0400414600C7A012C04D1146844F072
:100A80002004146003E0146824F0200414604C7AFD
:100A9000012C04D1146844F01004146003E01468BD
:100AA00024F0100414608C7A012C04D1146844F0F2
:100AB0000804146003E0146824F008041460CC7A7D
:100AC000012C04D1146844F00404146003E0146899
:100AD00024F0040414608C78A407CD7844EA0564FB
:100AE0000D7944EA05444D7944EA05540D886D1E9C
:100AF0002C43D461146824F001041460002300E046
:100B00005B1C546804F001041CB14FF6FF74A3424F
:100B1000F6D1546804F001040CB1002000E001207B
:100B200030BD0246002019B9D36803F0030006E087
:100B3000012903D1136903F0030000E0002070478E
:100B400010B500F5D87303EB01131B6803F0040321
:100B50001372137A53B900F5D87303EB01131B68B2
:100B600040F2FF7404EA5353136009E000F5D873B0
:100B700003EB01131B686FF0604404EAD303536076
:100B800000F5D87303EB01131B6803F002035372E3
:100B900000F5D87303EB01135B6803F00F03937246
:100BA00000F5D87303EB01135B681B0AD37400F5DF
:100BB000D87303EB01139B68D37200F5D87303EB72
:100BC00001139B681C0A147300F5D87303EB01131F
:100BD0009B681C0C547300F5D87303EB01139B68DE
:100BE0001B0E937300F5D87303EB0113DB68D3730B
:100BF00000F5D87303EB0113DB681C0A147400F5CD
:100C0000D87303EB0113DB681C0C547400F5D87324
:100C100003EB0113DB681B0E937421B9C36843F027
:100C20002003C36003E0036943F02003036110BDA8
:100C300010B502460020936803F08063B3F1806F23
:100C400000D110E0936803F00063B3F1006F01D1AD
:100C5000012008E0936803F08053B3F1805F01D175
:100C6000022000E00420042874D002F5C07303EBD6
:100C700000131B6803F0010402F5C07303EB0013BB
:100C80001C600B7A7BB94B7A0C8843EA445302F51B
:100C9000C07404EB00142468234302F5C07404EB11
:100CA0000014236010E00B7A4C6843EAC4034C7ACA
:100CB000234302F5C07404EB00142468234302F5B7
:100CC000C07404EB001423608B7A03F00F038B7263
:100CD00002F5C07303EB00135B6823F00F0402F509
:100CE000C07303EB00135C6002F5C07303EB0013E9
:100CF0005B688C7A234302F5C07404EB00146360D4
:100D00008B7B1C064B7B44EA03440B7B44EA0323A6
:100D1000CC7A234302F5C07404EB0014A3608B7CEF
:100D20001C064B7C44EA03440B7C44EA0323CC7B43
:100D3000234302F5C07404EB0014E36002F5C073B2
:100D400003EB00131B6843F0010402F5C07303EBCF
:100D500000131C6010BD000010B50246002321B135
:100D6000012907D002290FD109E090681D4C00EA43
:100D700004030BE090681C4C00EA040306E0906852
:100D80001A4C00EA040301E0002300BF00BF184C26
:100D9000181BA34216D007DC83B16FF080601844A3
:100DA00070B1022818D111E0B0F5007F10D0114CBD
:100DB000204448B1B0F5003F0ED10BE002230DE016
:100DC00000230BE0002309E0002307E0012305E0F6
:100DD000012303E0012301E0002300BF00BFD8B2DC
:100DE00010BD000003000004000300080000031011
:100DF000000100080001FFF7F0B504464FF6FF7050
:100E00000F4600251FE014F805C08CEA00000026FC
:100E10000FE000F0010CBCF1000F05D040084AF2D1
:100E2000010C80EA0C0000E0400806F1010C0CF017
:100E3000FF06082EEDDBA7F1010C0CF0FF0705F112
:100E4000010C0CF0FF05002FDDDC4FEA102C82F8BE
:100E500000C01870F0BD000010B53049304800F0F7
:100E60001FFA002859D02F492F4801F035FB2D4893
:100E7000007824284DD12B484078412849D1294871
:100E80008078552845D12748C078562841D1254833
:100E9000007932283DD123484079302839D1214882
:100EA0008079302835D11F48C079302831D11D488C
:100EB00001F04EFB1B4991F82010884229D11948B6
:100EC000083001F054FB194880ED000A15480C3039
:100ED00001F04DFB154880ED010A1248103001F079
:100EE00046FB124880ED020A0E48143001F03FFB29
:100EF0000E4880ED030A0B48183001F038FB0B4810
:100F000080ED040A07481C3001F031FB074880EDF2
:100F1000050A0749024800F09DF910BD0080201025
:100F20001060024078010020540100209C01002044
:100F300000F03D901CB52049204800F0B1F9002890
:100F400039D06B4601AA07211D48FFF755FF1C4801
:100F5000C0799DF80410884217D11948007A9DF88D
:100F60000010884211D11748007838B91448801C05
:100F700002F068F8144880ED000A06E01048801C72
:100F800002F060F8104880ED010A0E48007840B980
:100F9000FA2002F08BF80B480078401C09490870D1
:100FA00005E0FA2002F05EF80020064908700249C8
:100FB000024800F04FF91CBD008800102860024074
:100FC00039020020580000205C00002010B56F4955
:100FD0006F4800F065F900287DD06E496E4802F038
:100FE00099F80E216B4802F0F1F86A49497B884272
:100FF00072D16848401D02F0CDF900EE100AB8EE3B
:10100000400A664880ED000A6248C01D02F0C2F93D
:1010100000EE100AB8EE400ADFED610AB4EEE00A15
:10102000F1EE10FA0FD85B48C01D02F0B3F900EEE4
:10103000100AB8EE400ADFED5B0A20EE200A57489E
:1010400080ED010A28E05348C01D02F0A3F900EE2C
:10105000100AB8EE400ADFED540AB4EEE00AF1EEF1
:1010600010FA19DBDFED510AB0EE600A4948C01DE5
:1010700002F090F900EE900AF8EE600A9FED4A1A2D
:1010800070EEC10AB0EE600ADFED490A60EE200A98
:101090004248C0ED010A00BF3E48007B00EE100A46
:1010A000B8EE400A3D4880ED040A3A48C07A00EEA6
:1010B000100AB8EE400AF2EE040A80EE201A374811
:1010C00080ED031A3348093002F064F900EE100A8B
:1010D000B8EE400A01E058E053E0DFED310AB4EE2B
:1010E000E00AF1EE10FA18D82A48093002F052F955
:1010F00000EE100AF8EE401A2848D0ED030AB0EED0
:10110000600A02F091F921EE800ADFED250A80EEF7
:10111000201A224880ED021A33E01E48093002F0FE
:1011200039F900EE100AB8EE400ADFED1F0AB4EEFE
:10113000E00AF1EE10FA24DB9FED1C0AF0EE401AF3
:101140001448093002F026F900EE100AB8EE400A01
:10115000DFED150A30EE600AF0EE401A0F48D0EDD0
:10116000030AB0EE600A02F05FF9B1EE400A20EE29
:10117000210ADFED0B0A80EE201A084880ED021AE2
:1011800000BF0C49024800F065F810BD008800203F
:10119000886002400E020020000200201C02002095
:1011A00000C07F44AE47E13D0000804400000000E5
:1011B000AE47E1BD40FF00A008B50949094800F06D
:1011C0006FF838B10848094B094A0A4900900A48A3
:1011D00000F064FC0949034800F03CF808BD000039
:1011E0000088001028640240A9000020A800002008
:1011F0002E0300200E0300204202002040FF00903A
:1012000010B50449044800F04BF80449024800F0C6
:1012100021F810BD008800102864024040FF0090B3
:1012200010B50749074800F03BF838B106490748B0
:1012300001F0F6FC0649034800F00CF810BD000070
:101240000088002088640240DA010020B4010020F8
:1012500040FF00A00246094B9A4201D2084801E033
:101260000648103801F000531BB1064B0B40C36019
:1012700002E0044B0B4083607047000010640240A2
:10128000006002407D0F7D0F21B1026842F0010233
:10129000026003E0026822F0010202607047000071
:1012A00070B50246002000240025124EB24201D241
:1012B000114B01E00F4B103B104E0E4036B11E2675
:1012C00006EAD124166806EA040502E0566906F02B
:1012D000800501F000560EB15C6800E01C68084E05
:1012E000344004EA010616B10DB1012000E00020EF
:1012F00070BD000010640240006002403C0F3C0FD3
:101300007D0F7D0F10B501F080034BB122B1436911
:1013100043F08003436103E0436923F080034361AA
:1013200080290BD02AB1036801F01E042343036017
:1013300004E0036801F01E04A343036010BD000035
:1013400010B500220268134B1A40CC680B68234387
:101350004C6923438C692343CC6923430C6A2343A0
:101360004C6A23438C6A23434C6B23438C6B23438B
:101370001A430260426922F00702D1E90B34234389
:101380001A4342610B6943604B6883608B68C3609A
:1013900010BD00003F801CF07047000010B54FF4F6
:1013A000006000F045F828B1012019490870C0021A
:1013B00000F038F84FF4805000F03AF828B10120DE
:1013C00014490870000300F02DF84FF4005000F0AD
:1013D0002FF828B1012010490870400300F022F8CE
:1013E0004FF4804000F024F828B101200B49087028
:1013F000800300F017F84FF4004000F019F828B10E
:10140000012007490870C00300F00CF810BD00006F
:101410005000002051000020520000205300002006
:10142000540000200149086070470000143C01404E
:1014300001460020034A12680A400AB1012000E078
:1014400000207047143C0140002123498279002A82
:101450003AD00A46126803689A430B461A600A1D7E
:10146000126803689A430B1D1A60027911440A68D6
:1014700003681A430A60184A0832126803689A43DC
:10148000154B08331A601A1D126803689A43124BF1
:101490000C331A604279102A0ED11A1F12680368A1
:1014A0001A430D4B08331A601A1D126803681A4359
:1014B000094B0C331A600DE00749427911440A6860
:1014C00003681A430A6005E0027911440A68036858
:1014D0009A430A6070470000003C0140014A1070C6
:1014E00070470000003C0240F0B50A46002100238E
:1014F000002400BF3DE0012505FA01F3156805EA67
:1015000003049C4234D105684F000326BE40B54316
:10151000056015794E00B5400668354305601579BC
:10152000012D02D01579022D16D185684F000326B2
:10153000BE40B543856055794E00B5408668354359
:101540008560456801268E40B543456045689679BB
:101550008E40B6B235434560C5684F000326BE4095
:10156000B543C560D5794E00B540C6683543C56002
:10157000491C1029BFD3F0BDF0B5002300244D074E
:10158000ED0E02FA05F3CE1000F1200555F82650B5
:101590004E07F70E0F26BE40B543CF1000F12006D0
:1015A00046F82750CE1000F1200555F8265045EAA0
:1015B0000304CE1000F1200545F82640F0BD41831C
:1015C00070470183704700BFFEE700BFFEE770472A
:1015D00070B5002100230F22C4781CB3174C246877
:1015E00004F4E064C4F5E064C4F30721C1F1040429
:1015F000E3B20A4144789C40E1B28478144021432C
:101600000C07210E0E4C05786155047804F01F0577
:101610000124AC4005786D11AD0005F1E025C5F859
:10162000004109E0047804F01F050124AC40054D99
:101630000678761145F8264070BD00000CED00E0FC
:1016400000E400E080E100E07047000029B1064AB4
:1016500012680243044B1A6004E0034A1268824392
:10166000014B1A60704700003038024029B1064A29
:1016700012680243044B1A6004E0034A1268824372
:10168000014B1A60704700004038024029B1064AF9
:1016900012680243044B1A6004E0034A1268824352
:1016A000014B1A60704700002038024029B1064AF9
:1016B00012680243044B1A6004E0034A1268824332
:1016C000014B1A607047000044380240144800681B
:1016D00040F00100124908600020114908310860FB
:1016E0000F4800680F4908400D4908600E48091D61
:1016F00008600E480A49843108600B481038091DFB
:1017000008600748006820F4802005490860002030
:1017100003490C31086002498C31086070470000B1
:1017200000380240FFFFF6EA1030002400300020AD
:10173000F0B5002100220024022500260223324FAA
:101740003F6807F00C0121B1042905D0082937D1E1
:1017500005E02E4F076036E02D4F076033E02A4F3B
:101760003F1F3F68C7F38056274F3F1F3F6807F072
:101770003F036EB1264FB7FBF3F7DFF88CC0ACF137
:10178000040CDCF800C0CCF3881C07FB0CF40CE064
:101790001E4FB7FBF3F7DFF870C0ACF1040CDCF8B8
:1017A00000C0CCF3881C07FB0CF4174F3F1F3F68A9
:1017B000C7F301477F1C7D00B4FBF5F7076002E02B
:1017C000124F076000BF00BF0F4F3F6807F0F001E6
:1017D0000909104F7A5C0768D74047600A4F3F6895
:1017E00007F4E051890A0B4F7A5C4768D74087605D
:1017F000054F3F6807F46041490B064F7A5C476824
:10180000D740C760F0BD0000083802400024F40053
:1018100000127A00C800002010B501460022002303
:1018200000204A11012A02D10A4C236808E0022A4A
:1018300003D1084C7034236802E0064C74342368EA
:1018400001F01F02012494401C400CB1012000E073
:10185000002010BD0038024001460020034A1068F5
:1018600020F0F00008431060704700000838024084
:101870000021024A11701146087070470238024078
:1018800001460020034A106820F4E050084310602D
:10189000704700000838024001460020034A1068E3
:1018A00020F4604040EAC1001060704708380240F0
:1018B00001490866704700000000474270B5049C6B
:1018C00041EA82150126C6EB530645EA0645054363
:1018D00045EA0465014E356070BD000004380240E1
:1018E00001460020034A106820F0030008431060FE
:1018F000704700000838024038B5002000900024EE
:10190000002500BF3120FFF787FF05460098401CE7
:1019100000900098B0F5A04F01D0002DF2D03120FA
:10192000FFF77AFF08B1012400E00024204638BD0B
:1019300010B52DED028BB0EE408A134880ED008A81
:101940004F20124908704C2048704D2088700E4876
:101950000068000EC8700C480068000C08710A4846
:101960000088000A4871084800788871084600F02D
:101970000EFE0649C8710A4608210548006801F0B4
:10198000A3F8BDEC028B10BD380000202800002019
:101990000400002010B52DED028BB0EE408A4F20E0
:1019A0001A49087050204870B5EEC08AF1EE10FA5E
:1019B00005DB52208870164880ED008A07E04C2035
:1019C00012498870B1EE480A114880ED000A1048AB
:1019D0000068000E0D49C8700D480068000C0871C1
:1019E0000B480088000A4871094800788871084649
:1019F00000F0CDFD0549C8710A4608210548006878
:101A000001F062F8BDEC028B10BD00002800002040
:101A1000380000200400002010B52DED028BB0EE40
:101A2000408A4F201A4908704C204870B5EEC08A91
:101A3000F1EE10FA05DB52208870164880ED008A1E
:101A400007E04C2012498870B1EE480A114880ED39
:101A5000000A10480068000E0D49C8700D48006863
:101A6000000C08710B480088000A4871094800788A
:101A70008871084600F08BFD0549C8710A460821A7
:101A80000548006801F020F8BDEC028B10BD000095
:101A900028000020380000200C0000202DE9F04133
:101AA0002DED048B82B004460D4616461F46DDF828
:101AB0003080E0780F287DD1E07E0028FBD1002D1A
:101AC00079D02179607941EA0020C0F30A002880AA
:101AD0006079C110A07941EA4010C0F30A00688023
:101AE000A0798111E07941EA8001207A41EA8020E1
:101AF000C0F30A00A880207A4110607A41EAC01041
:101B0000C0F30A00E880607A0111A07A41EA00106F
:101B1000C0F30A002881A07AC111E07A41EA4001AD
:101B2000207B41EA4020C0F30A006881207B8110BD
:101B3000607B41EA8010C0F30A00A881607B4111FC
:101B4000A07B41EAC000E881E17B207C41EA0020E3
:101B5000C0F30A002882207CC110607C41EA40105A
:101B6000C0F30A006882607C8111A07C41EA800198
:101B7000E07C41EA8020C0F30A00A882E07C4110AA
:101B8000207D41EAC010C0F30A00E882207D0111E7
:101B9000607D41EA0010C0F30A002883607DC11116
:101BA000A07D41EA4001E07D41EA4020C0F30A0007
:101BB000688301E0B2E093E0E07D8110207E41EA9D
:101BC0008010C0F30A00A883207E4111607E41EAA4
:101BD000C000E883524800906888524B40F213726C
:101BE000B02102F0EFF800B270803A20009028880F
:101BF000002340F21372B02102F0E4F800B230800A
:101C0000022000906889002340F21372AC2102F098
:101C1000D9F800B2708101200090E889002340F2D9
:101C20001372AC2102F0CEF800B2F081A888FEF762
:101C300062FC41EC190B9FED3C4B9FED3D3B9FED52
:101C40003E2B9FED3F1BB0EE490AF0EE690A02F011
:101C500019F9B0EE408AF0EE608AB0EE480AF0EE74
:101C6000680A02F0BBF8B080E88BB0F5FA7F03DABF
:101C700001203549887102E00020334988713248DB
:101C8000807918B901203049487101E00020F081C5
:101C9000F089012805D12C48407910B101202A494A
:101CA0000870F08960B92848007848B126488079E2
:101CB00030B9002024494870012088700020087045
:101CC0002148807928B12048407910B101201E496F
:101CD000C8711D48C07910B100201B49487100BF70
:101CE000B8F1000F0AD0A07E00F0040018B1012066
:101CF00088F8000002E0002088F8000047B1A07ECC
:101D000000F0080010B10120387001E000203870A8
:101D1000012002B0BDEC048BBDE8F0810020F8E7A3
:101D200050FBFFFFA0F6FFFF000000000000124084
:101D300000000000000012C000000000004C9C40A9
:101D4000000000000080654048010020704700004E
:101D500030B500228B071C0F0F2303FA04F20B4B44
:101D60008C1053F824309343084C8D1044F82530E0
:101D700023468C1053F824308C07240F00FA04F407
:101D80002343024C8D1044F8253030BD0838014003
:101D900038B5FFF79BFC0120FFF76AFDFFF7ACFDAC
:101DA0000446012C23D1072002234FF4A8720821F6
:101DB0000090C804FFF782FD0120FFF779FD00BF06
:101DC0003920FFF729FD0028FAD00520FFF786FB10
:101DD0000020FFF741FD4FF4A050FFF751FD4FF4F5
:101DE0008050FFF759FD0220FFF77AFD01E000BFA8
:101DF000FEE700F001F838BD70B500200022022394
:101E000000240221274D2D6805F00C0020B1042884
:101E100006D0082834D107E0234D244E356033E046
:101E2000234D224E35602FE01E4D2D1F2D68C5F32A
:101E300080541C4D2D1F2D6805F03F0154B11C4DE1
:101E4000B5FBF1F5174E361F3668C6F3881605FB4D
:101E500006F209E0144DB5FBF1F5124E361F366857
:101E6000C6F3881605FB06F20E4D2D1F2D68C5F32F
:101E700001456D1C6B00B2FBF3F50C4E356003E0C1
:101E8000094D0A4E356000BF00BF064D2D68C5F3F1
:101E90000315084E705D054D2D68C540034E356035
:101EA00070BD0000083802400024F400D800002073
:101EB00000127A00403F00081448006840F47000A7
:101EC000124908601248006840F00100104908609B
:101ED00000200F49083108600D4800680D4908408E
:101EE0000B4908600C48091D0860081F006820F4B1
:101EF0008020091F0860002005490C3108604FF060
:101F000000600249803908607047000088ED00E0F9
:101F100000380240FFFFF6FE1030002410B501210A
:101F2000044800F023F918B10121024800F003F938
:101F300010BD00000040014010B50121880700F0ED
:101F400015F9012809D10121800700F0F4F84FF0BC
:101F5000804000F0FFF80149086010BD84000020B7
:101F600008B50121324800F001F900285BD0314862
:101F7000314B324A324900903248FFF78FFD2F48EB
:101F8000B0F90E0010B101283CD135E02E48807820
:101F900088B12D48407870B90021FE2001F0EEFA9A
:101FA0002A4890ED000ABCEEC00A10EE100A81B279
:101FB000FE2001F0BFFA00BF23484078D8B1224884
:101FC0008078C0B900F0D0FB1F48C07998B19FED70
:101FD000200AFFF721FD9FED1E0AFFF7DBFC1D48DD
:101FE000008881B2FE2001F0A5FA00201649C871D0
:101FF00048700120887005E00120134948700020D6
:102000008870D9E700BF1048007A10B90E48407AAE
:1020100020B100F041FC00200B4948720A4840788A
:1020200008B100F031FD0121014800F084F808BD3D
:1020300000040040A9000020A80000202E0300207A
:102040000E03002042020020480100204C00002026
:10205000000000002C3F000810B50121214800F0CD
:1020600085F801283CD101211E4800F064F81E4883
:1020700090ED000ADFED1D0A20EE200AF1EE000AC5
:1020800020EE200ADFED1A0A80EE201A9FED190AD1
:1020900031EE000A184880ED000A4FF0804000F051
:1020A00059F816490860164890ED002A1548D0EDF9
:1020B000001A154890ED001A084690ED000AF8EE57
:1020C000C00A0D4890ED000A00F0F0F8BCEEC00A1E
:1020D00010EE100A0D4908800846008800F0D2F979
:1020E00010BD0000000800409800002000A0394505
:1020F0000000B4430060EA466C0000208400002029
:10210000A4000020A00000209C0000206800002007
:1021100010B50121054800F029F830B1012001F087
:10212000C9F90121014800F006F810BD0014004073
:10213000CA4302827047CA430282704721B10288B3
:1021400042F00102028004E002884FF6FE731A405A
:10215000028070470146486A704702460020138A91
:102160000B400BB1012000E00020704730B5024663
:10217000002000230024158A05EA0103958905EA59
:10218000010413B10CB1012000E0002030BD1AB1F0
:1021900083890B43838102E083898B43838170476A
:1021A000416370474162704700220288184B984291
:1021B0000ED0184B98420BD0B0F1804F08D0164B80
:1021C000984205D0154B984202D0154B984204D145
:1021D0004FF68F731A404B881A43124B984207D020
:1021E000114B984204D04FF6FF431A400B891A4313
:1021F00002804B68C3620B880385054B984202D06E
:10220000044B984201D18B7A038601238382704765
:1022100000000140000401400004004000080040AC
:10222000000C0040001000400014004010B54FF4B6
:1022300080610448FFF7C5F94FF400710148FFF7CA
:10224000BEF910BD0000024010B54FF40071044803
:10225000FFF7B7F94FF480610148FFF7B0F910BDFF
:10226000000002400E4890ED000ADFED0E0AB4EEC9
:10227000E00AF1EE10FA03DB9FED0A0A80ED000A96
:10228000074890ED000ADFED080AB4EEE00AF1EE2F
:1022900010FA03D89FED040A80ED000A7047000091
:1022A0007C0000200000BE4200005C4210B52DED15
:1022B000068BB0EE408AF0EE608AB0EE419AF0EE06
:1022C000619AB0EE42AA38EE680A644880ED000ACE
:1022D000F3EE040A8AEE200ADFED610A80EE201A8E
:1022E0009FED600A29EE800AD0ED000A5E48D0ED2D
:1022F000001A70EEA10A20EE200A5848D0ED000A1C
:1023000009EE200AD0ED000A5748D0ED001AB0EED1
:10231000002A42EE610A5548D0ED001A70EEA10A7B
:1023200001EE200A524880ED000A4F4890ED000A65
:102330004E4880ED000A494890ED000A4A4880ED79
:10234000000A9FED4C0AB4EEC08AF1EE10FA43DDAC
:10235000424890ED000ADFED480AB4EEE00AF1EEE3
:1023600010FA12DDFFF770FF414890ED000ADFED33
:10237000430A30EE200A80ED000AFFF773FF3C4865
:1023800090ED000ABDEC068B10BD344890ED000ABC
:10239000DFED3B0AB4EEE00AF1EE10FA10D2FFF7DF
:1023A00045FF334890ED000ADFED340A30EEC00AF5
:1023B00080ED000AFFF756FF2D4890ED000AE1E797
:1023C00000F07CF800F068F89FED2C0A284880EDBA
:1023D000000A90ED000AD5E7204890ED000ADFEDF5
:1023E000280AB4EEE00AF1EE10FA10D2FFF71EFF51
:1023F0001F4890ED000ADFED210A30EEC00A80EDA3
:10240000000AFFF72FFF1A4890ED000ABAE71348B9
:1024100090ED000ADFED180AB4EEE00AF1EE10FAD2
:1024200010DDFFF711FF124890ED000ADFED130AEF
:1024300030EE200A80ED000AFFF714FF0C4890ED03
:10244000000A9FE700F03AF800F026F89FED0B0A2B
:10245000074880ED000A90ED000A93E77000002025
:1024600000007A4400000000740000207800002082
:102470007C0000200060EA4600008C4200005C42C4
:1024800000008CC210B5044621460248FFF788FEC2
:1024900010BD00000000014010B59FED060A06487F
:1024A00080ED000A47F230514FF08040FFF77AFE8E
:1024B00010BD0000000000009800002010B54FF48F
:1024C00000710448FFF77BF84FF480610148FFF783
:1024D00076F810BD0000024010B50A460023002126
:1024E00021E0445C242C1DD14C1C045D412C19D1ED
:1024F0008C1C045D552C15D1CC1C045D562C11D1BF
:102500000C1D045D322C0DD14C1D045D302C09D105
:102510008C1D045D302C05D1CC1D045D302C01D107
:10252000CBB202E0491C2429DBDB00BF00210CE018
:102530005C18242C03DA5C18045D545404E0C3F1E5
:1025400024040C1B045D5454491C2429F0DB10BDE9
:1025500002460020002103E0535C0344D8B2491C2A
:102560002029F9DBC143C8B2411CC8B2704708B585
:1025700001788DF8001041788DF8011081788DF880
:102580000210C1788DF803109DED000A08BD0246C7
:102590000020002103E0535C0344D8B2491C072902
:1025A000F9DBC143C8B2411CC8B2704700B58DB059
:1025B00001210220FFF74AF802208DF830000020A8
:1025C0008DF832004FF400700B9001208DF833002D
:1025D00003208DF831000BA95648FEF785FF012135
:1025E0000220FFF733F802208DF8300000208DF82C
:1025F00032004FF480700B9001208DF833000320DF
:102600008DF831000BA94B48FEF76EFF09221146E9
:102610004848FEF7B1FF092208214648FEF7ACFF03
:1026200001214806FFF722F84348FEF73BF9002056
:102630008DF826008DF827008DF8280001208DF8F0
:10264000290000208DF82A0001208DF82B000020A1
:102650008DF822008DF823000B208DF82400072030
:102660008DF825000220ADF8200008A93248FEF7B9
:10267000CEF900208DF81A008DF81B008DF81C0093
:102680002E4800684FF6FF7101EA4010ADF81000C7
:102690002A48006801EA4010ADF812002848006896
:1026A00001EA4010ADF814002548006801EA401026
:1026B000ADF816000020ADF8180001208DF81D00BF
:1026C00004A8FEF717F9012202211B48FEF796F92C
:1026D00014208DF8000001208DF8030000208DF8F3
:1026E00001008DF802006846FEF772FF012102200A
:1026F000FEF7BCFF0020ADF8060041F61F40ADF824
:102700000400C820029001A90E48FFF74DFD0121E9
:102710000C48FFF713FD1D208DF8000001208DF8F7
:1027200001008DF802008DF803006846FEF750FFA7
:102730000DB000BD0004024000640040080000200D
:102740001C0000200004004008B5C1788DF800107E
:1027500081788DF8011041788DF8021001788DF89C
:1027600003109DED000A08BD10B54648B0F90400FD
:102770004549B1F9041088421DD04249B1F904001D
:10278000002801DB014600E041420A290BDD3D48FB
:10279000B0F9040000EE900AF8EEE00AB0EE600A2C
:1027A000FFF73AF903E09FED390AFFF735F93548AD
:1027B0008088354988803348B0F90A0020B1012863
:1027C00007D002280FD109E0B3EE0E0AFFF7E2F8B6
:1027D00009E09FED2E0AFFF7DDF804E0BBEE0E0ADC
:1027E000FFF7D8F800BF00BF2648B0F9000026491F
:1027F000B1F90010884214D000240CE02148B0F94F
:10280000000000EE900AF8EEE00AB0EE600AFFF772
:102810008FF8601CC4B2032CF0DB1A4800881A49F8
:102820000880184AB2F90210002901DB0A4600E0CC
:102830004A42174B1B689A4223DD124AB2F9020042
:10284000002801DB024600E04242124B1B689A421C
:1028500017DA0021FE2000F091FE0A48B0F902408C
:10286000002C01DB204600E0604200EE100AB8EECA
:10287000C00ABCEEC00A10EE100A81B2FE2000F0C1
:1028800059FE10BD2E0300204E0300200000000062
:10289000243F0008283F000810B56D48007805283F
:1028A00027D2DFE800F003275481AE0069480078A2
:1028B00069490870694800784870694800788870EC
:1028C00068480078C870684800780871002048712E
:1028D00088710846FFF75BFE5F49C8710A46082108
:1028E0006248006800F0F0F859480078401C5849E8
:1028F0000870ABE05E4890ED000A5E4880ED000A8B
:10290000502055490870522048700020887059485E
:102910000068000EC87057480068000C08715548E0
:102920000088000A48715348007888710846FFF70C
:102930002EFE4949C8710A4608214C48006800F03B
:10294000C3F843480078401C414908707EE04A487B
:1029500090ED000A494880ED000A50203E49087079
:102960004B2048700020887044480068000EC870F2
:1029700042480068000C087140480088000A48710D
:102980003E48007888710846FFF701FE3249C87159
:102990000A4608213548006800F096F82C4800786F
:1029A000401C2B49087051E0334890ED010A34482F
:1029B00080ED000A5420284908704B204870002000
:1029C00088702F480068000EC8702D480068000C01
:1029D00008712B480088000A4871294800788871DE
:1029E0000846FFF7D4FD1C49C8710A4608211F4854
:1029F000006800F069F816480078401C1449087017
:102A000024E05220144908705020487056208870E5
:102A10001C480068000EC8701A480068000C087155
:102A200018480088000A48711648007888710846DE
:102A3000FFF7ADFD0849C8710A4608210B48006838
:102A400000F042F800200249087000BF00BF10BD2E
:102A500031000020500000202800002051000020FC
:102A600052000020530000205400002008000020E5
:102A70001C0200203C0000205C00002040000020E0
:102A8000440000204800002010B545200C49087083
:102A90004E204870442088704120C8705220087130
:102AA0004D204871322088710846FFF770FD0449B7
:102AB000C8710A4608210348006800F005F810BDF7
:102AC00028000020040000202DE9F04385B0804656
:102AD0000C469146CDF80080002001908DF8090049
:102AE0008DF80800E0B28DF80A00002005E019F822
:102AF00000200DF10B010A54401CA042F7DB69468F
:102B00000A48FEF795F80546002705E029460748DC
:102B1000FEF722F906467F1C012E03D04FF6FF7008
:102B20008742F3D105B0BDE8F083000000640040A7
:102B300010B501211020FEF799FD002002490881FF
:102B40000248FFF731FB10BD2801002000100040B3
:102B500070B504461448006880081449B0FBF1F0D1
:102B60000121C1EB40001249088040F2E730486083
:102B70001048FFF719FB002513E001210D48FFF76E
:102B8000D7FA01210B48FFF7D9FA00BF0121094804
:102B9000FFF7E3FA0028F9D000210648FFF7CEFA44
:102BA0006D1CA542E9D370BDD800002040420F0043
:102BB000280100200010004070B504461448006849
:102BC00080081449B0FBF1F00121C1EB400012492B
:102BD0000880012048601148FFF7E6FA002513E05D
:102BE00001210E48FFF7A4FA01210C48FFF7A6FACD
:102BF00000BF01210948FFF7B0FA0028F9D00021F1
:102C00000648FFF79BFA6D1CA542E9D370BD000092
:102C1000D800002080841E00280100200010004001
:102C200010B502460023002004E0145C242C00D1DF
:102C3000C3B2401C2628F8DB00200CE01C18262C10
:102C400003DA1C18145D0C5404E0C3F12604041BC1
:102C5000145D0C54401C2628F0DB10BD10B57F20FD
:102C600000F0DEFD10BD000000B585B00121082098
:102C7000FEF7ECFC01208DF8100000208DF812000A
:102C80004FF48050039000208DF8130003208DF83E
:102C9000110003A9DE48FEF727FC4FF48051DC4801
:102CA000FEF78DFC01210820FEF7D0FC01208DF8F5
:102CB000100000208DF812004FF400500390002007
:102CC0008DF8130003208DF8110003A9D048FEF7FA
:102CD0000BFC4FF40051CE48FEF771FC0121082097
:102CE000FEF7B4FC01208DF8100000208DF81200D2
:102CF0004FF48040039000208DF8130003208DF8DE
:102D0000110003A9C248FEF7EFFB4FF48041C04811
:102D1000FEF755FC01210820FEF798FC01208DF8F4
:102D2000100000208DF812004FF4004003900020A6
:102D30008DF8130003208DF8110003A9B448FEF7A5
:102D4000D3FB4FF40041B248FEF739FC01211020BB
:102D5000FEF77CFC01218803FEF7A8FC00208DF81B
:102D600010008DF812004FF40060039002208DF8DF
:102D7000130003208DF8110003A9A648FEF7B4FB49
:102D80000B210420FEF7E4FF4FF4006001900120C6
:102D90008DF80A0000208DF8080008208DF8090041
:102DA00001A8FEF751FB28208DF8000001208DF8C6
:102DB000030000208DF801008DF802006846FEF740
:102DC00007FC01211020FEF741FC01218803FEF7DA
:102DD0006DFC00208DF810008DF812004FF480502B
:102DE000039002208DF8130003208DF8110003A931
:102DF0008848FEF779FB0C210420FEF7A9FF4FF469
:102E00008050019001208DF80A0000208DF8080004
:102E100008208DF8090001A8FEF716FB28208DF880
:102E2000000001208DF8030000208DF801008DF8CE
:102E300002006846FEF7CCFB01211020FEF706FCDD
:102E400001218803FEF732FC00208DF810008DF878
:102E500012004FF40050039002208DF8130003205D
:102E60008DF8110003A96B48FEF73EFB0D210420ED
:102E7000FEF76EFF4FF40050019001208DF80A001C
:102E800000208DF8080008208DF8090001A8FEF741
:102E9000DBFA28208DF8000001208DF803000020C7
:102EA0008DF801008DF802006846FEF791FB0121C4
:102EB0001020FEF7CBFB01218803FEF7F7FB002073
:102EC0008DF810008DF812004FF48040039002201E
:102ED0008DF8130003208DF8110003A94D48FEF76B
:102EE00003FB0E210420FEF733FF4FF480400190D6
:102EF00001208DF80A0000208DF8080008208DF8C8
:102F0000090001A8FEF7A0FA28208DF80000012092
:102F10008DF8030000208DF801008DF8020068464E
:102F2000FEF756FB01211020FEF790FB01218803DC
:102F3000FEF7BCFB00208DF810008DF812004FF456
:102F40000040039002208DF8130003208DF811003B
:102F500003A93048FEF7C8FA0F210420FEF7F8FE57
:102F60004FF40040019001208DF80A0000208DF8F8
:102F7000080008208DF8090001A8FEF765FA28204E
:102F80008DF8000001208DF8030000208DF801006D
:102F90008DF802006846FEF71BFB01210420FEF7B6
:102FA00055FB01208DF8100000208DF812004FF421
:102FB0000040039000208DF8130003208DF81100CD
:102FC00003A91548FEF790FA4FF400411248FEF7A6
:102FD000F6FA01210420FEF739FB01208DF81000DC
:102FE00000208DF812004FF48060039002208DF8CD
:102FF000130003208DF8110003A90748FEF774FAA7
:103000004FF480610448FEF7DAFA05B000BD000015
:10301000000C0240001002400008024010B54FF4BE
:1030200000410248FEF7CBFA10BD0000000C024040
:1030300010B54FF400410248FEF7C3FA10BD00007E
:10304000000C024008B5C1788DF8001081788DF829
:10305000011041788DF8021001788DF803109DED74
:10306000000A08BD70B505460E48057049200D4997
:103070004870012088700B1DCA1C0321D01EFDF76B
:10308000BBFE002404E00749085D00F033F8641C2F
:10309000052CF8DB00BF8021034800F038FB012835
:1030A000F9D170BD300200200048004070B50546DF
:1030B0000E48057049200D494870042088700B1D8A
:1030C000CA1C0321D01EFDF797FE002404E0074927
:1030D000085D00F00FF8641C052CF8DB00BF8021B0
:1030E000034800F014FB0128F9D170BD3002002024
:1030F0000048004010B5044600BF8021044800F09D
:1031000006FB0128F9D12146014800F077FB10BDEC
:103110000048004010B50B46FF22C17AFF290AD1B2
:10312000017BFF2907D1417B012904D101780A29BC
:1031300001D10B2235E0017BFF290AD1417BFF2918
:1031400007D10178012904D141780A2901D10C2243
:1031500027E0417BFF290AD10178FF2907D1417877
:10316000012904D181780A2901D10D2219E0012118
:1031700014E00B2910DA445CFF2C0DD14C1C045DCB
:10318000FF2C09D18C1C045D012C05D1CC1C045DE5
:103190000A2C01D10A4603E04C1CE1B20E29E8DBFF
:1031A00000BFFF2A11D000210DE054180E2C03DAC5
:1031B0005418045D5C5404E0C2F10E040C1B045D61
:1031C0005C544C1CE1B20E29EFDB10BD10B5024679
:1031D0000B460021022003E0145C0C44A1B2401C09
:1031E0005C1E8442F8DCC8B2C04381B2C8B210BDD4
:1031F00000B599B001210846FEF728FA02208DF8A3
:10320000600000208DF862000420179000208DF8E7
:10321000630003208DF8610017A95948FEF764F98F
:1032200001210846FEF712FA02208DF86000002006
:103230008DF862000820179000208DF863000320AD
:103240008DF8610017A94E48FEF74EF907220221BA
:103250004B48FEF791F9072203214948FEF78CF904
:1032600001214804FEF702FA4FF461401390002058
:10327000ADF858000C20ADF856000020ADF8540011
:10328000ADF85200ADF8500013A93E4800F04CFADA
:10329000012240213B4800F031FA01214805FEF7A8
:1032A000D5F94FF000600490374806903548001D6E
:1032B0000590002007900E200890002009904FF400
:1032C00080600A9000200B900C904FF480700D905D
:1032D00040020E9000200F900120109000201190CD
:1032E000129004A92948FEF72BF801212748FDF781
:1032F000CBFF012210212548FEF704F810208DF89D
:103300000C0000208DF80D0004208DF80E00012027
:103310008DF80F0003A8FEF75BF90121194800F0B2
:10332000E1F901212020FEF7A1F90020ADF8080005
:10333000ADF8020040F24730019040F2E730ADF8BE
:10334000000069461248FEF72FFF002201211048B5
:10335000FEF71DFF37208DF80C0000208DF80D00C2
:1033600005208DF80E0001208DF80F0003A8FEF750
:103370002FF900210648FEF7E1FE19B000BD00005C
:10338000000002400044004000020020886002402B
:103390000014004008B5014608788DF80000487810
:1033A0008DF80100BDF8000008BD000010B5FE203A
:1033B00000F066F84FF4FA70FFF7FEFB2221FE20C2
:1033C00000F098F84FF4FA70FFF7F6FB40F6C411DE
:1033D000FE2000F0AFF84FF4FA70FFF7EDFB01228A
:1033E00011460448FEF7D3FE01210248FEF7A6FE6F
:1033F00010BD00000014004070B505460E460024C4
:103400000CE000BF8021074800F081F90128F9D1C4
:10341000295D044800F0F2F9601CC4B2B442F0DB4C
:1034200070BD000000440040F0EE400A9FED101A0D
:10343000B0EE410AB2EE081AF4EEC10AF1EE10FA4B
:1034400004D29FED0C1AB0EE410A0FE09FED0A1A6C
:10345000F4EEC10AF1EE10FA04D2B0EE041AB0EEA6
:10346000410A03E09FED051AB0EE410A70470000E3
:103470000000000033331340CDCC6C4166664640FB
:103480001CB50446FF208DF800008DF801008DF872
:10349000024002208DF8030001208DF8040006216F
:1034A0006846FFF793FE8DF8050006216846FFF792
:1034B000A3FF1CBD1CB50446FF208DF800008DF84D
:1034C00001008DF8024004208DF8030002208DF8E1
:1034D000040024208DF8050008208DF8060008213E
:1034E0006846FFF773FE8DF8070008216846FFF76E
:1034F00083FF1CBD7CB504460D46FF208DF80000FF
:103500008DF801008DF8024004208DF8030003209F
:103510008DF8040004208DF805008DF80650082170
:103520006846FFF753FE8DF8070008216846FFF74D
:1035300063FF7CBD3EB505460C46FF208DF80000BC
:103540008DF801008DF8025005208DF8030003204E
:103550008DF804001E208DF80500E0B28DF80600FD
:10356000200A8DF8070009216846FFF72FFE8DF825
:10357000080009216846FFF73FFF3EBD3EB50546FE
:103580000C46FF208DF800008DF801008DF80250E8
:1035900005208DF8030003208DF8040020208DF80D
:1035A0000500E0B28DF80600200A8DF80700092119
:1035B0006846FFF70BFE8DF8080009216846FFF703
:1035C0001BFF3EBD00B595B001210420FEF73EF87B
:1035D00001212020FEF76AF801218805FEF736F860
:1035E00001210420FEF732F802208DF8500000205F
:1035F0008DF852008020139000208DF85300022097
:103600008DF8510013A93248FDF76EFF02208DF8A6
:10361000500000208DF852004020139000208DF8BB
:10362000530002208DF8510013A92948FDF75CFFD3
:10363000082206212648FDF79FFF0822072124487B
:10364000FDF79AFF23480F900020ADF84000ADF839
:103650004200ADF84400ADF848000C20ADF846003B
:103660000FA91D4800F060F801211B4800F03AF84E
:1036700001224021184800F041F84FF020600090EE
:103680001548001D01901548029000200390192054
:103690000490002005904FF4806006900020079071
:1036A00008904FF48070099040020A9000200B901F
:1036B00001200C9000200D900E9069460848FDF7FF
:1036C0003FFE01210648FDF7DFFD15B000BD0000FB
:1036D00000080240A08601000014014045020020BD
:1036E0002864024021B1828942F40052828104E0C0
:1036F00082894DF6FF731A40828170471AB1838A1E
:103700000B43838202E0838A8B43838270470246A5
:103710000020B1F5007F00D100BF13880B400BB132
:10372000012000E0002070472DE9FF4705460E46C6
:103730000024A14600BFA046B08900B100BF2C8A7A
:1037400024F44054F08804432C82AC8941F20C608C
:103750008443B08831890843718908430443AC81AC
:10376000AC8A24F44074B0890443AC826846FDF707
:10377000DFFF2048854202D01F48854202D1DDF894
:103780000C9001E0DDF80890A88900F4004040B1F9
:1037900009EBC90000EB091031684900B0FBF1F7F3
:1037A00007E009EBC90000EB091031688900B0FBA4
:1037B000F1F76420B7FBF0F004012009642101FB5C
:1037C0001078A88900F4004040B1322000EBC80016
:1037D000B0FBF1F000F00700044308E0322000EBFA
:1037E00008106421B0FBF1F000F00F0004432C81BD
:1037F000BDE8FF870010014000140140C1F308023A
:103800008280704700BFFEE70020014908607047D2
:10381000082C004010B5FFF7F7FFFFF71FFA10BDA7
:1038200000F07F01014A116070470000002C004049
:1038300003B401984100009850EAC12018BF042049
:103840004A0D18BF40F0010040F2FF72B2EB515F29
:1038500008BF40F00200012808BF052002B07047F1
:1038600070B52DED020B2DED0A8B82B00D98C40FB3
:1038700020F00045AE48854248D3AE48854219D372
:103880000C99C5F31300084309D09DED0C0B02B051
:10389000BDEC0A8B02B0BDE8704000F009BA002C04
:1038A00014BF9FEDA50B9DED0C0B02B0BDEC0A8B78
:1038B00002B070BD9FEDA20B53EC102B9DED0C0BD5
:1038C00051EC100BFCF75CFE0AD2022000F02CFA3F
:1038D00002B0BDEC0A8B02B0BDE8704000F0F4B954
:1038E0009FED990B53EC102B9DED0C0B51EC100B35
:1038F000FCF72EFE0AD2022000F016FA02B0BDEC50
:103900000A8B02B0BDE8704000F0EEB990489FED20
:1039100092BBA8425CD29248854219D29148784421
:1039200000EBC40090ED000B53EC102B9DED0C0B45
:1039300051EC100BFCF7E7FC41EC1A0B8A48784479
:1039400000EBC40090ED009BC4F10100041B36E0C5
:103950009FED870B53EC102B9DED0C0B51EC100BD6
:10396000FCF7D7FC41EC100B8348784400EBC40013
:1039700090ED001B51EC100B53EC112BFCF722FCCB
:10398000FCF7C6FD0446FCF7A5FD41EC180B9FEDC6
:103990007C0B53EC102BFCF7BCFC9DED0C1B53EC8B
:1039A000112BFCF7B3FC41EC1A0B9FED770B51EC9C
:1039B000180B53EC102BFCF7ACFC41EC190B51EC41
:1039C0001A0B53EC192BFCF79EFCCDE90C011BE004
:1039D0006F48854217D29FED700B53EC102B9DED75
:1039E0000C0B51EC100BFCF7EDFB53EC1B2BFCF715
:1039F000C7FD08D29DED0C0B53EC1B2B51EC100BAB
:103A0000FCF7E0FB6EE000249DED0C0B53EC102B5B
:103A100051EC100BFCF77DFC41EC180B60480521C4
:103A2000B0EE480AF0EE680A784400F0C5F853ECAE
:103A3000182B51EC100BFCF76CFC9DED0C1B53ECA0
:103A4000112BFCF763FC41EC180B9FED570B5CB39B
:103A500053EC182B51EC100BFCF755FC9DED0C0BA7
:103A600041EC1C0B53EC182B51EC100BFCF751FCE8
:103A700053EC1C2BFCF7BFFC53EC192BFCF746FC5A
:103A800053EC1A2BFCF73FFC53EC1B2BFCF73EFCD2
:103A9000CDE900016FF47F70844226DB01EB045016
:103AA00001909DED000B00E753EC102B51EC180B2F
:103AB000FCF729FC9DED0C0B41EC190B53EC182B7A
:103AC00051EC100BFCF725FC53EC192BFCF793FC85
:103AD0009DED0C1B53EC112BFCF715FC53EC1B2B31
:103AE000FCF714FC41EC100BDFE608464FF07A516E
:103AF00001EB04519FED2E0B084453EC102B019069
:103B00009DED000B51EC100BFCF703FC0D4645EC52
:103B1000100B044651EC100BFFF78AFE042808BF77
:103B200000F0E2F845EC104BBFE60000000000009A
:103B3000422E86400000F07F0000000000000000E0
:103B4000EF39FAFE422E864051302DD5104987C0FC
:103B5000422ED63F00000000000000000000F03FB1
:103B6000B2A2F03F4606000036060000000000004A
:103B7000FE822B654715F73FEA05000000000000B4
:103B80000000E0FE422EE63F763C7935EF39EA3D13
:103B90000000303E000000009C7500883CE4377E49
:103BA0005C05000000000000000000000000004074
:103BB000000000000000700170B504462DED028B7E
:103BC0004D1E00EBC500B0EE408AF0EE608A90ED2D
:103BD000000B35F0060017D053EC182B51EC100BEE
:103BE000FCF797FB41EC100B6D1E04EBC50090ED4C
:103BF000001B51EC100B53EC112BFCF7E3FA41ECDA
:103C0000100B35F00600E7D1022D36D0042D1CD064
:103C1000062D1CBFBDEC028B70BD53EC182B51EC74
:103C2000100BFCF776FB94ED0A1B53EC112BFCF701
:103C3000C9FA53EC182BFCF76CFB94ED081B53EC02
:103C4000112BFCF7BFFA41EC100B53EC182B51EC85
:103C5000100BFCF75EFB94ED061B53EC112BFCF7ED
:103C6000B1FA53EC182BFCF754FB94ED040B53EC16
:103C7000102BFCF7A7FA41EC100B53EC182B51EC6E
:103C8000100BFCF746FB94ED021B53EC112BFCF7D9
:103C900099FA53EC182BFCF73CFB94ED001B53EC0A
:103CA000112BFCF78FFABDEC028B41EC100B70BDB1
:103CB00010B553EC102B51EC100BFCF783FA41ECD0
:103CC000100B10BD000000009FED050B10B553EC6C
:103CD000102B51EC100BFCF71CFB41EC100B10BD32
:103CE00000000000000000709FED050B10B553ECC4
:103CF000102B51EC100BFCF70CFB41EC100B10BD22
:103D0000000000000000001002E008C8121F08C1F7
:103D1000002AFAD170477047002001E001C1121F4C
:103D2000002AFBD17047000001490860704700007D
:103D3000DC000020FEF72CF81E48FDF7F9FCFEF72A
:103D4000F7FEFEF791FF4FF4FA70FEF701FFFEF762
:103D50002DFC4FF4FA70FEF7FBFEFFF733FC4FF437
:103D6000FA70FEF7F5FEFFF743FA4FF4FA70FEF72C
:103D7000EFFEFFF71BFB4FF4FA70FEF7E9FEFE20A3
:103D8000FFF77EFB01200C490872887000200B4968
:103D9000C88101204881FFF74BF94FF47A70FEF794
:103DA000D7FEFFF73BF9012211460548FEF7EFF970
:103DB00000BFFEE7E0000020480100202E030020A5
:103DC0000004004070B50446049D601AEE1A70436A
:103DD000561A90FBF6F0184470BD000010B52DED9A
:103DE0000A8BB0EE408AF0EE608A9FED220B53EC16
:103DF000102B51EC180BFCF7C3FB19D8B0EE480A96
:103E0000F0EE680AFFF72CFDB0EE40AAF0EE60AAD3
:103E10009FED1A0B53EC102B51EC1A0BFCF7D2F957
:103E200041EC190BFCF774FB00B2BDEC0A8B10BD22
:103E300051EC180B81F0004141EC1C0BB0EE4C0A28
:103E4000F0EE6C0AFFF70CFDB0EE40BAF0EE60BA8F
:103E50009FED0A0B53EC102B51EC1B0BFCF7B2F946
:103E600041EC1A0B81F0004141EC190BFCF750FBBF
:103E700000B2DAE7000000000000000000000000CF
:103E80000000204000B52DED108B85B0B0EE40AAAB
:103E9000F0EE60AAB0EE418AF0EE618AB0EE42BA6E
:103EA000F0EE62BAB0EE439AF0EE639AB0EE44CA16
:103EB000F0EE64CA53EC182B51EC1B0BFCF723FA01
:103EC00041EC1D0B53EC192B51EC1C0BFCF71BFAAE
:103ED00041EC1E0B53EC182B51EC1A0BFCF713FAA8
:103EE00041EC1F0B53EC1E2BFCF713FA53EC1D2B6C
:103EF000CDE900019DED000B51EC100BFCF77BFAB6
:103F000053EC192BCDE902019DED020B51EC100B86
:103F1000FCF758F941EC100B05B0BDEC108B00BD5F
:103F200004080000B0040000600900000807000059
:103F3000000000003A000000E8030000280A00002A
:103F40000000000000000000010203040607080949
:103F50000000000001020304000000000000E03F38
:103F6000000000000000E0BF0000E0FE422EE63F3F
:103F70000000E0FE422EE6BF763C7935EF39EA3D9F
:103F8000763C7935EF39EABD3E5555555555C53F17
:103F900093BDBE166CC166BF2CDE25AF6A56113FBD
:103FA000F16BD2C541BDBBBED0A4BE726937663EBF
:103FB000D03F000800000020E0000000083D00089D
:103FC000B0400008E000002090120000183D0008FA
:103FD0000000000021010000220100002301000078
:103FE000240100002501000026010000FE00000061
:103FF00000000000000000000000000000000000C1
:1040000000000000000000000000000000000000B0
:104010000000000000000000000000000000E1447B
:104020000000000000000000000000000000000090
:104030000000000000000000000000000000000080
:104040000000000000000000000000000000000070
:104050000000000000000000000000000000000060
:104060000000000000000000000000000000000050
:104070000000000000000000000000000000000040
:104080000000000000000000000000000000000030
:104090000000000000000000000000000102030416
:1040A0000102030406070809007A030A0000000061
:040000050800018965
:00000001FF
