:020000040800F2
:100000006F130020A10100084910000841100008EA
:1000100045100008E90100082D310008000000002B
:100020000000000000000000000000001D17000894
:10003000010E000800000000C5100008B90100080A
:100040003D310008BB010008BB010008BB010008EE
:10005000BB010008BB010008BB010008BB01000890
:10006000BB010008BB010008BB010008E108000853
:10007000BD090008BB010008BB010008BB01000866
:10008000550A0008BB010008BB010008BB010008BD
:10009000ED010008BB010008BB010008BB0100081E
:1000A000BB010008BB010008BB010008BB01000840
:1000B000ED180008151900083D1A0008BB010008DA
:1000C000BB010008BB010008BB010008BB01000820
:1000D000BB010008BB010008BB010008BB01000810
:1000E000050E0008BB010008BB010008BB010008A9
:1000F000BB010008BB010008BB010008BB010008F0
:10010000BB010008BB010008F51A0008BB0100088C
:10011000BB010008BB010008BB010008151B00085B
:10012000BB010008410C0008BB010008BB0100082E
:10013000BB010008BB010008BB010008BB010008AF
:10014000BB010008BB010008BB010008BB0100089F
:10015000890C0008BB010008BB010008BB010008B6
:10016000BB010008BB010008BB010008BB0100087F
:10017000BB010008BB010008BB0100080000000033
:10018000BB010008BB010008DFF810D000F01AF82E
:100190000048004779310008AFF300806F1300205A
:1001A0000648804706480047FEE7FEE7FEE7FEE711
:1001B000FEE7FEE7FEE7FEE7FEE7FEE78918000838
:1001C00089010008064C074D06E0E06840F0010395
:1001D00094E8070098471034AC42F6D3FFF7D8FFF5
:1001E000AC320008CC32000800BFFEE710B5494A27
:1001F0000021494800F0E8F90021474800F0D5F90E
:10020000022803DB0021444800F0ACF841480068B4
:100210004249096888427CD13E48007A002878D15A
:100220003C48807A082874D13A480B3001F0B1FE7E
:100230003849897C88426CD13648C07A52280ED120
:100240003448007B55280AD13248407B442806D1E7
:1002500030480E3001F07AFF314880ED000A2D4819
:10026000C07A43280FD12B48007B4F280BD1294857
:10027000407B4E2807D101202A4908700020487091
:100280000120294948812348C07A43280CD12148BC
:10029000007B4F2808D11F48407B462804D100200E
:1002A00020490870012048701A48C07A43280ED1AE
:1002B0001848007B41280AD11648407B4E2806D1B9
:1002C0001448807B4F2802D101201649C87011487C
:1002D000C07A43280ED10F48007B41280AD10D482F
:1002E000407B4E2806D10B48807B432802D100205A
:1002F0000C49C8700748C07A45280AD10548007BD8
:100300004A2806D10348407B532802D101200549E1
:10031000087110BD40010020006400401C00002056
:100320005C000020540000202E03002010B504467D
:100330000B48844209D10121480600F0E5FE002166
:100340004FF0007000F0E0FE08E00121880600F0A8
:10035000DBFE00214FF0806000F0D6FE10BD0000F3
:100360000064004021B9C26842F02002C26003E08C
:10037000026942F0200202617047000010B50021BE
:10038000837A012202FA03F13D4A126842F0010227
:100390003B4B1A603A4A1C3212688A43384B1C3372
:1003A0001A60027BCAB9364A0C3212688A43344B4F
:1003B0000C331A604288C38842EA0343304A403211
:1003C000847A42F834300288838842EA03432C4A14
:1003D0004032847A02EBC4025360027B012A19D1B5
:1003E000274A0C3212680A43254B0C331A604288A4
:1003F000038842EA0343224A4032847A42F8343086
:10040000C288838842EA03431D4A4032847A02EB61
:10041000C4025360C27A3AB9194A121D12688A435B
:10042000174B1B1D1A6006E0154A121D12680A437D
:10043000134B1B1D1A60028932B9114A143212681B
:100440008A430F4B14331A600289012A06D10C4AE1
:10045000143212680A430A4B14331A60427B012A91
:1004600006D1074A1C3212680A43054B1C331A6036
:10047000034A126822F00102014B1A6010BD00000D
:10048000006600401AB143690B43436102E04369CF
:100490008B434361704730B5024600200023146847
:1004A00024F002041460146844F00104146000E0B5
:1004B0005B1C546804F001041CB94FF6FF74A3429E
:1004C000F6D1546804F001040CB900206CE08C797A
:1004D000012C04D1146844F08004146003E0146813
:1004E00024F080041460CC79012C04D1146844F009
:1004F0004004146003E0146824F0400414600C7A93
:10050000012C04D1146844F02004146003E0146842
:1005100024F0200414604C7A012C04D1146844F0B7
:100520001004146003E0146824F0100414608C7A42
:10053000012C04D1146844F00804146003E014682A
:1005400024F008041460CC7A012C04D1146844F01F
:100550000404146003E0146824F0040414608C782C
:10056000A407CD7844EA05640D7944EA05444D7941
:1005700044EA05540D886D1E2C43D461146824F0A0
:1005800001041460002300E05B1C546804F00104C3
:100590001CB14FF6FF74A342F6D1546804F0010475
:1005A0000CB1002000E0012030BD0246002019B946
:1005B000D36803F0030006E0012903D1136903F0B7
:1005C000030000E00020704710B500F5D87303EB7E
:1005D00001131B6803F004031372137A53B900F577
:1005E000D87303EB01131B6840F2FF7404EA535302
:1005F000136009E000F5D87303EB01131B686FF07B
:10060000604404EAD303536000F5D87303EB01138D
:100610001B6803F00203537200F5D87303EB011358
:100620005B6803F00F03937200F5D87303EB0113BB
:100630005B681B0AD37400F5D87303EB01139B6846
:10064000D37200F5D87303EB01139B681C0A147373
:1006500000F5D87303EB01139B681C0C547300F571
:10066000D87303EB01139B681B0E937300F5D873CB
:1006700003EB0113DB68D37300F5D87303EB0113AD
:10068000DB681C0A147400F5D87303EB0113DB68F4
:100690001C0C547400F5D87303EB0113DB681B0EBC
:1006A000937421B9C36843F02003C36003E0036976
:1006B00043F02003036110BD10B50246002093688B
:1006C00003F08063B3F1806F00D110E0936803F012
:1006D0000063B3F1006F01D1012008E0936803F0DB
:1006E0008053B3F1805F01D1022000E00420042890
:1006F00074D002F5C07303EB00131B6803F0010410
:1007000002F5C07303EB00131C600B7A7BB94B7AC4
:100710000C8843EA445302F5C07404EB00142468C7
:10072000234302F5C07404EB0014236010E00B7A3D
:100730004C6843EAC4034C7A234302F5C07404EBCB
:1007400000142468234302F5C07404EB00142360F2
:100750008B7A03F00F038B7202F5C07303EB001367
:100760005B6823F00F0402F5C07303EB00135C60B9
:1007700002F5C07303EB00135B688C7A234302F528
:10078000C07404EB001463608B7B1C064B7B44EA53
:1007900003440B7B44EA0323CC7A234302F5C07461
:1007A00004EB0014A3608B7C1C064B7C44EA0344DE
:1007B0000B7C44EA0323CC7B234302F5C07404EB97
:1007C0000014E36002F5C07303EB00131B6843F0F1
:1007D000010402F5C07303EB00131C6010BD0000A0
:1007E00010B50246002321B1012907D002290FD1FB
:1007F00009E090681D4C00EA04030BE090681C4C73
:1008000000EA040306E090681A4C00EA040301E0E1
:10081000002300BF00BF184C181BA34216D007DCF2
:1008200083B16FF08060184470B1022818D111E0D4
:10083000B0F5007F10D0114C204448B1B0F5003F16
:100840000ED10BE002230DE000230BE0002309E0B2
:10085000002307E0012305E0012303E0012301E079
:10086000002300BF00BFD8B210BD00000300000489
:100870000003000800000310000100080001FFF75A
:10088000F0B504464FF6FF700F4600251FE014F840
:1008900005C08CEA000000260FE000F0010CBCF15E
:1008A000000F05D040084AF2010C80EA0C0000E07D
:1008B000400806F1010C0CF0FF06082EEDDBA7F155
:1008C000010C0CF0FF0705F1010C0CF0FF05002FE7
:1008D000DDDC4FEA102C82F800C01870F0BD00007B
:1008E00010B53049304800F00FFA002859D02F4990
:1008F0002F4801F0F3FA2D48007824284DD12B48D9
:100900004078412849D129488078552845D1274841
:10091000C078562841D12548007932283DD1234856
:100920004079302839D121488079302835D11F4885
:10093000C079302831D11D4801F00CFB1B4991F8DA
:100940002010884229D11948083001F012FB1948BB
:1009500080ED000A15480C3001F00BFB154880EDC6
:10096000010A1248103001F004FB124880ED020A1F
:100970000E48143001F0FDFA0E4880ED030A0B48D2
:10098000183001F0F6FA0B4880ED040A07481C30D5
:1009900001F0EFFA074880ED050A0749024800F028
:1009A0008DF910BD008020101060024078010020F9
:1009B000540100209C01002000F03D901CB520490E
:1009C000204800F0A1F9002839D06B4601AA072180
:1009D0001D48FFF755FF1C48C0799DF80410884258
:1009E00017D11948007A9DF80010884211D1174894
:1009F000007838B91448801C01F0B8FF144880ED25
:100A0000000A06E01048801C01F0B0FF104880ED9D
:100A1000010A0E48007840B9FA2001F0DBFF0B48CC
:100A20000078401C0949087005E0FA2001F0AEFF8B
:100A30000020064908700249024800F03FF91CBD39
:100A40000088001028600240390200206800002061
:100A50006C00002010B56F496F4800F055F9002870
:100A60007DD06E496E4801F0E9FF0E216B4802F01F
:100A700041F86A49497B884272D16848401D02F0BA
:100A80001DF900EE100AB8EE400A664880ED000A33
:100A90006248C01D02F012F900EE100AB8EE400ADA
:100AA000DFED610AB4EEE00AF1EE10FA0FD85B4810
:100AB000C01D02F003F900EE100AB8EE400ADFEDA7
:100AC0005B0A20EE200A574880ED010A28E05348CF
:100AD000C01D02F0F3F800EE100AB8EE400ADFED98
:100AE000540AB4EEE00AF1EE10FA19DBDFED510A18
:100AF000B0EE600A4948C01D02F0E0F800EE900A2E
:100B0000F8EE600A9FED4A1A70EEC10AB0EE600A74
:100B1000DFED490A60EE200A4248C0ED010A00BF3D
:100B20003E48007B00EE100AB8EE400A3D4880EDDA
:100B3000040A3A48C07A00EE100AB8EE400AF2EE13
:100B4000040A80EE201A374880ED031A3348093032
:100B500002F0B4F800EE100AB8EE400A01E058E0E6
:100B600053E0DFED310AB4EEE00AF1EE10FA18D8E6
:100B70002A48093002F0A2F800EE100AF8EE401AF6
:100B80002848D0ED030AB0EE600A02F0E1F821EE49
:100B9000800ADFED250A80EE201A224880ED021A35
:100BA00033E01E48093002F089F800EE100AB8EE72
:100BB000400ADFED1F0AB4EEE00AF1EE10FA24DB82
:100BC0009FED1C0AF0EE401A1448093002F076F846
:100BD00000EE100AB8EE400ADFED150A30EE600AAA
:100BE000F0EE401A0F48D0ED030AB0EE600A02F0B2
:100BF000AFF8B1EE400A20EE210ADFED0B0A80EEDD
:100C0000201A084880ED021A00BF0C49024800F083
:100C100055F810BD00880020886002400E020020B8
:100C2000000200201C02002000C07F44AE47E13DCE
:100C30000000804400000000AE47E1BD40FF00A07E
:100C400008B50949094800F05FF838B10848094B70
:100C5000094A0A4900900A4800F05EFC0949034825
:100C600000F02CF808BD0000008800102864024045
:100C7000B9000020B80000202E0300200E03002041
:100C80004202002040FF009010B50749074800F0DD
:100C90003BF838B10649074801F056FC06490348BD
:100CA00000F00CF810BD00000088002088640240AD
:100CB000DA010020B401002040FF00A00246094BE9
:100CC0009A4201D2084801E00648103801F000536A
:100CD0001BB1064B0B40C36002E0044B0B4083602A
:100CE0007047000010640240006002407D0F7D0FDD
:100CF00021B1026842F00102026003E0026822F0C2
:100D0000010202607047000070B502460020002416
:100D10000025124EB24201D2114B01E00F4B103BA5
:100D2000104E0E4036B11E2606EAD124166806EA99
:100D3000040502E0566906F0800501F000560EB188
:100D40005C6800E01C68084E344004EA010616B1F5
:100D50000DB1012000E0002070BD000010640240D1
:100D6000006002403C0F3C0F7D0F7D0F10B501F07D
:100D700080034BB122B1436943F08003436103E038
:100D8000436923F08003436180290BD02AB10368B3
:100D900001F01E042343036004E0036801F01E0415
:100DA000A343036010BD000010B500220268134B7E
:100DB0001A40CC680B6823434C6923438C69234356
:100DC000CC6923430C6A23434C6A23438C6A234334
:100DD0004C6B23438C6B23431A430260426922F01D
:100DE0000702D1E90B3423431A4342610B69436084
:100DF0004B6883608B68C36010BD00003F801CF0AF
:100E00007047000010B54FF4006000F045F828B1BD
:100E1000012019490870C00200F038F84FF48050E2
:100E200000F03AF828B1012014490870000300F0DE
:100E30002DF84FF4005000F02FF828B10120104990
:100E40000870400300F022F84FF4804000F024F8CE
:100E500028B101200B490870800300F017F84FF407
:100E6000004000F019F828B1012007490870C003BC
:100E700000F00CF810BD00006000002061000020B0
:100E80006200002063000020640000200149086027
:100E900070470000143C014001460020034A1268DC
:100EA0000A400AB1012000E000207047143C0140D4
:100EB000002123498279002A3AD00A461268036841
:100EC0009A430B461A600A1D126803689A430B1D69
:100ED0001A60027911440A6803681A430A60184AC2
:100EE0000832126803689A43154B08331A601A1DBA
:100EF000126803689A43124B0C331A604279102A25
:100F00000ED11A1F126803681A430D4B08331A607A
:100F10001A1D126803681A43094B0C331A600DE05E
:100F20000749427911440A6803681A430A6005E0D8
:100F3000027911440A6803689A430A607047000006
:100F4000003C0140014A107070470000003C024024
:100F5000F0B50A4600210023002400BF3DE0012532
:100F600005FA01F3156805EA03049C4234D10568CB
:100F70004F000326BE40B543056015794E00B540CD
:100F80000668354305601579012D02D01579022DCB
:100F900016D185684F000326BE40B543856055795C
:100FA0004E00B540866835438560456801268E4011
:100FB000B5434560456896798E40B6B23543456085
:100FC000C5684F000326BE40B543C560D5794E00C5
:100FD000B540C6683543C560491C1029BFD3F0BD74
:100FE000F0B5002300244D07ED0E02FA05F3CE10F4
:100FF00000F1200555F826504E07F70E0F26BE408B
:10100000B543CF1000F1200646F82750CE1000F16E
:10101000200555F8265045EA0304CE1000F12005BE
:1010200045F82640F0BD0246002013690B400BB185
:10103000012000E000207047418370470183704722
:1010400000BFFEE700BFFEE77047000070B500215B
:1010500000230F22C4781CB3174C246804F4E06406
:10106000C4F5E064C4F30721C1F10404E3B20A410A
:1010700044789C40E1B28478144021430C07210E4F
:101080000E4C05786155047804F01F050124AC402E
:1010900005786D11AD0005F1E025C5F8004109E0C6
:1010A000047804F01F050124AC40054D0678761144
:1010B00045F8264070BD00000CED00E000E400E0C3
:1010C00080E100E07047000029B1064A126802433F
:1010D000044B1A6004E0034A12688243014B1A6011
:1010E000704700003038024029B1064A12680243B6
:1010F000044B1A6004E0034A12688243014B1A60F1
:10110000704700004038024029B1064A1268024385
:10111000044B1A6004E0034A12688243014B1A60D0
:10112000704700002038024029B1064A1268024385
:10113000044B1A6004E0034A12688243014B1A60B0
:1011400070470000443802401448006840F0010035
:101150001249086000201149083108600F480068F2
:101160000F4908400D4908600E48091D08600E48E7
:101170000A49843108600B481038091D0860074887
:10118000006820F4802005490860002003490C31E4
:10119000086002498C310860704700000038024046
:1011A000FFFFF6EA1030002400300020F0B50021E7
:1011B00000220024022500260223324F3F6807F058
:1011C0000C0121B1042905D0082937D105E02E4FA3
:1011D000076036E02D4F076033E02A4F3F1F3F681E
:1011E000C7F38056274F3F1F3F6807F03F036EB19C
:1011F000264FB7FBF3F7DFF88CC0ACF1040CDCF83A
:1012000000C0CCF3881C07FB0CF40CE01E4FB7FBAE
:10121000F3F7DFF870C0ACF1040CDCF800C0CCF3DD
:10122000881C07FB0CF4174F3F1F3F68C7F30147AB
:101230007F1C7D00B4FBF5F7076002E0124F0760EA
:1012400000BF00BF0F4F3F6807F0F0010909104FC2
:101250007A5C0768D74047600A4F3F6807F4E0515F
:10126000890A0B4F7A5C4768D7408760054F3F6813
:1012700007F46041490B064F7A5C4768D740C76066
:10128000F0BD0000083802400024F40000127A008B
:10129000D800002010B501460022002300204A118A
:1012A000012A02D10A4C236808E0022A03D1084C23
:1012B0007034236802E0064C7434236801F01F0286
:1012C000012494401C400CB1012000E0002010BD1E
:1012D0000038024001460020034A106820F0F00068
:1012E0000843106070470000083802400021024A9D
:1012F0001170114608707047023802400146002004
:10130000034A106820F4E050084310607047000062
:101310000838024001460020034A106820F460406B
:1013200040EAC10010607047083802400149086671
:10133000704700000000474270B5049C41EA8215E6
:101340000126C6EB530645EA0645054345EA046512
:10135000014E356070BD0000043802400146002097
:10136000034A106820F00300084310607047000033
:101370000838024038B5002000900024002500BF46
:101380003120FFF787FF05460098401C0090009829
:10139000B0F5A04F01D0002DF2D03120FFF77AFF39
:1013A00008B1012400E00024204638BD10B52DED21
:1013B000028BB0EE408A134880ED008A4F2012491C
:1013C00008704C2048704D2088700E480068000E50
:1013D000C8700C480068000C08710A480088000AB0
:1013E0004871084800788871084600F0D2FD064927
:1013F000C8710A4608210548006800F0F9FFBDECF5
:10140000028B10BD4400002038000020180000208E
:1014100010B52DED028BB0EE408A4F201A490870AE
:1014200050204870B5EEC08AF1EE10FA05DB52206C
:101430008870164880ED008A07E04C2012498870B9
:10144000B1EE480A114880ED000A10480068000E0D
:101450000D49C8700D480068000C08710B480088E1
:10146000000A4871094800788871084600F091FD2B
:101470000549C8710A4608210548006800F0B8FF10
:10148000BDEC028B10BD000038000020440000209D
:101490001800002010B52DED028BB0EE408A4F20D1
:1014A0001A4908704C204870B5EEC08AF1EE10FA67
:1014B00005DB52208870164880ED008A07E04C203A
:1014C00012498870B1EE480A114880ED000A1048B0
:1014D0000068000E0D49C8700D480068000C0871C6
:1014E0000B480088000A487109480078887108464E
:1014F00000F04FFD0549C8710A46082105480068FB
:1015000000F076FFBDEC028B10BD0000380000201B
:1015100044000020200000202DE9F84104460D463B
:1015200016461F46DDF81C80E0780F287ED1E07E4D
:101530000028FBD1002D7AD02179607941EA002082
:10154000C0F30A0028806079C110A07941EA4010F8
:10155000C0F30A006880A0798111E07941EA800136
:10156000207A41EA8020C0F30A00A880207A411046
:10157000607A41EAC010C0F30A00E880607A011185
:10158000A07A41EA0010C0F30A002881A07AC111B4
:10159000E07A41EA4001207B41EA4020C0F30A00A2
:1015A0006881207B8110607B41EA8010C0F30A00D3
:1015B000A881607B4111A07B41EAC000E881E17B0A
:1015C000207C41EA0020C0F30A002882207CC11060
:1015D000607C41EA4010C0F30A006882607C81119F
:1015E000A07C41EA8001E07C41EA8020C0F30A004F
:1015F000A882E07C4110207D41EAC010C0F30A00BF
:10160000E882207D0111607D41EA0010C0F30A00EC
:101610002883607DC111A07D41EA4001E07D41EA5F
:101620004020C0F30A006883E07D01E06DE051E0F6
:101630008110207E41EA8010C0F30A00A883207E3A
:101640004111607E41EAC000E8833148009068881B
:10165000304B40F21372B02101F0FAFD00B27080FD
:1016600032200090A8886FF0310340F21372AC2151
:1016700001F0EEFD00B2B0803A20009028880023EF
:1016800040F21372B02101F0E3FD00B2308002207D
:1016900000906889002340F21372AC2101F0D8FD5C
:1016A00000B2708101200090E889002340F213729B
:1016B000AC2101F0CDFD00B2F081E88BB0F5FA7FEE
:1016C00008DA4FF4E16070800020B0800120708162
:1016D00011498870B8F1000F0AD0A07E00F0040014
:1016E00018B1012088F8000002E0002088F800000E
:1016F00047B1A07E00F0080010B10120387001E071
:10170000002038700120BDE8F8810020FBE70000D0
:1017100050FBFFFFA0F6FFFF5400002070470000C1
:1017200030B500228B071C0F0F2303FA04F20B4B7A
:101730008C1053F824309343084C8D1044F8253016
:1017400023468C1053F824308C07240F00FA04F43D
:101750002343024C8D1044F8253030BD0838014039
:1017600038B5FFF7F1FC0120FFF7C0FDFFF702FEDF
:101770000446012C23D1072002234FF4A87208212C
:101780000090C804FFF7D8FD0120FFF7CFFD00BF90
:101790003920FFF77FFD0028FAD00520FFF7D2FBA4
:1017A0000020FFF797FD4FF4A050FFF7A7FD4FF47F
:1017B0008050FFF7AFFD0220FFF7D0FD01E000BF32
:1017C000FEE700F001F838BD70B5002000220223CA
:1017D00000240221274D2D6805F00C0020B10428BB
:1017E00006D0082834D107E0234D244E356033E07D
:1017F000234D224E35602FE01E4D2D1F2D68C5F361
:1018000080541C4D2D1F2D6805F03F0154B11C4D17
:10181000B5FBF1F5174E361F3668C6F3881605FB83
:1018200006F209E0144DB5FBF1F5124E361F36688D
:10183000C6F3881605FB06F20E4D2D1F2D68C5F365
:1018400001456D1C6B00B2FBF3F50C4E356003E0F7
:10185000094D0A4E356000BF00BF064D2D68C5F327
:101860000315084E705D054D2D68C540034E35606B
:1018700070BD0000083802400024F400E800002099
:1018800000127A00943200081448006840F4700096
:10189000124908601248006840F0010010490860D1
:1018A00000200F49083108600D4800680D490840C4
:1018B0000B4908600C48091D0860081F006820F4E7
:1018C0008020091F0860002005490C3108604FF096
:1018D00000600249803908607047000088ED00E030
:1018E00000380240FFFFF6FE1030002410B5012141
:1018F000880700F03DF9012809D10121800700F097
:101900001CF94FF0804000F027F90149086010BD34
:101910009400002008B501213E4800F029F9002874
:1019200073D03D483D4B3E4A3E4900903E48FFF74C
:10193000F3FD3B48B0F90E0010B1012854D135E059
:101940003A480078E0B139484078C8B900F02EFC38
:1019500036488078A0B19FED360AFFF79BFD9FEDDA
:10196000340AFFF755FD3348008881B2FE2001F0AC
:1019700075FA00202D4908700120487000208870F9
:101980002A48407888B12948007870B90021FE20A3
:1019900001F088FA284890ED000ABCEEC00A10EE6B
:1019A000100A81B2FE2001F059FA1DE000F0FEFBA2
:1019B0001E488078B8B100201949C8819FED1C0AE3
:1019C000FFF768FD9FED1A0AFFF722FD194800880E
:1019D00081B2FE2001F042FA002014490870012073
:1019E00048700020887000BF00BF1048C07838B130
:1019F0000E48007920B100F081FC00200B490871ED
:101A00000A48007808B100F0D3FC0121014800F039
:101A100094F808BD00040040B9000020B800002080
:101A20002E0300200E03002042020020540000205C
:101A300000000000803200085C00002010B5012189
:101A4000214800F095F801283CD101211E4800F002
:101A500074F81E4890ED000ADFED1D0A20EE200A02
:101A6000F1EE000A20EE200ADFED1A0A80EE201ABD
:101A70009FED190A31EE000A184880ED000A4FF078
:101A8000804000F069F816490860164890ED002A79
:101A90001548D0ED001A154890ED001A084690ED53
:101AA000000AF8EEC00A0D4890ED000A00F000F9B7
:101AB000BCEEC00A10EE100A0D49088008460088E6
:101AC00000F0E2F910BD000000080040A80000206E
:101AD00000A039450000B4430060EA467C000020C5
:101AE00094000020B4000020B0000020AC000020D2
:101AF0007800002010B50121054800F039F828B120
:101B000000F034FB0121024800F017F810BD00007E
:101B1000000C004010B50121054800F029F830B153
:101B2000012001F05BF90121014800F006F810BD29
:101B300000140040CA4302827047CA4302827047C1
:101B400021B1028842F00102028004E002884FF6CF
:101B5000FE731A40028070470146486A7047024689
:101B60000020138A0B400BB1012000E000207047D9
:101B700030B50246002000230024158A05EA01033F
:101B8000958905EA010413B10CB1012000E00020A1
:101B900030BD1AB183890B43838102E083898B4373
:101BA0008381704741637047416270470022028819
:101BB000184B98420ED0184B98420BD0B0F1804F82
:101BC00008D0164B984205D0154B984202D0154BC1
:101BD000984204D14FF68F731A404B881A43124B28
:101BE000984207D0114B984204D04FF6FF431A4059
:101BF0000B891A4302804B68C3620B880385054B2F
:101C0000984202D0044B984201D18B7A038601237B
:101C1000838270470000014000040140000400403E
:101C200000080040000C004000100040001400407C
:101C300010B54FF480610448FFF700FA4FF40071CB
:101C40000148FFF7F9F910BD0000024010B54FF44C
:101C500000710448FFF7F2F94FF480610148FFF783
:101C6000EBF910BD000002400E4890ED000ADFEDD8
:101C70000E0AB4EEE00AF1EE10FA03DB9FED0A0A59
:101C800080ED000A074890ED000ADFED080AB4EE87
:101C9000E00AF1EE10FA03D89FED040A80ED000A85
:101CA000704700008C0000200000BE4200005C4233
:101CB00010B52DED068BB0EE408AF0EE608AB0EEE6
:101CC000419AF0EE619AB0EE42AA38EE680A644892
:101CD00080ED000AF3EE040A8AEE200ADFED610AC5
:101CE00080EE201A9FED600A29EE800AD0ED000AEE
:101CF0005E48D0ED001A70EEA10A20EE200A584886
:101D0000D0ED000A09EE200AD0ED000A5748D0EDC8
:101D1000001AB0EE002A42EE610A5548D0ED001AD2
:101D200070EEA10A01EE200A524880ED000A4F48E9
:101D300090ED000A4E4880ED000A494890ED000AF7
:101D40004A4880ED000A9FED4C0AB4EEC08AF1EEDD
:101D500010FA43DD424890ED000ADFED480AB4EE88
:101D6000E00AF1EE10FA12DDFFF770FF414890ED46
:101D7000000ADFED430A30EE200A80ED000AFFF78B
:101D800073FF3C4890ED000ABDEC068B10BD344853
:101D900090ED000ADFED3B0AB4EEE00AF1EE10FA36
:101DA00010D2FFF745FF334890ED000ADFED340A0B
:101DB00030EEC00A80ED000AFFF756FF2D4890ED87
:101DC000000AE1E700F07CF800F068F89FED2C0ACB
:101DD000284880ED000A90ED000AD5E7204890EDF4
:101DE000000ADFED280AB4EEE00AF1EE10FA10D294
:101DF000FFF71EFF1F4890ED000ADFED210A30EECD
:101E0000C00A80ED000AFFF72FFF1A4890ED000A84
:101E1000BAE7134890ED000ADFED180AB4EEE00AC5
:101E2000F1EE10FA10DDFFF711FF124890ED000AF5
:101E3000DFED130A30EE200A80ED000AFFF714FFF1
:101E40000C4890ED000A9FE700F03AF800F026F801
:101E50009FED0B0A074880ED000A90ED000A93E71A
:101E60008000002000007A44000000008400002070
:101E7000880000208C0000200060EA4600008C42B0
:101E800000005C4200008CC210B5044621460248A6
:101E9000FFF788FE10BD00000000014010B59FED67
:101EA000060A064880ED000A47F230514FF08040A4
:101EB000FFF77AFE10BD000000000000A80000201F
:101EC00010B54FF400710448FFF7B6F84FF4806185
:101ED0000148FFF7B1F810BD0000024010B50A46F6
:101EE0000023002121E0445C242C1DD14C1C045D06
:101EF000412C19D18C1C045D552C15D1CC1C045DD2
:101F0000562C11D10C1D045D322C0DD14C1D045DDD
:101F1000302C09D18C1D045D302C05D1CC1D045D05
:101F2000302C01D1CBB202E0491C2429DBDB00BFFD
:101F300000210CE05C18242C03DA5C18045D545476
:101F400004E0C3F124040C1B045D5454491C2429EF
:101F5000F0DB10BD02460020002103E0535C034487
:101F6000D8B2491C2029F9DBC143C8B2411CC8B210
:101F7000704708B501788DF8001041788DF8011090
:101F800081788DF80210C1788DF803109DED000A5C
:101F900008BD02460020002103E0535C0344D8B290
:101FA000491C0729F9DBC143C8B2411CC8B27047BC
:101FB00000B58DB001210220FFF786F802208DF8D0
:101FC000300000208DF832004FF400700B9001209B
:101FD0008DF8330003208DF831000BA95748FEF728
:101FE000B7FF01210220FFF76FF802208DF83000C3
:101FF00000208DF832004FF480700B9001208DF896
:10200000330003208DF831000BA94C48FEF7A0FFE8
:10201000092211464948FEF7E3FF092208214748F3
:10202000FEF7DEFF01214806FFF75EF84448FEF7A1
:102030007DF900208DF826008DF827008DF8280006
:1020400001208DF8290000208DF82A0001208DF84C
:102050002B0000208DF822008DF823000B208DF836
:10206000240007208DF825000220ADF8200008A9E3
:102070003348FEF710FA00208DF81A0001208DF881
:102080001B0000208DF81C002E4800684FF6FF71E1
:1020900001EA4010ADF810002A48006801EA40103B
:1020A000ADF812002748006801EA4010ADF81400AE
:1020B0002448006801EA4010ADF816000020ADF891
:1020C000180001208DF81D0004A8FEF757F9012221
:1020D00002211B48FEF7D6F914208DF800000120DC
:1020E0008DF8030000208DF801008DF8020068468D
:1020F000FEF7ACFF01210220FEF7F6FF0020ADF84D
:10210000060041F61F40ADF80400C820029001A966
:102110000D48FFF74BFD01210B48FFF711FD1D2076
:102120008DF8000001208DF801008DF802008DF877
:1021300003006846FEF78AFF0DB000BD00040240B0
:10214000006400401C0000200004004008B5C17875
:102150008DF8001081788DF8011041788DF802100B
:1021600001788DF803109DED000A08BD10B54120DF
:102170000C490870522048704D2088703220C87079
:102180005220087144204871592088710846FFF791
:1021900000FF0449C8710A4608210348006800F09E
:1021A00027F910BD380000201C00002010B54D4854
:1021B000B0F904004C49B1F9041088422AD0494AC8
:1021C000B2F90410002901DB0A4600E04A420A2A5B
:1021D00018DD444AB2F90400002801DB024600E0A1
:1021E0004242424B1B685B1D9A420BDA3D48B0F9F4
:1021F000040000EE900AF8EEE00AB0EE600AFFF785
:1022000049F903E09FED3A0AFFF744F93548808821
:10221000354988803348B0F90A0020B1012807D039
:1022200002280FD109E0B3EE0E0AFFF7F1F809E03A
:102230009FED2F0AFFF7ECF804E0BBEE0E0AFFF764
:10224000E7F800BF00BF2748B0F900002649B1F900
:102250000010884214D000240CE02248B0F900009D
:1022600000EE900AF8EEE00AB0EE600AFFF79EF882
:10227000601CC4B2032CF0DB1A4800881A4908809D
:10228000184AB2F90210002901DB0A4600E04A426E
:10229000184B1B689A4223DD124AB2F9020000284B
:1022A00001DB024600E04242134B1B689A4217DAF8
:1022B0000021FE2000F0F6FD0A48B0F90240002C93
:1022C00001DB204600E0604200EE100AB8EEC00AD2
:1022D000BCEEC00A10EE100A81B2FE2000F0BEFD76
:1022E00010BD00002E0300204E0300206C320008B9
:1022F00000000000783200087C32000810B5234846
:1023000000782349087023480078487022480078F4
:10231000887022480078C870214800780871002031
:10232000487188710846FFF734FE1949C8710A469A
:1023300008211C48006800F05BF81B4890ED000A7B
:102340001A4880ED000A5020114908705220487048
:102350000020887015480068000EC8701348006897
:10236000000C087111480088000A48710F48007875
:1023700088710846FFF70DFE0549C8710A46082115
:102380000848006800F034F810BD0000600000202C
:10239000380000206100002062000020630000205F
:1023A000640000201C0000201C02002048000020C7
:1023B00010B545200C4908704E20487044208870A4
:1023C0004120C870522008714D2048713220887118
:1023D0000846FFF7DEFD0449C8710A460821034894
:1023E000006800F005F810BD38000020180000203B
:1023F0002DE9F04385B080460C469146CDF800802B
:10240000002001908DF809008DF80800E0B28DF8E9
:102410000A00002005E019F800200DF10B010A5414
:10242000401CA042F7DB69460A48FEF745F905461D
:10243000002705E029460748FEF7D2F906467F1C2B
:10244000012E03D04FF6FF708742F3D105B0BDE8EF
:10245000F08300000064004010B501211020FEF759
:1024600043FE0020024908810248FFF79FFB10BD90
:10247000340100200010004070B504461448006884
:1024800080081449B0FBF1F00121C1EB4000124972
:10249000088040F2E73048601048FFF787FB0025CE
:1024A00013E001210D48FFF745FB01210B48FFF721
:1024B00047FB00BF01210948FFF751FB0028F9D075
:1024C00000210648FFF73CFB6D1CA542E9D370BD17
:1024D000E800002040420F003401002000100040BE
:1024E00070B504461448006880081449B0FBF1F048
:1024F0000121C1EB400012490880012048601148C9
:10250000FFF754FB002513E001210E48FFF712FBF3
:1025100001210C48FFF714FB00BF01210948FFF718
:102520001EFB0028F9D000210648FFF709FB6D1CAF
:10253000A542E9D370BD0000E800002080841E00A1
:10254000340100200010004010B502460023002096
:1025500004E0145C242C00D1C3B2401C2628F8DB14
:1025600000200CE01C18262C03DA1C18145D0C54F7
:1025700004E0C3F12604041B145D0C54401C2628FF
:10258000F0DB10BD10B57F2000F0DEFD10BD0000B7
:1025900000B585B001210820FEF796FD01208DF8D9
:1025A000100000208DF812004FF48050039000209E
:1025B0008DF8130003208DF8110003A9DE48FEF703
:1025C000C7FC4FF48051DC48FEF736FD012108209E
:1025D000FEF77AFD01208DF8100000208DF8120022
:1025E0004FF40050039000208DF8130003208DF865
:1025F000110003A9D048FEF7ABFC4FF40051CE48C0
:10260000FEF71AFD01210820FEF75EFD01208DF87E
:10261000100000208DF812004FF48040039000203D
:102620008DF8130003208DF8110003A9C248FEF7AE
:102630008FFC4FF48041C048FEF7FEFC01210820CA
:10264000FEF742FD01208DF8100000208DF81200E9
:102650004FF40040039000208DF8130003208DF804
:10266000110003A9B448FEF773FC4FF40041B248CF
:10267000FEF7E2FC01211020FEF726FD0121880370
:10268000FEF752FD00208DF810008DF812004FF477
:102690000060039002208DF8130003208DF81100D4
:1026A00003A9A648FEF754FC0B210420FFF738F8D5
:1026B0004FF40060019001208DF80A0000208DF891
:1026C00008000C208DF8090001A8FEF7F1FB282076
:1026D0008DF8000001208DF8030000208DF8010026
:1026E0008DF802006846FEF7B1FC01211020FEF7CC
:1026F000EBFC01218803FEF717FD00208DF8100088
:102700008DF812004FF48050039002208DF81300D2
:1027100003208DF8110003A98848FEF719FC0C214D
:102720000420FEF7FDFF4FF48050019001208DF84A
:102730000A0000208DF808000C208DF8090001A87F
:10274000FEF7B6FB28208DF8000001208DF803006D
:1027500000208DF801008DF802006846FEF776FC37
:1027600001211020FEF7B0FC01218803FEF7DCFCFC
:1027700000208DF810008DF812004FF400500390E7
:1027800002208DF8130003208DF8110003A96B4877
:10279000FEF7DEFB0D210420FEF7C2FF4FF40050D0
:1027A000019001208DF80A0000208DF808000C200F
:1027B0008DF8090001A8FEF77BFB28208DF80000AA
:1027C00001208DF8030000208DF801008DF8020033
:1027D0006846FEF73BFC01211020FEF775FC012145
:1027E0008803FEF7A1FC00208DF810008DF8120080
:1027F0004FF48040039002208DF8130003208DF8E1
:10280000110003A94D48FEF7A3FB0E210420FEF79B
:1028100087FF4FF48040019001208DF80A000020CE
:102820008DF808000C208DF8090001A8FEF740FB88
:1028300028208DF8000001208DF8030000208DF87D
:1028400001008DF802006846FEF700FC012110200F
:10285000FEF73AFC01218803FEF766FC00208DF8A4
:1028600010008DF812004FF40040039002208DF804
:10287000130003208DF8110003A93048FEF768FB10
:102880000F210420FEF74CFF4FF40040019001207F
:102890008DF80A0000208DF808000C208DF8090042
:1028A00001A8FEF705FB28208DF8000001208DF817
:1028B000030000208DF801008DF802006846FEF745
:1028C000C5FB01210420FEF7FFFB01208DF810005D
:1028D00000208DF812004FF40040039000208DF886
:1028E000130003208DF8110003A91548FEF730FBF3
:1028F0004FF400411248FEF79FFB01210420FEF730
:10290000E3FB01208DF8100000208DF812004FF439
:102910008060039002208DF8130003208DF81100D1
:1029200003A90748FEF714FB4FF480610448FEF743
:1029300083FB05B000BD0000000C02400010024007
:102940000008024010B54FF400410248FEF774FB46
:1029500010BD0000000C024010B54FF400410248C9
:10296000FEF76CFB10BD0000000C024008B5C178FA
:102970008DF8001081788DF8011041788DF80210E3
:1029800001788DF803109DED000A08BD70B505466D
:102990000E48057049200D494870012088700B1DB4
:1029A000CA1C0321D01EFDF76BFF002404E0074979
:1029B000085D00F033F8641C052CF8DB00BF8021B3
:1029C000034800F038FB0128F9D170BD3002002027
:1029D0000048004070B505460E48057049200D4975
:1029E0004870042088700B1DCA1C0321D01EFDF7FF
:1029F00047FF002404E00749085D00F00FF8641C5D
:102A0000052CF8DB00BF8021034800F014FB0128EF
:102A1000F9D170BD300200200048004010B50446D6
:102A200000BF8021044800F006FB0128F9D12146AF
:102A3000014800F077FB10BD0048004010B50B4680
:102A4000FF22C17AFF290AD1017BFF2907D1417BEF
:102A5000012904D101780A2901D10B2235E0017B3B
:102A6000FF290AD1417BFF2907D10178012904D12F
:102A700041780A2901D10C2227E0417BFF290AD1A4
:102A80000178FF2907D14178012904D181780A29E9
:102A900001D10D2219E0012114E00B2910DA445C68
:102AA000FF2C0DD14C1C045DFF2C09D18C1C045D46
:102AB000012C05D1CC1C045D0A2C01D10A4603E08F
:102AC0004C1CE1B20E29E8DB00BFFF2A11D0002127
:102AD0000DE054180E2C03DA5418045D5C5404E025
:102AE000C2F10E040C1B045D5C544C1CE1B20E29B7
:102AF000EFDB10BD10B502460B460021022003E0BB
:102B0000145C0C44A1B2401C5C1E8442F8DCC8B2C8
:102B1000C04381B2C8B210BD00B599B001210846CA
:102B2000FEF7D2FA02208DF8600000208DF86200D6
:102B30000420179000208DF8630003208DF86100B9
:102B400017A95948FEF704FA01210846FEF7BCFA16
:102B500002208DF8600000208DF862000820179098
:102B600000208DF8630003208DF8610017A94E48FE
:102B7000FEF7EEF9072202214B48FEF731FA072251
:102B800003214948FEF72CFA01214804FEF7ACFA6C
:102B90004FF4614013900020ADF858000C20ADF8C0
:102BA00056000020ADF85400ADF85200ADF85000CA
:102BB00013A93E4800F04CFA012240213B4800F0A6
:102BC00031FA01214805FEF77FFA4FF000600490CA
:102BD000374806903548001D0590002007900E20CC
:102BE0000890002009904FF480600A9000200B901C
:102BF0000C904FF480700D9040020E9000200F90CA
:102C00000120109000201190129004A92948FEF78D
:102C1000CBF801212748FEF76BF801221021254847
:102C2000FEF7A4F810208DF80C0000208DF80D00A0
:102C300004208DF80E0001208DF80F0003A8FEF788
:102C400005FA0121194800F0E1F901212020FEF7E1
:102C50004BFA0020ADF80800ADF8020040F2473012
:102C6000019040F2E730ADF8000069461248FEF7E7
:102C70009DFF002201211048FEF78BFF37208DF8C1
:102C80000C0000208DF80D0005208DF80E000120AD
:102C90008DF80F0003A8FEF7D9F900210648FEF7CA
:102CA0004FFF19B000BD000000000240004400408A
:102CB00000020020886002400014004008B5014670
:102CC00008788DF8000048788DF80100BDF8000004
:102CD00008BD000010B5FE2000F066F84FF4FA7051
:102CE000FFF7FEFB2221FE2000F098F84FF4FA7067
:102CF000FFF7F6FB40F6C411FE2000F0AFF84FF4EA
:102D0000FA70FFF7EDFB012211460448FEF741FF80
:102D100001210248FEF714FF10BD0000001400401E
:102D200070B505460E4600240CE000BF8021074820
:102D300000F081F90128F9D1295D044800F0F2F989
:102D4000601CC4B2B442F0DB70BD0000004400401F
:102D5000F0EE400A9FED101AB0EE410AB2EE081AEA
:102D6000F4EEC10AF1EE10FA04D29FED0C1AB0EEA7
:102D7000410A0FE09FED0A1AF4EEC10AF1EE10FAD3
:102D800004D2B0EE041AB0EE410A03E09FED051A3A
:102D9000B0EE410A704700000000000033331340DA
:102DA000CDCC6C41666646401CB50446FF208DF8CC
:102DB00000008DF801008DF8024002208DF803001C
:102DC00001208DF8040006216846FFF793FE8DF878
:102DD000050006216846FFF7A3FF1CBD1CB504468D
:102DE000FF208DF800008DF801008DF802400420CE
:102DF0008DF8030002208DF8040024208DF80500D2
:102E000008208DF8060008216846FFF773FE8DF84C
:102E1000070008216846FFF783FF1CBD7CB5044608
:102E20000D46FF208DF800008DF801008DF802405E
:102E300004208DF8030003208DF8040004208DF891
:102E400005008DF8065008216846FFF753FE8DF8FF
:102E5000070008216846FFF763FF7CBD3EB50546C5
:102E60000C46FF208DF800008DF801008DF802500F
:102E700005208DF8030003208DF804001E208DF836
:102E80000500E0B28DF80600200A8DF80700092140
:102E90006846FFF72FFE8DF8080009216846FFF706
:102EA0003FFF3EBD3EB505460C46FF208DF80000B5
:102EB0008DF801008DF8025005208DF803000320E5
:102EC0008DF8040020208DF80500E0B28DF8060092
:102ED000200A8DF8070009216846FFF70BFE8DF8E0
:102EE000080009216846FFF71BFF3EBD00B595B0FD
:102EF00001210420FEF7E8F801212020FEF714F953
:102F000001218805FEF7E0F801210420FEF7DCF836
:102F100002208DF8500000208DF852008020139080
:102F200000208DF8530002208DF8510013A932487B
:102F3000FEF70EF802208DF8500000208DF85200A8
:102F40004020139000208DF8530002208DF851008E
:102F500013A92948FDF7FCFF082206212648FEF7A1
:102F60003FF8082207212448FEF73AF823480F903B
:102F70000020ADF84000ADF84200ADF84400ADF8D7
:102F800048000C20ADF846000FA91D4800F060F87D
:102F900001211B4800F03AF801224021184800F0B6
:102FA00041F84FF0206000901548001D0190154831
:102FB00002900020039019200490002005904FF407
:102FC000806006900020079008904FF48070099070
:102FD00040020A9000200B9001200C9000200D90E0
:102FE0000E9069460848FDF7DFFE01210648FDF70F
:102FF0007FFE15B000BD000000080240A086010061
:1030000000140140450200202864024021B1828959
:1030100042F40052828104E082894DF6FF731A4027
:10302000828170471AB1838A0B43838202E0838ACC
:103030008B438382704702460020B1F5007F00D1A8
:1030400000BF13880B400BB1012000E00020704747
:103050002DE9FF4705460E460024A14600BFA046C5
:10306000B08900B100BF2C8A24F44054F088044396
:103070002C82AC8941F20C608443B08831890843CA
:10308000718908430443AC81AC8A24F44074B0894C
:103090000443AC826846FEF789F82048854202D096
:1030A0001F48854202D1DDF80C9001E0DDF8089060
:1030B000A88900F4004040B109EBC90000EB0910F9
:1030C00031684900B0FBF1F707E009EBC90000EBFC
:1030D000091031688900B0FBF1F76420B7FBF0F00C
:1030E00004012009642101FB1078A88900F4004044
:1030F00040B1322000EBC800B0FBF1F000F0070057
:10310000044308E0322000EB08106421B0FBF1F02A
:1031100000F00F0004432C81BDE8FF870010014040
:1031200000140140C1F308028280704700BFFEE72F
:103130000020014908607047082C004010B5FFF7D7
:10314000F7FFFFF71FFA10BD00F07F01014A116081
:1031500070470000002C004002E008C8121F08C1A0
:10316000002AFAD170477047002001E001C1121F08
:10317000002AFBD170470000FEF7F2FA2D48FEF757
:1031800015F8FFF769F9FFF703FA4FF4FA70FFF744
:1031900073F9FEF70DFF4FF4FA70FFF76DF9FFF7C3
:1031A000A5FE4FF4FA70FFF767F9FFF7B5FC4FF48F
:1031B000FA70FFF761F9FFF78DFD4FF4FA70FFF732
:1031C0005BF9FE20FFF7F0FD01201B49C870487035
:1031D00000201A49C88101204881FFF7BDFB4FF448
:1031E0007A70FFF749F9FFF7ADFB22E04FF4006179
:1031F0001348FDF718FF134908704FF48051104829
:10320000FDF711FF104908704FF400510C48FDF70D
:103210000AFF0E4908700B480078012807D00A48B9
:103220000078012803D008460078012801D1FFF773
:1032300093FBDBE7EC000020540000202E0300206D
:10324000001002400E0000200F000020100000209F
:1032500070B50446049D601AEE1A7043561A90FB2E
:10326000F6F0184470BD00000408000032000000B1
:103270005000000050000000B00400006009000091
:1032800008070000000000003A000000E80300000A
:10329000280A0000000000000000000001020304F2
:1032A000060708090000000001020304CC320008F0
:1032B00000000020EC00000058310008B83300087E
:1032C000EC000020841200006831000800000000BB
:1032D00001020304050607080000000000000000CA
:1032E0000000000021010000220100002301000075
:1032F000240100002501000026010000000000005C
:1033000000000000000000000000000000000000BD
:1033100000000000000000000000000000000000AD
:1033200000000000000000000000E1440000000078
:10333000000000000000000000000000000000008D
:10334000000000000000000000000000000000007D
:10335000000000000000000000000000000000006D
:10336000000000000000000000000000000000005D
:10337000000000000000000000000000000000004D
:10338000000000000000000000000000000000003D
:10339000000000000000000000000000000000002D
:1033A0000000000000000000010203040102030409
:0833B00006070809007A030A70
:040000050800018965
:00000001FF
