:020000040800F2
:100000006F130020A1010008371800082F180008FE
:100010003318000859090008BF3C00080000000020
:10002000000000000000000000000000B51F0008F4
:100030000116000800000000B1180008B90100080E
:10004000D13C0008BB010008BB010008BB0100084F
:10005000BB010008BB010008BB010008BB01000890
:10006000BB010008BB010008BB010008C11000086B
:100070009D110008BB010008BB010008BB0100087E
:1000800035120008BB010008BB010008BB010008D5
:100090005D090008BB010008BB010008BB010008A6
:1000A000C1210008BB010008BB010008BB0100081A
:1000B000DD21000805220008FD220008BB01000820
:1000C000BB010008BB010008BB010008BB01000820
:1000D000BB010008BB010008BB010008BB01000810
:1000E00005160008BB010008BB010008BB010008A1
:1000F000BB010008BB010008BB010008BB010008F0
:10010000BB010008BB010008BB010008BB010008DF
:10011000BB010008BB010008BB010008B5230008B3
:100120002114000841140008BB010008BB010008AD
:10013000BB010008BB010008BB010008BB010008AF
:10014000BB010008BB010008BB010008BB0100089F
:1001500089140008BB010008BB010008BB010008AE
:10016000BB010008BB010008BB010008BB0100087F
:10017000BB010008BB010008BB0100080000000033
:10018000BB010008BB010008DFF810D000F09EFAA8
:1001900000480047F5410008AFF300806F130020CE
:1001A0000648804706480047FEE7FEE7FEE7FEE711
:1001B000FEE7FEE7FEE7FEE7FEE7FEE75D2100085B
:1001C000890100082DE9FE4F804681EA0300C00F37
:1001D0000C46009021F0004123F00045B8EB0200EE
:1001E000A94105D24046214690461C460B46024690
:1001F00023F00040104347D0270DC7F30A00C3F394
:100200000A510290401A019040286BDAC3F31300A0
:1002100040F4801B0098924620B10023D2EB030AE1
:1002200063EB0B0B01985946C0F14002504600F0B9
:10023000BFF906460D4650465946019A00F0D7F9D7
:1002400010EB08006141002487EA115284EAE77349
:100250001A4340D0009A62B3019A012A4FEA07522A
:1002600015DC001B61EB02014FF0004202EA07526D
:10027000CDE90042001C41F5801132462B4600F0CA
:10028000D7F903B0BDE8F08F40462146F9E7001BDF
:1002900061EB0201001C41F5801300185B4120183E
:1002A000A2F5001747EB030140EAD570B6196D417E
:1002B00011E06D084FEA360645EAC0754FEA07526D
:1002C000001B61EB0201001C41F5801149084FEA57
:1002D00030000019514132462B4603B0BDE8F04FC3
:1002E00000F097B90098012240000023D0EB0202F1
:1002F00063EBE073009821464FEAE074B8EB00002E
:1003000061EB0401E9E783F000435BE781F0004122
:1003100058E72DE9FE4F81EA030404F0004421F080
:10032000004100944FF0000B23F0004350EA010419
:100330005ED052EA03045BD0C3F30A54C1F30A55FA
:100340002C44A4F2F3340194A0FB0254C1F3130132
:1003500041F48011C3F3130343F4801301FB0244FF
:1003600000FB034E840A970A44EA815447EA835704
:10037000A4FB076802958D0A05FB07854FEA932CBD
:1003800004FB0C542705029D4FEA065847EA16372E
:10039000B5EB08056EEB070C870E920E47EA811746
:1003A00042EA8312A7FB0201B6EB0B0164EB0004E7
:1003B0002B0D43EA0C335E1844EB1C50DA465146D1
:1003C000E7FB0201C5F313044FEA0B3343EA14536E
:1003D0004FEA0432019C43EA0603A4F10C040294A0
:1003E000009CCDE900B400F023F903B0BDE8F08F24
:1003F00000200146F9E72DE9F04D81EA030404F0FD
:10040000004B21F0004514464FF0000A23F0004154
:1004100050EA050220D054EA01021DD0C5F30A5764
:100420000246C5F31303C1F31300C1F30A5640F4A7
:10043000801543F48013A7EB0608101BD64608F27C
:10044000FD3873EB050002D308F1010801E09218B2
:100450005B41B8F1000F03DA00200146BDE8F08DE2
:1004600000204FF48011064684460EE0171B73EB04
:10047000050705D3121B63EB050306434CEA010C89
:1004800049084FEA300092185B4150EA0107EDD16C
:1004900052EA030012D082EA040083EA050108430D
:1004A00005D0101BAB4106D20122002306E000223A
:1004B0004FF0004302E06FF0010253101AEB060008
:1004C0004CEB085110EB0A0041EB0B01BDE8F04D7D
:1004D00000F09FB80EB5C10F80EAE0700844CA076B
:1004E000002140F233438DE80E000A460B4600F02F
:1004F0009FF803B000BD0EB540F2334102910021D8
:10050000CDE900110A460B4600F092F803B000BD99
:1005100070B5C1F30A5201F000450024C1F3130184
:1005200040F2FF3341F480119A4201DA002070BD9D
:1005300040F233439A42A2F2334203DC524200F0CB
:1005400046F800E090402C43F1D0404270BD0000DE
:1005500030B5041E71F1000404DB4FF0004440424A
:1005600064EB0101141E73F1000405DB1C464FF01F
:100570000043524263EB04038B4208BF824230BD0A
:1005800030B5041E71F1000404DB4FF0004440421A
:1005900064EB0101141E73F1000405DB1C464FF0EF
:1005A0000043524263EB0403994208BF904230BDBE
:1005B000202A04DB203A00FA02F100207047914023
:1005C000C2F1200320FA03F3194390407047202A18
:1005D00004DB203A21FA02F00021704721FA02F3ED
:1005E000D040C2F120029140084319467047202AAA
:1005F00006DBCB17203A41FA02F043EAE07306E04B
:1006000041FA02F3D040C2F120029140084319465A
:10061000704710B5141E73F1000408DA401C41F154
:10062000000192185B411A4301D120F0010010BD76
:100630002DE9F04D92469B4611B1B1FA81F202E0EC
:10064000B0FA80F220329046FFF7B2FF04460F4620
:1006500040EA0A0041EA0B0153465A46084313D0C8
:10066000114653EA010019D0C8F140025046FFF785
:10067000AEFF05460E46504659464246FFF798FFE4
:10068000084305D0012004E020463946BDE8F08D3E
:100690000020054346EAE0762C4337430A98630579
:1006A000E40AA0EB08000022FD0A44EA47540A309D
:1006B00002D500200146E9E7010510196941DDE98D
:1006C000084500196941BDE8F04DA2E7064C074D09
:1006D00006E0E06840F0010394E807009847103412
:1006E000AC42F6D3FFF754FD98440008B844000824
:1006F00021B1826842F00102826003E0826822F048
:10070000010282607047000000B597B001210846E1
:1007100001F0D0F80120159003208DF85800012039
:100720008DF85A0000208DF85B0002208DF85900EA
:1007300015A92E4801F00CF80121880501F0BAF83E
:10074000002000902A4802902A480190002003903F
:10075000012004900020059006904FF480500790EF
:10076000800008908011099000020A9000200B90F0
:1007700003200C9000200D900E9069461E4800F05A
:1007800013FF01211C4800F0B3FE0121080201F013
:10079000C1F801208DF841000020139012901190B3
:1007A00001208DF850008DF8400000200F900FA917
:1007B00010484C3800F02EF80723012200210D4884
:1007C0004C3800F051F801210A484C38FFF790FFEF
:1007D000012108484C3800F011F8012000F0A6F87B
:1007E00004484C3800F09CF817B000BD00000240EF
:1007F000C00000204C2001401064024021B18268FA
:1008000042F48072826003E0826822F48072826027
:100810007047000030B50246002000235068104C9D
:1008200020400D790C6844EA05242043506090680C
:100830000C4C2040D1E903542C438D682C434D7956
:1008400044EA450420439060D06A20F470000C7D97
:10085000641EE4B2234340EA0350D06230BD00007E
:10086000FFFEFFFCFDF7FFC0F0B504460D4600207B
:100870000021092D11DDE068A5F10A0606EB460707
:10088000072606FA07F18843A5F10A0606EB460695
:1008900003FA06F10843E0600CE0206905EB450728
:1008A000072606FA07F1884305EB450603FA06F129
:1008B00008432061072A0FDA606B561E06EB860795
:1008C0001F2606FA07F18843561E06EB860605FA30
:1008D00006F10843606322E00D2A0FDA206BD61F71
:1008E00006EB86071F2606FA07F18843D61F06EB9C
:1008F000860605FA06F10843206310E0E06AA2F1DB
:100900000D0606EB86071F2606FA07F18843A2F1BB
:100910000D0606EB860605FA06F10843E062F0BD17
:10092000816841F0804181607047000038B108491A
:10093000096841F40001074AC2F8041306E00449BB
:10094000096821F40001034AC2F80413704700004B
:10095000042301400020014000BFFEE710B5634AB8
:100960000021634800F020FA0021614800F00DFAF0
:10097000022803DB00215E4800F0E4F85B480068D1
:100980005C490968884205D0584800685A49096896
:1009900088427DD15548007A0028FAD15348807AA0
:1009A0000828F6D151480B3001F043FF4F49897CAC
:1009B0008842EED14D48C07A52280ED14B48007B78
:1009C00055280AD14948407B442806D147480E3073
:1009D00002F00CF8494880ED000A4448C07A4328E8
:1009E0000FD14248007B4F280BD14048407B4E2816
:1009F00007D10120424948700020887001204149F8
:100A000048813A48C07A43280CD13848007B4F28A7
:100A100008D13648407B462804D100203849487028
:100A2000012088703148C07A43280ED12F48007BBE
:100A300041280AD12D48407B4E2806D12B48807B87
:100A40004F2802D101202E4908722848C07A432835
:100A50000ED12648007B41280AD12448407B4E28ED
:100A600006D12248807B432802D100202449087205
:100A70001E48C07A45280AD11C48007B4A2806D166
:100A80001A48407B532802D101201D49487200E0DA
:100A90002BE01648C07A522827D11448007B5028F2
:100AA00023D11248407B56281FD11048817B16481D
:100AB000006861F30700144908600C48C17B1248C4
:100AC000006861F30F20104908600848017C0E4857
:100AD000006861F317400C4908600448417C0A48EB
:100AE000006861F31F600849086010BD30010020F4
:100AF00000640040080000200C0000204800002096
:100B0000440100202A0300204400002010B50446C0
:100B10000B48844209D10121480600F0EBFE002178
:100B20004FF0007000F0E6FE08E00121880600F0BA
:100B3000E1FE00214FF0806000F0DCFE10BD0000FF
:100B40000064004021B9C26842F02002C26003E0A4
:100B5000026942F0200202617047000010B50021D6
:100B6000837A012202FA03F13D4A126842F001023F
:100B70003B4B1A603A4A1C3212688A43384B1C338A
:100B80001A60027BCAB9364A0C3212688A43344B67
:100B90000C331A604288C38842EA0343304A403229
:100BA000847A42F834300288838842EA03432C4A2C
:100BB0004032847A02EBC4025360027B012A19D1CD
:100BC000274A0C3212680A43254B0C331A604288BC
:100BD000038842EA0343224A4032847A42F834309E
:100BE000C288838842EA03431D4A4032847A02EB7A
:100BF000C4025360C27A3AB9194A121D12688A4374
:100C0000174B1B1D1A6006E0154A121D12680A4395
:100C1000134B1B1D1A60028932B9114A1432126833
:100C20008A430F4B14331A600289012A06D10C4AF9
:100C3000143212680A430A4B14331A60427B012AA9
:100C400006D1074A1C3212680A43054B1C331A604E
:100C5000034A126822F00102014B1A6010BD000025
:100C6000006600401AB143690B43436102E04369E7
:100C70008B434361704730B502460020002314685F
:100C800024F002041460146844F00104146000E0CD
:100C90005B1C546804F001041CB94FF6FF74A342B6
:100CA000F6D1546804F001040CB900206CE08C7992
:100CB000012C04D1146844F08004146003E014682B
:100CC00024F080041460CC79012C04D1146844F021
:100CD0004004146003E0146824F0400414600C7AAB
:100CE000012C04D1146844F02004146003E014685B
:100CF00024F0200414604C7A012C04D1146844F0D0
:100D00001004146003E0146824F0100414608C7A5A
:100D1000012C04D1146844F00804146003E0146842
:100D200024F008041460CC7A012C04D1146844F037
:100D30000404146003E0146824F0040414608C7844
:100D4000A407CD7844EA05640D7944EA05444D7959
:100D500044EA05540D886D1E2C43D461146824F0B8
:100D600001041460002300E05B1C546804F00104DB
:100D70001CB14FF6FF74A342F6D1546804F001048D
:100D80000CB1002000E0012030BD0246002019B95E
:100D9000D36803F0030006E0012903D1136903F0CF
:100DA000030000E00020704710B500F5D87303EB96
:100DB00001131B6803F004031372137A53B900F58F
:100DC000D87303EB01131B6840F2FF7404EA53531A
:100DD000136009E000F5D87303EB01131B686FF093
:100DE000604404EAD303536000F5D87303EB0113A6
:100DF0001B6803F00203537200F5D87303EB011371
:100E00005B6803F00F03937200F5D87303EB0113D3
:100E10005B681B0AD37400F5D87303EB01139B685E
:100E2000D37200F5D87303EB01139B681C0A14738B
:100E300000F5D87303EB01139B681C0C547300F589
:100E4000D87303EB01139B681B0E937300F5D873E3
:100E500003EB0113DB68D37300F5D87303EB0113C5
:100E6000DB681C0A147400F5D87303EB0113DB680C
:100E70001C0C547400F5D87303EB0113DB681B0ED4
:100E8000937421B9C36843F02003C36003E003698E
:100E900043F02003036110BD10B5024600209368A3
:100EA00003F08063B3F1806F00D110E0936803F02A
:100EB0000063B3F1006F01D1012008E0936803F0F3
:100EC0008053B3F1805F01D1022000E004200428A8
:100ED00074D002F5C07303EB00131B6803F0010428
:100EE00002F5C07303EB00131C600B7A7BB94B7ADD
:100EF0000C8843EA445302F5C07404EB00142468E0
:100F0000234302F5C07404EB0014236010E00B7A55
:100F10004C6843EAC4034C7A234302F5C07404EBE3
:100F200000142468234302F5C07404EB001423600A
:100F30008B7A03F00F038B7202F5C07303EB00137F
:100F40005B6823F00F0402F5C07303EB00135C60D1
:100F500002F5C07303EB00135B688C7A234302F540
:100F6000C07404EB001463608B7B1C064B7B44EA6B
:100F700003440B7B44EA0323CC7A234302F5C07479
:100F800004EB0014A3608B7C1C064B7C44EA0344F6
:100F90000B7C44EA0323CC7B234302F5C07404EBAF
:100FA0000014E36002F5C07303EB00131B6843F009
:100FB000010402F5C07303EB00131C6010BD0000B8
:100FC00010B50246002321B1012907D002290FD113
:100FD00009E090681D4C00EA04030BE090681C4C8B
:100FE00000EA040306E090681A4C00EA040301E0FA
:100FF000002300BF00BF184C181BA34216D007DC0B
:1010000083B16FF08060184470B1022818D111E0EC
:10101000B0F5007F10D0114C204448B1B0F5003F2E
:101020000ED10BE002230DE000230BE0002309E0CA
:10103000002307E0012305E0012303E0012301E091
:10104000002300BF00BFD8B210BD000003000004A1
:101050000003000800000310000100080001FFF772
:10106000F0B504464FF6FF700F4600251FE014F858
:1010700005C08CEA000000260FE000F0010CBCF176
:10108000000F05D040084AF2010C80EA0C0000E095
:10109000400806F1010C0CF0FF06082EEDDBA7F16D
:1010A000010C0CF0FF0705F1010C0CF0FF05002FFF
:1010B000DDDC4FEA102C82F800C01870F0BD000093
:1010C00010B53049304800F01FFA002859D02F4998
:1010D0002F4801F053FB2D48007824284DD12B4890
:1010E0004078412849D129488078552845D127485A
:1010F000C078562841D12548007932283DD123486F
:101100004079302839D121488079302835D11F489D
:10111000C079302831D11D4801F06CFB1B4991F892
:101120002010884229D11948083001F072FB194873
:1011300080ED000A15480C3001F06BFB154880ED7E
:10114000010A1248103001F064FB124880ED020AD7
:101150000E48143001F05DFB0E4880ED030A0B4889
:10116000183001F056FB0B4880ED040A07481C308C
:1011700001F04FFB074880ED050A0749024800F0DF
:101180009DF910BD00802010106002407401002005
:10119000500100209801002000F03D901CB520492E
:1011A000204800F0B1F9002839D06B4601AA072188
:1011B0001D48FFF755FF1C48C0799DF80410884270
:1011C00017D11948007A9DF80010884211D11748AC
:1011D000007838B91448801C02F02CF9144880EDCE
:1011E000000A06E01048801C02F024F9104880ED47
:1011F000010A0E48007840B9FA2002F0AFF90B4816
:101200000078401C0949087005E0FA2002F082F9D4
:101210000020064908700249024800F04FF91CBD41
:101220000088001028600240350200205400002091
:101230005800002010B56F496F4800F065F900288C
:101240007DD06E496E4802F0BDF90E216B4802F068
:1012500015FA6A49497B884272D16848401D02F0FC
:10126000F1FA00EE100AB8EE400A664880ED000A76
:101270006248C01D02F0E6FA00EE100AB8EE400A1D
:10128000DFED610AB4EEE00AF1EE10FA0FD85B4828
:10129000C01D02F0D7FA00EE100AB8EE400ADFEDEA
:1012A0005B0A20EE200A574880ED010A28E05348E7
:1012B000C01D02F0C7FA00EE100AB8EE400ADFEDDA
:1012C000540AB4EEE00AF1EE10FA19DBDFED510A30
:1012D000B0EE600A4948C01D02F0B4FA00EE900A70
:1012E000F8EE600A9FED4A1A70EEC10AB0EE600A8D
:1012F000DFED490A60EE200A4248C0ED010A00BF56
:101300003E48007B00EE100AB8EE400A3D4880EDF2
:10131000040A3A48C07A00EE100AB8EE400AF2EE2B
:10132000040A80EE201A374880ED031A334809304A
:1013300002F088FA00EE100AB8EE400A01E058E028
:1013400053E0DFED310AB4EEE00AF1EE10FA18D8FE
:101350002A48093002F076FA00EE100AF8EE401A38
:101360002848D0ED030AB0EE600A02F0B5FA21EE8B
:10137000800ADFED250A80EE201A224880ED021A4D
:1013800033E01E48093002F05DFA00EE100AB8EEB4
:10139000400ADFED1F0AB4EEE00AF1EE10FA24DB9A
:1013A0009FED1C0AF0EE401A1448093002F04AFA88
:1013B00000EE100AB8EE400ADFED150A30EE600AC2
:1013C000F0EE401A0F48D0ED030AB0EE600A02F0CA
:1013D00083FAB1EE400A20EE210ADFED0B0A80EE1F
:1013E000201A084880ED021A00BF0C49024800F09C
:1013F00065F810BD00880020886002400A020020C5
:10140000FC0100201802002000C07F44AE47E13DEF
:101410000000804400000000AE47E1BD40FF00A096
:1014200010B50449044800F06FF80449024800F080
:1014300045F810BD008800101064024040FF009085
:1014400008B50949094800F05FF838B10848094B68
:10145000094A0A4900900A4800F054FC0949034827
:1014600000F02CF808BD000000880010286402403D
:10147000A1000020A00000202A0300200A03002071
:101480003E02002040FF009010B50749074800F0D9
:101490003BF838B10649074801F014FD06490348F6
:1014A00000F00CF810BD00000088002088640240A5
:1014B000D6010020B001002040FF00A00246094BE9
:1014C0009A4201D2084801E00648103801F0005362
:1014D0001BB1064B0B40C36002E0044B0B40836022
:1014E0007047000010640240006002407D0F7D0FD5
:1014F00021B1026842F00102026003E0026822F0BA
:10150000010202607047000070B50246002000240E
:101510000025124EB24201D2114B01E00F4B103B9D
:10152000104E0E4036B11E2606EAD124166806EA91
:10153000040502E0566906F0800501F000560EB180
:101540005C6800E01C68084E344004EA010616B1ED
:101550000DB1012000E0002070BD000010640240C9
:10156000006002403C0F3C0F7D0F7D0F10B501F075
:1015700080034BB122B1436943F08003436103E030
:10158000436923F08003436180290BD02AB10368AB
:1015900001F01E042343036004E0036801F01E040D
:1015A000A343036010BD000010B500220268134B76
:1015B0001A40CC680B6823434C6923438C6923434E
:1015C000CC6923430C6A23434C6A23438C6A23432C
:1015D0004C6B23438C6B23431A430260426922F015
:1015E0000702D1E90B3423431A4342610B6943607C
:1015F0004B6883608B68C36010BD00003F801CF0A7
:101600007047000010B54FF4006000F045F828B1B5
:10161000012019490870C00200F038F84FF48050DA
:1016200000F03AF828B1012014490870000300F0D6
:101630002DF84FF4005000F02FF828B10120104988
:101640000870400300F022F84FF4804000F024F8C6
:1016500028B101200B490870800300F017F84FF4FF
:10166000004000F019F828B1012007490870C003B4
:1016700000F00CF810BD00004C0000204D000020D0
:101680004E0000204F00002050000020014908605B
:1016900070470000143C014001460020034A1268D4
:1016A0000A400AB1012000E000207047143C0140CC
:1016B000002123498279002A3AD00A461268036839
:1016C0009A430B461A600A1D126803689A430B1D61
:1016D0001A60027911440A6803681A430A60184ABA
:1016E0000832126803689A43154B08331A601A1DB2
:1016F000126803689A43124B0C331A604279102A1D
:101700000ED11A1F126803681A430D4B08331A6072
:101710001A1D126803681A43094B0C331A600DE056
:101720000749427911440A6803681A430A6005E0D0
:10173000027911440A6803689A430A6070470000FE
:10174000003C0140014A107070470000003C02401C
:10175000F0B50A4600210023002400BF3DE001252A
:1017600005FA01F3156805EA03049C4234D10568C3
:101770004F000326BE40B543056015794E00B540C5
:101780000668354305601579012D02D01579022DC3
:1017900016D185684F000326BE40B5438560557954
:1017A0004E00B540866835438560456801268E4009
:1017B000B5434560456896798E40B6B2354345607D
:1017C000C5684F000326BE40B543C560D5794E00BD
:1017D000B540C6683543C560491C1029BFD3F0BD6C
:1017E000F0B5002300244D07ED0E02FA05F3CE10EC
:1017F00000F1200555F826504E07F70E0F26BE4083
:10180000B543CF1000F1200646F82750CE1000F166
:10181000200555F8265045EA0304CE1000F12005B6
:1018200045F82640F0BD418370470183704700BFF3
:10183000FEE700BFFEE7704770B5002100230F22CE
:10184000C4781CB3174C246804F4E064C4F5E06465
:10185000C4F30721C1F10404E3B20A4144789C4077
:10186000E1B28478144021430C07210E0E4C057818
:101870006155047804F01F050124AC4005786D1112
:10188000AD0005F1E025C5F8004109E0047804F059
:101890001F050124AC40054D0678761145F8264019
:1018A00070BD00000CED00E000E400E080E100E02D
:1018B0007047000029B1064A12680243044B1A60BF
:1018C00004E0034A12688243014B1A60704700002B
:1018D0003038024029B1064A12680243044B1A60AC
:1018E00004E0034A12688243014B1A60704700000B
:1018F0004038024029B1064A12680243044B1A607C
:1019000004E0034A12688243014B1A6070470000EA
:101910002038024029B1064A12680243044B1A607B
:1019200004E0034A12688243014B1A6070470000CA
:10193000443802401448006840F001001249086031
:1019400000201149083108600F4800680F4908401D
:101950000D4908600E48091D08600E480A49843187
:1019600008600B481038091D08600748006820F41B
:10197000802005490860002003490C3108600249B5
:101980008C3108607047000000380240FFFFF6EA23
:101990001030002400300020F0B500210022002487
:1019A000022500260223324F3F6807F00C0121B1C7
:1019B000042905D0082937D105E02E4F076036E00D
:1019C0002D4F076033E02A4F3F1F3F68C7F3805613
:1019D000274F3F1F3F6807F03F036EB1264FB7FB0D
:1019E000F3F7DFF88CC0ACF1040CDCF800C0CCF3EA
:1019F000881C07FB0CF40CE01E4FB7FBF3F7DFF875
:101A000070C0ACF1040CDCF800C0CCF3881C07FB00
:101A10000CF4174F3F1F3F68C7F301477F1C7D0041
:101A2000B4FBF5F7076002E0124F076000BF00BF8C
:101A30000F4F3F6807F0F0010909104F7A5C076803
:101A4000D74047600A4F3F6807F4E051890A0B4FBF
:101A50007A5C4768D7408760054F3F6807F460416C
:101A6000490B064F7A5C4768D740C760F0BD00005D
:101A7000083802400024F40000127A00C40000205C
:101A800010B501460022002300204A11012A02D18C
:101A90000A4C236808E0022A03D1084C70342368FA
:101AA00002E0064C7434236801F01F0201249440C4
:101AB0001C400CB1012000E0002010BD00380240A5
:101AC00001460020034A106820F0F000084310602F
:101AD00070470000083802400021024A1170114688
:101AE000087070470238024001460020034A10681F
:101AF00020F4E050084310607047000008380240AE
:101B000001460020034A106820F4604040EAC1000A
:101B100010607047083802400149086670470000AD
:101B20000000474270B5049C41EA82150126C6EBCD
:101B3000530645EA0645054345EA0465014E35600E
:101B400070BD00000438024001460020034A1068BE
:101B500020F003000843106070470000083802407E
:101B600038B5002000900024002500BF3120FFF789
:101B700087FF05460098401C00900098B0F5A04FE4
:101B800001D0002DF2D03120FFF77AFF08B10124F7
:101B900000E00024204638BD10B52DED028BB0EEDC
:101BA000408A134880ED008A4F20124908704C206B
:101BB00048704D2088700E480068000EC8700C48B0
:101BC0000068000C08710A480088000A487108483B
:101BD00000788871084600F02CFE0649C8710A4654
:101BE00008210548006801F0C1F8BDEC028B10BD6A
:101BF00034000020280000200400002010B52DED46
:101C0000028BB0EE408A4F201A490870502048706D
:101C1000B5EEC08AF1EE10FA05DB52208870164846
:101C200080ED008A07E04C2012498870B1EE480A26
:101C3000114880ED000A10480068000E0D49C87078
:101C40000D480068000C08710B480088000A4871B4
:101C5000094800788871084600F0EBFD0549C87115
:101C60000A4608210548006801F080F8BDEC028BA7
:101C700010BD0000280000203400002004000020D7
:101C800010B52DED028BB0EE408A4F201A49087036
:101C90004C204870B5EEC08AF1EE10FA05DB5220F8
:101CA0008870164880ED008A07E04C201249887041
:101CB000B1EE480A114880ED000A10480068000E95
:101CC0000D49C8700D480068000C08710B48008869
:101CD000000A4871094800788871084600F0A9FD9B
:101CE0000549C8710A4608210548006801F03EF818
:101CF000BDEC028B10BD0000280000203400002045
:101D00000C0000202DE9F0412DED048B82B004463B
:101D10000D4616461F46DDF83080E0780F287DD14D
:101D2000E07E0028FBD1002D79D02179607941EA4D
:101D30000020C0F30A0028806079C110A07941EA30
:101D40004010C0F30A006880A0798111E07941EA6F
:101D50008001207A41EA8020C0F30A00A880207A1E
:101D60004110607A41EAC010C0F30A00E880607A4E
:101D70000111A07A41EA0010C0F30A002881A07A7C
:101D8000C111E07A41EA4001207B41EA4020C0F3E2
:101D90000A006881207B8110607B41EA8010C0F3DB
:101DA0000A00A881607B4111A07B41EAC000E88164
:101DB000E17B207C41EA0020C0F30A002882207CDD
:101DC000C110607C41EA4010C0F30A006882607C68
:101DD0008111A07C41EA8001E07C41EA8020C0F3CF
:101DE0000A00A882E07C4110207D41EAC010C0F3C7
:101DF0000A00E882207D0111607D41EA0010C0F3F5
:101E00000A002883607DC111A07D41EA4001E07D88
:101E100041EA4020C0F30A00688301E0B2E093E0A9
:101E2000E07D8110207E41EA8010C0F30A00A88383
:101E3000207E4111607E41EAC000E883E88BB0F566
:101E4000FA7F03DA0120504988714DE000204E49A5
:101E500088714E48009068884D4B40F21372B02153
:101E600002F022FA00B270803A2000902888002305
:101E700040F21372B02102F017FA00B23080022053
:101E800000906889002340F21372AC2102F00CFA32
:101E900000B2708101200090E889002340F21372A3
:101EA000AC2102F001FA00B2F081A888FEF723FB12
:101EB00041EC190B9FED374B9FED383B9FED392BD4
:101EC0009FED3A1BB0EE490AF0EE690A02F04CFAB7
:101ED000B0EE408AF0EE608AB0EE480AF0EE680A92
:101EE00002F0EEF9B08000BF2748807918B90120D0
:101EF0002549487101E00020F081F089012805D1D1
:101F00002148407910B101201F490870F08960B95B
:101F10001D48007848B11C48807930B900201A4922
:101F2000487001208870002008701748807928B117
:101F30001548407910B101201349C8711248C07981
:101F400010B1002010494871B8F1000F0AD0A07EEE
:101F500000F0040018B1012088F8000002E0002021
:101F600088F8000047B1A07E00F0080010B1012001
:101F7000387001E000203870012002B0BDEC048B05
:101F8000BDE8F0810020F8E74401002050FBFFFF8E
:101F9000A0F6FFFF0000000000001240000000005B
:101FA000000012C000000000004C9C400000000037
:101FB000008065407047000030B500228B071C0F81
:101FC0000F2303FA04F20B4B8C1053F82430934385
:101FD000084C8D1044F8253023468C1053F82430DB
:101FE0008C07240F00FA04F42343024C8D1044F8AC
:101FF000253030BD0838014010B54F200B4908701E
:10200000532048704D2088700020C87008714871B6
:102010008871084600F00DFC0449C8710A46082181
:102020000348006800F0A2FE10BD00002800002058
:102030000400002038B5FFF77DFC0120FFF74CFDC0
:10204000FFF78EFD0446012C23D1072002234FF415
:10205000A87208210090C804FFF764FD0120FFF773
:102060005BFD00BF3920FFF70BFD0028FAD00520EB
:10207000FFF768FB0020FFF723FD4FF4A050FFF7A8
:1020800033FD4FF48050FFF73BFD0220FFF75CFD6E
:1020900001E000BFFEE700F001F838BD70B5002098
:1020A0000022022300240221274D2D6805F00C0098
:1020B00020B1042806D0082834D107E0234D244E4F
:1020C000356033E0234D224E35602FE01E4D2D1F2D
:1020D0002D68C5F380541C4D2D1F2D6805F03F0160
:1020E00054B11C4DB5FBF1F5174E361F3668C6F3DB
:1020F000881605FB06F209E0144DB5FBF1F5124E0A
:10210000361F3668C6F3881605FB06F20E4D2D1FE6
:102110002D68C5F301456D1C6B00B2FBF3F50C4E49
:10212000356003E0094D0A4E356000BF00BF064D23
:102130002D68C5F30315084E705D054D2D68C5402B
:10214000034E356070BD0000083802400024F400E2
:10215000D400002000127A002444000814480068CB
:1021600040F47000124908601248006840F0010015
:102170001049086000200F49083108600D480068C8
:102180000D4908400B4908600C48091D0860081FEC
:10219000006820F48020091F0860002005490C31E8
:1021A00008604FF000600249803908607047000005
:1021B00088ED00E000380240FFFFF6FE10300024FA
:1021C00010B50121044800F023F918B1012102489B
:1021D00000F003F910BD00000040014010B50121DE
:1021E000880700F015F9012809D10121800700F0C6
:1021F000F4F84FF0804000F0FFF80149086010BD8E
:102200007C00002008B50121324800F001F90028C7
:102210005BD03148314B324A324900903248FFF7A7
:1022200071FD2F48B0F90E0010B101283FD138E000
:102230002E48807888B12D48407870B90021FE2062
:1022400001F0F4FB2A4890ED000ABCEEC00A10EE43
:10225000100A81B2FE2001F0C5FB00BF2348407880
:10226000F0B122488078D8B92048C079B0B19FED4C
:10227000210AFFF705FD9FED1F0AFFF7BFFCFFF7DF
:10228000BBFE1D48008881B2FE2001F0ABFB0020A0
:102290001649C87148700120887008E000F0B6FB4C
:1022A00005E001201149487000208870D6E700BF82
:1022B0000E48007A48B10D48407A30B100F03EFC3B
:1022C00000200A49487200F031FD0121014800F068
:1022D00084F808BD00040040A1000020A0000020F8
:1022E0002A0300200A0300203E02002044010020AF
:1022F00048000020000000001044000810B5012133
:10230000214800F085F801283CD101211E4800F049
:1023100064F81E4890ED000ADFED1D0A20EE200A49
:10232000F1EE000A20EE200ADFED1A0A80EE201AF4
:102330009FED190A31EE000A184880ED000A4FF0AF
:10234000804000F059F816490860164890ED002AC0
:102350001548D0ED001A154890ED001A084690ED8A
:10236000000AF8EEC00A0D4890ED000A00F0F0F8FF
:10237000BCEEC00A10EE100A0D490880084600881D
:1023800000F0D2F910BD00000008004090000020CD
:1023900000A039450000B4430060EA466400002014
:1023A0007C0000209C000020980000209400002069
:1023B0006000002010B50121054800F029F830B177
:1023C000012001F0CFFA0121014800F006F810BD0C
:1023D00000140040CA4302827047CA430282704719
:1023E00021B1028842F00102028004E002884FF627
:1023F000FE731A40028070470146486A70470246E1
:102400000020138A0B400BB1012000E00020704730
:1024100030B50246002000230024158A05EA010396
:10242000958905EA010413B10CB1012000E00020F8
:1024300030BD1AB183890B43838102E083898B43CA
:102440008381704741637047416270470022028870
:10245000184B98420ED0184B98420BD0B0F1804FD9
:1024600008D0164B984205D0154B984202D0154B18
:10247000984204D14FF68F731A404B881A43124B7F
:10248000984207D0114B984204D04FF6FF431A40B0
:102490000B891A4302804B68C3620B880385054B86
:1024A000984202D0044B984201D18B7A03860123D3
:1024B0008382704700000140000401400004004096
:1024C00000080040000C00400010004000140040D4
:1024D00010B54FF480610448FFF7A7F94FF400717D
:1024E0000148FFF7A0F910BD0000024010B54FF4FD
:1024F00000710448FFF799F94FF480610148FFF734
:1025000092F910BD000002400E4890ED000ADFED88
:102510000E0AB4EEE00AF1EE10FA03DB9FED0A0AB0
:1025200080ED000A074890ED000ADFED080AB4EEDE
:10253000E00AF1EE10FA03D89FED040A80ED000ADC
:1025400070470000740000200000BE4200005C42A2
:1025500010B52DED068BB0EE408AF0EE608AB0EE3D
:10256000419AF0EE619AB0EE42AA38EE680A6448E9
:1025700080ED000AF3EE040A8AEE200ADFED610A1C
:1025800080EE201A9FED600A29EE800AD0ED000A45
:102590005E48D0ED001A70EEA10A20EE200A5848DD
:1025A000D0ED000A09EE200AD0ED000A5748D0ED20
:1025B000001AB0EE002A42EE610A5548D0ED001A2A
:1025C00070EEA10A01EE200A524880ED000A4F4841
:1025D00090ED000A4E4880ED000A494890ED000A4F
:1025E0004A4880ED000A9FED4C0AB4EEC08AF1EE35
:1025F00010FA43DD424890ED000ADFED480AB4EEE0
:10260000E00AF1EE10FA12DDFFF770FF414890ED9D
:10261000000ADFED430A30EE200A80ED000AFFF7E2
:1026200073FF3C4890ED000ABDEC068B10BD3448AA
:1026300090ED000ADFED3B0AB4EEE00AF1EE10FA8D
:1026400010D2FFF745FF334890ED000ADFED340A62
:1026500030EEC00A80ED000AFFF756FF2D4890EDDE
:10266000000AE1E700F07CF800F068F89FED2C0A22
:10267000284880ED000A90ED000AD5E7204890ED4B
:10268000000ADFED280AB4EEE00AF1EE10FA10D2EB
:10269000FFF71EFF1F4890ED000ADFED210A30EE24
:1026A000C00A80ED000AFFF72FFF1A4890ED000ADC
:1026B000BAE7134890ED000ADFED180AB4EEE00A1D
:1026C000F1EE10FA10DDFFF711FF124890ED000A4D
:1026D000DFED130A30EE200A80ED000AFFF714FF49
:1026E0000C4890ED000A9FE700F03AF800F026F859
:1026F0009FED0B0A074880ED000A90ED000A93E772
:102700006800002000007A44000000006C000020F7
:1027100070000020740000200060EA4600008C4237
:1027200000005C4200008CC210B5044621460248FD
:10273000FFF788FE10BD00000000014010B59FEDBE
:10274000060A064880ED000A47F230514FF08040FB
:10275000FFF77AFE10BD000000000000900000208E
:1027600010B54FF400710448FFF75DF84FF4806135
:102770000148FFF758F810BD0000024010B50A46A6
:102780000023002121E0445C242C1DD14C1C045D5D
:10279000412C19D18C1C045D552C15D1CC1C045D29
:1027A000562C11D10C1D045D322C0DD14C1D045D35
:1027B000302C09D18C1D045D302C05D1CC1D045D5D
:1027C000302C01D1CBB202E0491C2429DBDB00BF55
:1027D00000210CE05C18242C03DA5C18045D5454CE
:1027E00004E0C3F124040C1B045D5454491C242947
:1027F000F0DB10BD02460020002103E0535C0344DF
:10280000D8B2491C2029F9DBC143C8B2411CC8B267
:10281000704708B501788DF8001041788DF80110E7
:1028200081788DF80210C1788DF803109DED000AB3
:1028300008BD02460020002103E0535C0344D8B2E7
:10284000491C0729F9DBC143C8B2411CC8B2704713
:1028500000B58DB001210220FFF72CF802208DF881
:10286000300000208DF832004FF400700B900120F2
:102870008DF8330003208DF831000BA95648FEF780
:1028800067FF01210220FFF715F802208DF83000C4
:1028900000208DF832004FF480700B9001208DF8ED
:1028A000330003208DF831000BA94B48FEF750FF91
:1028B000092211464848FEF793FF0922082146489D
:1028C000FEF78EFF01214806FFF704F84348FEF7A4
:1028D0001DF900208DF826008DF827008DF82800BE
:1028E00001208DF8290000208DF82A0001208DF8A4
:1028F0002B0000208DF822008DF823000B208DF88E
:10290000240007208DF825000220ADF8200008A93A
:102910003248FEF7B0F900208DF81A008DF81B0040
:102920008DF81C002E4800684FF6FF7101EA401038
:10293000ADF810002A48006801EA4010ADF8120016
:102940002848006801EA4010ADF8140025480068E6
:1029500001EA4010ADF816000020ADF81800012083
:102960008DF81D0004A8FEF7F9F8012202211B488A
:10297000FEF778F914208DF8000001208DF803008F
:1029800000208DF801008DF802006846FEF754FF24
:1029900001210220FEF79EFF0020ADF8060041F65F
:1029A0001F40ADF80400C820029001A90E48FFF7AF
:1029B0004DFD01210C48FFF713FD1D208DF800008F
:1029C00001208DF801008DF802008DF803006846A3
:1029D000FEF732FF0DB000BD00040240006400406D
:1029E000080000201C0000200004004008B5C17849
:1029F0008DF8001081788DF8011041788DF8021063
:102A000001788DF803109DED000A08BD10B5464809
:102A1000B0F904004549B1F9041088421DD042497B
:102A2000B1F90400002801DB014600E041420A2917
:102A30000BDD3D48B0F9040000EE900AF8EEE00A24
:102A4000B0EE600AFFF71CF903E09FED390AFFF7CB
:102A500017F935488088354988803348B0F90A002D
:102A600020B1012807D002280FD109E0B3EE0E0AE9
:102A7000FFF7C4F809E09FED2E0AFFF7BFF804E066
:102A8000BBEE0E0AFFF7BAF800BF00BF2648B0F948
:102A900000002649B1F90010884214D000240CE04F
:102AA0002148B0F9000000EE900AF8EEE00AB0EE1E
:102AB000600AFFF771F8601CC4B2032CF0DB1A48FF
:102AC00000881A490880184AB2F90210002901DB6F
:102AD0000A4600E04A42174B1B689A4223DD124A1D
:102AE000B2F90200002801DB024600E04242124B2C
:102AF0001B689A4217DA0021FE2000F097FF0A486F
:102B0000B0F90240002C01DB204600E0604200EEFC
:102B1000100AB8EEC00ABCEEC00A10EE100A81B26C
:102B2000FE2000F05FFF10BD2A0300204A030020B2
:102B300000000000084400080C44000810B56D486F
:102B40000078052827D2DFE800F003275481AE0083
:102B50006948007869490870694800784870694890
:102B60000078887068480078C870684800780871F4
:102B70000020487188710846FFF75BFE5F49C87105
:102B80000A4608216248006800F0F0F859480078C9
:102B9000401C58490870ABE05E4890ED000A5E4862
:102BA00080ED000A502055490870522048700020DE
:102BB000887059480068000EC87057480068000CBB
:102BC000087155480088000A487153480078887198
:102BD0000846FFF72EFE4949C8710A4608214C48AD
:102BE000006800F0C3F843480078401C4149087071
:102BF0007EE04A4890ED000A494880ED000A5020E6
:102C00003E4908704B204870002088704448006896
:102C1000000EC87042480068000C087140480088E7
:102C2000000A48713E48007888710846FFF701FEA7
:102C30003249C8710A4608213548006800F096F804
:102C40002C480078401C2B49087051E0334890ED27
:102C5000010A344880ED000A5420284908704B20AE
:102C60004870002088702F480068000EC8702D48FA
:102C70000068000C08712B480088000A4871294838
:102C8000007888710846FFF7D4FD1C49C8710A46D0
:102C900008211F48006800F069F816480078401CB9
:102CA0001449087024E052201449087050204870DC
:102CB000562088701C480068000EC8701A480068CA
:102CC000000C087118480088000A487116480078FE
:102CD00088710846FFF7ADFD0849C8710A4608210A
:102CE0000B48006800F042F800200249087000BF5D
:102CF00000BF10BD300000204C0000202800002044
:102D00004D0000204E0000204F0000205000002009
:102D10000800002018020020380000205800002081
:102D20003C000020400000204400002010B5452059
:102D30000C4908704E204870442088704120C870AB
:102D4000522008714D204871322088710846FFF7E3
:102D500070FD0449C8710A4608210348006800F064
:102D600005F810BD28000020040000202DE9F043E4
:102D700085B080460C469146CDF800800020019039
:102D80008DF809008DF80800E0B28DF80A000020E7
:102D900005E019F800200DF10B010A54401CA04277
:102DA000F7DB69460A48FEF777F80546002705E095
:102DB00029460748FEF704F906467F1C012E03D07A
:102DC0004FF6FF708742F3D105B0BDE8F0830000F5
:102DD0000064004010B501211020FEF77BFD0020AB
:102DE000024908810248FFF731FB10BD2401002091
:102DF0000010004070B5044614480068800814496B
:102E0000B0FBF1F00121C1EB40001249088040F213
:102E1000E73048601048FFF719FB002513E0012157
:102E20000D48FFF7D7FA01210B48FFF7D9FA00BF89
:102E300001210948FFF7E3FA0028F9D000210648EC
:102E4000FFF7CEFA6D1CA542E9D370BDD400002077
:102E500040420F00240100200010004070B50446DD
:102E60001448006880081449B0FBF1F00121C1EB5F
:102E7000400012490880012048601148FFF7E6FA37
:102E8000002513E001210E48FFF7A4FA01210C48A8
:102E9000FFF7A6FA00BF01210948FFF7B0FA0028A2
:102EA000F9D000210648FFF79BFA6D1CA542E9D333
:102EB00070BD0000D400002080841E00240100208A
:102EC0000010004010B502460023002004E0145C0E
:102ED000242C00D1C3B2401C2628F8DB00200CE0D3
:102EE0001C18262C03DA1C18145D0C5404E0C3F1E2
:102EF0002604041B145D0C54401C2628F0DB10BD76
:102F000010B57F2000F0EAFE10BD000000B585B0CE
:102F100001210820FEF7CEFC01208DF810000020D2
:102F20008DF812004FF48050039000208DF81300AC
:102F300003208DF8110003A9DE48FEF709FC4FF4C9
:102F40008051DC48FEF76FFC01210820FEF7B2FC3F
:102F500001208DF8100000208DF812004FF4005071
:102F6000039000208DF8130003208DF8110003A9B1
:102F7000D048FEF7EDFB4FF40051CE48FEF753FC6E
:102F800001210820FEF796FC01208DF8100000209A
:102F90008DF812004FF48040039000208DF813004C
:102FA00003208DF8110003A9C248FEF7D1FB4FF4AE
:102FB0008041C048FEF737FC01210820FEF77AFC6B
:102FC00001208DF8100000208DF812004FF4004011
:102FD000039000208DF8130003208DF8110003A941
:102FE000B448FEF7B5FB4FF40041B248FEF71BFCB6
:102FF00001211020FEF75EFC01218803FEF78AFC08
:1030000000208DF810008DF812004FF4006003903E
:1030100002208DF8130003208DF8110003A9A648A3
:10302000FEF796FB0B210420FEF7C6FF4FF400606D
:10303000019001208DF80A0000208DF8080008207A
:103040008DF8090001A8FEF733FB28208DF8000059
:1030500001208DF8030000208DF801008DF802009A
:103060006846FEF7E9FB01211020FEF723FC012151
:103070008803FEF74FFC00208DF810008DF8120039
:103080004FF48050039002208DF8130003208DF838
:10309000110003A98848FEF75BFB0C210420FEF712
:1030A0008BFF4FF48050019001208DF80A00002022
:1030B0008DF8080008208DF8090001A8FEF7F8FA3D
:1030C00028208DF8000001208DF8030000208DF8E5
:1030D00001008DF802006846FEF7AEFB01211020CA
:1030E000FEF7E8FB01218803FEF714FC00208DF8B1
:1030F00010008DF812004FF40050039002208DF85C
:10310000130003208DF8110003A96B48FEF720FB84
:103110000D210420FEF750FF4FF4005001900120D4
:103120008DF80A0000208DF8080008208DF80900AD
:1031300001A8FEF7BDFA28208DF8000001208DF8C7
:10314000030000208DF801008DF802006846FEF7AC
:1031500073FB01211020FEF7ADFB01218803FEF770
:10316000D9FB00208DF810008DF812004FF480403C
:10317000039002208DF8130003208DF8110003A99D
:103180004D48FEF7E5FA0E210420FEF715FF4FF437
:103190008040019001208DF80A0000208DF8080081
:1031A00008208DF8090001A8FEF782FA28208DF882
:1031B000000001208DF8030000208DF801008DF83B
:1031C00002006846FEF738FB01211020FEF772FB73
:1031D00001218803FEF79EFB00208DF810008DF87A
:1031E00012004FF40040039002208DF813000320DA
:1031F0008DF8110003A93048FEF7AAFA0F21042028
:10320000FEF7DAFE4FF40040019001208DF80A002D
:1032100000208DF8080008208DF8090001A8FEF7AD
:1032200047FA28208DF8000001208DF803000020C7
:103230008DF801008DF802006846FEF7FDFA0121C5
:103240000420FEF737FB01208DF8100000208DF8D8
:1032500012004FF40040039000208DF8130003206B
:103260008DF8110003A91548FEF772FA4FF40041DA
:103270001248FEF7D8FA01210420FEF71BFB0120BB
:103280008DF8100000208DF812004FF4806003903C
:1032900002208DF8130003208DF8110003A90748C0
:1032A000FEF756FA4FF480610448FEF7BCFA05B009
:1032B00000BD0000000C0240001002400008024067
:1032C00010B54FF400410248FEF7ADFA10BD000002
:1032D000000C024010B54FF400410248FEF7A5FA79
:1032E00010BD0000000C024000B597B00121022083
:1032F000FEF7E0FA02208DF8580000208DF85A0001
:103300004FF48060159000208DF85B0003208DF84D
:10331000590015A94348FEF71BFA01210220FEF7C8
:10332000C9FA02208DF8580000208DF85A004FF499
:103330000060159000208DF85B0003208DF8590087
:1033400015A93848FEF704FA07220A213548FEF786
:1033500047FA07220B213348FEF742FA012188047D
:10336000FEF7B8FA4FF4165011900020ADF8500057
:103370000C20ADF84E000020ADF84C00ADF84A002E
:10338000ADF8480011A9284800F026FC01214805A5
:10339000FEF790FA4FF00060029024480490224813
:1033A000001D039000200590092006900020079042
:1033B0004FF480600890002009900A904FF48070CC
:1033C0000B9040020C9000200D9001200E900020E8
:1033D0000F90109002A91648FEF7E6F8002240214F
:1033E000114800F0E3FB00211148FEF781F80122AB
:1033F00010210F48FEF7BAF80C208DF804000020C9
:103400008DF8050002208DF8060001208DF80700D8
:1034100001A8FEF711FA0121034800F0BBFB17B029
:1034200000BD0000000402400048004035020020BA
:103430002860024008B5C1788DF8001081788DF8B9
:10344000011041788DF8021001788DF803109DED80
:10345000000A08BD70B586B0054600262A480570EA
:10346000302029494870042088704320C870002407
:1034700004E02549085D00F095F8641C042CF8DB95
:1034800000BF8021214800F09AFB0128F9D128E0F3
:1034900000240DE000BF20211C4800F090FB012813
:1034A000F9D11A4800F002FC03A90855601CC4B207
:1034B0000A2CEFDB01AB02AA082103A8FDF7D0FD1F
:1034C0009DF80E0005280CD19DF814009DF80810F9
:1034D000884206D19DF815009DF80410884200D15D
:1034E0000126002ED4D001224021084800F05EFBC6
:1034F00001210748FDF7FCFF0A20FFF77BFCFA20BB
:1035000000F008F806B070BD2C0200200048004012
:103510002860024070B505460E48057049200D49E7
:103520004870012088700B1DCA1C0321D01EFDF7B6
:1035300097FD002404E00749085D00F033F8641C9F
:10354000052CF8DB00BF8021034800F038FB012880
:10355000F9D170BD2C0200200048004070B505462E
:103560000E48057049200D494870042088700B1DD5
:10357000CA1C0321D01EFDF773FD002404E0074997
:10358000085D00F00FF8641C052CF8DB00BF8021FB
:10359000034800F014FB0128F9D170BD2C02002073
:1035A0000048004010B5044600BF8021044800F0E8
:1035B00006FB0128F9D12146014800F07CFB10BD33
:1035C0000048004010B50B46FF22C17AFF290AD1FE
:1035D000017BFF2907D1417B012904D101780A2908
:1035E00001D10B2235E0017BFF290AD1417BFF2964
:1035F00007D10178012904D141780A2901D10C228F
:1036000027E0417BFF290AD10178FF2907D14178C2
:10361000012904D181780A2901D10D2219E0012163
:1036200014E00B2910DA445CFF2C0DD14C1C045D16
:10363000FF2C09D18C1C045D012C05D1CC1C045D30
:103640000A2C01D10A4603E04C1CE1B20E29E8DB4A
:1036500000BFFF2A11D000210DE054180E2C03DA10
:103660005418045D5C5404E0C2F10E040C1B045DAC
:103670005C544C1CE1B20E29EFDB10BD10B50246C4
:103680000B460021022003E0145C0C44A1B2401C54
:103690005C1E8442F8DCC8B2C04381B2C8B210BD1F
:1036A00000B599B001210846FEF704F902208DF813
:1036B000600000208DF862000420179000208DF833
:1036C000630003208DF8610017A95948FEF740F800
:1036D00001210846FEF7EEF802208DF86000002078
:1036E0008DF862000820179000208DF863000320F9
:1036F0008DF8610017A94E48FEF72AF8072202212B
:103700004B48FEF76DF8072203214948FEF768F899
:1037100001214804FEF7DEF84FF4614013900020C9
:10372000ADF858000C20ADF856000020ADF854005C
:10373000ADF85200ADF8500013A93E4800F04CFA25
:10374000012240213B4800F031FA01214805FEF7F3
:10375000B1F84FF000600490374806903548001DDE
:103760000590002007900E200890002009904FF44B
:1037700080600A9000200B900C904FF480700D90A8
:1037800040020E9000200F90012010900020119018
:10379000129004A92948FDF707FF01212748FDF7EA
:1037A000A7FE012210212548FDF7E0FE10208DF82C
:1037B0000C0000208DF80D0004208DF80E00012073
:1037C0008DF80F0003A8FEF737F80121194800F023
:1037D000E1F901212020FEF77DF80020ADF8080076
:1037E000ADF8020040F24730019040F2E730ADF80A
:1037F000000069461248FEF729FE00220121104808
:10380000FEF717FE37208DF80C0000208DF80D0014
:1038100005208DF80E0001208DF80F0003A8FEF79B
:103820000BF800210648FEF7DBFD19B000BD0000D3
:103830000000024000440040FC010020886002407B
:103840000014004008B5014608788DF8000048785B
:103850008DF80100BDF8000008BD000010B5FE2085
:1038600000F066F84FF4FA70FFF7F8FA2221FE2014
:1038700000F098F84FF4FA70FFF7F0FA40F6C41130
:10388000FE2000F0AFF84FF4FA70FFF7E7FA0122DC
:1038900011460448FEF7CDFD01210248FEF7A0FDC8
:1038A00010BD00000014004070B505460E4600240F
:1038B0000CE000BF8021074800F081F90128F9D110
:1038C000295D044800F0F7F9601CC4B2B442F0DB93
:1038D00070BD000000440040F0EE400A9FED101A59
:1038E000B0EE410AB2EE081AF4EEC10AF1EE10FA97
:1038F00004D29FED0C1AB0EE410A0FE09FED0A1AB8
:10390000F4EEC10AF1EE10FA04D2B0EE041AB0EEF1
:10391000410A03E09FED051AB0EE410A704700002E
:103920000000000033331340CDCC6C416666464046
:103930001CB50446FF208DF800008DF801008DF8BD
:10394000024002208DF8030001208DF804000621BA
:103950006846FFF793FE8DF8050006216846FFF7DD
:10396000A3FF1CBD1CB50446FF208DF800008DF898
:1039700001008DF8024004208DF8030002208DF82C
:10398000040024208DF8050008208DF80600082189
:103990006846FFF773FE8DF8070008216846FFF7B9
:1039A00083FF1CBD7CB504460D46FF208DF800004A
:1039B0008DF801008DF8024004208DF803000320EB
:1039C0008DF8040004208DF805008DF806500821BC
:1039D0006846FFF753FE8DF8070008216846FFF799
:1039E00063FF7CBD3EB505460C46FF208DF8000008
:1039F0008DF801008DF8025005208DF8030003209A
:103A00008DF804001E208DF80500E0B28DF8060048
:103A1000200A8DF8070009216846FFF72FFE8DF870
:103A2000080009216846FFF73FFF3EBD3EB5054649
:103A30000C46FF208DF800008DF801008DF8025033
:103A400005208DF8030003208DF8040020208DF858
:103A50000500E0B28DF80600200A8DF80700092164
:103A60006846FFF70BFE8DF8080009216846FFF74E
:103A70001BFF3EBD00B595B001210420FDF71AFFE4
:103A800001212020FDF746FF01218805FDF712FFE7
:103A900001210420FDF70EFF02208DF850000020C8
:103AA0008DF852008020139000208DF853000220E2
:103AB0008DF8510013A93248FDF74AFE02208DF817
:103AC000500000208DF852004020139000208DF807
:103AD000530002208DF8510013A92948FDF738FE44
:103AE000082206212648FDF77BFE082207212448EC
:103AF000FDF776FE23480F900020ADF84000ADF8AA
:103B00004200ADF84400ADF848000C20ADF8460086
:103B10000FA91D4800F060F801211B4800F03AF899
:103B200001224021184800F041F84FF02060009039
:103B30001548001D0190154802900020039019209F
:103B40000490002005904FF48060069000200790BC
:103B500008904FF48070099040020A9000200B906A
:103B600001200C9000200D900E9069460848FDF74A
:103B70001BFD01210648FDF7BBFC15B000BD000090
:103B800000080240A086010000140140410200200C
:103B90002864024021B1828942F40052828104E00B
:103BA00082894DF6FF731A40828170471AB1838A69
:103BB0000B43838202E0838A8B43838270470246F1
:103BC0000020B1F5007F00D100BF13880B400BB17E
:103BD000012000E0002070472DE9FF4705460E4612
:103BE0000024A14600BFA046B08900B100BF2C8AC6
:103BF00024F44054F08804432C82AC8941F20C60D8
:103C00008443B08831890843718908430443AC81F7
:103C1000AC8A24F44074B0890443AC826846FDF752
:103C2000BBFE2048854202D01F48854202D1DDF804
:103C30000C9001E0DDF80890A88900F4004040B144
:103C400009EBC90000EB091031684900B0FBF1F73E
:103C500007E009EBC90000EB091031688900B0FBEF
:103C6000F1F76420B7FBF0F004012009642101FBA7
:103C70001078A88900F4004040B1322000EBC80061
:103C8000B0FBF1F000F00700044308E0322000EB45
:103C900008106421B0FBF1F000F00F0004432C8108
:103CA000BDE8FF87001001400014014001468888EC
:103CB000C0F308007047C1F308028280704700BF5C
:103CC000FEE700000020014908607047082C004012
:103CD00010B5FFF7F7FFFFF713F910BD00F07F01F4
:103CE000014A116070470000002C004003B40198A5
:103CF0004100009850EAC12018BF04204A0D18BFA7
:103D000040F0010040F2FF72B2EB515F08BF40F09B
:103D10000200012808BF052002B070470000000023
:103D200070B52DED020B2DED0A8B82B00D98C40FEE
:103D300020F00045AE48854248D3AE48854219D3AD
:103D40000C99C5F31300084309D09DED0C0B02B08C
:103D5000BDEC0A8B02B0BDE8704000F009BA002C3F
:103D600014BF9FEDA50B9DED0C0B02B0BDEC0A8BB3
:103D700002B070BD9FEDA20B53EC102B9DED0C0B10
:103D800051EC100BFCF7FCFB0AD2022000F02CFADD
:103D900002B0BDEC0A8B02B0BDE8704000F0F4B98F
:103DA0009FED990B53EC102B9DED0C0B51EC100B70
:103DB000FCF7CEFB0AD2022000F016FA02B0BDECEE
:103DC0000A8B02B0BDE8704000F0EEB990489FED5C
:103DD00092BBA8425CD29248854219D2914878445D
:103DE00000EBC40090ED000B53EC102B9DED0C0B81
:103DF00051EC100BFCF787FA41EC1A0B8A48784417
:103E000000EBC40090ED009BC4F10100041B36E000
:103E10009FED870B53EC102B9DED0C0B51EC100B11
:103E2000FCF777FA41EC100B8348784400EBC400B0
:103E300090ED001B51EC100B53EC112BFCF7C2F969
:103E4000FCF766FB0446FCF745FB41EC180B9FEDC5
:103E50007C0B53EC102BFCF75CFA9DED0C1B53EC28
:103E6000112BFCF753FA41EC1A0B9FED770B51EC39
:103E7000180B53EC102BFCF74CFA41EC190B51ECDE
:103E80001A0B53EC192BFCF73EFACDE90C011BE0A1
:103E90006F48854217D29FED700B53EC102B9DEDB0
:103EA0000C0B51EC100BFCF78DF953EC1B2BFCF7B2
:103EB00067FB08D29DED0C0B53EC1B2B51EC100B48
:103EC000FCF780F96EE000249DED0C0B53EC102BF9
:103ED00051EC100BFCF71DFA41EC180B6048052162
:103EE000B0EE480AF0EE680A784400F0C5F853ECEA
:103EF000182B51EC100BFCF70CFA9DED0C1B53EC3E
:103F0000112BFCF703FA41EC180B9FED570B5CB338
:103F100053EC182B51EC100BFCF7F5F99DED0C0B45
:103F200041EC1C0B53EC182B51EC100BFCF7F1F986
:103F300053EC1C2BFCF75FFA53EC192BFCF7E6F95A
:103F400053EC1A2BFCF7DFF953EC1B2BFCF7DEF9D3
:103F5000CDE900016FF47F70844226DB01EB045051
:103F600001909DED000B00E753EC102B51EC180B6A
:103F7000FCF7C9F99DED0C0B41EC190B53EC182B18
:103F800051EC100BFCF7C5F953EC192BFCF733FA85
:103F90009DED0C1B53EC112BFCF7B5F953EC1B2BCF
:103FA000FCF7B4F941EC100BDFE608464FF07A510C
:103FB00001EB04519FED2E0B084453EC102B0190A4
:103FC0009DED000B51EC100BFCF7A3F90D4645ECF1
:103FD000100B044651EC100BFFF788FE042808BFB5
:103FE00000F0E2F845EC104BBFE6000000000000D6
:103FF000422E86400000F07F00000000000000001C
:10400000EF39FAFE422E864051302DD5104987C037
:10401000422ED63F00000000000000000000F03FEC
:10402000B2A2F03F6E0600005E0600000000000035
:10403000FE822B654715F73F1206000000000000C6
:104040000000E0FE422EE63F763C7935EF39EA3D4E
:104050000000303E000000009C7500883CE4377E84
:104060008405000000000000000000000000004087
:10407000000000000000700170B504462DED028BB9
:104080004D1E00EBC500B0EE408AF0EE608A90ED68
:10409000000B35F0060017D053EC182B51EC100B29
:1040A000FCF737F941EC100B6D1E04EBC50090EDE9
:1040B000001B51EC100B53EC112BFCF783F841EC77
:1040C000100B35F00600E7D1022D36D0042D1CD0A0
:1040D000062D1CBFBDEC028B70BD53EC182B51ECB0
:1040E000100BFCF716F994ED0A1B53EC112BFCF79F
:1040F00069F853EC182BFCF70CF994ED081B53EC02
:10410000112BFCF75FF841EC100B53EC182B51EC22
:10411000100BFCF7FEF894ED061B53EC112BFCF78B
:1041200051F853EC182BFCF7F4F894ED040B53EC16
:10413000102BFCF747F841EC100B53EC182B51EC0B
:10414000100BFCF7E6F894ED021B53EC112BFCF777
:1041500039F853EC182BFCF7DCF894ED001B53EC0A
:10416000112BFCF72FF8BDEC028B41EC100B70BD4E
:1041700010B553EC102B51EC100BFCF723F841EC6D
:10418000100B10BD000000009FED050B10B553ECA7
:10419000102B51EC100BFCF7BCF841EC100B10BDD0
:1041A00000000000000000709FED050B10B553ECFF
:1041B000102B51EC100BFCF7ACF841EC100B10BDC0
:1041C000000000000000001002E008C8121F08C133
:1041D000002AFAD170477047002001E001C1121F88
:1041E000002AFBD1704700000149086070470000B9
:1041F000D8000020FDF71EFF2748FDF7CDFBFEF796
:10420000E9FDFEF783FE4FF4FA70FEF7F3FDFCF7CD
:104210007BFA4FF4FA70FEF7EDFDFEF719FB4FF451
:10422000FA70FEF7E7FDFFF725FC4FF4FA70FEF792
:10423000E1FDFFF759F86420FEF7DCFDFA20FFF7F7
:1042400009F94FF4FA70FEF7D5FDFFF729FA4FF49C
:10425000FA70FEF7CFFDFFF701FB4FF4FA70FEF79F
:10426000C9FDFE20FFF764FB01200C49087288702D
:1042700000200B49C88101204881FFF72BF84FF43B
:104280007A70FEF7B7FDFFF71BF8012211460548CB
:10429000FEF7CFF800BFFEE7DC000020440100205D
:1042A0002A0300200004004070B50446049D601AF3
:1042B000EE1A7043561A90FBF6F0184470BD0000D9
:1042C00010B52DED0A8BB0EE408AF0EE608A9FEDBE
:1042D000220B53EC102B51EC180BFCF751F919D8A9
:1042E000B0EE480AF0EE680AFFF71AFDB0EE40AAF9
:1042F000F0EE60AA9FED1A0B53EC102B51EC1A0B49
:10430000FBF760FF41EC190BFCF702F900B2BDECC2
:104310000A8B10BD51EC180B81F0004141EC1C0BD5
:10432000B0EE4C0AF0EE6C0AFFF7FAFCB0EE40BAC1
:10433000F0EE60BA9FED0A0B53EC102B51EC1B0B07
:10434000FBF740FF41EC1A0B81F0004141EC190BE7
:10435000FCF7DEF800B2DAE7000000000000000021
:10436000000000000000204000B52DED108B85B04E
:10437000B0EE40AAF0EE60AAB0EE418AF0EE618A9B
:10438000B0EE42BAF0EE62BAB0EE439AF0EE639A43
:10439000B0EE44CAF0EE64CA53EC182B51EC1B0B80
:1043A000FBF7B1FF41EC1D0B53EC192B51EC1C0B2F
:1043B000FBF7A9FF41EC1E0B53EC182B51EC1A0B29
:1043C000FBF7A1FF41EC1F0B53EC1E2BFBF7A1FFEA
:1043D00053EC1D2BCDE900019DED000B51EC100BB2
:1043E000FCF709F853EC192BCDE902019DED020B06
:1043F00051EC100BFBF7E6FE41EC100B05B0BDECE9
:10440000108B00BD04080000B0040000600900002B
:1044100008070000000000003A000000E803000068
:10442000280A000000000000000000000102030450
:104430000607080900000000010203040000000054
:10444000000000000000E03F000000000000E0BFAE
:104450000000E0FE422EE63F0000E0FE422EE6BFF6
:10446000763C7935EF39EA3D763C7935EF39EABD6E
:104470003E5555555555C53F93BDBE166CC166BFDB
:104480002CDE25AF6A56113FF16BD2C541BDBBBED4
:10449000D0A4BE726937663EB84400080000002010
:1044A000DC000000C841000894450008DC00002042
:1044B00094120000D8410008000000002101000013
:1044C000220100002301000024010000250100005A
:1044D00026010000FE0000000000000000000000B7
:1044E00000000000000000000000000000000000CC
:1044F00000000000000000000000000000000000BC
:104500000000E14400000000000000000000000086
:10451000000000000000000000000000000000009B
:10452000000000000000000000000000000000008B
:10453000000000000000000000000000000000007B
:10454000000000000000000000000000000000006B
:10455000000000000000000000000000000000005B
:10456000000000000000000000000000000000004B
:10457000000000000000000000000000000000003B
:10458000010203040102030406070809007A030A72
:044590000000000027
:040000050800018965
:00000001FF
