:020000040800F2
:100000004F130020A1010008CB110008C311000804
:10001000C711000821050008FD2D000800000000A0
:100020000000000000000000000000009918000817
:10003000091000080000000045120008B90100087E
:100040000D2E0008BB010008BB010008BB01000821
:10005000BB010008BB010008BB010008BB01000890
:10006000BB010008BB010008BB010008250B00080C
:10007000010C0008BB010008BB010008BB0100081F
:10008000990C0008BB010008BB010008BB01000877
:1000900025050008BB010008BB010008BB010008E2
:1000A000BB010008BB010008BB010008BB01000840
:1000B000291A0008511A0008B51B0008BB010008E6
:1000C000BB010008BB010008BB010008BB01000820
:1000D000BB010008BB010008BB010008BB01000810
:1000E0000D100008BB010008BB010008BB0100089F
:1000F000BB010008BB010008BB010008BB010008F0
:10010000BB010008BB0100086D1C0008BB01000812
:10011000BB010008BB010008BB0100088D1C0008E2
:10012000BB010008850E0008BB010008BB010008E8
:10013000BB010008BB010008BB010008BB010008AF
:10014000BB010008BB010008BB010008BB0100089F
:10015000CD0E0008BB010008BB010008BB01000870
:10016000BB010008BB010008BB010008BB0100087F
:10017000BB010008BB010008BB0100080000000033
:10018000BB010008BB010008DFF810D000F0A6F9A1
:1001900000480047492E0008AFF300804F130020AD
:1001A0000648804706480047FEE7FEE7FEE7FEE711
:1001B000FEE7FEE7FEE7FEE7FEE7FEE7C5190008FB
:1001C000890100082DE9FE4F804681EA0300C00F37
:1001D0000C46009021F0004123F00045B8EB0200EE
:1001E000A94105D24046214690461C460B46024690
:1001F00023F00040104347D0270DC7F30A00C3F394
:100200000A510290401A019040286BDAC3F31300A0
:1002100040F4801B0098924620B10023D2EB030AE1
:1002200063EB0B0B01985946C0F14002504600F0B9
:100230009FF806460D4650465946019A00F0A7F829
:1002400010EB08006141002487EA115284EAE77349
:100250001A4340D0009A62B3019A012A4FEA07522A
:1002600015DC001B61EB02014FF0004202EA07526D
:10027000CDE90042001C41F5801132462B4600F0CA
:10028000DEF803B0BDE8F08F40462146F9E7001BD9
:1002900061EB0201001C41F5801300185B4120183E
:1002A000A2F5001747EB030140EAD570B6196D417E
:1002B00011E06D084FEA360645EAC0754FEA07526D
:1002C000001B61EB0201001C41F5801149084FEA57
:1002D00030000019514132462B4603B0BDE8F04FC3
:1002E00000F09EB80098012240000023D0EB0202EB
:1002F00063EBE073009821464FEAE074B8EB00002E
:1003000061EB0401E9E783F000435BE781F0004122
:1003100058E700F0004230F000400AD0C10D01F56E
:100320006071C0F3160042EA0151C2084007114350
:10033000704700200146704701F0004330B421F0BF
:10034000004150EA010206D00A0DA2F56072C1F325
:100350001301002A02DC30BC00207047440F44EA3D
:10036000C104C100E01830BC00EBC25000F021B85D
:10037000202A04DB203A00FA02F100207047914065
:10038000C2F1200320FA03F3194390407047202A5A
:1003900006DBCB17203A41FA02F043EAE07306E0AD
:1003A00041FA02F3D040C2F12002914008431946BD
:1003B00070470029A8BF7047401C490008BF20F0C3
:1003C0000100704710B4B0FA80FC00FA0CF050EA5B
:1003D000010404BF10BC704749B1CCF1200421FADC
:1003E00004F411FA0CF118BF012121430843A3EBD7
:1003F0000C01CB1D4FEA00614FEA102042BF0020E4
:1004000010BC704700EBC35010440029A4BF10BCBF
:100410007047401C490008BF20F0010010BC704725
:1004200010B5141E73F1000408DA401C41F10001FC
:1004300092185B411A4301D120F0010010BD2DE953
:10044000F04D92469B4611B1B1FA81F202E0B0FA4A
:1004500080F220329046FFF78BFF04460F4640EAB9
:100460000A0041EA0B0153465A46084313D011468D
:1004700053EA010019D0C8F14002504600F040F89C
:1004800005460E46504659464246FFF771FF08435F
:1004900005D0012004E020463946BDE8F08D00205B
:1004A000054346EAE0762C4337430A986305E40A9D
:1004B000A0EB08000022FD0A44EA47540A3002D5A6
:1004C00000200146E9E7010510196941DDE9084509
:1004D00000196941BDE8F04DA2E70000064C074D48
:1004E00006E0E06840F0010394E807009847103404
:1004F000AC42F6D3FFF74CFE142F0008342F00084F
:10050000202A04DB203A21FA02F00021704721FA68
:1005100002F3D040C2F120029140084319467047CF
:1005200000BFFEE710B51C4A00211C4800F06FF91F
:10053000194800681A49096888422BD11648007A80
:1005400040BB1548807A082824D113480B3001F0AD
:10055000D4FD1149897C88421CD10F48C07A4528B6
:1005600018D10D48007B4A2814D10B48407B5328F2
:1005700010D10948807B68B90748C07B50B906484C
:10058000007C38B90448407C20B901200549087036
:1005900002F0A0F910BD000020010020006400401E
:1005A000080000202D00002010B504460B488442AE
:1005B00009D10121480600F067FE00214FF00070CC
:1005C00000F062FE08E00121880600F05DFE0021D7
:1005D0004FF0806000F058FE10BD00000064004045
:1005E00010B50021837A012202FA03F13D4A126814
:1005F00042F001023B4B1A603A4A1C3212688A43AD
:10060000384B1C331A60027BCAB9364A0C32126866
:100610008A43344B0C331A604288C38842EA03434E
:10062000304A4032847A42F834300288838842EA81
:1006300003432C4A4032847A02EBC4025360027BAB
:10064000012A19D1274A0C3212680A43254B0C3370
:100650001A604288038842EA0343224A4032847A7D
:1006600042F83430C288838842EA03431D4A40324C
:10067000847A02EBC4025360C27A3AB9194A121D55
:1006800012688A43174B1B1D1A6006E0154A121D9B
:1006900012680A43134B1B1D1A60028932B9114AB2
:1006A000143212688A430F4B14331A600289012AEC
:1006B00006D10C4A143212680A430A4B14331A60EA
:1006C000427B012A06D1074A1C3212680A43054BB5
:1006D0001C331A60034A126822F00102014B1A60AF
:1006E00010BD0000006600401AB143690B4343612E
:1006F00002E043698B434361704730B502460020F6
:100700000023146824F002041460146844F0010407
:10071000146000E05B1C546804F001041CB94FF63F
:10072000FF74A342F6D1546804F001040CB9002010
:100730006CE08C79012C04D1146844F080041460BE
:1007400003E0146824F080041460CC79012C04D1F7
:10075000146844F04004146003E0146824F040047A
:1007600014600C7A012C04D1146844F02004146045
:1007700003E0146824F0200414604C7A012C04D1A6
:10078000146844F01004146003E0146824F01004AA
:1007900014608C7A012C04D1146844F008041460AD
:1007A00003E0146824F008041460CC7A012C04D10E
:1007B000146844F00404146003E0146824F0040492
:1007C00014608C78A407CD7844EA05640D7944EA76
:1007D00005444D7944EA05540D886D1E2C43D461BF
:1007E000146824F001041460002300E05B1C5468CA
:1007F00004F001041CB14FF6FF74A342F6D1546813
:1008000004F001040CB1002000E0012030BD10B55F
:1008100000F5D87303EB01131B6803F00403137294
:10082000137A53B900F5D87303EB01131B6840F238
:10083000FF7404EA5353136009E000F5D87303EB27
:1008400001131B686FF0604404EAD303536000F5A2
:10085000D87303EB01131B6803F00203537200F516
:10086000D87303EB01135B6803F00F03937200F579
:10087000D87303EB01135B681B0AD37400F5D873BC
:1008800003EB01139B68D37200F5D87303EB0113DC
:100890009B681C0A147300F5D87303EB01139B6863
:1008A0001C0C547300F5D87303EB01139B681B0EEB
:1008B000937300F5D87303EB0113DB68D37300F572
:1008C000D87303EB0113DB681C0A147400F5D873AA
:1008D00003EB0113DB681C0C547400F5D87303EBB5
:1008E0000113DB681B0E937421B9C36843F0200326
:1008F000C36003E0036943F02003036110BD10B53A
:1009000002460020936803F08063B3F1806F00D14A
:1009100010E0936803F00063B3F1006F01D1012090
:1009200008E0936803F08053B3F1805F01D10220A7
:1009300000E00420042874D002F5C07303EB001318
:100940001B6803F0010402F5C07303EB00131C6085
:100950000B7A7BB94B7A0C8843EA445302F5C07496
:1009600004EB00142468234302F5C07404EB001464
:10097000236010E00B7A4C6843EAC4034C7A2343AB
:1009800002F5C07404EB00142468234302F5C0741C
:1009900004EB001423608B7A03F00F038B7202F5D3
:1009A000C07303EB00135B6823F00F0402F5C07300
:1009B00003EB00135C6002F5C07303EB00135B688C
:1009C0008C7A234302F5C07404EB001463608B7BC4
:1009D0001C064B7B44EA03440B7B44EA0323CC7A9A
:1009E000234302F5C07404EB0014A3608B7C1C0647
:1009F0004B7C44EA03440B7C44EA0323CC7B234333
:100A000002F5C07404EB0014E36002F5C07303EB5D
:100A100000131B6843F0010402F5C07303EB0013DD
:100A20001C6010BD10B50246002321B1012907D07A
:100A300002290FD109E090681D4C00EA04030BE085
:100A400090681C4C00EA040306E090681A4C00EA27
:100A5000040301E0002300BF00BF184C181BA34291
:100A600016D007DC83B16FF08060184470B10228A3
:100A700018D111E0B0F5007F10D0114C204448B1DE
:100A8000B0F5003F0ED10BE002230DE000230BE098
:100A9000002309E0002307E0012305E0012303E030
:100AA000012301E0002300BF00BFD8B210BD000049
:100AB0000300000400030008000003100001000808
:100AC0000001FFF7F0B504464FF6FF700F46002512
:100AD0001FE014F805C08CEA000000260FE000F0CB
:100AE000010CBCF1000F05D040084AF2010C80EA6D
:100AF0000C0000E0400806F1010C0CF0FF06082E87
:100B0000EDDBA7F1010C0CF0FF0705F1010C0CF077
:100B1000FF05002FDDDC4FEA102C82F800C01870B2
:100B2000F0BD000010B53049304800F00FFA002841
:100B300059D02F492F4801F085FA2D4800782428F4
:100B40004DD12B484078412849D1294880785528F3
:100B500045D12748C078562841D125480079322808
:100B60003DD123484079302839D121488079302837
:100B700035D11F48C079302831D11D4801F09EFA87
:100B80001B4991F82010884229D11948083001F0FA
:100B9000A4FA194880ED000A15480C3001F09DFABE
:100BA000154880ED010A1248103001F096FA1248FB
:100BB00080ED020A0E48143001F08FFA0E4880EDE5
:100BC000030A0B48183001F088FA0B4880ED040A3C
:100BD00007481C3001F081FA074880ED050A0749F3
:100BE000024800F08DF910BD008020101060024016
:100BF00058010020340100207C01002000F03D90CD
:100C00001CB52049204800F0A1F9002839D06B46D6
:100C100001AA07211D48FFF755FF1C48C0799DF820
:100C20000410884217D11948007A9DF800108842B4
:100C300011D11748007838B91448801C01F054FECF
:100C4000144880ED000A06E01048801C01F04CFEBC
:100C5000104880ED010A0E48007840B9FA2001F0F2
:100C600077FE0B480078401C0949087005E0FA201F
:100C700001F04AFE0020064908700249024800F0CF
:100C80003FF91CBD008800102860024019020020B6
:100C90004C0000205000002010B56F496F4800F054
:100CA00055F900287DD06E496E4801F085FE0E2171
:100CB0006B4801F0DDFE6A49497B884272D1684881
:100CC000401D01F0E7FE00EE100AB8EE400A66484B
:100CD00080ED000A6248C01D01F0DCFE00EE100A43
:100CE000B8EE400ADFED610AB4EEE00AF1EE10FA68
:100CF0000FD85B48C01D01F0CDFE00EE100AB8EE23
:100D0000400ADFED5B0A20EE200A574880ED010A19
:100D100028E05348C01D01F0BDFE00EE100AB8EEF9
:100D2000400ADFED540AB4EEE00AF1EE10FA19DBE6
:100D3000DFED510AB0EE600A4948C01D01F0AAFE7D
:100D400000EE900AF8EE600A9FED4A1A70EEC10AB2
:100D5000B0EE600ADFED490A60EE200A4248C0EDBD
:100D6000010A00BF3E48007B00EE100AB8EE400AC0
:100D70003D4880ED040A3A48C07A00EE100AB8EE09
:100D8000400AF2EE040A80EE201A374880ED031A7A
:100D90003348093001F07EFE00EE100AB8EE400A3A
:100DA00001E058E053E0DFED310AB4EEE00AF1EE85
:100DB00010FA18D82A48093001F06CFE00EE100A2B
:100DC000F8EE401A2848D0ED030AB0EE600A01F0B0
:100DD00085FE21EE800ADFED250A80EE201A2248EA
:100DE00080ED021A33E01E48093001F053FE00EE98
:100DF000100AB8EE400ADFED1F0AB4EEE00AF1EE89
:100E000010FA24DB9FED1C0AF0EE401A144809305A
:100E100001F040FE00EE100AB8EE400ADFED150AC0
:100E200030EE600AF0EE401A0F48D0ED030AB0EE43
:100E3000600A01F053FEB1EE400A20EE210ADFED18
:100E40000B0A80EE201A084880ED021A00BF0C49F8
:100E5000024800F055F810BD00880020886002406C
:100E6000EE010020E0010020FC01002000C07F44D2
:100E7000AE47E13D0000804400000000AE47E1BD08
:100E800040FF00A008B50949094800F05FF838B1F3
:100E90000848094B094A0A4900900A4800F0FAFB41
:100EA0000949034800F02CF808BD00000088001034
:100EB0002864024099000020980000200E030020C2
:100EC000EE0200202202002040FF009010B50749EA
:100ED000074800F03BF838B10649074801F030FCFC
:100EE0000649034800F00CF810BD000000880020FF
:100EF00088640240BA0100209401002040FF00A055
:100F00000246094B9A4201D2084801E006481038CF
:100F100001F000531BB1064B0B40C36002E0044BD1
:100F20000B40836070470000106402400060024084
:100F30007D0F7D0F21B1026842F00102026003E0E3
:100F4000026822F0010202607047000070B502469C
:100F5000002000240025124EB24201D2114B01E0C4
:100F60000F4B103B104E0E4036B11E2606EAD12420
:100F7000166806EA040502E0566906F0800501F0ED
:100F800000560EB15C6800E01C68084E344004EA6C
:100F9000010616B10DB1012000E0002070BD000077
:100FA00010640240006002403C0F3C0F7D0F7D0F3B
:100FB00010B500220268134B1A40CC680B6823431B
:100FC0004C6923438C692343CC6923430C6A234334
:100FD0004C6A23438C6A23434C6B23438C6B23431F
:100FE0001A430260426922F00702D1E90B3423431D
:100FF0001A4342610B6943604B6883608B68C3602E
:1010000010BD00003F801CF07047000010B54FF489
:10101000006000F051F848B12348007840F001002A
:10102000214908704FF4006000F040F84FF4805000
:1010300000F042F848B11C48007840F002001A491C
:1010400008704FF4805000F031F84FF4005000F079
:1010500033F848B11448007840F004001249087091
:101060004FF4005000F022F84FF4804000F024F8D4
:1010700048B10D48007840F008000B4908704FF463
:10108000804000F013F84FF4004000F015F848B12C
:101090000548007840F01000034908704FF4004004
:1010A00000F004F810BD000048000020014908606D
:1010B00070470000143C014001460020034A1268BA
:1010C0000A400AB1012000E000207047143C0140B2
:1010D000014A107070470000003C0240F0B50A461B
:1010E00000210023002400BF3DE0012505FA01F3A3
:1010F000156805EA03049C4234D105684F000326B5
:10110000BE40B543056015794E00B54006683543CD
:1011100005601579012D02D01579022D16D185684B
:101120004F000326BE40B543856055794E00B5405B
:10113000866835438560456801268E40B543456025
:10114000456896798E40B6B235434560C5684F0014
:101150000326BE40B543C560D5794E00B540C6688C
:101160003543C560491C1029BFD3F0BDF0B500233D
:1011700000244D07ED0E02FA05F3CE1000F1200514
:1011800055F826504E07F70E0F26BE40B543CF1038
:1011900000F1200646F82750CE1000F1200555F842
:1011A000265045EA0304CE1000F1200545F82640FC
:1011B000F0BD418370470183704742694A404261F4
:1011C000704700BFFEE700BFFEE7704770B5002123
:1011D00000230F22C4781CB3174C246804F4E06485
:1011E000C4F5E064C4F30721C1F10404E3B20A4189
:1011F00044789C40E1B28478144021430C07210ECE
:101200000E4C05786155047804F01F050124AC40AC
:1012100005786D11AD0005F1E025C5F8004109E044
:10122000047804F01F050124AC40054D06787611C2
:1012300045F8264070BD00000CED00E000E400E041
:1012400080E100E07047000029B1064A12680243BD
:10125000044B1A6004E0034A12688243014B1A608F
:10126000704700003038024029B1064A1268024334
:10127000044B1A6004E0034A12688243014B1A606F
:10128000704700004038024029B1064A1268024304
:10129000044B1A6004E0034A12688243014B1A604F
:1012A000704700002038024029B1064A1268024304
:1012B000044B1A6004E0034A12688243014B1A602F
:1012C00070470000443802401448006840F00100B4
:1012D0001249086000201149083108600F48006871
:1012E0000F4908400D4908600E48091D08600E4866
:1012F0000A49843108600B481038091D0860074806
:10130000006820F4802005490860002003490C3162
:10131000086002498C3108607047000000380240C4
:10132000FFFFF6EA1030002400300020F0B5002165
:1013300000220024022500260223324F3F6807F0D6
:101340000C0121B1042905D0082937D105E02E4F21
:10135000076036E02D4F076033E02A4F3F1F3F689C
:10136000C7F38056274F3F1F3F6807F03F036EB11A
:10137000264FB7FBF3F7DFF88CC0ACF1040CDCF8B8
:1013800000C0CCF3881C07FB0CF40CE01E4FB7FB2D
:10139000F3F7DFF870C0ACF1040CDCF800C0CCF35C
:1013A000881C07FB0CF4174F3F1F3F68C7F301472A
:1013B0007F1C7D00B4FBF5F7076002E0124F076069
:1013C00000BF00BF0F4F3F6807F0F0010909104F41
:1013D0007A5C0768D74047600A4F3F6807F4E051DE
:1013E000890A0B4F7A5C4768D7408760054F3F6892
:1013F00007F46041490B064F7A5C4768D740C760E5
:10140000F0BD0000083802400024F40000127A0009
:10141000B800002010B501460022002300204A1128
:10142000012A02D10A4C236808E0022A03D1084CA1
:101430007034236802E0064C7434236801F01F0204
:10144000012494401C400CB1012000E0002010BD9C
:101450000038024001460020034A106820F0F000E6
:101460000843106070470000083802400021024A1B
:101470001170114608707047023802400146002082
:10148000034A106820F4E0500843106070470000E1
:101490000838024001460020034A106820F46040EA
:1014A00040EAC100106070470838024001490866F0
:1014B000704700000000474270B5049C41EA821565
:1014C0000126C6EB530645EA0645054345EA046591
:1014D000014E356070BD0000043802400146002016
:1014E000034A106820F003000843106070470000B2
:1014F0000838024038B5002000900024002500BFC5
:101500003120FFF787FF05460098401C00900098A7
:10151000B0F5A04F01D0002DF2D03120FFF77AFFB7
:1015200008B1012400E00024204638BD10B52DED9F
:10153000028BB0EE408A184880ED008A4F20174990
:10154000087050204870B5EEC08AF1EE10FA02DB48
:101550005220887002E04C20104988700E480068C4
:10156000000E0E49C8700C480068000C08710A484B
:101570000088000A4871084800788871084600F021
:10158000BCFD0649C8710A4608210548006800F0FC
:10159000A1FEBDEC028B10BD300000202400002015
:1015A0000400002010B52DED028BB0EE408A1848E3
:1015B00080ED008A4F201749087053204870B5EE1F
:1015C000C08AF1EE10FA02DB5220887002E04C2053
:1015D000104988700E480068000E0E49C8700C480B
:1015E0000068000C08710A480088000A4871084821
:1015F00000788871084600F080FD0649C8710A46E7
:1016000008210548006800F065FEBDEC028B10BDA6
:1016100030000020240000200400002010B52DED33
:10162000028BB0EE408A184880ED008A4F2017499F
:1016300008704C204870B5EEC08AF1EE10FA02DB5B
:101640005220887002E04C20104988700E480068D3
:10165000000E0E49C8700C480068000C08710A485A
:101660000088000A4871084800788871084600F030
:1016700044FD0649C8710A4608210548006800F083
:1016800029FEBDEC028B10BD30000020240000209C
:101690000C0000202DE9F84104460D4616461F4671
:1016A000DDF81C80E0780F287ED1E07E0028FBD199
:1016B000002D7AD02179607941EA0020C0F30A0038
:1016C00028806079C110A07941EA4010C0F30A0077
:1016D0006880A0798111E07941EA8001207A41EAAD
:1016E0008020C0F30A00A880207A4110607A41EA85
:1016F000C010C0F30A00E880607A0111A07A41EAC4
:101700000010C0F30A002881A07AC111E07A41EAF2
:101710004001207B41EA4020C0F30A006881207B21
:101720008110607B41EA8010C0F30A00A881607BD1
:101730004111A07B41EAC000E881E17B207C41EAC5
:101740000020C0F30A002882207CC110607C41EA9E
:101750004010C0F30A006882607C8111A07C41EADD
:101760008001E07C41EA8020C0F30A00A882E07C8E
:101770004110207D41EAC010C0F30A00E882207DBC
:101780000111607D41EA0010C0F30A002883607DEA
:10179000C111A07D41EA4001E07D41EA4020C0F353
:1017A0000A006883E07D01E074E058E08110207E4B
:1017B00041EA8010C0F30A00A883207E4111607EB8
:1017C00041EAC000E8835020009028886FF04F0362
:1017D00040F2FC624FF4FE7101F084FB00B23080F5
:1017E0005020009068886FF04F0340F2FC52FC21BB
:1017F00001F078FB00B2708032200090A8886FF072
:1018000031034FF4CC624FF4AE7101F06BFB00B2C8
:10181000B08040F628200090E8884FF47A7340F2B8
:10182000396240F2391101F05DFB00B2F080012015
:101830000090288900234FF4CC624FF4B07101F07E
:1018400051FB00B2308102200090A88900234FF4A0
:10185000CC624FF4B07101F045FB00B2B081B8F139
:10186000000F0AD0A07E00F0040018B1012088F813
:10187000000002E0002088F8000047B1A07E00F0E0
:10188000080010B10120387001E0002038700120FC
:10189000BDE8F8810020FBE7704738B5FFF714FD7D
:1018A0000120FFF7E3FDFFF725FE0446012C23D1BD
:1018B000072002234FF4A87208210090C804FFF704
:1018C000FBFD0120FFF7F2FD00BF3920FFF7A2FD6D
:1018D0000028FAD00520FFF7FBFB0020FFF7BAFD38
:1018E0004FF4A050FFF7CAFD4FF48050FFF7D2FD30
:1018F0000220FFF7F3FD01E000BFFEE700F002F871
:1019000038BD000070B5002000220223002402210F
:10191000274D2D6805F00C0020B1042806D00828BA
:1019200034D107E0234D244E356033E0234D224E61
:1019300035602FE01E4D2D1F2D68C5F380541C4DC2
:101940002D1F2D6805F03F0154B11C4DB5FBF1F57D
:10195000174E361F3668C6F3881605FB06F209E0F7
:10196000144DB5FBF1F5124E361F3668C6F38816D6
:1019700005FB06F20E4D2D1F2D68C5F301456D1CAC
:101980006B00B2FBF3F50C4E356003E0094D0A4ED7
:10199000356000BF00BF064D2D68C5F30315084E26
:1019A000705D054D2D68C540034E356070BD00006B
:1019B000083802400024F400C800002000127A0019
:1019C000FA2E00081448006840F4700012490860BC
:1019D0001248006840F001001049086000200F49DB
:1019E000083108600D4800680D4908400B4908603F
:1019F0000C48091D0860081F006820F48020091F9A
:101A00000860002005490C3108604FF00060024971
:101A1000803908607047000088ED00E0003802401F
:101A2000FFFFF6FE1030002410B50121880700F0FA
:101A30005BF9012809D10121800700F03AF94FF044
:101A4000804000F045F90149086010BD7400002095
:101A500008B501214F4800F047F900287CD04E48D6
:101A60004E4B4F4A4F4900904F48FFF713FE00F08E
:101A700031FF4B48008900286FD000F02BFF484809
:101A8000B0F904004949B1F9041088421ED0444815
:101A9000B0F904000A2805DC4148B0F9040010F14F
:101AA0000A0F0BDA3E48B0F9040000EE900AF8EE97
:101AB000E00AB0EE600AFFF7B1FD03E09FED3C0ADB
:101AC000FFF7ACFD36488088384988803448B0F943
:101AD00000003649B1F9001088421ED03048B0F9F4
:101AE00000000A2805DC2E48B0F9000010F10A0FAA
:101AF0000BDA2B48B0F9000000EE900AF8EEE00A8D
:101B0000B0EE600AFFF712FD03E09FED290AFFF730
:101B10000DFD23480088254908802148B0F90200BE
:101B20002249B1F90210884220D01D48B0F90200C4
:101B30000A2805DC1A48B0F9020010F10A0F0DDA84
:101B40001748B0F9020000EE900AF8EEE00AB0EE95
:101B5000600AFFF727FD05E01BE016E09FED140A81
:101B6000FFF720FD0E484088104948800C48B0F926
:101B7000060000EE100AB8EEC00ABCEEC00A10EE75
:101B8000100A81B2FE2000F0F5FF0121014800F0AB
:101B900090F808BD00040040990000209800002043
:101BA0000E030020EE020020220200202E0300205F
:101BB0000000000010B50121214800F095F801282F
:101BC0003CD101211E4800F074F81E4890ED000A37
:101BD000DFED1D0A20EE200AF1EE000A20EE200AB9
:101BE000DFED1A0A80EE201A9FED190A31EE000A85
:101BF000184880ED000A4FF0804000F069F816495F
:101C00000860164890ED002A1548D0ED001A1548D6
:101C100090ED001A084690ED000AF8EEC00A0D4853
:101C200090ED000A00F0F8F8BCEEC00A10EE100AC1
:101C30000D4908800846008800F0DAF910BD000060
:101C4000000800408800002000A039450000B4438F
:101C50000060EA465C000020740000209400002030
:101C6000900000208C0000205800002010B50121B9
:101C7000054800F039F828B100F00CFB01210248BA
:101C800000F017F810BD0000000C004010B5012155
:101C9000054800F029F830B1012000F04BFF012188
:101CA000014800F006F810BD00140040CA4302824B
:101CB0007047CA430282704721B1028842F0010294
:101CC000028004E002884FF6FE731A4002807047DB
:101CD0000146486A704702460020138A0B400BB148
:101CE000012000E00020704730B5024600200023AC
:101CF0000024158A05EA0103958905EA010413B158
:101D00000CB1012000E0002030BD4163704741620A
:101D10007047000000220288184B98420ED0184BE2
:101D200098420BD0B0F1804F08D0164B984205D0A6
:101D3000154B984202D0154B984204D14FF68F7341
:101D40001A404B881A43124B984207D0114B9842C5
:101D500004D04FF6FF431A400B891A4302804B68A8
:101D6000C3620B880385054B984202D0044B98420E
:101D700001D18B7A038601238382704700000140E2
:101D8000000401400004004000080040000C004036
:101D9000001000400014004010B54FF4806104486A
:101DA000FFF709FA4FF400710148FFF702FA10BD7E
:101DB0000000024010B54FF400710448FFF7FBF932
:101DC0004FF480610148FFF7F4F910BD00000240B4
:101DD0000E4890ED000ADFED0E0AB4EEE00AF1EED7
:101DE00010FA03DB9FED0A0A80ED000A074890ED28
:101DF000000ADFED080AB4EEE00AF1EE10FA03D8AB
:101E00009FED040A80ED000A704700006C0000207E
:101E10000000BE4200005C4210B52DED068BB0EE16
:101E2000408AF0EE608AB0EE419AF0EE619AB0EE30
:101E300042AA38EE680A644880ED000AF3EE040A0C
:101E40008AEE200ADFED610A80EE201A9FED600A1B
:101E500029EE800AD0ED000A5E48D0ED001A70EE3F
:101E6000A10A20EE200A5848D0ED000A09EE200A07
:101E7000D0ED000A5748D0ED001AB0EE002A42EE2D
:101E8000610A5548D0ED001A70EEA10A01EE200A51
:101E9000524880ED000A4F4890ED000A4E4880ED10
:101EA000000A494890ED000A4A4880ED000A9FED7B
:101EB0004C0AB4EEC08AF1EE10FA43DD424890EDD0
:101EC000000ADFED480AB4EEE00AF1EE10FA12DD86
:101ED000FFF770FF414890ED000ADFED430A30EE56
:101EE000200A80ED000AFFF773FF3C4890ED000ADE
:101EF000BDEC068B10BD344890ED000ADFED3B0AC7
:101F0000B4EEE00AF1EE10FA10D2FFF745FF3348C5
:101F100090ED000ADFED340A30EEC00A80ED000AD1
:101F2000FFF756FF2D4890ED000AE1E700F07CF83E
:101F300000F068F89FED2C0A284880ED000A90ED2B
:101F4000000AD5E7204890ED000ADFED280AB4EE3C
:101F5000E00AF1EE10FA10D2FFF71EFF1F4890EDD5
:101F6000000ADFED210A30EEC00A80ED000AFFF71B
:101F70002FFF1A4890ED000ABAE7134890ED000AC7
:101F8000DFED180AB4EEE00AF1EE10FA10DDFFF70B
:101F900011FF124890ED000ADFED130A30EE200A1F
:101FA00080ED000AFFF714FF0C4890ED000A9FE750
:101FB00000F03AF800F026F89FED0B0A074880ED94
:101FC000000A90ED000A93E76000002000007A44C8
:101FD0000000000064000020680000206C00002069
:101FE0000060EA4600008C4200005C4200008CC2A7
:101FF00010B5044621460248FFF787FE10BD0000D9
:102000000000014010B59FED060A064880ED000A69
:1020100047F230514FF08040FFF779FE10BD0000CD
:10202000000000008800002010B54FF40071044843
:10203000FFF7BFF84FF480610148FFF7BAF810BD11
:102040000000024010B50A460023002121E0445C54
:10205000242C1DD14C1C045D412C19D18C1C045D19
:10206000552C15D1CC1C045D562C11D10C1D045DD2
:10207000322C0DD14C1D045D302C09D18C1D045D1A
:10208000302C05D1CC1D045D302C01D1CBB202E047
:10209000491C2429DBDB00BF00210CE05C18242C48
:1020A00003DA5C18045D545404E0C3F124040C1BEF
:1020B000045D5454491C2429F0DB10BD0246002065
:1020C000002103E0535C0344D8B2491C2029F9DB0A
:1020D000C143C8B2411CC8B2704708B501788DF839
:1020E000001041788DF8011081788DF80210C178C8
:1020F0008DF803109DED000A08BD02460020002166
:1021000003E0535C0344D8B2491C0729F9DBC143FF
:10211000C8B2411CC8B2704700B58DB00121022081
:10212000FFF792F802208DF8300000208DF8320081
:102130004FF400700B9001208DF8330003208DF8D0
:1021400031000BA95048FEF7C9FF01210220FFF71B
:102150007BF802208DF8300000208DF832004FF41B
:1021600080700B9001208DF8330003208DF8310032
:102170000BA94548FEF7B2FF092211464248FEF777
:10218000F5FF092208214048FEF7F0FF012148062B
:10219000FFF76AF83D48FEF707FA00208DF82600A1
:1021A0008DF827008DF8280001208DF829000020E7
:1021B0008DF82A0001208DF82B0000208DF82200D8
:1021C0008DF823000B208DF8240007208DF82500C2
:1021D0000220ADF8200008A92C48FEF78EFA002056
:1021E0008DF81A0001208DF81B0000208DF81C00CE
:1021F0004FF41150ADF81000ADF81200ADF8140016
:10220000ADF816000020ADF8180001208DF81D0073
:1022100004A8FEF7E5F9012202211C48FEF764FA42
:1022200014208DF8000001208DF8030000208DF8A7
:1022300001008DF802006846FEF7C8FF0121022068
:10224000FFF712F80020ADF8060041F61F40ADF888
:1022500004006420029001A90D48FFF75BFD0121F5
:102260000B48FFF729FD1D208DF8000000208DF898
:10227000010001208DF802008DF803006846FEF78A
:10228000A5FF0DB000BD0000000402400064004046
:102290000004004010B541200C49087052204870DD
:1022A0004D2088703220C870522008714420487137
:1022B000592088710846FFF720FF0449C8710A4673
:1022C00008210348006800F005F810BD2400002034
:1022D000080000202DE9F04385B080460C46914669
:1022E000CDF80080002001908DF809008DF80800DD
:1022F000E0B28DF80A00002005E019F800200DF189
:102300000B010A54401CA042F7DB69460A48FEF75D
:10231000F6FA0546002705E029460748FEF782FB46
:1023200006467F1C012E03D04FF6FF708742F3D183
:1023300005B0BDE8F08300000064004010B52DED4D
:10234000048B244890ED000AF0EE000AB4EE600A17
:10235000F1EE10FA03D19FED200A80ED000A522021
:102360001E490870412048704D2088701948006847
:10237000000EC87017480068000C087115480088E6
:10238000000A48711348007888710846FFF7B5FEC7
:102390001249C8710A46082140F22110FFF79AFF3E
:1023A0000C4890ED000A10EE101A0846FDF7B1FF38
:1023B00041EC190B9FED0A0B53EC102BFDF702FFBC
:1023C00041EC180BFDF7B8FF02490860BDEC048B27
:1023D00010BD000044000020000000002400002088
:1023E000000000000000E03F9FED0E0A0E4880ED67
:1023F000000A9FED0E0A0E4880ED000A9FED090AC3
:102400000C4880ED000A9FED070A0B4880ED000A9A
:102410009FED040A094880ED000A00200849087071
:102420007047000000000000340000200000E1447C
:10243000380000203C000020400000204400002024
:102440002C00002010B515480078072802D1002084
:102450001249087000201249087048708870C870CE
:1024600008714871887101200C4A12788854084616
:10247000FFF743FE0A49C8710A46082140F22110BD
:10248000FFF728FF064A08214FF49170FFF722FF5B
:1024900002480078401C0149087010BD2C00002043
:1024A0002400002010B51C4890ED000ADFED1B0A47
:1024B000B4EE600AF1EE10FA03D19FED190A80ED37
:1024C000000A5020174908704D204870002088707D
:1024D00011480068000EC8700F480068000C0871B1
:1024E0000D480088000A48710B480078887108463A
:1024F000FFF703FE0B49C8710A46082140F221107C
:10250000FFF7E8FE044890ED000AF2EE040A30EE10
:10251000200A80ED000A10BD3C0000200000484267
:10252000000000002400002010B51C4890ED000AB7
:10253000DFED1B0AB4EE600AF1EE10FA03D19FED55
:10254000190A80ED000A50201749087048700020D1
:10255000887012480068000EC87010480068000CAF
:1025600008710E480088000A48710C48007888718C
:102570000846FFF7C2FD0C49C8710A46082140F21F
:102580002110FFF7A7FE054890ED000AF2EE040ABD
:1025900030EE200A80ED000A10BD0000400000204F
:1025A0000000B442000000002400002010B51C48C8
:1025B00090ED000ADFED1B0AB4EE600AF1EE10FAAE
:1025C00003D19FED190A80ED000A502017490870C9
:1025D000522048700020887011480068000EC870B2
:1025E0000F480068000C08710D480088000A487107
:1025F0000B48007888710846FFF77FFD0B49C871CA
:102600000A4608214FF49170FFF764FE044890EDEC
:10261000000ADFED070A30EE200A80ED000A10BD47
:1026200038000020008022450000E1442400002002
:102630000000C84210B51C4890ED000ADFED1B0AEF
:10264000B4EE600AF1EE10FA03D19FED190A80EDA5
:10265000000A522017490870502048705620887090
:1026600011480068000EC8700F480068000C08711F
:102670000D480088000A48710B48007888710846A8
:10268000FFF73BFD0B49C8710A46082140F22310B1
:10269000FFF720FE044890ED000AF2EE040A30EE47
:1026A000200A80ED000A10BD340000200000C8425E
:1026B000000000002400002010B501211020FEF7CA
:1026C000D3FD0020024908810248FFF723FB10BD1B
:1026D000140100200010004070B504461448006842
:1026E00080081449B0FBF1F00121C1EB4000124910
:1026F000088040F2E73048601048FFF70BFB0025E8
:1027000013E001210D48FFF7D1FA01210B48FFF733
:10271000D3FA00BF01210948FFF7DDFA0028F9D0FC
:1027200000210648FFF7C8FA6D1CA542E9D370BD29
:10273000C800002040420F0014010020001000409B
:1027400010B502460023002004E0145C242C00D1C4
:10275000C3B2401C2628F8DB00200CE01C18262CF5
:1027600003DA1C18145D0C5404E0C3F12604041BA6
:10277000145D0C54401C2628F0DB10BD10B57F20E2
:1027800000F04AFB10BD00001CB501210820FEF737
:102790005BFD01208DF8040000208DF806004FF449
:1027A0008050009000208DF8070003208DF8050070
:1027B00069463C48FEF792FC4FF480513948FEF7D9
:1027C000F8FC01210820FEF73FFD01208DF80400F0
:1027D00000208DF806004FF40050009000208DF886
:1027E000070003208DF8050069462E48FEF776FCA9
:1027F0004FF400512B48FEF7DCFC01210820FEF7C6
:1028000023FD01208DF8040000208DF806004FF410
:102810008040009000208DF8070003208DF805000F
:1028200069462048FEF75AFC4FF480411D48FEF7E8
:10283000C0FC01210820FEF707FD01208DF80400EF
:1028400000208DF806004FF40040009000208DF825
:10285000070003208DF8050069461248FEF73EFC8C
:102860004FF400410F48FEF7A4FC01210420FEF7BD
:10287000EBFC01208DF8040000208DF806004FF4D9
:102880000040009000208DF8070003208DF805001F
:1028900069460548FEF722FC4FF400410248FEF766
:1028A00088FC1CBD000C02400008024010B54FF42B
:1028B00000410248FEF77DFC10BD0000000C024004
:1028C00010B54FF400410248FEF775FC10BD000042
:1028D000000C024010B54FF400410248FEF76DFCB9
:1028E00010BD0000000C024008B5C1788DF8001042
:1028F00081788DF8011041788DF8021001788DF8FB
:1029000003109DED000A08BD70B505460E48057020
:1029100049200D494870012088700B1DCA1C0321F5
:10292000D01EFEF7CFF8002404E00749085D00F050
:1029300033F8641C052CF8DB00BF8021034800F04D
:10294000E2F90128F9D170BD1002002000480040D2
:1029500070B505460E48057049200D4948700420A1
:1029600088700B1DCA1C0321D01EFEF7ABF8002493
:1029700004E00749085D00F00FF8641C052CF8DB43
:1029800000BF8021034800F0BEF90128F9D170BDD5
:10299000100200200048004010B5044600BF80210E
:1029A000044800F0B0F90128F9D12146014800F0AF
:1029B00021FA10BD0048004010B50B46FF22C17A35
:1029C000FF290AD1017BFF2907D1417B012904D1CD
:1029D00001780A2901D10B2235E0017BFF290AD1B8
:1029E000417BFF2907D10178012904D141780A29C7
:1029F00001D10C2227E0417BFF290AD10178FF2970
:102A000007D14178012904D181780A2901D10D2209
:102A100019E0012114E00B2910DA445CFF2C0DD1E0
:102A20004C1C045DFF2C09D18C1C045D012C05D1CC
:102A3000CC1C045D0A2C01D10A4603E04C1CE1B217
:102A40000E29E8DB00BFFF2A11D000210DE0541849
:102A50000E2C03DA5418045D5C5404E0C2F10E0439
:102A60000C1B045D5C544C1CE1B20E29EFDB10BD65
:102A700010B502460B460021022003E0145C0C4412
:102A8000A1B2401C5C1E8442F8DCC8B2C04381B2D3
:102A9000C8B210BD08B5014608788DF80000487826
:102AA0008DF80100BDF8000008BD000070B50546B6
:102AB0000E4600240CE000BF8021074800F023F9F7
:102AC0000128F9D1295D044800F094F9601CC4B2D2
:102AD000B442F0DB70BD000000440040F0EE400A5C
:102AE0009FED101AB0EE410AB2EE081AF4EEC10AD8
:102AF000F1EE10FA04D29FED0C1AB0EE410A0FE08D
:102B00009FED0A1AF4EEC10AF1EE10FA04D2B0EE0B
:102B1000041AB0EE410A03E09FED051AB0EE410A37
:102B2000704700000000000033331340CDCC6C41EF
:102B3000666646401CB50446FF208DF800008DF8FF
:102B400001008DF8024004208DF8030002208DF86A
:102B5000040024208DF8050008208DF806000821C7
:102B60006846FFF785FF8DF8070008216846FFF7E4
:102B70009DFF1CBD3EB505460C46FF208DF80000AC
:102B80008DF801008DF8025005208DF80300032018
:102B90008DF804001E208DF80500E0B28DF80600C7
:102BA000200A8DF8070009216846FFF761FF8DF8BC
:102BB000080009216846FFF779FF3EBD00B595B0D2
:102BC00001210420FEF740FB01212020FEF76CFBD1
:102BD00001218805FEF738FB01210420FEF734FBB4
:102BE00002208DF8500000208DF8520080201390B4
:102BF00000208DF8530002208DF8510013A93248AF
:102C0000FEF76CFA02208DF8500000208DF852007B
:102C10004020139000208DF8530002208DF85100C1
:102C200013A92948FEF75AFA082206212648FEF77A
:102C30009DFA082207212448FEF798FA23480F90AE
:102C40000020ADF84000ADF84200ADF84400ADF80A
:102C500048000C20ADF846000FA91D4800F060F8B0
:102C600001211B4800F03AF801224021184800F0E9
:102C700041F84FF0206000901548001D0190154864
:102C800002900020039019200490002005904FF43A
:102C9000806006900020079008904FF480700990A3
:102CA00040020A9000200B9001200C9000200D9013
:102CB0000E9069460848FEF77BF901210648FEF7A9
:102CC00039F915B000BD000000080240A0860100DF
:102CD00000140140250200202864024021B18289AD
:102CE00042F40052828104E082894DF6FF731A405B
:102CF000828170471AB1838A0B43838202E0838A00
:102D00008B438382704702460020B1F5007F00D1DB
:102D100000BF13880B400BB1012000E0002070477A
:102D20002DE9FF4705460E460024A14600BFA046F8
:102D3000B08900B100BF2C8A24F44054F0880443C9
:102D40002C82AC8941F20C608443B08831890843FD
:102D5000718908430443AC81AC8A24F44074B0897F
:102D60000443AC826846FEF7E1FA2048854202D06F
:102D70001F48854202D1DDF80C9001E0DDF8089093
:102D8000A88900F4004040B109EBC90000EB09102C
:102D900031684900B0FBF1F707E009EBC90000EB2F
:102DA000091031688900B0FBF1F76420B7FBF0F03F
:102DB00004012009642101FB1078A88900F4004077
:102DC00040B1322000EBC800B0FBF1F000F007008A
:102DD000044308E0322000EB08106421B0FBF1F05E
:102DE00000F00F0004432C81BDE8FF870010014074
:102DF00000140140C1F308028280704700BFFEE763
:102E00000020014908607047082C004010B5FFF70A
:102E1000F7FFFFF7B3FC10BD00F07F01014A11601E
:102E200070470000002C004002E008C8121F08C1D3
:102E3000002AFAD170477047002001E001C1121F3B
:102E4000002AFBD170470000FEF727FD2348FEF75C
:102E50006DFAFFF731FCFFF797FC4FF4FA70FFF7BC
:102E60003BFCFFF759F94FF4FA70FFF735FCFFF719
:102E7000A5FE4FF4FA70FFF72FFCFFF721FD4FF48A
:102E80007A70FFF729FCFFF711FDFFF7ADFA23E099
:102E90001348007800B3FFF7CDFB3220FFF71CFC8E
:102EA000FFF784FB3220FFF717FCFFF7FBFA322015
:102EB000FFF712FCFFF738FB3220FFF70DFCFFF79E
:102EC0003DFA3220FFF708FCFFF7BCFA3220FFF78B
:102ED00003FC002002490870DAE70000CC00002063
:102EE0002D00002070B50446049D601AEE1A704350
:102EF000561A90FBF6F0184470BD00000000000068
:102F00000000010203040607080900000000010296
:102F100003040000342F000800000020CC00000053
:102F2000282E000800300008CC0000208412000089
:102F3000382E0008000000002101000022010000DE
:102F400023010000240100002501000026010000EB
:102F50000000000000000000000000000000000071
:102F60000000000000000000000000000000000061
:102F70000000000000000000000000000000000051
:102F80000000000000000000000000000000000041
:102F90000000000000000000000000000000000031
:102FA0000000000000000000000000000000000021
:102FB0000000000000000000000000000000000011
:102FC0000000000000000000000000000000000001
:102FD00000000000000000000000000000000000F1
:102FE00000000000000000000000000000000000E1
:102FF000010203040102030406070809007A030A18
:040000050800018965
:00000001FF
