:020000040800F2
:100000000F120020050100088B1700088317000855
:1000100087170008050B0008054E000800000000C7
:10002000000000000000000000000000451B000868
:10003000F71300080000000011180008311C000828
:100040001F0100081F0100081F0100081F01000810
:100050001F0100081F010008F913000829140008F7
:10006000591400081F0100081F010008BD100008F6
:100070001F0100081F0100081F0100081F010008E0
:100080001F0100081F0100081F0100081F010008D0
:10009000C14500081F0100081F0100081F010008DA
:1000A0001F0100081F0100081F0100081F010008B0
:1000B000851F00081F010008D51F00081F01000848
:1000C0001F0100081F0100081F0100081F01000890
:1000D0001F0100081F0100081F0100081F01000880
:1000E0001F0100081F0100081F010008DFF810D0E1
:1000F00000F0F4FB00480047294E0008AFF30080F1
:100100000F1200200648804706480047FEE7FEE73A
:10011000FEE7FEE7FEE7FEE7FEE7FEE7FEE7FEE7B7
:10012000E51C0008ED00000840EA01039B0703D02E
:1001300009E008C9121F08C0042AFAD203E011F826
:10014000013B00F8013B521EF9D27047F0B480EA3F
:100150000102D40F4200B2EB410F02D20246084620
:1001600011464A0042D0C30DDDB2C1F3C752AD1AE9
:10017000202D35DAC1F3160141F4000204B15242D8
:10018000C5F1200602FA06F12A411044B3EBD05F14
:1001900023D0C4B1012DA0EBC35009DCF0BC4FF05B
:1001A000004202EAC352DBB200F5000000F00ABBD5
:1001B000400000F1807000EBC350A0F1807040EA75
:1001C000D170490009E0490841EAC071A0EBC35071
:1001D00000F50000400800EBC350F0BC00F0E9BAA5
:1001E0006142012202EB4101001BF6E7F0BC7047BF
:1001F00081F00041AAE780F00040A7E780EA010211
:1002000010B502F00043400022D04A001FD0010E7A
:1002100001EB1261C0F35600C2F3560240F4000035
:1002200042F40002A0FB022000047F39140400D035
:10023000401C50EA124001D44000491EC2B20C06D4
:1002400004EBD010401C4008802A02D003E00020BC
:1002500010BD20F00100002900DA0020184310BD75
:1002600030B480EA010202F0004530F0004221F093
:10027000004013D090B1C30DD40DC2F31601C0F3EA
:100280001600E41A41F4000140F400027D3491426A
:1002900001D3641C00E04900002C02DA30BC0020CD
:1002A00070474FF400000023914201D3891A0343A1
:1002B00040084FEA4101F7D151B1914202D14FF0CC
:1002C000004105E002D24FF0010101E06FF00101B1
:1002D00003EBC450284430BC00F06BBA2DE9FE4F4C
:1002E000804681EA0300C00F0C46009021F00041D7
:1002F00023F00045B8EB0200A94105D24046214653
:1003000090461C460B46024623F00040104347D05F
:10031000270DC7F30A00C3F30A510290401A019057
:1003200040286BDAC3F3130040F4801B0098924618
:1003300020B10023D2EB030A63EB0B0B0198594663
:10034000C0F14002504600F003FA06460D46504602
:100350005946019A00F01BFA10EB08006141002495
:1003600087EA115284EAE7731A4340D0009A62B3D5
:10037000019A012A4FEA075215DC001B61EB0201CA
:100380004FF0004202EA0752CDE90042001C41F55D
:10039000801132462B4600F052FA03B0BDE8F08FD0
:1003A00040462146F9E7001B61EB0201001C41F5C4
:1003B000801300185B412018A2F5001747EB0301DA
:1003C00040EAD570B6196D4111E06D084FEA360666
:1003D00045EAC0754FEA0752001B61EB0201001CA1
:1003E00041F5801149084FEA300000195141324669
:1003F0002B4603B0BDE8F04F00F012BA009801227E
:1004000040000023D0EB020263EBE073009821462A
:100410004FEAE074B8EB000061EB0401E9E783F018
:1004200000435BE781F0004158E72DE9FE4F81EA88
:10043000030404F0004421F0004100944FF0000B4D
:1004400023F0004350EA01045ED052EA03045BD07B
:10045000C3F30A54C1F30A552C44A4F2F3340194B3
:10046000A0FB0254C1F3130141F48011C3F3130341
:1004700043F4801301FB024400FB034E840A970AF5
:1004800044EA815447EA8357A4FB076802958D0A22
:1004900005FB07854FEA932C04FB0C542705029DAE
:1004A0004FEA065847EA1637B5EB08056EEB070C1E
:1004B000870E920E47EA811742EA8312A7FB0201D8
:1004C000B6EB0B0164EB00042B0D43EA0C335E1812
:1004D00044EB1C50DA465146E7FB0201C5F3130416
:1004E0004FEA0B3343EA14534FEA0432019C43EAC8
:1004F0000603A4F10C040294009CCDE900B400F0C2
:100500009EF903B0BDE8F08F00200146F9E72DE920
:10051000F04D81EA030404F0004B21F0004514463D
:100520004FF0000A23F0004150EA050220D054EABF
:1005300001021DD0C5F30A570246C5F31303C1F3E8
:100540001300C1F30A5640F4801543F48013A7EB5F
:100550000608101BD64608F2FD3873EB050002D3DF
:1005600008F1010801E092185B41B8F1000F03DACD
:1005700000200146BDE8F08D00204FF480110646B2
:1005800084460EE0171B73EB050705D3121B63EBC4
:10059000050306434CEA010C49084FEA3000921863
:1005A0005B4150EA0107EDD152EA030012D082EA22
:1005B000040083EA0501084305D0101BAB4106D2B5
:1005C0000122002306E000224FF0004302E06FF01A
:1005D000010253101AEB06004CEB085110EB0A0015
:1005E00041EB0B01BDE8F04D00F01AB9C10F80EAF4
:1005F000E0700844CA079623002100F0E3B8962370
:100600000022114600F0DEB80EB540F233410291EF
:100610000021CDE900110A460B4600F010F903B0A5
:1006200000BD00F0004220F00040C10DC0F31600F4
:1006300040F400007F2901DA00207047962903DC8E
:10064000C1F19601C84001E096398840002AF4D0F3
:100650004042704720F00040C10DC0F3160040F446
:1006600000007F2901DA00207047962903DCC1F1E0
:100670009601C8407047963988407047C1F30A52C6
:1006800010B5C1F3130140F2FF3341F480119A42D7
:1006900001DA002010BD40F233439A42A2F2334205
:1006A00003DC524200F063F810BD904010BD00F032
:1006B000004230F000400AD0C10D01F56071C0F376
:1006C000160042EA0151C20840071143704700205A
:1006D0000146704730B5041E71F1000404DB4FF091
:1006E0000044404264EB0101141E73F1000405DB79
:1006F0001C464FF00043524263EB04038B4208BF99
:10070000824230BD01F0004330B421F0004150EA94
:10071000010206D00A0DA2F56072C1F31301002A8E
:1007200002DC30BC00207047440F44EAC104C10021
:10073000E01830BC00EBC25000F03BB8002801DBF1
:10074000C0F10040002901DBC1F100418142704746
:10075000202A04DB203A00FA02F100207047914081
:10076000C2F1200320FA03F3194390407047202A76
:1007700004DB203A21FA02F00021704721FA02F34B
:10078000D040C2F120029140084319467047202A08
:1007900006DBCB17203A41FA02F043EAE07306E0A9
:1007A00041FA02F3D040C2F12002914008431946B9
:1007B00070470029A8BF7047401C490008BF20F0BF
:1007C0000100704710B4B0FA80FC00FA0CF050EA57
:1007D000010404BF10BC704749B1CCF1200421FAD8
:1007E00004F411FA0CF118BF012121430843A3EBD3
:1007F0000C01CB1D4FEA00614FEA102042BF0020E0
:1008000010BC704700EBC35010440029A4BF10BCBB
:100810007047401C490008BF20F0010010BC704721
:1008200010B5141E73F1000408DA401C41F10001F8
:1008300092185B411A4301D120F0010010BD2DE94F
:10084000F04D92469B4611B1B1FA81F202E0B0FA46
:1008500080F220329046FFF77BFF04460F4640EAC5
:100860000A0041EA0B0153465A46084313D0114689
:1008700053EA010019D0C8F140025046FFF777FF54
:1008800005460E46504659464246FFF761FF08436B
:1008900005D0012004E020463946BDE8F08D002057
:1008A000054346EAE0762C4337430A986305E40A99
:1008B000A0EB08000022FD0A44EA47540A3002D5A2
:1008C00000200146E9E7010510196941DDE9084505
:1008D00000196941BDE8F04DA2E70000064C074D44
:1008E00006E0E06840F0010394E807009847103400
:1008F000AC42F6D3FFF7FEFB24500008445000083A
:1009000070B58C1810F8015B15F0070301D110F8D1
:10091000013B2A1106D110F8012B03E010F8016BFE
:1009200001F8016B5B1EF9D12B0705D40023521E81
:100930000DD401F8013BFAE710F8013BCB1A921CE9
:1009400003E013F8015B01F8015B521EF9D5A142E7
:10095000D8D3002070BD21B1826842F001028260CC
:1009600003E0826822F001028260704721B1826850
:1009700042F48072826003E0826822F480728260B6
:100980007047014600208A6802F004020AB1012083
:1009900000E000207047014600208A6802F008024B
:1009A0000AB1012000E000207047000030B5024687
:1009B0000020002350680F4C20400D790C6844EA59
:1009C00005242043506090680B4C2040D1E902542C
:1009D0002C434D7944EA450420439060D06A20F4CA
:1009E00070000C7C641EE4B2234340EA0350D062E2
:1009F00030BD0000FFFEF0FFFDF7F1FFF0B504464B
:100A00000D4600200021092D11DDE068A5F10A0640
:100A100006EB4607072606FA07F18843A5F10A0602
:100A200006EB460603FA06F10843E0600CE0206995
:100A300005EB4507072606FA07F1884305EB45064F
:100A400003FA06F108432061072A0FDA606B561E8D
:100A500006EB86071F2606FA07F18843561E06EBAB
:100A6000860605FA06F10843606322E00D2A0FDAD4
:100A7000206BD61F06EB86071F2606FA07F1884370
:100A8000D61F06EB860605FA06F10843206310E040
:100A9000E06AA2F10D0606EB86071F2606FA07F1AB
:100AA0008843A2F10D0606EB860605FA06F1084317
:100AB000E062F0BD816841F008018160704721B1BA
:100AC000826842F4A002826003E0826822F4A002FD
:100AD00082607047816841F00401816070470000C6
:100AE00030B10749096841F40001054A116005E089
:100AF0000349096821F40001014A116070470000B0
:100B00000824014000BFFEE710B504460B488442AC
:100B100009D10121480600F0A9FE00214FF0007024
:100B200000F0A4FE08E00121880600F09FFE0021ED
:100B30004FF0806000F09AFE10BD0000006400409D
:100B400010B50021837A012202FA03F13D4A1268AE
:100B500042F001023B4B1A603A4A1C3212688A4347
:100B6000384B1C331A60027BCAB9364A0C32126801
:100B70008A43344B0C331A604288C38842EA0343E9
:100B8000304A4032847A42F834300288838842EA1C
:100B900003432C4A4032847A02EBC4025360027B46
:100BA000012A19D1274A0C3212680A43254B0C330B
:100BB0001A604288038842EA0343224A4032847A18
:100BC00042F83430C288838842EA03431D4A4032E7
:100BD000847A02EBC4025360C27A3AB9194A121DF0
:100BE00012688A43174B1B1D1A6006E0154A121D36
:100BF00012680A43134B1B1D1A60028932B9114A4D
:100C0000143212688A430F4B14331A600289012A86
:100C100006D10C4A143212680A430A4B14331A6084
:100C2000427B012A06D1074A1C3212680A43054B4F
:100C30001C331A60034A126822F00102014B1A6049
:100C400010BD0000006600401AB143690B434361C8
:100C500002E043698B434361704730B50246002090
:100C60000023146824F002041460146844F00104A2
:100C7000146000E05B1C546804F001041CB94FF6DA
:100C8000FF74A342F6D1546804F001040CB90020AB
:100C90006CE08C79012C04D1146844F08004146059
:100CA00003E0146824F080041460CC79012C04D192
:100CB000146844F04004146003E0146824F0400415
:100CC00014600C7A012C04D1146844F020041460E0
:100CD00003E0146824F0200414604C7A012C04D141
:100CE000146844F01004146003E0146824F0100445
:100CF00014608C7A012C04D1146844F00804146048
:100D000003E0146824F008041460CC7A012C04D1A8
:100D1000146844F00404146003E0146824F004042C
:100D200014608C78A407CD7844EA05640D7944EA10
:100D300005444D7944EA05540D886D1E2C43D46159
:100D4000146824F001041460002300E05B1C546864
:100D500004F001041CB14FF6FF74A342F6D15468AD
:100D600004F001040CB1002000E0012030BD10B5FA
:100D700000F5D87303EB01131B6803F0040313722F
:100D8000137A53B900F5D87303EB01131B6840F2D3
:100D9000FF7404EA5353136009E000F5D87303EBC2
:100DA00001131B686FF0604404EAD303536000F53D
:100DB000D87303EB01131B6803F00203537200F5B1
:100DC000D87303EB01135B6803F00F03937200F514
:100DD000D87303EB01135B681B0AD37400F5D87357
:100DE00003EB01139B68D37200F5D87303EB011377
:100DF0009B681C0A147300F5D87303EB01139B68FE
:100E00001C0C547300F5D87303EB01139B681B0E85
:100E1000937300F5D87303EB0113DB68D37300F50C
:100E2000D87303EB0113DB681C0A147400F5D87344
:100E300003EB0113DB681C0C547400F5D87303EB4F
:100E40000113DB681B0E937421B9C36843F02003C0
:100E5000C36003E0036943F02003036110BD002178
:100E60008171C171017241728172C1728170C170F0
:100E7000032101710221417101210180704710B5E8
:100E800002460020936803F08063B3F1806F00D1C5
:100E900010E0936803F00063B3F1006F01D101200B
:100EA00008E0936803F08053B3F1805F01D1022022
:100EB00000E00420042874D002F5C07303EB001393
:100EC0001B6803F0010402F5C07303EB00131C6000
:100ED0000B7A7BB94B7A0C8843EA445302F5C07411
:100EE00004EB00142468234302F5C07404EB0014DF
:100EF000236010E00B7A4C6843EAC4034C7A234326
:100F000002F5C07404EB00142468234302F5C07496
:100F100004EB001423608B7A03F00F038B7202F54D
:100F2000C07303EB00135B6823F00F0402F5C0737A
:100F300003EB00135C6002F5C07303EB00135B6806
:100F40008C7A234302F5C07404EB001463608B7B3E
:100F50001C064B7B44EA03440B7B44EA0323CC7A14
:100F6000234302F5C07404EB0014A3608B7C1C06C1
:100F70004B7C44EA03440B7C44EA0323CC7B2343AD
:100F800002F5C07404EB0014E36002F5C07303EBD8
:100F900000131B6843F0010402F5C07303EB001358
:100FA0001C6010BD10B50246002321B1012907D0F5
:100FB00002290FD109E090681D4C00EA04030BE000
:100FC00090681C4C00EA040306E090681A4C00EAA2
:100FD000040301E0002300BF00BF184C181BA3420C
:100FE00016D007DC83B16FF08060184470B102281E
:100FF00018D111E0B0F5007F10D0114C204448B159
:10100000B0F5003F0ED10BE002230DE000230BE012
:10101000002309E0002307E0012305E0012303E0AA
:10102000012301E0002300BF00BFD8B210BD0000C3
:101030000300000400030008000003100001000882
:101040000001FFF710B5044600F040FC4FF480307B
:1010500000F0FEFC00F05AFD1749087008460078C1
:10106000012826D1102000F073FA022000F07EFA49
:10107000002000F0E1FC002000F01CFD4FF4806037
:1010800000F00CFD21464FF4803000F025FD0120DA
:1010900000F01CFD00BF392000F0A8FC0028FAD0A9
:1010A000022000F027FD00BF00F0BEFC0828FBD1A5
:1010B00001E000BFFEE710BD000000202DE9F04F69
:1010C0008BB0022000F05AF9002875D0002001F002
:1010D0002FFC0446FFF798FACDE90401032001F044
:1010E00027FC0190FFF790FA064632460B46002097
:1010F0003349FFF70CFA04460022324BFFF707FA98
:10110000CDE90201DDE90423FFF78FF92E4A2F4BC9
:10111000CDE90601FFF786F980462D4A2D4BFFF7F2
:10112000F6F900222C4BCDE90801FFF7D7F88246EB
:10113000FFF7E8FA29490860012001F0F9FB83462E
:10114000FFF75DFA8246FFF7B2FA80460022244B91
:10115000FFF76BF9064600221A4BFFF7D8F9044651
:10116000FFF7D0FA1F490860022001F0E1FB834637
:10117000FFF745FA8246FFF79AFA06464FF06632C5
:10118000194BFFF752F904460022184BFFF7BFF93D
:1011900080460022164BFFF748F9CDE90801FFF71A
:1011A000B1FA0A9013480A9902F008FD1249086042
:1011B000012000F023F800BF0BB0BDE8F08F000065
:1011C0000032B34000FEAF40E17A14AE47E1F63F93
:1011D00022FDF675E09C713F0000394018010020A7
:1011E00000A074401C01002066660A400000B04068
:1011F00000005940240100202001002000F080510F
:1012000011B10349086001E00249486070470000DD
:10121000040402400000024021B1026842F00102D1
:10122000026004E002684FF6FE731A4002607047E5
:1012300001684FF6FE7211400160002101604160BB
:101240008160C1604B49884208D14A4908394968E0
:1012500041F00F01474A083A51608AE0454914318C
:10126000884208D143490839496841F0F001414AB0
:10127000083A51607DE03F492831884208D13D4914
:101280000839496841F470613A4A083A516070E09F
:1012900038493C31884208D136490839496841F417
:1012A0007041344A083A516063E032495031884213
:1012B00008D130490839496841F470212D4A083A6B
:1012C000516056E02B496431884208D129490839D8
:1012D000496841F47001274A083A516049E02549BC
:1012E0007831884208D123490839496841F0706152
:1012F000204A083A51603CE01F49884206D1011F4C
:10130000096841F00F01021F116032E01A491431DF
:10131000884208D11849091F096841F0F001164AAE
:10132000121F116025E014492831884208D1124962
:10133000091F096841F470610F4A121F116018E01B
:101340000D493C31884208D10B49091F096841F415
:101350007041094A121F11600BE007495031884261
:1013600007D10549091F096841F47021024A121F7B
:101370001160704708000240080402400146002046
:10138000002201F0805313B1054B1A6801E0054BB0
:101390001A6802EA01030BB1012000E00020704747
:1013A00000040240000002401AB103680B430360CE
:1013B00002E003688B430360704710B500220268A7
:1013C00047F6F0739A430C6A8B6823430C692343F6
:1013D0004C6923438C692343CC6923434C6A2343E0
:1013E0008C6A23431A430260CB6843600B688360B6
:1013F0004B68C36010BD704710B5012000F04AF87B
:1014000088B1032002F0A0F918B1002002F0F6FC28
:1014100006E0042002F098F910B1012002F0EEFC81
:10142000012000F031F810BD10B5022000F032F8B4
:1014300088B1032002F088F918B1002002F0DEFC28
:1014400006E0042002F080F910B1012002F0D6FC81
:10145000022000F019F810BD10B5042000F01AF8B1
:1014600088B1032002F070F918B1002002F0C6FC28
:1014700006E0042002F068F910B1012002F0BEFC81
:10148000042000F001F810BD014908607047000019
:1014900014040140014600200022074B1B6803EAA8
:1014A0000102054B14331B680B4013B10AB1012034
:1014B00000E00020704700000004014000212349A3
:1014C0008279002A3AD00A46126803689A430B468A
:1014D0001A600A1D126803689A430B1D1A6002798C
:1014E00011440A6803681A430A60184A08321268ED
:1014F00003689A43154B08331A601A1D1268036873
:101500009A43124B0C331A604279102A0ED11A1FDB
:10151000126803681A430D4B08331A601A1D1268CB
:1015200003681A43094B0C331A600DE007494279EE
:1015300011440A6803681A430A6005E002791144FD
:101540000A6803689A430A6070470000000401407B
:101550000549096821F01001034A11601146096824
:101560000143116070470000002002400146002046
:10157000034A106800F0380008431060704700000C
:101580000020024030B500228B071C0F0F2303FA06
:1015900004F20B4B8C1053F824309343084C8D10FD
:1015A00044F8253023468C1053F824308C07240F40
:1015B00000FA04F42343024C8D1044F8253030BD6A
:1015C000080001402DE9F0410246002500260020D8
:1015D00000230024002791F803C00CF00F0591F8B8
:1015E00003C00CF0100CBCF1000F03D091F802C046
:1015F0004CEA050591F800C0BCF1000F31D0146829
:1016000000202BE04FF0010C0CFA00F3B1F800C001
:101610000CEA03069E4220D183004FF00F0C0CFA17
:1016200003F7BC4305FA03FC4CEA040491F803C039
:10163000BCF1280F06D14FF0010C0CFA00FCC2F8E7
:1016400014C00AE091F803C0BCF1480F05D14FF077
:10165000010C0CFA00FCC2F810C0401C0828D1D3C1
:101660001460B1F800C0BCF1FF0F34DD54680020F5
:101670002EE000F1080C4FF0010808FA0CF3B1F865
:1016800000C00CEA03069E4221D183004FF00F0CEC
:101690000CFA03F7BC4305FA03FC4CEA040491F886
:1016A00003C0BCF1280F05D100F1080C08FA0CF8B2
:1016B000C2F8148091F803C0BCF1480F07D100F1C3
:1016C000080C4FF0010808FA0CF8C2F81080401C12
:1016D0000828CED35460BDE8F0810000F0B50A467A
:1016E000002300240021002500F00046B6F1004F41
:1016F00002D11D4EF16901E01B4E7168C0F3034534
:1017000083B200F44016B6F5401F08D121F0706195
:10171000154E766826F07066134F7E6012E000F476
:101720008016B6F5801F06D1032606FA05F4A143FC
:1017300041F0706106E0460D360103FA06F6B1434A
:1017400041F0706122B1460D360103FA06F63143CD
:1017500000F00046B6F1004F02D1034EF16101E006
:10176000014E7160F0BD0000000001400146886834
:1017700080B27047416170470AB1016100E0416188
:10178000704700BFFEE700BFFEE7704770B500215D
:1017900000230F22C47804B3154C246804F4E064D9
:1017A000C4F5E064210AC1F10403CA40447804FA94
:1017B00003F184781440214309010E4C0678A155A9
:1017C000047804F01F050124AC4005786D11AD00CC
:1017D00005F1E025C5F8004109E0047804F01F0593
:1017E0000124AC40044D0678761145F8264070BDC2
:1017F0000CED00E000E400E080E100E0024901437C
:10180000024A1160704700000000FA050CED00E08C
:101810007047000001460020034A506820F4404011
:1018200008435060704700000010024029B1064A8A
:1018300052690243044B5A6104E0034A52698243ED
:10184000014B5A61704700000010024029B1064A5E
:10185000D2690243044BDA6104E0034AD26982434D
:10186000014BDA61704700000010024029B1064ABE
:1018700012690243044B1A6104E0034A126982436D
:10188000014B1A61704700000010024029B1064A5E
:1018900092690243044B9A6104E0034A92698243CD
:1018A000014B9A61704700000010024029B1064ABE
:1018B000D2680243044BDA6004E0034AD2688243F0
:1018C000014BDA6070470000001002400F480068CA
:1018D00040F001000D490860084640680C49084086
:1018E0000A494860084600680A49084007490860F4
:1018F0000846006820F4802008600846406820F40C
:10190000FE0048604FF41F008860704700100240DE
:101910000000FFF8FFFFF6FE30B500210022002492
:1019200000232D4D6D6805F00C0121B1042905D06F
:10193000082923D105E0294D056022E0274D0560E7
:101940001FE0254D6D6805F47012234D6D6805F498
:101950008034022505EB92421CB9214D55430560A8
:101960000BE01D4D6D6805F400351DB11C4D554350
:10197000056002E0194D5543056002E0174D056012
:1019800000BF00BF144D6D6805F0F0010909154D49
:101990006B5C0568DD4045600F4D6D6805F4E061E6
:1019A000090A104D6B5C4568DD4085600A4D6D6825
:1019B00005F46051C90A0B4D6B5C4568DD40C5609C
:1019C000054D6D6805F44041890B074D6B5CC5689A
:1019D000B5FBF3F5056130BD0010024000127A003E
:1019E00000093D00680100207801002010B5014683
:1019F0000022002300204A11012A02D1094C236849
:101A000006E0022A02D1074C236A01E0054C636A12
:101A100001F01F02012494401C400CB1012000E0A1
:101A2000002010BD001002400248406800F00C0089
:101A3000704700000010024001460020034A506831
:101A400020F0F00008435060704700000010024092
:101A50001149096821F480310F4A11601146096863
:101A600021F480211160B0F5803F03D0B0F5802FC4
:101A70000ED106E00849096841F48031064A116038
:101A800007E00549096841F4A021034A116000E01C
:101A900000BF00BF70470000001002400146002058
:101AA000034A506820F4E06008435060704700002B
:101AB0000010024001460020034A506820F46050A4
:101AC00040EAC100506070470010024001490866BA
:101AD000704700000000424202460020044B586854
:101AE00020F47C1042EA01031843014B5860704710
:101AF0000010024001460020034A506820F0030015
:101B000008435060704700000010024038B50020C4
:101B100000900024002500BF3120FFF767FF054635
:101B20000098401C00900098B0F5A06F01D0002DE7
:101B3000F2D03120FFF75AFF08B1012400E0002461
:101B4000204638BD704710B500F002F810BD000007
:101B50000CB50020019000903348006840F48030BC
:101B60003149086000BF3048006800F40030009040
:101B70000198401C0190009818B90198B0F5A06F29
:101B8000F1D12948006800F4003010B10120009024
:101B900001E0002000900098012843D1234800680C
:101BA00040F01000214908600846006820F003005A
:101BB00008600846006840F0020008601A48406863
:101BC000194948600846406848600846406840F443
:101BD000806048600846406820F47C1048600846F1
:101BE000406840F4E81048600846006840F08070A3
:101BF000086000BF0C48006800F000700028F9D0B1
:101C00000948406820F003000749486008464068DA
:101C100040F00200486000BF0348406800F00C003C
:101C20000828F9D10CBD000000100240002002403D
:101C300002480068401E0149086070470400002007
:101C400010B5002100200022214B5B6803F00C013D
:101C500021B1042906D0082928D107E01D4B1E4CCC
:101C6000236027E01B4B1C4C236023E0184B5B6870
:101C700003F47010164B5B6803F48032022303EB0D
:101C8000904022B9154B4343134C23600DE0104B99
:101C90005B6803F4003323B1104B43430E4C2360C5
:101CA00003E00C4B43430C4C236003E0094B0A4C0C
:101CB000236000BF00BF064B5B68C3F30313084CEF
:101CC000E15C054B1B68CB40034C236010BD00005A
:101CD0000010024000127A007C01002000093D0043
:101CE0008001002010B51348006840F00100114940
:101CF000086008464068104908400E494860084698
:101D000000680E4908400B4908600846006820F446
:101D1000802008600846406820F4FE0048604FF4C8
:101D20001F008860FFF70FFF4FF000600449086054
:101D300010BD0000001002400000FFF8FFFFF6FE9B
:101D400008ED00E0F0B50C46154600220021068C97
:101D50004FF6FE773E400684028B018C4FF60C76E0
:101D600032407E1C06EA03162E433243104EB04228
:101D70000ED0104EB0420BD0B0F1804F08D00E4EB6
:101D8000B04205D00D4EB04202D00D4EB04206D149
:101D90004FF6FD76314044F00106314305E04FF641
:101DA000F576314044F00106314302830184F0BDF1
:101DB000002C0140003401400004004000080040B5
:101DC000000C0040F0B50C4615460022002100260C
:101DD000078C4FF6EF7C07EA0C070784028B018C17
:101DE0004FF6FF7707EA041640F6FF473A404FF6F2
:101DF000FF7707EA03373A434FF6FF7707EA0527ED
:101E00003A43114FB8420ED0104FB8420BD0B0F148
:101E1000804F08D00E4FB84205D00E4FB84202D0C6
:101E20000D4FB84206D14FF6DF77394046F0100724
:101E3000394305E04FF65F77394044F010073943E6
:101E400002830184F0BD0000002C014000340140F9
:101E50000004004000080040000C0040F0B50C46B3
:101E60001546002200210026078C4FF6FF6C07EA7A
:101E70000C070784828B018C4FF6FF7707EA042654
:101E80004FF60C773A404FF6FF7707EA03172F43D8
:101E90003A43114FB8420ED0104FB8420BD0B0F1B8
:101EA000804F08D00E4FB84205D00E4FB84202D036
:101EB0000D4FB84206D14FF6FF57394046F48077B0
:101EC000394305E04FF2FF57394044F480773943F6
:101ED00082830184F0BD0000002C014000340140E9
:101EE0000004004000080040000C0040F0B50C4623
:101EF0001546002200210026078C4EF6FF7C07EADB
:101F00000C070784828B018C4FF6FF7707EA0436B3
:101F100040F6FF473A404FF6FF7707EA05273A4376
:101F20004FF6FF7707EA03373A43114FB8420ED016
:101F3000104FB8420BD0B0F1804F08D00E4FB842CE
:101F400005D00E4FB84202D00D4FB84206D14DF623
:101F5000FF77394046F48057394305E047F6FF578D
:101F6000394044F48057394382830184F0BD000036
:101F7000002C0140003401400004004000080040F3
:101F8000000C004010B50121880700F0E1F901289C
:101F90001CD10121800700F098F8032001F0D4FB48
:101FA00028B10B480088401C094908800CE0042037
:101FB00001F0CAFB40B106480088002804DD04484F
:101FC0000088401E0249088001F0EAFB10BD0000B5
:101FD0003401002010B50121204800F0B9F9002893
:101FE0003BD04FF4004002F037F801201C49087044
:101FF000052001F0A9FB08B901F02EFD012001F038
:10200000A3FB18B9022001F09FFB10B3154800781C
:10201000401C14490870084600780A2819D1052088
:1020200001F092FB78B9032001F08EFB18B100207B
:1020300000F0FAFC0AE0042001F086FB30B1012038
:1020400000F0F2FC02E0002000F0EEFC0020054968
:1020500008700121014800F038F810BD0008004068
:102060007C000020790000200A884B881A438B8866
:102070001A43CB881A430B891A434B891A438B891D
:102080001A43A0F84420704730B5002301248C4047
:10209000A3B2048C9C430484048C02FA01F5ADB213
:1020A0002C43048430BD30B5002304248C40A3B2FB
:1020B000048C9C430484048C02FA01F5ADB22C43D9
:1020C000048430BDCA4302827047CA43028270470B
:1020D00021B1028842F00102028004E002884FF63A
:1020E000FE731A400280704731B1B0F8442042F4C8
:1020F0000042A0F8442005E0B0F84420C2F30E02EC
:10210000A0F844207047000010B504466848844297
:1021100008D10121C014FFF7C9FB0021E014FFF72B
:10212000C5FBC4E0B4F1804F08D101210846FFF798
:102130009DFB00210120FFF799FBB8E05D48844238
:1021400008D101210220FFF791FB00210220FFF7B7
:102150008DFBACE05848844208D101210420FFF7F0
:1021600085FB00210420FFF781FBA0E05348844257
:1021700008D101210820FFF779FB00210820FFF793
:1021800075FB94E04E48844208D101211020FFF7EE
:102190006DFB00211020FFF769FB88E0494884426D
:1021A00008D101212020FFF761FB00212020FFF74B
:1021B0005DFB7CE04448844208D101214014FFF7D4
:1021C00075FB00216014FFF771FB70E03F4884420B
:1021D00009D10121C804FFF769FB00214FF4002059
:1021E000FFF764FB63E03A48844209D10121080506
:1021F000FFF75CFB00214FF48010FFF757FB56E020
:102200003448844209D101214805FFF74FFB0021E2
:102210004FF40010FFF74AFB49E02F48844208D1F1
:1022200001214020FFF722FB00214020FFF71EFB89
:102230003DE02A48844208D101218020FFF716FBA7
:1022400000218020FFF712FB31E02548844208D1AD
:1022500001218015FFF70AFB0021A015FFF706FBFF
:1022600025E02048844209D101210804FFF71EFB24
:1022700000214FF48030FFF719FB18E01A48844220
:1022800009D101214804FFF711FB00214FF4003070
:10229000FFF70CFB0BE01548844208D101218804AC
:1022A000FFF704FB00214FF48020FFF7FFFA10BD79
:1022B000002C01400004004000080040000C0040D9
:1022C000001000400014004000340140004C014068
:1022D000005001400054014000180040001C004024
:1022E00000200040004001400044014000480140FF
:1022F000F0B50C4615461E46002100220023018938
:10230000028B038C4FF6F877394021434FF6FC4798
:102310003A4040F201173A434FF6DD773B404FF623
:10232000FF7707EA06172F433B43018102830384AB
:10233000F0BD0146888E70470146888C7047024682
:102340000020138A0B400BB1012000E000207047F1
:1023500030B50246002000230024158A05EA010357
:10236000958905EA010413B10CB1012000E00020B9
:1023700030BD000070B505460C46244885420ED09D
:10238000234885420BD0B5F1804F08D021488542C3
:1023900005D02148854202D02048854200D100E086
:1023A00000BF208850B92389A28861882846FFF79A
:1023B000C9FCE188284600F083F925E0208804283C
:1023C0000AD12389A28861882846FFF7FBFCE188AF
:1023D000284600F07EF917E0208808280AD12389D2
:1023E000A28861882846FFF739FDE188284600F079
:1023F0007DF909E02389A28861882846FFF776FDE8
:10240000E188284600F07BF970BD0000002C0140F7
:10241000003401400004004000080040000C00406F
:10242000002101804180012181800021C180018142
:1024300070471AB183890B43838102E083898B4300
:102440008381704770B5002400220023058C4FF66D
:10245000FE7635400584028C8388048B4FF68F7599
:102460002C40B51E2C400D882C43751E2A400D892A
:102470002A434D882A43144DA8420BD0134DA8423D
:1024800008D0134DA84205D0124DA84202D0124DDB
:10249000A84213D14FF6F7752A404D892A434FF6CB
:1024A000FB752A408D882A434FF6FF652B404FF677
:1024B000FF552B408D892B43CD892B43838004838B
:1024C000CD888586028470BD002C01400034014017
:1024D0000040014000440140004801400A460021FC
:1024E000018B4FF6F77319401143018370470000C9
:1024F00070B5002400220023058C4FF6EF7635409E
:102500000584028C8388048B48F6FF752C404FF6B7
:10251000FF452C400D884FF6FF7606EA05252C4333
:102520004FF6DF752A400D8906EA05152A434D88C6
:1025300006EA05152A43154DA84202D0144DA842BB
:102540001DD14FF67F752A404D894FF6FF7606EA7A
:1025500005152A434FF6BF752A408D8806EA0515F2
:102560002A434FF6FF352B404FF2FF752B408D89E4
:1025700006EA85052B43CD8906EA85052B43838032
:102580000483CD880587028470BD0000002C0140C3
:10259000003401400A460021018B4FF2FF731940BD
:1025A0004FF6FF7303EA02231943018370470000CB
:1025B00070B5002400220023058C4FF6FF663540DD
:1025C0000584028C8388848B4FF68F752C404FF6E0
:1025D000FC752C400D882C434FF6FF552A400D8981
:1025E0004FF6FF7606EA05252A434D8806EA0525BB
:1025F0002A43154DA84202D0144DA8421DD14FF2D6
:10260000FF752A404D894FF6FF7606EA05252A43D5
:102610004FF6FF352A408D8806EA05252A434EF6F7
:10262000FF752B404DF6FF752B408D8906EA051589
:102630002B43CD8906EA05152B4383808483CD88FF
:102640008587028470BD0000002C014000340140E9
:102650000A460021818B4FF6F7731940114381839D
:10266000704770B503460020002418461830012535
:102670008D40ACB21D8CA5431D8409B1082909D138
:1026800000EB6100056825F07005056005681543DD
:1026900005600EE00D1FC5F34E052844056825F4BE
:1026A000E045056005684FF6FF7606EA02263543E9
:1026B000056070BD818670470187704781877047CC
:1026C000028B4FF6F3731A400283028B0A43028394
:1026D0007047028B4FF2FF331A400283028B4FF692
:1026E000FF7303EA01231A4302837047828B4FF67C
:1026F000F3731A408283828B0A4382837047828BF2
:102700004FF2FF331A408283828B4FF6FF7303EA46
:1027100001231A4382837047002202881D4B98428E
:102720000ED01D4B98420BD0B0F1804F08D01B4B00
:10273000984205D01A4B984202D01A4B984204D1C5
:102740004FF68F731A404B881A43174B984207D0A5
:10275000164B984204D04FF6FF431A40CB881A43D9
:1027600002808B8883850B8803850A4B98420BD0A7
:10277000094B984208D00E4B984205D00D4B984219
:1027800002D00D4B984201D10B7A0386012383823C
:1027900070470000002C014000340140000400405C
:1027A00000080040000C00400010004000140040F1
:1027B00000400140004401400048014000B591B094
:1027C0004FF48040FFF726F801210846FFF72EF866
:1027D00001214802FFF75AF800200C9001208DF8E3
:1027E00034008DF835004FF460200E9000200F90DB
:1027F00004208DF840000CA93C48FEF7D7F80423CC
:10280000012210213948FEF7F9F804231A46112154
:102810003648FEF7F3F80423022205213348FEF779
:10282000EDF80423032219463048FEF7E7F8304854
:10283000FEF7FEFC2D484C3001902E4802900020FF
:102840000390142004900020059080200690400002
:102850000790800008902020099000020A90002034
:102860000B9001A92248FEF7A8FD01220221204871
:10287000FEF79AFD0B208DF8000001208DF8030073
:1028800000208DF8010002208DF802006846FEF756
:102890007DFF0120FEF724F901211448FEF75BF8C3
:1028A00001211348FEF7B8FC01211048FEF75EF83D
:1028B0000E48FEF7FFF800BF0C48FEF76CF8002842
:1028C000FAD10A48FEF706F900BF0848FEF759F8A2
:1028D0000028FAD101210548FEF7F1F8064807491A
:1028E00008600748486011B000BD000000240140A6
:1028F00008000240DC0100203FE3C23D240100202B
:10290000F9A0673F08B501210420FEF7BFFF0020B2
:102910008DF803003020ADF8000003208DF8020090
:1029200069460248FEF74EFE08BD0000000801405F
:1029300001460E4830F811200346081D33F81000F8
:10294000024401F1080033F81000024401F10C00C8
:1029500033F81000024401F1100033F81000104465
:10296000052290FBF2F080B270470000DC010020ED
:102970000246002022B1012A1BD0022A4BD131E0AD
:10298000012902D1254B187812E0022904D1234BEA
:102990001B88C3F307200BE0032904D11F4B1B68DE
:1029A000C3F3074004E0042902D11C4B1B68180E36
:1029B00031E0012902D11A4B187812E0022904D122
:1029C000174B1B88C3F307200BE0032904D1144BDA
:1029D0001B68C3F3074004E0042902D1104B1B68B5
:1029E000180E18E0012902D10E4B187812E00229C6
:1029F00004D10C4B1B88C3F307200BE0032904D13F
:102A0000084B1B68C3F3074004E0042902D1054BBF
:102A10001B68180E00BF00BF70470000180100209F
:102A20001C010020200100202DE9F0410446002077
:102A300000F08AFE60BB012000F086FE50B1052048
:102A400000F082FE10B100F0FFFB11E0204600F024
:102A50002FFB0DE0022000F077FE48B1052000F0CA
:102A600073FE18B9204600F017F801E000F076F97F
:102A700001F030FC0746FDF71AFE05460022054B23
:102A8000FDF728FE04D201F0EDFC002001F0D8FC97
:102A9000BDE8F081000014402DE9F14FA6B03C22C2
:102AA000A74904A8FDF740FB0020039001F06AF855
:102AB0000290A44801680298FDF79DFBA2490860B6
:102AC000A2480168A0480068FDF792FB0290FDF75C
:102AD000A8FD25909C4800689C4908609C499A483C
:102AE0000068FDF78BFB01909A4801680198FDF79B
:102AF000B7FB0290FDF795FD24906421259848438B
:102B00000A2190FBF1F00090FDF770FD01909148D3
:102B100041680198FDF7A4FB0290FDF782FD239028
:102B20002498642802DD6420249006E0249810F1A3
:102B3000640F02DA6FF0630024902398642802DDAA
:102B40006420239006E0239810F1640F02DA6FF0FE
:102B5000630023906FF027006FF063031A4659005B
:102B60000090249801F050F8804600206FF0270371
:102B70001A466FF063010090249801F045F88146F1
:102B8000282000231A4641420090249801F03CF886
:102B90008246642028231A4600210090249801F0E0
:102BA00033F88346C82064231A46282100902498CD
:102BB00001F02AF8229000206FF063031A465900B2
:102BC0000090239801F020F80546642000231A465F
:102BD00041420090239801F017F80646C82064236C
:102BE0001A4600210090239801F00EF80446A845EB
:102BF00001DA404600E028461390B04501DA40462D
:102C000000E030461490A04501DA404600E020463E
:102C10001590A94501DA484600E028461690B145CE
:102C200001DA484600E030461790A14501DA4846EF
:102C300000E020461890AA4501DA504600E02846F8
:102C40001990B24501DA504600E030461A90A2458C
:102C500001DA504600E020461B90AB4501DA5846A9
:102C600000E028461C90B34501DA584600E03046A3
:102C70001D90A34501DA584600E020461E90229898
:102C8000A84201DA229800E028461F902298B0421C
:102C900001DA229800E0304620902298A04201DA22
:102CA000229800E02046219000270AE004A850F86E
:102CB000271013A850F82720039801FB0200039067
:102CC0007F1C0F2FF2DB039901EB81014800FDF718
:102CD0008DFC01901F4881680198FDF78FFA0290E2
:102CE000FDF79FFC1C49096808441B490860084619
:102CF0000068002808DC0020086001F0B3FB1648DB
:102D0000006801F09DFB17E013480068512803DAC2
:102D100051201149086008E00F48006840F63C71F6
:102D2000884202DD08460C490860269801F066F8E2
:102D30000948006801F084FB27B0BDE8F08F00006F
:102D4000AC4F0008D0000020D4000020D8000020A4
:102D50000000C842C4010020080100202DE9F04F06
:102D6000A7B03C22A74905A8FDF7DEF90020049092
:102D700000F008FF0390A44801680398FDF73BFAB0
:102D8000A2490860A2480068A2490968401A269032
:102D90009F4800689F4908609D490968642201FBBB
:102DA00002F0FDF723FC02909B4801680298FDF7B2
:102DB00057FA0390FDF735FC259064212698484387
:102DC0000A2190FBF1F00190FDF710FC029092486F
:102DD00041680298FDF744FA0390FDF722FC249025
:102DE0002598642802DD6420259006E0259810F1DE
:102DF000640F02DA6FF0630025902498642802DDE6
:102E00006420249006E0249810F1640F02DA6FF039
:102E1000630024906FF027006FF063031A46590097
:102E20000090259800F0F0FE804600206FF0270308
:102E30001A466FF063010090259800F0E5FE814688
:102E4000282000231A4641420090259800F0DCFE1D
:102E50008246642028231A4600210090259800F01D
:102E6000D3FE8346C82064231A4628210090259863
:102E700000F0CAFE239000206FF063031A46590049
:102E80000090249800F0C0FE0546642000231A46F6
:102E900041420090249800F0B7FE0646C820642303
:102EA0001A4600210090249800F0AEFE0446A84582
:102EB00001DA404600E028461490B04501DA404669
:102EC00000E030461590A04501DA404600E020467B
:102ED0001690A94501DA484600E028461790B1450A
:102EE00001DA484600E030461890A14501DA48462C
:102EF00000E020461990AA4501DA504600E0284635
:102F00001A90B24501DA504600E030461B90A245C7
:102F100001DA504600E020461C90AB4501DA5846E5
:102F200000E028461D90B34501DA584600E03046DF
:102F30001E90A34501DA584600E020461F902398D2
:102F4000A84201DA239800E0284620902398B04256
:102F500001DA239800E0304621902398A04201DA5C
:102F6000239800E02046229000270AE005A850F8A8
:102F7000271014A850F82720049801FB02000490A1
:102F80007F1C0F2FF2DB049901EB81014800FDF754
:102F90002DFB0290204881680298FDF72FF90390DD
:102FA000FDF73FFB1D49096808441C4908600846B5
:102FB000006851280ADD032000F028FC002000F002
:102FC0001DFF1648006801F03BFA17E0134800683F
:102FD00010F1510F0BDA042000F018FC012000F072
:102FE0000DFF0E480068404201F02AFA06E000207A
:102FF0000A49086001F024FA01F034FA27B0BDE86C
:10300000F08F0000E84F0008D0000020D40000201E
:10301000EC000020F0000020C40100200801002086
:1030200001460F4A12680F4B1A600020012902D195
:103030001A46107812E0022904D10A4A1288C2F313
:1030400007200BE0032904D1064A1268C2F30740A7
:1030500004E0042902D1034A1268100E70470000F0
:10306000E4000020C400002001460F4A12680F4B04
:103070001A600020012902D11A46107812E00229B4
:1030800004D10A4A1288C2F307200BE0032904D1B5
:10309000064A1268C2F3074004E0042902D1034A39
:1030A0001268100E70470000D0000020C4000020FD
:1030B0002DE9F047044658480068FDF7CBFA06466C
:1030C00000F0A4F90546FDF79AFA5449086008464D
:1030D000016851480068FDF78BF805465049FDF737
:1030E0002DFB03D24C4800684C49086000F04AFDB3
:1030F00005464A4801682846FDF77DF849490860B9
:103100004948016847480068FDF772F80546474896
:1031100001682846FDF772F8454908604248016891
:1031200040480068FDF712F80746404841683846B5
:10313000FDF764F806463A49FDF760F805463D4953
:10314000FDF78EF83A494860374801684FF08040F3
:10315000FDF754F88146334801684846FDF74BF8BF
:103160008046354801684046FCF7F0FF07462F4887
:1031700081683846FDF742F806463049FDF73EF8CB
:1031800005462749FDF76CF8294988602C480068F6
:10319000FDF72CFA8246264801685046FCF7D6FF18
:1031A0000746234841683846FCF7D0FF8046204850
:1031B00081684046FCF7CAFF064622480068FDF7D2
:1031C00015FA81463146FCF7C1FF0546FDF729FA9D
:1031D0001C490860144800681749086011480068D5
:1031E000114908601748006840F63C71884202DDCA
:1031F00008461449086013480068512802DA512033
:1032000010490860204600F0F9FD0E48006801F002
:1032100017F9BDE8F0870000D0000020E000002092
:1032200000002041D4000020D8000020B801002078
:10323000D00100200000FA44DC00002000007A44A5
:103240000C010020080100202DE9F04162480068CF
:1032500000F09EFC0646304600F0D8F85F49086052
:1032600000F064FC5D490968081A5D490860084679
:103270000068B0F57A7F04DC0846006810F57A7FB4
:103280007EDA57490968574A1268881AFDF7AEF97D
:103290000446554801682046FCF7B0FF53490860D2
:1032A0004F4909684F4A12688818FDF79FF905468B
:1032B0004D4948684E49FCF7A1FF07464D49FCF7C8
:1032C000CFFF04462946FCF799FF48494860444926
:1032D0000968444A1268022303FB1211464A126825
:1032E0008818FDF783F905463F4988684349FCF78C
:1032F00085FF07463E49FCF7B3FF04462946FCF725
:103300007DFF3A4988600A4651681068FCF71EFF45
:103310008046364881684046FCF718FF0546384825
:103320000068FDF763F907462946FCF70FFF0446DE
:10333000FDF777F93249086008460068314988424C
:1033400002DA08462E4908602D48006840F63C71B4
:10335000884202DD08462A4908602248006826495A
:1033600008601F4800681F49086025480068512808
:103370000CDD032000F04AFA002000F03FFD00E0E1
:103380001DE01F48006801F05BF81FE01C48006862
:1033900010F1510F0BDA042000F038FA012000F090
:1033A0002DFD17480068404201F04AF80EE0002069
:1033B0001349086001F044F801F054F806E00020D9
:1033C0000F49086001F03CF801F04CF80348006830
:1033D0000D490860BDE8F081E4000020E80000200D
:1033E000EC000020F0000020B8010020D0010020F7
:1033F000000020410000FA44F400002000007A445C
:1034000008010020C4F0FFFF100100202DE9F04169
:1034100004461C481C4908601C4848601C4804605D
:103420001C480068FDF7EBF88046174801684046E5
:10343000FCF7E4FE064618480068FDF7E0F8804611
:10344000114841684046FCF7D9FE07463146FCF773
:103450007DFE0546FDF7FEF8104908600C4800683F
:103460000C4908600D4800680B4908600B4800686B
:10347000201A642801D20948046008480068BDE8A1
:10348000F08100003FE3C23DC8000020F9A0673F83
:10349000F8000020FC0000200401002000010020B2
:1034A000024B186059609A6070470000C401002008
:1034B000024B186059609A6070470000B801002004
:1034C0002DE9F04704460D4616461F46DDF82080DC
:1034D0002848006865F30700264908600846006828
:1034E00066F30F2008600846006867F3174008601D
:1034F0000846006868F31F600860082C36D2DFE8D1
:1035000004F004090E13181D222C1A4800681A49E9
:1035100008602BE0174800681749486026E0154806
:1035200000681549886021E0124800681349086066
:103530001CE0104800681149486017E00D48006819
:103540000E49886012E00B490868FDF76AF8814669
:10355000FDF74CF80A49086008E006490868FDF7DD
:1035600060F88146FDF742F80649086000BFBDE8F3
:10357000F0870000C4000020B8010020C401002032
:10358000D0000020E4000020F0B589B001214806F9
:10359000FEF75CF94E48FDF7B7FA06A8FDF75FFCA9
:1035A00000208DF81E008DF81F008DF820008DF88A
:1035B00021008DF8220001208DF8230000208DF8D5
:1035C0001A008DF81B0002208DF81C0001208DF8D8
:1035D0001D000620ADF8180006A93D48FDF73DFB8B
:1035E00001208DF812008DF8130000208DF81400D2
:1035F000384800684FF6FF7101EA4010ADF8080046
:103600003448006801EA4010ADF80A00314800680B
:1036100001EA4010ADF80C002E48006801EA4010A5
:10362000ADF80E0001208DF8150002A8FDF788FA0C
:103630000020024603460146C1F10707042F01D9C5
:10364000042701E0C1F107073E460F1D072F01D2F5
:10365000002700E0CF1E3D460127B7407F1E1740E0
:10366000AF404FF0010C0CFA05FCACF1010C0CEA78
:10367000030C47EA0C07BCB214202146002807DAE5
:103680000A07150E144A00F00F031B1FD55403E060
:103690000A07130E114A135400BF4FF4C060FEF71F
:1036A000ADF814208DF8040000208DF805000520E9
:1036B0008DF8060001208DF8070001A8FEF766F8D6
:1036C000012202210248FDF7BFFA09B0F0BD000057
:1036D000006400409400002018ED00E000E400E0E9
:1036E00002460020002103E0535C0344D8B2491C89
:1036F0000729F9DBC143C8B2411CC8B270470000BA
:1037000008B501210520FEF7C1F848208DF8030017
:103710004FF40060ADF8000003208DF80200694608
:103720000848FDF74FFF18208DF803004FF4805034
:10373000ADF8000003208DF8020069460148FDF74E
:1037400041FF08BD000801400146002011B90E4AA2
:10375000507817E0012902D10B4A907812E0022933
:1037600002D1094A10790DE0032902D1064A5079A5
:1037700008E0042902D1044A907903E0052901D127
:10378000014AD07870470000B2000020012801D122
:10379000012100E00021014A11707047C1000020A2
:1037A00010B500F045F9154908605020144908701B
:1037B0004D20487041208870042000F099F910498C
:1037C000C870032000F094F90D490871022000F040
:1037D0008FF90B494871012000F08AF90849887176
:1037E0000846FFF77DFF0649C8710B4608220548C9
:1037F0000168054800F020F810BD00002C010020F1
:10380000A80000208400002000640040032802D0AB
:1038100004280CD105E00121064A51710021917163
:1038200006E00121034A91710021517100E000BFBF
:1038300000BF7047B20000202DE9F04786B08246F5
:10384000884614469946CDF80480002002908DF8F1
:103850000D008DF80C00E0B28DF80E00002005E0A0
:1038600019F800200DF10F010A54401CA042F7DBAB
:1038700001A95046FDF703FB0546002705E0294650
:103880005046FDF78FFB06467F1C012E03D04FF6F6
:10389000FF708742F3D106B0BDE8F08710B5094844
:1038A000FEF732FC01210220FDF7D0FF4FF6FF703A
:1038B0000549888000200880C88048800148FEF7BC
:1038C0002BFF10BD000400400402002070B5044628
:1038D00047201049088040F2E73088800E48FEF704
:1038E0001BFF002513E001210B48FEF7EBFB012134
:1038F0000948FEF7EDFB00BF01210748FEF71FFD59
:103900000028F9D000210448FEF7E2FB6D1CA54217
:10391000E9D370BD040200200004004070B50446E5
:10392000232010490880012088800F48FEF7F4FE0C
:10393000002513E001210C48FEF7C4FB01210A48D1
:10394000FEF7C6FB00BF01210748FEF7F8FC002880
:10395000F9D000210448FEF7BBFB6D1CA542E9D35A
:1039600070BD0000040200200004004000B589B0D2
:1039700001210520FDF78AFF0320ADF82000042077
:103980008DF8230003208DF8220008A92748FDF7B1
:1039900019FE01210846FDF759FF0020ADF81A0075
:1039A000ADF81600ADF814004AF2F770ADF8180043
:1039B00000208DF81C0005A94FF08040FEF7ACFEFA
:1039C00002A8FEF72DFD0420ADF808000620ADF892
:1039D00010000120ADF80C0000231A4603218007D7
:1039E000FEF786FC02A94FF08040FEF7C3FC0020E2
:1039F0004FF0804188841C208DF8040001208DF850
:103A0000050000208DF8060001208DF8070001A8B0
:103A1000FDF7BCFE012211469007FEF70AFD0121C9
:103A20008807FEF755FB09B000BD00000008014003
:103A300070B500F07BF80546FCF7E1FD044604494B
:103A4000FCF70EFC034908600846006870BD0000E2
:103A500000F827472C0100202DE9F04F87B000F037
:103A600065F81FFA80FB1C480088ABEB00001FFACA
:103A700080FA1948C0F800B0BAF1000F03DACAF1B1
:103A800000001FFA80FA5046FCF7B9FD1349019077
:103A9000FCF7E6FB4FF081410290FCF7E1FB03905D
:103AA000FCF705FE00220E4BCDE90401FCF7BDFC3E
:103AB000804600220B4BFCF7B8FC064600220A4B5E
:103AC000FCF725FD0446FCF71DFE08490860084682
:103AD000006807B0BDE8F08F4001002000007A4484
:103AE00000408F4000004E40000024403001002084
:103AF00001460020012902D10B4A107812E0022968
:103B000004D1094A1288C2F307200BE0032904D12B
:103B1000054A1268C2F3074004E0042902D1024AB0
:103B20001268100E704700002C0100202DE9F041B2
:103B30000E480F4908600F4848600F480088FCF79E
:103B40005EFD80460D49FCF759FB07460C49FCF722
:103B500055FB0646FCF77EFD04464FF08040FEF71D
:103B6000EBFB05466019BDE8F08100004ED1213F16
:103B700038010020645DBC3E3401002000002C426E
:103B800000007A44014800687047000030010020BE
:103B90002DE9F0470446084DAE083046FCF72FFDEE
:103BA00081462146FCF72AFB8046FCF753FD074679
:103BB0003846BDE8F0870000E09F02002DE9F041A3
:103BC00004460D460D4920680968FCF717FB0646B8
:103BD0000B4960680968FCF711FB07463146FCF7A2
:103BE000B5FA0849086005480560084600680449B8
:103BF000086004480068BDE8F0810000480100202A
:103C00004C01002050010020F0B50446059D8C4277
:103C100001DA002016E0944206DA661A64277E4331
:103C2000571A96FBF7F00DE09C4201DA642009E098
:103C3000AC4206DA2E1B64277E43EF1A96FBF7F0A0
:103C400000E00020F0BD00001FB501210820FDF7B5
:103C50001DFE48208DF80F000720ADF80C00032052
:103C60008DF80E0003A93948FDF7ACFC0121084688
:103C7000FDF70CFE00210120FDF784FC01200190DE
:103C800000208DF8080010208DF8090001208DF823
:103C90000A0001A8FDF712FC06208DF800000020A4
:103CA0008DF8010002208DF8020001208DF803003C
:103CB0006846FDF76BFD01210846FDF763FC022015
:103CC000019000208DF8080010208DF809000120D7
:103CD0008DF80A0001A8FDF7F1FB07208DF8000020
:103CE00000208DF8010003208DF8020001208DF8DE
:103CF00003006846FDF74AFD02210120FDF742FC62
:103D00000420019000208DF8080010208DF8090093
:103D100001208DF80A0001A8FDF7D0FB08208DF8DE
:103D2000000000208DF8010004208DF80200012021
:103D30008DF803006846FDF729FD0448FDF716FDE0
:103D400000F00700024908801FBD0000000C014080
:103D50005A00002010B5054905480068FCF780FAB4
:103D6000044908600846006810BD000000002C42AD
:103D7000740000208000002001460020012902D1AB
:103D80000B4A107812E0022904D1094A1288C2F3C2
:103D900007200BE0032904D1054A1268C2F307404B
:103DA00004E0042902D1024A1268100E7047000094
:103DB0008000002001480078704700005400002077
:103DC00001488078704700005400002001480079C5
:103DD0007047000054000020014840787047000000
:103DE000540000200148C0787047000054000020B3
:103DF00001484079704700005400002010B5044687
:103E00004848FDF7B3FC00F0070047490880084622
:103E100000884649098888427ED043480088434943
:103E20000880DCBB4048008800EB4000404911F8A6
:103E30001000404908703C48008800EB40003C49B5
:103E400001EB400040783B4948703748008800EB60
:103E50004000374901EB400080783649887032488D
:103E6000008800EB4000324901EB4000C078314946
:103E7000C8702D48008800EB40002D4901EB400040
:103E800000792C4908712848008800EB4000284937
:103E900001EB40004079274948713FE0FFE7012CE2
:103EA0003CD12148008800EB4000234911F8100064
:103EB000204908701C48008800EB40001E4901EBB7
:103EC000400040781B4948701748008800EB4000CC
:103ED000194901EB40008078164988701248008823
:103EE00000EB4000144901EB4000C0781149C87054
:103EF0000D48008800EB40000F4901EB40000079BD
:103F00000C4908710848008800EB40000A4901EBA1
:103F100040004079074900E002E0487100F0D4F821
:103F200010BD0000000C01405A0000205C00002081
:103F30004C4F0008540000207C4F00080020094925
:103F40000870094908600949086009490860094979
:103F50000860094908604FF6FF7008490880084961
:103F60000880704779000020740000207000002055
:103F70006C00002060000020800000205A0000201B
:103F80005C0000201FB51A48FEF7BEF8012104208E
:103F9000FDF75CFC40F2DF10ADF8040040F2DB50AE
:103FA000ADF808000020ADF80A00ADF8060001A940
:103FB0000F48FEF7B1FB00210D48FEF789F80121FB
:103FC0000B48FEF782F8012211460948FEF731FA44
:103FD0001E208DF8000000208DF8010001208DF8D2
:103FE00002008DF803006846FDF7D0FB1FBD0000FE
:103FF0000008004008B501210D20FDF747FC012114
:104000001248FDF76BFB10208DF803001820ADF867
:10401000000002208DF8020069460D48FDF7D2FA33
:104020004FF40040ADF8000069460A48FDF7CAFAAF
:104030004FF400410748FDF79DFB08210448FDF7B8
:1040400099FB10210248FDF795FB08BD00023000E6
:10405000000C01400008014010B50446B4F5004FC3
:104060000BD11448027821461348FDF785FB11480F
:10407000007880F001000F490870082C0BD10F4820
:10408000027821460E48FDF777FB0C48007880F057
:1040900001000A490870102C0BD10A480278214609
:1040A0000748FDF769FB0748007880F001000549E3
:1040B000087010BD460100200008014045010020A5
:1040C000000C01404401002010B5FFF773FE78B1E9
:1040D000602200213E48FEF7C4FA012200213C483C
:1040E000FDF7D2FF042200213948FDF7DCFF17E07D
:1040F000002211463648FDF7C7FFFFF76DFE50B1AD
:10410000502200213248FEF7ACFA04220021304848
:10411000FDF7C9FF04E0002211462D48FDF7C3FF5B
:10412000FFF74EFE78B1602204212948FEF799FA84
:10413000012204212648FDF7A7FF04221146244846
:10414000FDF7B1FF17E0002204212148FDF79CFF95
:10415000FFF748FE50B1502204211D48FEF781FAB6
:10416000042211461A48FDF79EFF04E000220421B4
:104170001748FDF798FFFFF729FE78B16022082164
:104180001348FEF76EFA012208211148FDF77CFF63
:10419000042208210E48FDF786FF17E000220821BF
:1041A0000B48FDF771FFFFF723FE50B150220821A5
:1041B0000748FEF756FA042208210548FDF773FF69
:1041C00004E0002208210248FDF76DFF10BD000049
:1041D000002C014008B501210420FDF757FB1820F1
:1041E0008DF803004FF4E060ADF8000003208DF877
:1041F000020069461148FDF7E5F901210820FDF7A5
:1042000045FB18208DF803004FF46040ADF8000026
:1042100003208DF8020069460948FDF7D3F9042010
:104220008DF803008002ADF8000003208DF8020035
:1042300069460348FDF7C6F908BD000000080140C3
:10424000000C01402DE9FC5F82461E48FEF771F824
:104250000090FCF7D4F98346FCF729FA06460022C1
:10426000194BFCF7E2F804460022184BFCF74FF913
:104270008046FCF747FA1649086000200190BAF121
:10428000010F03D108460078019018E0BAF1020F3F
:1042900005D10F480088C0F3072001900FE0BAF164
:1042A000030F05D10A480068C0F30740019006E0FB
:1042B000BAF1040F03D106480068000E019001987E
:1042C000BDE8FC9F002C0140000059400078AE4042
:1042D000500000202DE9F05F0D48FEF72AF88346D4
:1042E000FCF78DF98246FCF7E2F906460022094BFD
:1042F000FCF79BF804460022074BFCF708F98046C0
:10430000FCF700FA0549086008460068BDE8F09F20
:10431000002C0140000059400078AE4050000020C1
:1043200010B5002211461F48FDF7AEFE50220021B5
:104330001C48FEF796F9042200211A48FDF7B3FE47
:10434000002204211748FDF79FFE50220421154842
:10435000FEF787F9042211461248FDF7A4FE002259
:1043600008211048FDF790FE502208210D48FEF765
:1043700078F9042208210B48FDF795FE6420FFF729
:10438000CDFA002211460748FDF78DFE00220421D8
:104390000448FDF788FE002208210248FDF783FE4D
:1043A00010BD0000002C01402DE9FC5F05460E46C3
:1043B00091469A461F48006865F307001D4908604A
:1043C0000846006866F30F2008600846006869F335
:1043D00017400860084600686AF31F6008600868B4
:1043E0001549FBF70BFF8346FCF761F90022134BDD
:1043F000CDE90001FCF78BF80746FCF73FF984B2E2
:10440000512C07DB40F63C70844203DC204600F070
:1044100017F80DE040F63C70844202DD00F010F821
:1044200006E0512C04DA002000F00AF800F01AF837
:10443000BDE8FC9F4C00002000C0734500005940BF
:1044400010B50446A1B20648FEF734F9A1B20448FB
:10445000FEF732F9A1B20248FEF730F910BD0000B4
:10446000002C014010B5FFF75BFF002211461148F8
:10447000FDF70AFE002211460E48FDF714FE002249
:1044800004210C48FDF700FE002204210948FDF735
:104490000AFE002208210748FDF7F6FD0022082148
:1044A0000448FDF700FE4FF4FA70FFF70FFAFFF72C
:1044B00045FD10BD002C014000B58BB0012140F638
:1044C0000100FDF7E3F93A48006844F25061B0FB9F
:1044D000F1F0401E37490880002037490860ADF8E8
:1044E0002000ADF8220033480088ADF824000020F9
:1044F000ADF826008DF8280008A93048FEF70CF921
:104500000020ADF810000120ADF812000420ADF835
:10451000140029490868FCF79DF880B2ADF8160030
:104520000020ADF81800ADF81A00ADF81C00ADF889
:104530001E0004A92148FDF785FF04A91F48FDF7C7
:10454000D7FF04A91D48FEF733F808211B48FDF7E3
:10455000C5FF08211948FEF71DF808211748FEF786
:1045600077F84FF40060ADF800004010ADF802009D
:104570000020ADF804009620ADF806000020ADF84C
:1045800008004FF40050ADF80A004000ADF80C00F0
:1045900069460A48FDF768FD01210848FDF798FDC6
:1045A00001210648FDF7A0FDFFF7BAFE0BB000BDE4
:1045B0007C010020480000204C000020002C01401D
:1045C00038B50024FE4A0021FE48FCF7D0FBFC4829
:1045D0000B30FFF785F8FC490870F9480068FB4983
:1045E000096888427ED1F648007A0028FAD1F4485A
:1045F000807A0828F6D1F2480B30FFF771F8F049BD
:10460000897C8842EED100BF06E0ED480B30005DAA
:10461000EF490855601CC4B2082CF6DBE848C07AA4
:1046200043280FD1E648007B41280BD1E448407B6A
:104630004E2807D1E248807B4F2803D10120E5496D
:10464000087012E0DE48C07A43280ED1DC48007BB7
:1046500041280AD1DA48407B4E2806D1D848807BD1
:10466000432802D10020DB490870DA48007800288E
:1046700077D0D348C07A4F2828D1D148007B4C2826
:1046800024D1CF48407B522820D10120D149487104
:104690000020887108468078C0B908460079A8B91A
:1046A000012048700020087188700121CA48FDF778
:1046B0000FFD0020FFF7A2FBC14DAB7BEA7B297CFD
:1046C000687CFFF771FE0020C2494870BC48C07A80
:1046D0004F282AD1BA48007B4C2826D1B848407BC5
:1046E0004C2800E08BE320D10020BA49487101201A
:1046F000887108468078C0B908460079A8B90120B9
:1047000048700020087188700121B348FDF7E0FC73
:104710000120FFF773FBAA4DAB7BEA7B297C687C09
:10472000FFF742FE0020AB494870A548C07A4328F5
:104730004AD1A348007B502846D1A148407B52284B
:1047400005D10120A34948710020887117E09C48D9
:10475000407B4C2806D100209E4948710120887179
:104760000DE0C1E19648407B502808D19948407837
:1047700028B99848007910B901209649C870954821
:10478000407808BB93480079F0B9012091498870BE
:1047900001219148FDF79CFC8E48C07850B98848AB
:1047A000807B00908648C37B027C417C0620FEF71C
:1047B00087FE09E08248807B00908148C37B027CB1
:1047C000417C0720FEF77CFE7D48C07A432875D1E6
:1047D0007B48007B462871D17948407B52281BD109
:1047E00001207C494871002088710846407890BBC0
:1047F0000846807878BB0120087101217648FDF7D2
:1048000067FC6F48807B00906D48C37B027C417CD5
:104810000620FEF755FE2CE06948407B4C281BD152
:1048200000206C494871012088710846407890B991
:104830000846807878B90120087101216648FDF7A3
:1048400047FC5F48807B00905D48C37B027C417CD5
:104850000620FEF735FE0CE05948407B502808D171
:104860005C48407828B95B48807810B901205949E4
:10487000C87058484078B0B95648807898B9012037
:104880005449087101215448FDF722FC5148C07871
:1048900050B94B48807B00904948C37B027C417CE7
:1048A0000620FEF70DFE09E04548807B0090444855
:1048B000C37B027C417C0720FEF702FE4048C07AA1
:1048C000472811D13E48007B4B280DD13C48407B06
:1048D000502809D13A48807B00903948C37B027C3C
:1048E000417C0020FEF7ECFD3548C07A472811D105
:1048F0003348007B4B280DD13148407B492809D1F2
:104900002F48807B00902E48C37B027C417C012095
:10491000FEF7D6FD2A48C07A472811D12848007BE7
:104920004B280DD12648407B442809D12448807B60
:1049300000902348C37B027C417C0220FEF7C0FD2F
:104940001F48C07A472811D11D48007B47280DD148
:104950001B48407B452809D11948807B00901848A6
:10496000C37B027C417C0320FEF7AAFD1448C07A79
:10497000472811D11248007B44280DD11048407BB4
:10498000452809D10E48807B00900D48C37B027CEE
:10499000417C0420FEF794FD0948C07A472820D1C5
:1049A0000748007B44281CD10548407B552818D176
:1049B0000348807B00900248C37B027C417C0DE071
:1049C000A401002000640040B000002094000020FA
:1049D000A0000020B2000020000800400520FEF7E3
:1049E0006FFDFE48C07A52287ED1FC48007B4528E6
:1049F000FAD1FA48407B5128F6D1F848407C0A2881
:104A0000F2D1F648807B41280CD1F448C07B4C2879
:104A100008D1F248007C4C2804D1F1480078401CB1
:104A2000EF490870EF48807810B9EE480079E8B394
:104A3000EC48C078D0BBE948807B522830D1E748A9
:104A4000C07B50282CD1E548007C562828D1FFF7A0
:104A500081F95220E449087050204870562088702F
:104A60000120FFF789F9E049C8700220FFF784F9B7
:104A7000DD4908710320FFF77FF9DB494871042005
:104A8000FFF77AF9D84988710846FEF729FED6491A
:104A9000C8710B460822D5480168D548FEF7CCFE00
:104AA000CE48807B522832D1CC4800E030E0C07B39
:104AB00053282CD1C948007C502828D15220CA49FB
:104AC000087053204870502088700120FEF7CCFAFF
:104AD000C549C8700220FEF7C7FAC3490871032010
:104AE000FEF7C2FAC04900E05DE148710420FEF71C
:104AF000BBFABD4988710846FEF7F2FDBA49C87194
:104B00000B460822B9480168B948FEF795FE72E0E5
:104B1000B448807810B9B3480079E8B3B148C07898
:104B2000D0B3AE48807B522830D1AC48C07B5028EF
:104B30002CD1AA48007C562828D1FEF779FF5220B4
:104B4000A949087050204870562088700120FEF74F
:104B5000CFFFA549C8700220FEF7CAFFA24908711D
:104B60000320FEF7C5FFA04948710420FEF7C0FFEF
:104B70009D4988710846FEF7B3FD9B49C8710B46F5
:104B800008229A4801689A48FEF756FE9348807BAF
:104B9000522830D1914800E02DE0C07B53282AD123
:104BA0008E48007C502826D152208F49087053200F
:104BB0004870502088700120FEF732FA8A49C87088
:104BC0000220FEF72DFA884908710320FEF728FA23
:104BD000854948710420FEF723FA83498871084605
:104BE000FEF77EFD8049C8710B4608227F480168A8
:104BF0007F48FEF721FE7948807B412832D17748F3
:104C0000C07B4F282ED17548007C43282AD14120F3
:104C1000754908704F20487043208870012100209A
:104C2000FDF7A6FE7049C87002210020FDF7A0FE26
:104C30006D49087103210020FDF79AFE6A49487109
:104C400004210020FDF794FE674988710846FEF7AD
:104C500047FD6549C8710B460822644801686448ED
:104C6000FEF7EAFD5D48807B412832D15B48C07B7E
:104C700054282ED15948007C4B282AD141205A492A
:104C80000870542048704B20887001210846FDF7B9
:104C90006FFE5549C87002210120FDF769FE524997
:104CA000087103210120FDF763FE4F49487104217B
:104CB0000120FDF75DFE4C4988710846FEF710FDA6
:104CC0004949C8710B460822484801684848FEF720
:104CD000B3FD4248807B412832D14048C07B4928FF
:104CE0002ED13E48007C4D282AD141203E490870F3
:104CF000492048704D20887001210220FDF738FEC0
:104D00003949C87002210846FDF732FE364908715C
:104D100003210220FDF72CFE3349487104210220B3
:104D2000FDF726FE304988710846FEF7D9FC2E496A
:104D3000C8710B4608222D4801682D48FEF77CFDFE
:104D40002648807B54282ED12448C07B44282AD171
:104D50002248007C432826D154202349087044204F
:104D60004870432088700120FFF76CFA1E49C87014
:104D70000220FFF767FA1C4908710320FFF762FA67
:104D8000194948710420FFF75DFA174988710846F0
:104D9000FEF7A6FC1449C8710B46082213480168A7
:104DA0001348FEF749FD0D48C07A4D2827D10B481E
:104DB000007B412823D10948407B53281FD1074855
:104DC000807B53281BD10548C07B432817D103485B
:104DD000007C482813D10148407C0BE0A40100204E
:104DE000B1000020B2000020A800002094000020A4
:104DF00000640040452802D101200149087038BDF7
:104E0000C200002000BFFEE702E008C8121F08C170
:104E1000002AFAD170477047002001E001C1121F3B
:104E2000002AFBD17047000008B54FF4E010FCF7F2
:104E300009F93D48FCF770FD3B4800683B490860B4
:104E4000FCF7FEFEFEF72AFDFFF7D4F8FEF7FCFEA6
:104E5000FFF7C0F9FDF756FDFFF72EFB4FF4FA7090
:104E6000FEF734FDFEF74CFCFFF78CF84FF4FA70B8
:104E7000FEF72CFDFEF77AFDFEF786FB4FF4FA7085
:104E8000FEF724FDFDF79AFCFFF7ECFA4FF4FA6009
:104E9000FEF71CFD2648026826480168264800687F
:104EA000FEF706FB254A26492648FEF7F9FA0020B8
:104EB00003460246014600900720FEF701FB012051
:104EC000FEF764FC522020490870452048705120AC
:104ED00088704120C8704C20087148710A20887180
:104EE0000846FEF7FDFB1849C871432008704120B1
:104EF00048704E2088704F20C8700020087148719B
:104F000088710846FEF7ECFB0F49C8714FF400406A
:104F1000FFF7A2F84FF47A70FEF7D8FC4FF4004088
:104F2000FFF79AF800BFFEE7900100202400002060
:104F3000400000203C000020380000200AD7233C1D
:104F40000000A04000007A441A0000200000000089
:104F5000000001000000000100010100000000004D
:104F6000010000010000000101000100000100003B
:104F7000000100000100000000000000000000002F
:104F8000000000010000010001000001000000001D
:104F9000000101000000010000010001010000000B
:104FA000010000000001000000000000FDFFFFFF05
:104FB000FEFFFFFFFFFFFFFFFEFFFFFFFFFFFFFF03
:104FC00000000000FFFFFFFF0000000001000000E4
:104FD00000000000010000000200000001000000CD
:104FE0000200000003000000FDFFFFFFFEFFFFFFC7
:104FF000FFFFFFFFFEFFFFFFFFFFFFFF00000000BE
:10500000FFFFFFFF000000000100000000000000A3
:10501000010000000200000001000000020000008A
:105020000300000044500008000000209001000030
:10503000000900088850000890010020801000003E
:10504000184E000801364748420AD7A33B05166FA1
:1050500012833A1AFF01011D82011A210A1A220441
:105060001A23041A24041A25041A26047A27220172
:10507000C62D0102030404100906070809020406EC
:0850800008ACA24A041C291827
:04000005080000ED02
:00000001FF
