:020000040800F2
:100000000F12002005010008231700081B17000825
:100010001F1700089D0A00085D420008000000004C
:10002000000000000000000000000000DD1A0008D1
:100030008F13000800000000A9170008C91B000862
:100040001F0100081F0100081F0100081F01000810
:100050001F0100081F01000891130008C1130008C8
:10006000F11300081F0100081F01000855100008C7
:100070001F0100081F0100081F0100081F010008E0
:100080001F0100081F0100081F0100081F010008D0
:10009000253A00081F0100081F0100081F01000881
:1000A0001F0100081F0100081F0100081F010008B0
:1000B0001D1F00081F0100086D1F00081F01000818
:1000C0001F0100081F0100081F0100081F01000890
:1000D0001F0100081F0100081F0100081F01000880
:1000E0001F0100081F0100081F010008DFF810D0E1
:1000F00000F0C0FB0048004781420008AFF30080D9
:100100000F1200200648804706480047FEE7FEE73A
:10011000FEE7FEE7FEE7FEE7FEE7FEE7FEE7FEE7B7
:100120007D1C0008ED000008F0B480EA0102D40F45
:100130004200B2EB410F02D20246084611464A0085
:1001400042D0C30DDDB2C1F3C752AD1A202D35DA4E
:10015000C1F3160141F4000204B15242C5F1200678
:1001600002FA06F12A411044B3EBD05F23D0C4B1A8
:10017000012DA0EBC35009DCF0BC4FF0004202EAB5
:10018000C352DBB200F5000000F0E8BA400000F115
:10019000807000EBC350A0F1807040EAD17049003C
:1001A00009E0490841EAC071A0EBC35000F5000026
:1001B000400800EBC350F0BC00F0C7BA6142012216
:1001C00002EB4101001BF6E7F0BC704781F00041F3
:1001D000AAE780F00040A7E780EA010210B502F02C
:1001E0000043400022D04A001FD0010E01EB1261F3
:1001F000C0F35600C2F3560240F4000042F400027D
:10020000A0FB022000047F39140400D0401C50EAF7
:10021000124001D44000491EC2B20C0604EBD010BB
:10022000401C4008802A02D003E0002010BD20F0CE
:100230000100002900DA0020184310BD30B480EA24
:10024000010202F0004530F0004221F0004013D0DE
:1002500090B1C30DD40DC2F31601C0F31600E41A19
:1002600041F4000140F400027D34914201D3641C4A
:1002700000E04900002C02DA30BC002070474FF447
:1002800000000023914201D3891A034340084FEA3A
:100290004101F7D151B1914202D14FF0004105E047
:1002A00002D24FF0010101E06FF0010103EBC450F5
:1002B000284430BC00F049BA2DE9FE4F804681EA5F
:1002C0000300C00F0C46009021F0004123F00045D0
:1002D000B8EB0200A94105D24046214690461C4693
:1002E0000B46024623F00040104347D0270DC7F3CA
:1002F0000A00C3F30A510290401A019040286BDAB9
:10030000C3F3130040F4801B0098924620B10023F1
:10031000D2EB030A63EB0B0B01985946C0F1400284
:10032000504600F0E1F906460D4650465946019AFE
:1003300000F0F9F910EB08006141002487EA11523E
:1003400084EAE7731A4340D0009A62B3019A012A03
:100350004FEA075215DC001B61EB02014FF000422F
:1003600002EA0752CDE90042001C41F580113246F5
:100370002B4600F030FA03B0BDE8F08F404621462E
:10038000F9E7001B61EB0201001C41F58013001826
:100390005B412018A2F5001747EB030140EAD57036
:1003A000B6196D4111E06D084FEA360645EAC07591
:1003B0004FEA0752001B61EB0201001C41F580115E
:1003C00049084FEA30000019514132462B4603B02C
:1003D000BDE8F04F00F0F0B9009801224000002382
:1003E000D0EB020263EBE073009821464FEAE07421
:1003F000B8EB000061EB0401E9E783F000435BE741
:1004000081F0004158E72DE9FE4F81EA030404F032
:10041000004421F0004100944FF0000B23F0004312
:1004200050EA01045ED052EA03045BD0C3F30A54DD
:10043000C1F30A552C44A4F2F3340194A0FB0254F6
:10044000C1F3130141F48011C3F3130343F4801388
:1004500001FB024400FB034E840A970A44EA8154DC
:1004600047EA8357A4FB076802958D0A05FB0785B9
:100470004FEA932C04FB0C542705029D4FEA0658C3
:1004800047EA1637B5EB08056EEB070C870E920EA0
:1004900047EA811742EA8312A7FB0201B6EB0B0180
:1004A00064EB00042B0D43EA0C335E1844EB1C5044
:1004B000DA465146E7FB0201C5F313044FEA0B335A
:1004C00043EA14534FEA0432019C43EA0603A4F1C1
:1004D0000C040294009CCDE900B400F07CF903B058
:1004E000BDE8F08F00200146F9E72DE9F04D81EAE3
:1004F000030404F0004B21F0004514464FF0000ABD
:1005000023F0004150EA050220D054EA01021DD038
:10051000C5F30A570246C5F31303C1F31300C1F331
:100520000A5640F4801543F48013A7EB0608101B0D
:10053000D64608F2FD3873EB050002D308F1010836
:1005400001E092185B41B8F1000F03DA0020014688
:10055000BDE8F08D00204FF48011064684460EE081
:10056000171B73EB050705D3121B63EB050306434B
:100570004CEA010C49084FEA300092185B4150EAFE
:100580000107EDD152EA030012D082EA040083EAA7
:100590000501084305D0101BAB4106D20122002300
:1005A00006E000224FF0004302E06FF0010253101A
:1005B0001AEB06004CEB085110EB0A0041EB0B0163
:1005C000BDE8F04D00F0F8B8C10F80EAE0700844D3
:1005D000CA079623002100F0C1B8962300221146D5
:1005E00000F0BCB80EB540F2334102910021CDE9D4
:1005F00000110A460B4600F0EEF803B000BD00F013
:10060000004220F00040C10DC0F3160040F400008D
:100610007F2901DA00207047962903DCC1F1960199
:10062000C84001E096398840002AF4D04042704723
:1006300020F00040C10DC0F3160040F400007F29F7
:1006400001DA00207047962903DCC1F19601C84009
:100650007047963988407047C1F30A5210B5C1F30C
:10066000130140F2FF3341F480119A4201DA002075
:1006700010BD40F233439A42A2F2334203DC5242AD
:1006800000F041F810BD904010BD00F0004230F085
:1006900000400AD0C10D01F56071C0F3160042EAB6
:1006A0000151C208400711437047002001467047BE
:1006B00001F0004330B421F0004150EA010206D0BD
:1006C0000A0DA2F56072C1F31301002A02DC30BCEE
:1006D00000207047440F44EAC104C100E01830BC58
:1006E00000EBC25000F031B8202A04DB203A00FAB7
:1006F00002F1002070479140C2F1200320FA03F379
:10070000194390407047202A04DB203A21FA02F076
:100710000021704721FA02F3D040C2F1200291403B
:10072000084319467047202A06DBCB17203A41FAC6
:1007300002F043EAE07306E041FA02F3D040C2F16E
:10074000200291400843194670470029A8BF70470E
:10075000401C490008BF20F00100704710B4B0FAF7
:1007600080FC00FA0CF050EA010404BF10BC704792
:1007700049B1CCF1200421FA04F411FA0CF118BFAC
:10078000012121430843A3EB0C01CB1D4FEA00617B
:100790004FEA102042BF002010BC704700EBC3504E
:1007A00010440029A4BF10BC7047401C490008BF7A
:1007B00020F0010010BC704710B5141E73F1000446
:1007C00008DA401C41F1000192185B411A4301D143
:1007D00020F0010010BD2DE9F04D92469B4611B16D
:1007E000B1FA81F202E0B0FA80F220329046FFF7CF
:1007F0007BFF04460F4640EA0A0041EA0B015346DC
:100800005A46084313D0114653EA010019D0C8F1E3
:1008100040025046FFF777FF05460E4650465946C0
:100820004246FFF761FF084305D0012004E020465F
:100830003946BDE8F08D0020054346EAE0762C43BA
:1008400037430A986305E40AA0EB08000022FD0A7A
:1008500044EA47540A3002D500200146E9E7010581
:1008600010196941DDE9084500196941BDE8F04DFD
:10087000A2E70000064C074D06E0E06840F00103E7
:1008800094E8070098471034AC42F6D3FFF732FCE7
:10089000044400082444000870B58C1810F8015B6B
:1008A00015F0070301D110F8013B2A1106D110F809
:1008B000012B03E010F8016B01F8016B5B1EF9D10D
:1008C0002B0705D40023521E0DD401F8013BFAE793
:1008D00010F8013BCB1A921C03E013F8015B01F8FE
:1008E000015B521EF9D5A142D8D3002070BD21B1C1
:1008F000826842F00102826003E0826822F0010215
:100900008260704721B1826842F48072826003E0A5
:10091000826822F4807282607047014600208A68F3
:1009200002F004020AB1012000E0002070470146F5
:1009300000208A6802F008020AB1012000E00020CD
:100940007047000030B502460020002350680F4C6D
:1009500020400D790C6844EA0524204350609068DB
:100960000B4C2040D1E902542C434D7944EA450414
:1009700020439060D06A20F470000C7C641EE4B2C6
:10098000234340EA0350D06230BD0000FFFEF0FF79
:10099000FDF7F1FFF0B504460D4600200021092DBA
:1009A00011DDE068A5F10A0606EB4607072606FA00
:1009B00007F18843A5F10A0606EB460603FA06F19D
:1009C0000843E0600CE0206905EB4507072606FABE
:1009D00007F1884305EB450603FA06F10843206159
:1009E000072A0FDA606B561E06EB86071F2606FAEB
:1009F00007F18843561E06EB860605FA06F1084302
:100A0000606322E00D2A0FDA206BD61F06EB860703
:100A10001F2606FA07F18843D61F06EB860605FA5D
:100A200006F10843206310E0E06AA2F10D0606EB30
:100A300086071F2606FA07F18843A2F10D0606EB8A
:100A4000860605FA06F10843E062F0BD816841F0D0
:100A500008018160704721B1826842F4A00282607F
:100A600003E0826822F4A00282607047816841F04E
:100A7000040181607047000030B10749096841F402
:100A80000001054A116005E00349096821F40001ED
:100A9000014A1160704700000824014000BFFEE7D2
:100AA00010B504460B48844209D10121480600F0E4
:100AB000A9FE00214FF0007000F0A4FE08E0012123
:100AC000880600F09FFE00214FF0806000F09AFE43
:100AD00010BD00000064004010B50021837A01229F
:100AE00002FA03F13D4A126842F001023B4B1A60E0
:100AF0003A4A1C3212688A43384B1C331A60027B14
:100B0000CAB9364A0C3212688A43344B0C331A6025
:100B10004288C38842EA0343304A4032847A42F82A
:100B200034300288838842EA03432C4A4032847A74
:100B300002EBC4025360027B012A19D1274A0C320E
:100B400012680A43254B0C331A604288038842EA34
:100B50000343224A4032847A42F83430C288838880
:100B600042EA03431D4A4032847A02EBC4025360D6
:100B7000C27A3AB9194A121D12688A43174B1B1DD3
:100B80001A6006E0154A121D12680A43134B1B1D1A
:100B90001A60028932B9114A143212688A430F4B23
:100BA00014331A600289012A06D10C4A14321268E1
:100BB0000A430A4B14331A60427B012A06D1074AC2
:100BC0001C3212680A43054B1C331A60034A126830
:100BD00022F00102014B1A6010BD000000660040C7
:100BE0001AB143690B43436102E043698B4343619C
:100BF000704730B5024600200023146824F0020438
:100C00001460146844F00104146000E05B1C546834
:100C100004F001041CB94FF6FF74A342F6D15468E6
:100C200004F001040CB900206CE08C79012C04D193
:100C3000146844F08004146003E0146824F0800415
:100C40001460CC79012C04D1146844F04004146081
:100C500003E0146824F0400414600C7A012C04D1E1
:100C6000146844F02004146003E0146824F02004A5
:100C700014604C7A012C04D1146844F01004146000
:100C800003E0146824F0100414608C7A012C04D161
:100C9000146844F00804146003E0146824F00804A5
:100CA0001460CC7A012C04D1146844F0040414605C
:100CB00003E0146824F0040414608C78A407CD7851
:100CC00044EA05640D7944EA05444D7944EA055443
:100CD0000D886D1E2C43D461146824F00104146047
:100CE000002300E05B1C546804F001041CB14FF6C3
:100CF000FF74A342F6D1546804F001040CB1002043
:100D000000E0012030BD10B500F5D87303EB0113EE
:100D10001B6803F004031372137A53B900F5D873F8
:100D200003EB01131B6840F2FF7404EA5353136092
:100D300009E000F5D87303EB01131B686FF0604402
:100D400004EAD303536000F5D87303EB01131B6867
:100D500003F00203537200F5D87303EB01135B68D1
:100D600003F00F03937200F5D87303EB01135B6874
:100D70001B0AD37400F5D87303EB01139B68D3727D
:100D800000F5D87303EB01139B681C0A147300F57C
:100D9000D87303EB01139B681C0C547300F5D873D4
:100DA00003EB01139B681B0E937300F5D87303EBE1
:100DB0000113DB68D37300F5D87303EB0113DB6811
:100DC0001C0A147400F5D87303EB0113DB681C0CC8
:100DD000547400F5D87303EB0113DB681B0E937496
:100DE00021B9C36843F02003C36003E0036943F003
:100DF0002003036110BD00218171C1710172417234
:100E00008172C1728170C17003210171022141712F
:100E100001210180704710B502460020936803F05D
:100E20008063B3F1806F00D110E0936803F000633A
:100E3000B3F1006F01D1012008E0936803F0805303
:100E4000B3F1805F01D1022000E00420042874D0B7
:100E500002F5C07303EB00131B6803F0010402F5F5
:100E6000C07303EB00131C600B7A7BB94B7A0C88C0
:100E700043EA445302F5C07404EB0014246823438E
:100E800002F5C07404EB0014236010E00B7A4C6888
:100E900043EAC4034C7A234302F5C07404EB001404
:100EA0002468234302F5C07404EB001423608B7A9A
:100EB00003F00F038B7202F5C07303EB00135B6842
:100EC00023F00F0402F5C07303EB00135C6002F51E
:100ED000C07303EB00135B688C7A234302F5C07484
:100EE00004EB001463608B7B1C064B7B44EA0344D9
:100EF0000B7B44EA0323CC7A234302F5C07404EB52
:100F00000014A3608B7C1C064B7C44EA03440B7CDE
:100F100044EA0323CC7B234302F5C07404EB0014A2
:100F2000E36002F5C07303EB00131B6843F0010498
:100F300002F5C07303EB00131C6010BD10B5024630
:100F4000002321B1012907D002290FD109E09068BF
:100F50001D4C00EA04030BE090681C4C00EA0403FB
:100F600006E090681A4C00EA040301E0002300BF89
:100F700000BF184C181BA34216D007DC83B16FF0DA
:100F80008060184470B1022818D111E0B0F5007FDC
:100F900010D0114C204448B1B0F5003F0ED10BE009
:100FA00002230DE000230BE0002309E0002307E00B
:100FB000012305E0012303E0012301E0002300BF3A
:100FC00000BFD8B210BD00000300000400030008F9
:100FD00000000310000100080001FFF710B50446EF
:100FE00000F040FC4FF4803000F0FEFC00F05AFDB1
:100FF0001749087008460078012826D1102000F013
:1010000073FA022000F07EFA002000F0E1FC0020DC
:1010100000F01CFD4FF4806000F00CFD21464FF401
:10102000803000F025FD012000F01CFD00BF3920BC
:1010300000F0A8FC0028FAD0022000F027FD00BF35
:1010400000F0BEFC0828FBD101E000BFFEE710BDA8
:10105000000000202DE9F04F8BB0022000F05AF97B
:10106000002875D0002001F001FC0446FFF7BAFA11
:10107000CDE90401032001F0F9FB0190FFF7B2FA7A
:10108000064632460B4600203349FFF72EFA044647
:101090000022324BFFF729FACDE90201DDE90423F2
:1010A000FFF7B1F92E4A2F4BCDE90601FFF7A8F95A
:1010B00080462D4A2D4BFFF718FA00222C4BCDE924
:1010C0000801FFF7F9F88246FFF7F2FA29490860AC
:1010D000012001F0CBFB8346FFF77FFA8246FFF742
:1010E000D4FA80460022244BFFF78DF906460022F1
:1010F0001A4BFFF7FAF90446FFF7DAFA1F490860BE
:10110000022001F0B3FB8346FFF767FA8246FFF740
:10111000BCFA06464FF06632194BFFF774F90446E5
:101120000022184BFFF7E1F980460022164BFFF72B
:101130006AF9CDE90801FFF7BBFA0A9013480A994A
:1011400001F0B4FF12490860012000F023F800BF4D
:101150000BB0BDE8F08F00000032B34000FEAF409E
:10116000E17A14AE47E1F63F22FDF675E09C713F4F
:10117000000039401801002000A074401C0100202C
:1011800066660A400000B04000005940240100207B
:101190002001002000F0805111B10349086001E0F6
:1011A0000249486070470000040402400000024009
:1011B00021B1026842F00102026004E002684FF6C9
:1011C000FE731A400260704701684FF6FE721140CC
:1011D00001600021016041608160C1604B4988422B
:1011E00008D14A490839496841F00F01474A083A8D
:1011F00051608AE045491431884208D14349083991
:10120000496841F0F001414A083A51607DE03F49A8
:101210002831884208D13D490839496841F4706154
:101220003A4A083A516070E038493C31884208D166
:1012300036490839496841F47041344A083A5160E6
:1012400063E032495031884208D130490839496851
:1012500041F470212D4A083A516056E02B4964311F
:10126000884208D129490839496841F47001274A60
:10127000083A516049E025497831884208D123492C
:101280000839496841F07061204A083A51603CE0F1
:101290001F49884206D1011F096841F00F01021F52
:1012A000116032E01A491431884208D11849091FE7
:1012B000096841F0F001164A121F116025E0144937
:1012C0002831884208D11249091F096841F4706128
:1012D0000F4A121F116018E00D493C31884208D1B5
:1012E0000B49091F096841F47041094A121F116036
:1012F0000BE007495031884207D10549091F0968A9
:1013000041F47021024A121F116070470800024028
:101310000804024001460020002201F0805313B16E
:10132000054B1A6801E0054B1A6802EA01030BB18C
:10133000012000E00020704700040240000002404D
:101340001AB103680B43036002E003688B43036038
:10135000704710B50022026847F6F0739A430C6A92
:101360008B6823430C6923434C6923438C692343D3
:10137000CC6923434C6A23438C6A23431A4302609B
:10138000CB6843600B6883604B68C36010BD7047D7
:1013900010B5012000F04AF888B1032001F07EFC6E
:1013A00018B1002001F082FF06E0042001F076FC75
:1013B00010B1012001F07AFF012000F031F810BDDA
:1013C00010B5022000F032F888B1032001F066FC6D
:1013D00018B1002001F06AFF06E0042001F05EFC75
:1013E00010B1012001F062FF022000F019F810BDD9
:1013F00010B5042000F01AF888B1032001F04EFC6B
:1014000018B1002001F052FF06E0042001F046FC74
:1014100010B1012001F04AFF042000F001F810BDD6
:101420000149086070470000140401400146002093
:101430000022074B1B6803EA0102054B14331B68AB
:101440000B4013B10AB1012000E0002070470000FA
:1014500000040140002123498279002A3AD00A463B
:10146000126803689A430B461A600A1D12680368E3
:101470009A430B1D1A60027911440A6803681A43E3
:101480000A60184A0832126803689A43154B0833F9
:101490001A601A1D126803689A43124B0C331A60C3
:1014A0004279102A0ED11A1F126803681A430D4B95
:1014B00008331A601A1D126803681A43094B0C336B
:1014C0001A600DE00749427911440A6803681A431B
:1014D0000A6005E0027911440A6803689A430A60C9
:1014E00070470000000401400549096821F010011F
:1014F000034A1160114609680143116070470000FA
:101500000020024001460020034A106800F0380025
:1015100008431060704700000020024030B50022F0
:101520008B071C0F0F2303FA04F20B4B8C1053F89C
:1015300024309343084C8D1044F8253023468C10FA
:1015400053F824308C07240F00FA04F42343024C90
:101550008D1044F8253030BD080001402DE9F041E0
:10156000024600250026002000230024002791F8D1
:1015700003C00CF00F0591F803C00CF0100CBCF187
:10158000000F03D091F802C04CEA050591F800C0A5
:10159000BCF1000F31D0146800202BE04FF0010C9B
:1015A0000CFA00F3B1F800C00CEA03069E4220D109
:1015B00083004FF00F0C0CFA03F7BC4305FA03FC51
:1015C0004CEA040491F803C0BCF1280F06D14FF097
:1015D000010C0CFA00FCC2F814C00AE091F803C038
:1015E000BCF1480F05D14FF0010C0CFA00FCC2F819
:1015F00010C0401C0828D1D31460B1F800C0BCF161
:10160000FF0F34DD546800202EE000F1080C4FF08D
:10161000010808FA0CF3B1F800C00CEA03069E4278
:1016200021D183004FF00F0C0CFA03F7BC4305FAED
:1016300003FC4CEA040491F803C0BCF1280F05D167
:1016400000F1080C08FA0CF8C2F8148091F803C0F5
:10165000BCF1480F07D100F1080C4FF0010808FA5F
:101660000CF8C2F81080401C0828CED35460BDE8A6
:10167000F0810000F0B50A46002300240021002577
:1016800000F00046B6F1004F02D11D4EF16901E0B5
:101690001B4E7168C0F3034583B200F44016B6F5E3
:1016A000401F08D121F07061154E766826F07066F3
:1016B000134F7E6012E000F48016B6F5801F06D14D
:1016C000032606FA05F4A14341F0706106E0460DD9
:1016D000360103FA06F6B14341F0706122B1460DBE
:1016E000360103FA06F6314300F00046B6F1004F2A
:1016F00002D1034EF16101E0014E7160F0BD0000C6
:10170000000001400146886880B27047416170471F
:101710000AB1016100E04161704700BFFEE700BF10
:10172000FEE7704770B5002100230F22C47804B390
:10173000154C246804F4E064C4F5E064210AC1F1A6
:101740000403CA40447804FA03F184781440214326
:1017500009010E4C0678A155047804F01F050124F8
:10176000AC4005786D11AD0005F1E025C5F80041EC
:1017700009E0047804F01F050124AC40044D06780C
:10178000761145F8264070BD0CED00E000E400E065
:1017900080E100E002490143024A11607047000005
:1017A0000000FA050CED00E0704700000146002043
:1017B000034A506820F440400843506070470000DE
:1017C0000010024029B1064A52690243044B5A6193
:1017D00004E0034A52698243014B5A61704700009A
:1017E0000010024029B1064AD2690243044BDA6173
:1017F00004E0034AD2698243014BDA61704700007A
:101800000010024029B1064A12690243044B1A61D2
:1018100004E0034A12698243014B1A6170470000D9
:101820000010024029B1064A92690243044B9A61B2
:1018300004E0034A92698243014B9A6170470000B9
:101840000010024029B1064AD2680243044BDA6014
:1018500004E0034AD2688243014BDA60704700001B
:10186000001002400F48006840F001000D49086078
:10187000084640680C4908400A4948600846006824
:101880000A490840074908600846006820F480209B
:1018900008600846406820F4FE0048604FF41F00CE
:1018A00088607047001002400000FFF8FFFFF6FE5E
:1018B00030B500210022002400232D4D6D6805F075
:1018C0000C0121B1042905D0082923D105E0294DB7
:1018D000056022E0274D05601FE0254D6D6805F489
:1018E0007012234D6D6805F48034022505EB924299
:1018F0001CB9214D554305600BE01D4D6D6805F485
:1019000000351DB11C4D5543056002E0194D55438E
:10191000056002E0174D056000BF00BF144D6D6803
:1019200005F0F0010909154D6B5C0568DD40456067
:101930000F4D6D6805F4E061090A104D6B5C456858
:10194000DD4085600A4D6D6805F46051C90A0B4D94
:101950006B5C4568DD40C560054D6D6805F4404130
:10196000890B074D6B5CC568B5FBF3F5056130BDB0
:101970000010024000127A0000093D0068010020BA
:101980007801002010B501460022002300204A11F2
:10199000012A02D1094C236806E0022A02D1074C31
:1019A000236A01E0054C636A01F01F0201249440A0
:1019B0001C400CB1012000E0002010BD00100240CE
:1019C0000248406800F00C00704700000010024020
:1019D00001460020034A506820F0F00008435060A0
:1019E00070470000001002401149096821F480315D
:1019F0000F4A11601146096821F480211160B0F589
:101A0000803F03D0B0F5802F0ED106E00849096869
:101A100041F48031064A116007E00549096841F444
:101A2000A021034A116000E000BF00BF7047000022
:101A30000010024001460020034A506820F4E06094
:101A4000084350607047000000100240014600202B
:101A5000034A506820F4605040EAC100506070476B
:101A60000010024001490866704700000000424231
:101A700002460020044B586820F47C1042EA01031F
:101A80001843014B58607047001002400146002087
:101A9000034A506820F0030008435060704700007C
:101AA0000010024038B5002000900024002500BF3F
:101AB0003120FFF767FF05460098401C0090009812
:101AC000B0F5A06F01D0002DF2D03120FFF75AFF02
:101AD00008B1012400E00024204638BD704710B54D
:101AE00000F002F810BD00000CB50020019000903D
:101AF0003348006840F480303149086000BF304806
:101B0000006800F4003000900198401C019000989B
:101B100018B90198B0F5A06FF1D12948006800F418
:101B2000003010B10120009001E0002000900098EA
:101B3000012843D12348006840F010002149086083
:101B40000846006820F0030008600846006840F07E
:101B5000020008601A484068194948600846406811
:101B600048600846406840F4806048600846406825
:101B700020F47C1048600846406840F4E810486053
:101B80000846006840F08070086000BF0C4800689C
:101B900000F000700028F9D00948406820F00300E8
:101BA000074948600846406840F00200486000BFAE
:101BB0000348406800F00C000828F9D10CBD000073
:101BC000001002400020024002480068401E014907
:101BD000086070470400002010B50021002000229A
:101BE000214B5B6803F00C0121B1042906D00829C0
:101BF00028D107E01D4B1E4C236027E01B4B1C4CDB
:101C0000236023E0184B5B6803F47010164B5B688D
:101C100003F48032022303EB904022B9154B434377
:101C2000134C23600DE0104B5B6803F4003323B1C9
:101C3000104B43430E4C236003E00C4B43430C4CCE
:101C4000236003E0094B0A4C236000BF00BF064B32
:101C50005B68C3F30313084CE15C054B1B68CB4086
:101C6000034C236010BD00000010024000127A00F7
:101C70007C01002000093D008001002010B51348C0
:101C8000006840F0010011490860084640681049AA
:101C900008400E494860084600680E4908400B4954
:101CA00008600846006820F4802008600846406804
:101CB00020F4FE0048604FF41F008860FFF70FFF1C
:101CC0004FF000600449086010BD000000100240A1
:101CD0000000FFF8FFFFF6FE08ED00E0F0B50C464F
:101CE000154600220021068C4FF6FE773E40068402
:101CF000028B018C4FF60C7632407E1C06EA0316EE
:101D00002E433243104EB0420ED0104EB0420BD094
:101D1000B0F1804F08D00E4EB04205D00D4EB0420B
:101D200002D00D4EB04206D14FF6FD76314044F060
:101D30000106314305E04FF6F576314044F00106E7
:101D4000314302830184F0BD002C01400034014086
:101D50000004004000080040000C0040F0B50C46B4
:101D60001546002200210026078C4FF6EF7C07EA7B
:101D70000C070784028B018C4FF6FF7707EA0416E5
:101D800040F6FF473A404FF6FF7707EA03373A43FA
:101D90004FF6FF7707EA05273A43114FB8420ED0B6
:101DA000104FB8420BD0B0F1804F08D00E4FB84260
:101DB00005D00E4FB84202D00D4FB84206D14FF6B3
:101DC000DF77394046F01007394305E04FF65F777B
:101DD000394044F01007394302830184F0BD00000C
:101DE000002C014000340140000400400008004085
:101DF000000C0040F0B50C461546002200210026DC
:101E0000078C4FF6FF6C07EA0C070784828B018C66
:101E10004FF6FF7707EA04264FF60C773A404FF665
:101E2000FF7707EA03172F433A43114FB8420ED00A
:101E3000104FB8420BD0B0F1804F08D00E4FB842CF
:101E400005D00E4FB84202D00D4FB84206D14FF622
:101E5000FF57394046F48077394305E04FF2FF578A
:101E6000394044F48077394382830184F0BD000017
:101E7000002C0140003401400004004000080040F4
:101E8000000C0040F0B50C4615460022002100264B
:101E9000078C4EF6FF7C07EA0C070784828B018CC7
:101EA0004FF6FF7707EA043640F6FF473A404FF611
:101EB000FF7707EA05273A434FF6FF7707EA03372C
:101EC0003A43114FB8420ED0104FB8420BD0B0F188
:101ED000804F08D00E4FB84205D00E4FB84202D006
:101EE0000D4FB84206D14DF6FF77394046F4805782
:101EF000394305E047F6FF57394044F480573943EA
:101F000082830184F0BD0000002C014000340140B8
:101F10000004004000080040000C004010B5012102
:101F2000880700F0B3F901281CD10121800700F0D7
:101F30006AF8032000F0B2FE28B10B480088401C6C
:101F4000094908800CE0042000F0A8FE40B10648D2
:101F50000088002804DD04480088401E02490880EB
:101F600000F0C8FE10BD00003401002010B50121B2
:101F70000A4800F08BF980B14FF4004001F0C4FA38
:101F8000012007490870052000F088FE08B900F01C
:101F9000F7FF0121014800F036F810BD00080040AD
:101FA0007C0000200A884B881A438B881A43CB8810
:101FB0001A430B891A434B891A438B891A43A0F899
:101FC0004420704730B5002301248C40A3B2048C18
:101FD0009C430484048C02FA01F5ADB22C430484C2
:101FE00030BD30B5002304248C40A3B2048C9C4344
:101FF0000484048C02FA01F5ADB22C43048430BD94
:10200000CA4302827047CA430282704721B10288E4
:1020100042F00102028004E002884FF6FE731A408B
:102020000280704731B1B0F8442042F40042A0F879
:10203000442005E0B0F84420C2F30E02A0F844208A
:102040007047000010B504466848844208D1012159
:10205000C014FFF7F7FB0021E014FFF7F3FBC4E027
:10206000B4F1804F08D101210846FFF7CBFB0021D6
:102070000120FFF7C7FBB8E05D48844208D1012189
:102080000220FFF7BFFB00210220FFF7BBFBACE003
:102090005848844208D101210420FFF7B3FB0021F6
:1020A0000420FFF7AFFBA0E05348844208D1012190
:1020B0000820FFF7A7FB00210820FFF7A3FB94E00F
:1020C0004E48844208D101211020FFF79BFB0021DC
:1020D0001020FFF797FB88E04948844208D101218E
:1020E0002020FFF78FFB00212020FFF78BFB7CE0F7
:1020F0004448844208D101214014FFF7A3FB00218A
:102100006014FFF79FFB70E03F48844209D1012132
:10211000C804FFF797FB00214FF40020FFF792FB64
:1021200063E03A48844209D101210805FFF78AFBA0
:1021300000214FF48010FFF785FB56E034488442BD
:1021400009D101214805FFF77DFB00214FF4001064
:10215000FFF778FB49E02F48844208D10121402055
:10216000FFF750FB00214020FFF74CFB3DE02A48E1
:10217000844208D101218020FFF744FB0021802008
:10218000FFF740FB31E02548844208D1012180154A
:10219000FFF738FB0021A015FFF734FB25E02048AE
:1021A000844209D101210804FFF74CFB00214FF4C0
:1021B0008030FFF747FB18E01A48844209D101211B
:1021C0004804FFF73FFB00214FF40030FFF73AFBD4
:1021D0000BE01548844208D101218804FFF732FB47
:1021E00000214FF48020FFF72DFB10BD002C014093
:1021F0000004004000080040000C004000100040B7
:102200000014004000340140004C014000500140E7
:102210000054014000180040001C00400020004015
:10222000004001400044014000480140F0B50C4628
:1022300015461E460021002200230189028B038CD3
:102240004FF6F877394021434FF6FC473A4040F2C9
:1022500001173A434FF6DD773B404FF6FF7707EA29
:1022600006172F433B43018102830384F0BD0146DF
:10227000888E70470146888C704702460020138A7A
:102280000B400BB1012000E00020704730B5024642
:10229000002000230024158A05EA0103958905EA38
:1022A000010413B10CB1012000E0002030BD00009A
:1022B00070B505460C46244885420ED02348854219
:1022C0000BD0B5F1804F08D02148854205D0214878
:1022D000854202D02048854200D100E000BF20881E
:1022E00050B92389A28861882846FFF7F7FCE18866
:1022F000284600F083F925E0208804280AD12389A4
:10230000A28861882846FFF729FDE188284600F069
:102310007EF917E0208808280AD12389A2886188DD
:102320002846FFF767FDE188284600F07DF909E0BF
:102330002389A28861882846FFF7A4FDE188284602
:1023400000F07BF970BD0000002C0140003401401A
:102350000004004000080040000C00400021018003
:102360004180012181800021C180018170471AB123
:1023700083890B43838102E083898B438381704788
:1023800070B5002400220023058C4FF6FE76354000
:102390000584028C8388048B4FF68F752C40B51E04
:1023A0002C400D882C43751E2A400D892A434D88E8
:1023B0002A43144DA8420BD0134DA84208D0134D08
:1023C000A84205D0124DA84202D0124DA84213D106
:1023D0004FF6F7752A404D892A434FF6FB752A4080
:1023E0008D882A434FF6FF652B404FF6FF552B4053
:1023F0008D892B43CD892B4383800483CD888586AB
:10240000028470BD002C01400034014000400140B6
:1024100000440140004801400A460021018B4FF66C
:10242000F7731940114301837047000070B5002411
:1024300000220023058C4FF6EF7635400584028C90
:102440008388048B48F6FF752C404FF6FF452C40DF
:102450000D884FF6FF7606EA05252C434FF6DF750B
:102460002A400D8906EA05152A434D8806EA051516
:102470002A43154DA84202D0144DA8421DD14FF653
:102480007F752A404D894FF6FF7606EA05152A43E7
:102490004FF6BF752A408D8806EA05152A434FF688
:1024A000FF352B404FF2FF752B408D8906EA8505DD
:1024B0002B43CD8906EA85052B4383800483CD8891
:1024C0000587028470BD0000002C014000340140EB
:1024D0000A460021018B4FF2FF7319404FF6FF733C
:1024E00003EA0223194301837047000070B50024FA
:1024F00000220023058C4FF6FF6635400584028CD0
:102500008388848B4FF68F752C404FF6FC752C40DA
:102510000D882C434FF6FF552A400D894FF6FF7664
:1025200006EA05252A434D8806EA05252A43154D66
:10253000A84202D0144DA8421DD14FF2FF752A4087
:102540004D894FF6FF7606EA05252A434FF6FF35FB
:102550002A408D8806EA05252A434EF6FF752B4052
:102560004DF6FF752B408D8906EA05152B43CD8965
:1025700006EA05152B4383808483CD8885870284F2
:1025800070BD0000002C0140003401400A460021CB
:10259000818B4FF6F773194011438183704770B5F3
:1025A0000346002000241846183001258D40ACB2A7
:1025B0001D8CA5431D8409B1082909D100EB6100D8
:1025C000056825F0700505600568154305600EE097
:1025D0000D1FC5F34E052844056825F4E045056048
:1025E00005684FF6FF7606EA02263543056070BDA2
:1025F000818670470187704781877047028B4FF64D
:10260000F3731A400283028B0A4302837047028BE2
:102610004FF2FF331A400283028B4FF6FF7303EA37
:1026200001231A4302837047828B4FF6F3731A40DB
:102630008283828B0A4382837047828B4FF2FF33FF
:102640001A408283828B4FF6FF7303EA01231A43F9
:1026500082837047002202881D4B98420ED01D4B8A
:1026600098420BD0B0F1804F08D01B4B984205D058
:102670001A4B984202D01A4B984204D14FF68F73EE
:102680001A404B881A43174B984207D0164B984272
:1026900004D04FF6FF431A40CB881A4302808B8840
:1026A00083850B8803850A4B98420BD0094B9842CF
:1026B00008D00E4B984205D00D4B984202D00D4BDE
:1026C000984201D10B7A0386012383827047000070
:1026D000002C01400034014000040040000800408C
:1026E000000C004000100040001400400040014079
:1026F000004401400048014000B591B04FF48040D3
:10270000FFF754F801210846FFF75CF80121480261
:10271000FFF788F800200C9001208DF834008DF828
:1027200035004FF460200E9000200F9004208DF8AB
:1027300040000CA93C48FEF705F9042301221021B2
:102740003948FEF727F904231A4611213648FEF7C7
:1027500021F90423022205213348FEF71BF9042343
:10276000032219463048FEF715F93048FEF72CFDD4
:102770002D484C3001902E480290002003901420E8
:102780000490002005908020069040000790800073
:1027900008902020099000020A9000200B9001A9C7
:1027A0002248FEF7D6FD012202212048FEF7C8FD8F
:1027B0000B208DF8000001208DF8030000208DF81B
:1027C000010002208DF802006846FEF7ABFF0120F1
:1027D000FEF752F901211448FEF789F80121134848
:1027E000FEF7E6FC01211048FEF78CF80E48FEF7D4
:1027F0002DF900BF0C48FEF79AF80028FAD10A48D4
:10280000FEF734F900BF0848FEF787F80028FAD130
:1028100001210548FEF71FF90648074908600748E7
:10282000486011B000BD00000024014008000240D3
:10283000DC0100203FE3C23D24010020F9A0673FF6
:1028400008B501210420FEF7EDFF00208DF80300FC
:102850003020ADF8000003208DF8020069460248E0
:10286000FEF77CFE08BD00000008014001460E484E
:1028700030F811200346081D33F81000024401F11E
:10288000080033F81000024401F10C0033F8100086
:10289000024401F1100033F810001044052290FBAF
:1028A000F2F080B270470000DC01002002460020F8
:1028B00022B1012A1BD0022A4BD131E0012902D1D9
:1028C000254B187812E0022904D1234B1B88C3F34F
:1028D00007200BE0032904D11F4B1B68C3F30740FB
:1028E00004E0042902D11C4B1B68180E31E00129B9
:1028F00002D11A4B187812E0022904D1174B1B8819
:10290000C3F307200BE0032904D1144B1B68C3F366
:10291000074004E0042902D1104B1B68180E18E090
:10292000012902D10E4B187812E0022904D10C4B78
:102930001B88C3F307200BE0032904D1084B1B6855
:10294000C3F3074004E0042902D1054B1B68180EAD
:1029500000BF00BF70470000180100201C010020CC
:102960002001002001460F4A12680F4B1A60002018
:10297000012902D11A46107812E0022904D10A4A2C
:102980001288C2F307200BE0032904D1064A12681B
:10299000C2F3074004E0042902D1034A1268100E72
:1029A00070470000E4000020C400002001460F4AE8
:1029B00012680F4B1A600020012902D11A461078C4
:1029C00012E0022904D10A4A1288C2F307200BE060
:1029D000032904D1064A1268C2F3074004E004291F
:1029E00002D1034A1268100E70470000D000002088
:1029F000C4000020024B186059609A6070470000C4
:102A0000C4010020024B186059609A6070470000B2
:102A1000B80100202DE9F04704460D4616461F4632
:102A2000DDF820802848006865F307002649086023
:102A30000846006866F30F2008600846006867F3E0
:102A4000174008600846006868F31F600860082C9B
:102A500036D2DFE804F004090E13181D222C1A48A0
:102A600000681A4908602BE0174800681749486059
:102A700026E0154800681549886021E01248006882
:102A8000134908601CE0104800681149486017E0CD
:102A90000D4800680E49886012E00B490868FDF790
:102AA000AEFD8146FDF790FD0A49086008E0064941
:102AB0000868FDF7A4FD8146FDF786FD064908601C
:102AC00000BFBDE8F0870000C4000020B80100206E
:102AD000C4010020D0000020E4000020F0B589B03F
:102AE00001214806FEF77EFE4E48FDF7D9FF06A8F5
:102AF000FEF781F900208DF81E008DF81F008DF87B
:102B000020008DF821008DF8220001208DF823008F
:102B100000208DF81A008DF81B0002208DF81C0093
:102B200001208DF81D000620ADF8180006A93D48CB
:102B3000FEF75FF801208DF812008DF813000020D9
:102B40008DF81400384800684FF6FF7101EA401014
:102B5000ADF808003448006801EA4010ADF80A00FA
:102B60003148006801EA4010ADF80C002E480068BA
:102B700001EA4010ADF80E0001208DF8150002A802
:102B8000FDF7AAFF0020024603460146C1F10707F0
:102B9000042F01D9042701E0C1F107073E460F1DAC
:102BA000072F01D2002700E0CF1E3D460127B74086
:102BB0007F1E1740AF404FF0010C0CFA05FCACF142
:102BC000010C0CEA030C47EA0C07BCB214202146A6
:102BD000002807DA0A07150E144A00F00F031B1F1E
:102BE000D55403E00A07130E114A135400BF4FF4E3
:102BF000C060FEF7CFFD14208DF8040000208DF892
:102C0000050005208DF8060001208DF8070001A8B9
:102C1000FEF788FD012202210248FDF7E1FF09B01D
:102C2000F0BD0000006400409400002018ED00E0BA
:102C300000E400E002460020002103E0535C03446E
:102C4000D8B2491C0729F9DBC143C8B2411CC8B23C
:102C50007047000008B501210520FEF7E3FD48207C
:102C60008DF803004FF40060ADF8000003208DF8EC
:102C7000020069460848FEF771FC18208DF8030031
:102C80004FF48050ADF8000003208DF80200694633
:102C90000148FEF763FC08BD000801400146002022
:102CA00011B90E4A507817E0012902D10B4A9078E9
:102CB00012E0022902D1094A10790DE0032902D15C
:102CC000064A507908E0042902D1044A907903E0C9
:102CD000052901D1014AD07870470000B2000020D8
:102CE000012801D1012100E00021014A1170704743
:102CF000C100002010B500F02FF9154908605020E0
:102D0000144908704D20487041208870042000F05C
:102D100083F91049C870032000F07EF90D4908714D
:102D2000022000F079F90B494871012000F074F994
:102D3000084988710846FFF77DFF0649C8710B46B0
:102D4000082205480168054800F00AF810BD000097
:102D50002C010020A8000020840000200064004016
:102D60002DE9F04786B08246884614469946CDF84C
:102D70000480002002908DF80D008DF80C00E0B268
:102D80008DF80E00002005E019F800200DF10F016C
:102D90000A54401CA042F7DB01A95046FEF73BF85D
:102DA0000546002705E029465046FEF7C7F80646C7
:102DB0007F1C012E03D04FF6FF708742F3D106B07F
:102DC000BDE8F08710B50948FFF73CF90121022062
:102DD000FEF708FD4FF6FF70054988800020088047
:102DE000C88048800148FFF735FC10BD0004004052
:102DF0000402002070B5044647201049088040F2C4
:102E0000E73088800E48FFF725FC002513E00121FC
:102E10000B48FFF7F5F801210948FFF7F7F800BF65
:102E200001210748FFF729FA0028F9D000210448BA
:102E3000FFF7ECF86D1CA542E9D370BD0402002039
:102E40000004004070B5044623201049088001208A
:102E500088800F48FFF7FEFB002513E001210C4896
:102E6000FFF7CEF801210A48FFF7D0F800BF012193
:102E70000748FFF702FA0028F9D000210448FFF7BD
:102E8000C5F86D1CA542E9D370BD00000402002006
:102E90000004004000B589B001210520FEF7C2FC06
:102EA0000320ADF8200004208DF8230003208DF8C6
:102EB000220008A92748FEF751FB01210846FEF72A
:102EC00091FC0020ADF81A00ADF81600ADF8140022
:102ED0004AF2F770ADF8180000208DF81C0005A923
:102EE0004FF08040FFF7B6FB02A8FFF737FA042047
:102EF000ADF808000620ADF810000120ADF80C0078
:102F000000231A4603218007FFF790F902A94FF02A
:102F10008040FFF7CDF900204FF0804188841C20CD
:102F20008DF8040001208DF8050000208DF80600C2
:102F300001208DF8070001A8FEF7F4FB01221146DD
:102F40009007FFF714FA01218807FFF75FF809B02F
:102F500000BD00000008014070B500F07BF8054698
:102F6000FDF73BFB04460449FDF768F90349086097
:102F70000846006870BD000000F827472C010020BB
:102F80002DE9F04F87B000F065F81FFA80FB1C4870
:102F90000088ABEB00001FFA80FA1948C0F800B0B7
:102FA000BAF1000F03DACAF100001FFA80FA5046A6
:102FB000FDF713FB13490190FDF740F94FF08141F4
:102FC0000290FDF73BF90390FDF75FFB00220E4BEB
:102FD000CDE90401FDF717FA804600220B4BFDF7FF
:102FE00012FA064600220A4BFDF77FFA0446FDF767
:102FF0005FFB084908600846006807B0BDE8F08F2D
:103000004001002000007A4400408F4000004E4004
:10301000000024403001002001460020012902D197
:103020000B4A107812E0022904D1094A1288C2F32F
:1030300007200BE0032904D1054A1268C2F30740B8
:1030400004E0042902D1024A1268100E7047000001
:103050002C0100202DE9F0410E480F4908600F486F
:1030600048600F480088FDF7B8FA80460D49FDF723
:10307000B3F807460C49FDF7AFF80646FDF7D8FA56
:1030800004464FF08040FFF7F5F805466019BDE8AB
:10309000F08100004ED1213F38010020645DBC3E2C
:1030A0003401002000002C4200007A442DE9F04158
:1030B00004460D460D4920680968FDF78DF806465F
:1030C0000B4960680968FDF787F807463146FDF748
:1030D0002BF808490860054805600846006804495F
:1030E000086004480068BDE8F08100004801002045
:1030F0004C010020500100201FB501210820FEF7DF
:1031000091FB48208DF80F000720ADF80C0003203C
:103110008DF80E0003A93948FEF720FA0121084670
:10312000FEF780FB00210120FEF7F8F90120019055
:1031300000208DF8080010208DF8090001208DF87E
:103140000A0001A8FEF786F906208DF8000000208D
:103150008DF8010002208DF8020001208DF8030097
:103160006846FEF7DFFA01210846FEF7D7F902208C
:10317000019000208DF8080010208DF80900012032
:103180008DF80A0001A8FEF765F907208DF8000008
:1031900000208DF8010003208DF8020001208DF839
:1031A00003006846FEF7BEFA02210120FEF7B6F9D9
:1031B0000420019000208DF8080010208DF80900EF
:1031C00001208DF80A0001A8FEF744F908208DF8C7
:1031D000000000208DF8010004208DF8020001207D
:1031E0008DF803006846FEF79DFA0448FEF78AFA58
:1031F00000F00700024908801FBD0000000C0140DC
:103200005A00002010B5054905480068FDF716F87A
:10321000044908600846006810BD000000002C4208
:10322000740000208000002001460020012902D106
:103230000B4A107812E0022904D1094A1288C2F31D
:1032400007200BE0032904D1054A1268C2F30740A6
:1032500004E0042902D1024A1268100E70470000EF
:1032600080000020014800787047000054000020D2
:103270000148807870470000540000200148007920
:10328000704700005400002001484078704700005B
:10329000540000200148C07870470000540000200E
:1032A00001484079704700005400002010B50446E2
:1032B0004848FEF727FA00F007004749088008460B
:1032C00000884649098888427ED04348008843499F
:1032D0000880DCBB4048008800EB4000404911F802
:1032E0001000404908703C48008800EB40003C4911
:1032F00001EB400040783B4948703748008800EBBC
:103300004000374901EB40008078364988703248E8
:10331000008800EB4000324901EB4000C0783149A1
:10332000C8702D48008800EB40002D4901EB40009B
:1033300000792C4908712848008800EB4000284992
:1033400001EB40004079274948713FE0FFE7012C3D
:103350003CD12148008800EB4000234911F81000BF
:10336000204908701C48008800EB40001E4901EB12
:10337000400040781B4948701748008800EB400027
:10338000194901EB4000807816498870124800887E
:1033900000EB4000144901EB4000C0781149C870AF
:1033A0000D48008800EB40000F4901EB4000007918
:1033B0000C4908710848008800EB40000A4901EBFD
:1033C00040004079074900E002E0487100F0D4F87D
:1033D00010BD0000000C01405A0000205C000020DD
:1033E000A443000854000020D443000800200949E9
:1033F00008700949086009490860094908600949D5
:103400000860094908604FF6FF70084908800849BC
:1034100008807047790000207400002070000020B0
:103420006C00002060000020800000205A00002076
:103430005C0000201FB51A48FEF704FE012104209D
:10344000FEF7D0F940F2DF10ADF8040040F2DB5097
:10345000ADF808000020ADF80A00ADF8060001A99B
:103460000F48FFF7F7F800210D48FEF7CFFD0121C7
:103470000B48FEF7C8FD012211460948FEF777FF09
:103480001E208DF8000000208DF8010001208DF82D
:1034900002008DF803006846FEF744F91FBD0000E6
:1034A0000008004008B501210D20FEF7BBF90121FD
:1034B0001248FEF7DFF810208DF803001820ADF851
:1034C000000002208DF8020069460D48FEF746F81C
:1034D0004FF40040ADF8000069460A48FEF73EF898
:1034E0004FF400410748FEF711F908210448FEF7A0
:1034F0000DF910210248FEF709F908BD000230005D
:10350000000C01400008014010B50446B4F5004F1E
:103510000BD11448027821461348FEF7F9F81148F8
:10352000007880F001000F490870082C0BD10F487B
:10353000027821460E48FEF7EBF80C48007880F040
:1035400001000A490870102C0BD10A480278214664
:103550000748FEF7DDF80748007880F001000549CC
:10356000087010BD46010020000801404501002000
:10357000000C01404401002010B5FFF773FE78B144
:10358000602200213E48FFF70AF8012200213C4852
:10359000FEF718FD042200213948FEF722FD17E04E
:1035A000002211463648FEF70DFDFFF76DFE50B1C3
:1035B000502200213248FEF7F2FF04220021304859
:1035C000FEF70FFD04E0002211462D48FEF709FD2D
:1035D000FFF74EFE78B1602204212948FEF7DFFF95
:1035E000012204212648FEF7EDFC0422114624485E
:1035F000FEF7F7FC17E0002204212148FEF7E2FC69
:10360000FFF748FE50B1502204211D48FEF7C7FFC6
:10361000042211461A48FEF7E4FC04E000220421CB
:103620001748FEF7DEFCFFF729FE78B1602208217B
:103630001348FEF7B4FF012208211148FEF7C2FC2F
:10364000042208210E48FEF7CCFC17E000220821D6
:103650000B48FEF7B7FCFFF723FE50B150220821BC
:103660000748FEF79CFF042208210548FEF7B9FC35
:1036700004E0002208210248FEF7B3FC10BD000060
:10368000002C014008B501210420FEF7CBF81820DA
:103690008DF803004FF4E060ADF8000003208DF8D2
:1036A000020069461148FDF759FF01210820FEF785
:1036B000B9F818208DF803004FF46040ADF8000011
:1036C00003208DF8020069460948FDF747FF0420F2
:1036D0008DF803008002ADF8000003208DF8020091
:1036E00069460348FDF73AFF08BD000000080140A5
:1036F000000C01402DE9FC5F82461E48FEF7B7FD35
:103700000090FCF76AFF8346FCF7BFFF06460022E5
:10371000194BFCF778FE04460022184BFCF7E5FE37
:103720008046FCF7C5FF1649086000200190BAF1F9
:10373000010F03D108460078019018E0BAF1020F9A
:1037400005D10F480088C0F3072001900FE0BAF1BF
:10375000030F05D10A480068C0F30740019006E056
:10376000BAF1040F03D106480068000E01900198D9
:10377000BDE8FC9F002C0140000059400078AE409D
:103780005000002010B5002211461F48FEF71AFC19
:10379000502200211C48FEF702FF042200211A4893
:1037A000FEF71FFC002204211748FEF70BFC5022F5
:1037B00004211548FEF7F3FE042211461248FEF7D5
:1037C00010FC002208211048FEF7FCFB50220821C3
:1037D0000D48FEF7E4FE042208210B48FEF701FC29
:1037E0006420FFF72FFB002211460748FEF7F9FB84
:1037F000002204210448FEF7F4FB002208210248BD
:10380000FEF7EFFB10BD0000002C01402DE9FC5F2E
:1038100005460E4691469A461F48006865F3070024
:103820001D4908600846006866F30F2008600846D6
:10383000006869F317400860084600686AF31F6073
:10384000086008681549FCF7C7FC8346FCF71DFFB4
:103850000022134BCDE90001FCF747FE0746FCF7B9
:10386000FBFE84B2512C07DB40F63C70844203DC43
:10387000204600F017F80DE040F63C70844202DD6F
:1038800000F010F806E0512C04DA002000F00AF8ED
:1038900000F01AF8BDE8FC9F4C00002000C0734502
:1038A0000000594010B50446A1B20648FEF7A0FE3C
:1038B000A1B20448FEF79EFEA1B20248FEF79CFEAC
:1038C00010BD0000002C014010B5FFF75BFF002287
:1038D00011461148FEF776FB002211460E48FEF70E
:1038E00080FB002204210C48FEF76CFB002204211F
:1038F0000948FEF776FB002208210748FEF762FB25
:10390000002208210448FEF76CFB4FF4FA70FFF721
:1039100071FAFFF76BFD10BD002C014000B58BB0B4
:10392000012140F60100FDF77DFF3A48006844F2AE
:103930005061B0FBF1F0401E374908800020374944
:103940000860ADF82000ADF8220033480088ADF8DB
:1039500024000020ADF826008DF8280008A9304882
:10396000FEF778FE0020ADF810000120ADF812003F
:103970000420ADF8140029490868FCF759FE80B20C
:10398000ADF816000020ADF81800ADF81A00ADF83B
:103990001C00ADF81E0004A92148FEF7F1FC04A9A3
:1039A0001F48FEF743FD04A91D48FEF79FFD0821AF
:1039B0001B48FEF731FD08211948FEF789FD082153
:1039C0001748FEF7E3FD4FF40060ADF8000040102B
:1039D000ADF802000020ADF804009620ADF8060016
:1039E0000020ADF808004FF40050ADF80A00400088
:1039F000ADF80C0069460A48FEF7D4FA01210848E0
:103A0000FEF704FB01210648FEF70CFBFFF7BAFEA8
:103A10000BB000BD7C010020480000204C000020BD
:103A2000002C014038B50024FE4A0021FE48FDF775
:103A30006AF9FC480B30FFF7FDF8FC490870F948BB
:103A40000068FB49096888427ED1F648007A002860
:103A5000FAD1F448807A0828F6D1F2480B30FFF703
:103A6000E9F8F049897C8842EED100BF06E0ED48D4
:103A70000B30005DEF490855601CC4B2082CF6DB22
:103A8000E848C07A43280FD1E648007B41280BD193
:103A9000E448407B4E2807D1E248807B4F2803D181
:103AA0000120E549087012E0DE48C07A43280ED1B3
:103AB000DC48007B41280AD1DA48407B4E2806D1F9
:103AC000D848807B432802D10020DB490870DA48BF
:103AD0000078002871D0D348C07A4F2825D1D1482A
:103AE000007B4C2821D1CF48407B52281DD101209A
:103AF000D14948710020887108468078A8B90846E5
:103B0000007990B901204870002008718870012167
:103B1000CA48FEF77BFA0020FFF7C8FBC14DAB7B1C
:103B2000EA7B297C687CFFF771FEBE48C07A4F288B
:103B300027D1BC48007B4C2823D1BA48407B4C2875
:103B40001FD10020BC4900E087E348710120887143
:103B500008468078A8B90846007990B901204870D5
:103B60000020087188700121B448FEF74FFA012047
:103B7000FFF79CFBAB4DAB7BEA7B297C687CFFF7B6
:103B800045FEA848C07A43284AD1A648007B502861
:103B900046D1A448407B522805D10120A64948714E
:103BA0000020887117E09F48407B4C2806D10020F8
:103BB000A1494871012088710DE0C1E19948407B1D
:103BC000502808D19C48407828B99B48007910B902
:103BD00001209949C8709848407808BB96480079F8
:103BE000F0B901209449887001219448FEF70EFA3B
:103BF0009148C07850B98B48807B00908948C37B3E
:103C0000027C417C0620FEF705FF09E08548807BA9
:103C100000908448C37B027C417C0720FEF7FAFEBB
:103C20008048C07A432875D17E48007B462871D1F0
:103C30007C48407B52281BD101207F4948710020DD
:103C400088710846407890BB0846807878BB012090
:103C5000087101217948FEF7D9F97248807B0090FC
:103C60007048C37B027C417C0620FEF7D3FE2CE02B
:103C70006C48407B4C281BD100206F4948710120C3
:103C800088710846407890B90846807878B9012054
:103C9000087101216948FEF7B9F96248807B0090FC
:103CA0006048C37B027C417C0620FEF7B3FE0CE03B
:103CB0005C48407B502808D15F48407828B95E486E
:103CC000807810B901205C49C8705B484078B0B971
:103CD0005948807898B901205749087101215748FF
:103CE000FEF794F95448C07850B94E48807B009054
:103CF0004C48C37B027C417C0620FEF78BFE09E02A
:103D00004848807B00904748C37B027C417C072069
:103D1000FEF780FE4348C07A472811D14148007B16
:103D20004B280DD13F48407B502809D13D48807B2E
:103D300000903C48C37B027C417C0020FEF76AFE79
:103D40003848C07A472811D13648007B4B280DD11E
:103D50003448407B492809D13248807B0090314863
:103D6000C37B027C417C0120FEF754FE2D48C07AC3
:103D7000472811D12B48007B4B280DD12948407B87
:103D8000442809D12748807B00902648C37B027CC9
:103D9000417C0220FEF73EFE2248C07A472811D11E
:103DA0002048007B47280DD11E48407B452809D17B
:103DB0001C48807B00901B48C37B027C417C032015
:103DC000FEF728FE1748C07A472811D11548007B16
:103DD00044280DD11348407B452809D11148807BE8
:103DE00000901048C37B027C417C0420FEF712FE49
:103DF0000C48C07A472811D10A48007B44280DD1CD
:103E00000848407B552809D10648807B009005482A
:103E1000C37B027C417C0520FEF7FCFD0148C07A93
:103E200052280DE0A401002000640040B0000020F2
:103E300094000020A0000020B200002000080040F4
:103E40007ED1FE48007B4528FAD1FC48407B5128B2
:103E5000F6D1FA48407C0A28F2D1F848807B412804
:103E60000CD1F648C07B4C2808D1F448007C4C2883
:103E700004D1F3480078401CF1490870F14880787B
:103E800010B9F0480079E8B3EE48C078D0BBEB48F1
:103E9000807B522830D1E948C07B50282CD1E7489C
:103EA000007C562828D1FFF7ADF95220E64908706A
:103EB00050204870562088700120FFF7B5F9E2497C
:103EC000C8700220FFF7B0F9DF4908710320FFF73F
:103ED000ABF9DD4948710420FFF7A6F9DA4988718A
:103EE0000846FEF7A7FED849C8710B460822D748F6
:103EF0000168D748FEF734FFD048807B522832D182
:103F0000CE4800E030E0C07B53282CD1CB48007C69
:103F1000502828D15220CC49087053204870502096
:103F200088700120FEF742FDC749C8700220FEF7E5
:103F30003DFDC54908710320FEF738FDC24900E088
:103F40005DE148710420FEF731FDBF4988710846E4
:103F5000FEF770FEBC49C8710B460822BB480168D9
:103F6000BB48FEF7FDFE72E0B648807810B9B54850
:103F70000079E8B3B348C078D0B3B048807B52280A
:103F800030D1AE48C07B50282CD1AC48007C56289C
:103F900028D1FEF7E1FF5220AB490870502048704D
:103FA000562088700120FFF737F8A749C870022013
:103FB000FFF732F8A44908710320FFF72DF8A24952
:103FC00048710420FFF728F89F4988710846FEF7DA
:103FD00031FE9D49C8710B4608229C4801689C48E7
:103FE000FEF7BEFE9548807B522830D1934800E012
:103FF0002DE0C07B53282AD19048007C502826D140
:104000005220914908705320487050208870012038
:10401000FEF7A8FC8C49C8700220FEF7A3FC8A4971
:1040200008710320FEF79EFC874948710420FEF7C3
:1040300099FC854988710846FEF7FCFD8249C871E4
:104040000B460822814801688148FEF789FE7B48BB
:10405000807B412832D17948C07B4F282ED17748C8
:10406000007C43282AD14120774908704F204870AE
:104070004320887001210020FEF718FC7249C870A7
:1040800002210020FEF712FC6F4908710321002075
:10409000FEF70CFC6C49487104210020FEF706FC79
:1040A000694988710846FEF7C5FD6749C8710B4626
:1040B0000822664801686648FEF752FE5F48807B2A
:1040C000412832D15D48C07B54282ED15B48007C0A
:1040D0004B282AD141205C490870542048704B205D
:1040E000887001210846FEF7E1FB5749C87002219C
:1040F0000120FEF7DBFB5449087103210120FEF784
:10410000D5FB5149487104210120FEF7CFFB4E49F0
:1041100088710846FEF78EFD4B49C8710B46082290
:104120004A4801684A48FEF71BFE4448807B412804
:1041300032D14248C07B49282ED14048007C4D28CE
:104140002AD1412040490870492048704D2088708C
:1041500001210220FEF7AAFB3B49C8700221084654
:10416000FEF7A4FB3849087103210220FEF79EFBED
:104170003549487104210220FEF798FB32498871C5
:104180000846FEF757FD3049C8710B4608222F48F4
:1041900001682F48FEF7E4FD2848807B54282ED183
:1041A0002648C07B44282AD12448007C432826D1B5
:1041B000542025490870442048704320887001200D
:1041C000FFF798FA2049C8700220FFF793FA1E49BA
:1041D00008710320FFF78EFA1B4948710420FFF78E
:1041E00089FA194988710846FEF724FD1649C871F5
:1041F0000B460822154801681548FEF7B1FD0F4827
:10420000C07A4D2829D10D48007B412825D10B4883
:10421000407B532821D10948807B53281DD1074872
:10422000C07B432819D10548007C482815D1034894
:10423000407C452811D1012006490DE0A401002051
:10424000B1000020B2000020A8000020940000204F
:1042500000640040C2000020087038BD00BFFEE7C7
:1042600002E008C8121F08C1002AFAD1704770473F
:10427000002001E001C1121F002AFBD1704700009D
:1042800008B54FF4E010FCF7A9FE3D48FDF710FB20
:104290003B4800683B490860FDF79EFCFEF792FD35
:1042A000FFF700F9FEF728FFFFF7ECF9FEF7C8FA71
:1042B000FFF734FB4FF4FA70FEF79CFDFEF7CAFCE3
:1042C000FFF7B8F84FF4FA70FEF794FDFEF7E2FD41
:1042D000FEF704FC4FF4FA70FEF78CFDFEF70CFAC3
:1042E000FFF7F2FA4FF4FA60FEF784FD2648026801
:1042F0002648016826480068FEF784FB254A2649BF
:104300002648FEF777FB0020034602460146009050
:104310000720FEF77FFB0120FEF7E2FC5220204938
:10432000087045204870512088704120C8704C208A
:10433000087148710A2088710846FEF77BFC18490D
:10434000C87143200870412048704E2088704F206B
:10435000C87000200871487188710846FEF76AFC31
:104360000F49C8714FF40040FFF7CEF84FF47A7050
:10437000FEF740FD4FF40040FFF7C6F800BFFEE730
:104380009001002024000020400000203C0000207C
:10439000380000200AD7233C0000A04000007A44E7
:1043A0001A000020000000000000010000000001D1
:1043B00000010100000000000100000100000001F8
:1043C00001000100000100000001000001000000E8
:1043D00000000000000000000000000100000100DB
:1043E00001000001000000000001010000000100C8
:1043F00000010001010000000100000000010000B8
:10440000000000002444000800000020900100008B
:1044100098080008684400089001002080100000FF
:104420007042000801364748420AD7A33B05166F81
:1044300012833A1AFF01011D82011A210A1A22046D
:104440001A23041A24041A25041A26047A2722019E
:10445000C62D010203040410090607080902040618
:0844600008ACA24A041C291853
:04000005080000ED02
:00000001FF
